:020000040001F9
:10800000003E0020058201001F8201002182010044
:108010000000000000000000000000000000000060
:1080200000000000000000000000000023820100AA
:1080300000000000000000002582010027820100EE
:108040002982010029820100298201002982010080
:108050002982010000000000A9BE01002982010060
:108060002982010029820100298201002982010060
:108070002982010029820100298201002982010050
:108080002982010045CA01002982010029820100DC
:1080900067CA010029820100D1CE010029820100B6
:1080A0002982010029820100000000000000000078
:1080B00000000000000000000000000000000000C0
:1080C00000F002F800F052F80CA030C8083824186C
:1080D0002D18A246671EAB4654465D46AC4201D100
:1080E00000F044F87E460F3E0FCCB64601263342E0
:1080F00000D0FB1AA246AB4633431847C4600000C9
:10810000E4600000103A02D378C878C1FAD8520768
:1081100001D330C830C101D504680C60704700003D
:108120000023002400250026103A01D378C1FBD893
:10813000520700D330C100D50B60704710B56429D9
:1081400002D105F053FB10BD782902D105F084FB64
:1081500010BD732902D105F00DFE10BD002010BD29
:108160001FB5C046C0461FBD10B510BD05F032FE9C
:108170001146FFF7F5FF00F050FE05F04AFE03B48C
:10818000FFF7F2FF03BC05F04FFE0000401E00BFEA
:1081900000BF00BF00BF00BF00BF00BF00BF00BFE7
:1081A00000BF00BF00BFF1D170470000401E00BFFC
:1081B00000BF00BF00BF00BF00BF00BF00BF00BFC7
:1081C00000BF00BF00BFF1D17047000070B5054689
:1081D0000C46164602E00FCC0FC5103E102EFAD208
:1081E000082E02D303CC03C5083E042E07D301CCCE
:1081F00001C5361F03E021782970641C6D1C761EB2
:10820000F9D270BD03210C4802680A4302600B4892
:1082100002680A4302600A4880470A480047FEE7AE
:10822000FEE7FEE7FEE7FEE7FEE700000648074937
:10823000074A084B704700002405004054050040E1
:10824000EF820100C1800100002E0020003E0020CE
:1082500000360020003600202E482F490860704765
:108260002E48008CC0B2012810D12C48808C000709
:10827000000F0BD12948806AF0210840402805D121
:108280002648C06A084201D1012070470020FCE75F
:108290002248008CC0B2012827D12048808C0007DA
:1082A000000F22D11D48806AF021084205D11B48E9
:1082B000C06A084201D1012070471848806AF02145
:1082C0000840102805D11548C06A084201D1012094
:1082D000F2E71248806AF0210840302805D10F48A3
:1082E000C06A084201D10120E6E70020E4E710B5AA
:1082F000FFF7CEFF002805D009480A494860C81397
:1083000009498861FFF7ACFF002802D00120074926
:10831000886010BD0024F40000280020C00F00F089
:10832000DFFF07C000050040006C00400006004071
:1083300004460D46164623462A463146F0A005F06F
:10834000E3F900BFBFF34F8FF748F849C860BFF3A8
:108350004F8F00BF00BFFEE704460D462A46214668
:10836000F348FFF7E5FF30B595B0684602F0BFF877
:10837000044600BF2546002D05D000BFEDA2F04900
:108380002846FFF7D5FF00BF0098002804D0012041
:10839000EC49087015B030BD082110A80172002109
:1083A000017409A8119001A8139011A9E64802F0E0
:1083B00092FD044600BF2546002D06D000BFDDA279
:1083C000DF4910312846FFF7B3FF00BF10A8007A3D
:1083D000002803D110A8007C002803D0DB480078D7
:1083E000012813D0DA48007840084000D8490870C6
:1083F0000846007802218843D5490870A0200881EA
:108400005020488100204860888117E0D0480078DB
:1084100040084000CE490870084600780221884391
:10842000801CCB490870A02008815020488111A8E9
:1084300048601E2088810120C4490870C44886DF36
:10844000044600BF2546002D06D000BFB9A2BC4996
:108450002C312846FFF76CFF00BFBEA005F054F991
:108460001E2001218140BE4AD16000BF00BF91E7BC
:10847000F7B584B0074615460598007815287BD0D7
:1084800008DC11280DD0122847D013285ED01428FC
:1084900073D179E0212871D0222870D02328F7D118
:1084A000B6E0B0A005F030F905984068861CB079B8
:1084B00071793279009201910290F378B2787178F3
:1084C000B04805F021F9B0A005F01EF904223946A4
:1084D000B14805F0B6FA059840680188AF4805F044
:1084E00069F8044600BF0394039C002C05D000BF2C
:1084F00090A2DA210398FFF71BFF00BFA84800787D
:10850000401CA749087008460078012801DAFFF7E7
:108510002AFFA4A005F0F8F88EE0AAA005F0F4F870
:1085200062219E4805F0EAFAAFA005F0EDF89C48FC
:108530000078012801D1FFF716FF99480078401E06
:1085400097490870ADA005F0DFF875E07978B4A020
:1085500005F0DAF8904802F0A5FB044600BF264675
:10856000002E06D000BF73A2FF2107313046FFF76F
:10857000DFFE00BF797803E01DE05CE022E034E03C
:10858000B2A005F0C1F857E0BBA005F0BDF8C548A2
:1085900000F085FE044600BF2646002E06D000BF30
:1085A00064A2FF2110313046FFF7C2FE00BFBEA01B
:1085B00005F0AAF840E0C7A005F0A6F8CEA005F0A7
:1085C000A3F839E0D5A005F09FF800BF2E46002E95
:1085D00006D000BF57A2FF211C313046FFF7A8FE8E
:1085E00000BFD7A005F090F826E0E0A005F08CF8D9
:1085F00000BF2E46002E06D000BF4EA2FF21223122
:108600003046FFF795FE00BFE3A005F07DF813E0CC
:10861000ECA005F079F800BF2E46002E06D000BF72
:1086200044A2FF2128313046FFF782FE00BFF0A0B0
:1086300005F06AF800E000BF00BF002007B0F0BD01
:10864000F0B505460B4600211C680EE0665C481C30
:10865000275CAF4206D1881C20181060701E9080E5
:108660000020F0BD701C091800BF98888842EDD822
:108670000520F6E7F0B585B00646351D3088192887
:1086800037D01B2802D01D2837D10FE228460B30E7
:108690000290A87AC008694688816A4602A9092022
:1086A000FFF7CEFF0446002C05D06A4602A903203E
:1086B000FFF7C6FF0446002C1AD168468288D7A06F
:1086C000009905F091F9002812D187DF0446002CAB
:1086D00003D02146D4A005F017F8DD4A1C49B01D8F
:1086E00088DF0446002C03D02146DAA005F00CF800
:1086F000EEE1A878022801D1C4E1E8E1CFE1000071
:108700005B4150504C5D3A204153534552543A20FE
:1087100025732C2025642C206572726F72203078AE
:10872000253038780D0A00000400FA0500ED00E05D
:10873000EFBEADDE2E2E5C6D61696E2E6300000013
:108740001103000005280020062800200B28002027
:10875000702900205363616E6E696E67200D0A00F8
:10876000000500505B4150504C5D3A203E3E204495
:108770004D5F4556545F434F4E4E454354494F4E0F
:108780000D0A000068DE0100436F6E6E656374655C
:1087900064202E2E2E0D0A0007280020F428002029
:1087A000042800205B4150504C5D3A203C3C204462
:1087B0004D5F4556545F434F4E4E454354494F4ECF
:1087C0000D0A00005B4150504C5D3A203E3E204473
:1087D0004D5F4556545F444953434F4E4E454354B5
:1087E000494F4E0D0A000000446973636F6E6E6559
:1087F000637465642E2E2E0D0A0000005B415050FC
:108800004C5D3A203C3C20444D5F4556545F444902
:1088100053434F4E4E454354494F4E0D0A000000FE
:108820005B4150504C5D3A5B3078253032585D20CA
:108830003E3E20444D5F4556545F53454355524993
:1088400054595F53455455500D0A00005B41505038
:108850004C5D3A5B3078253032585D203C3C2044FA
:108860004D5F4556545F53454355524954595F53E4
:10887000455455500D0A00005B4150504C5D3A2064
:108880003E3E20444D5F4556545F53454355524943
:1088900054595F53455455505F434F4D504C4554C8
:1088A000450D0A00582900205B4150504C5D3A208C
:1088B0003C3C20444D5F4556545F53454355524917
:1088C00054595F53455455505F434F4D504C455498
:1088D000450D0A005B4150504C5D3A203E3E20441D
:1088E0004D5F4C494E4B5F534543555245445F499C
:1088F0004E440D0A000000005B4150504C5D3A2090
:108900003C3C20444D5F4C494E4B5F5345435552D0
:1089100045445F494E440D0A000000005B41505041
:108920004C5D3A203E3E20444D5F4556545F4C49D5
:108930004E4B5F534543555245440D0A000000001D
:108940005B4150504C5D3A203C3C20444D5F4556C5
:10895000545F4445564943455F434F4E5445585430
:108960005F4C4F414445440D0A0000005B415050AC
:108970004C5D3A203E3E20444D5F4556545F444591
:10898000564943455F434F4E544558545F53544FE7
:108990005245440D0A0000005B4150504C5D3A20A6
:1089A0003C3C20444D5F4556545F44455649434541
:1089B0005F434F4E544558545F53544F5245440DF6
:1089C0000A0000005B4150504C5D3A203E3E20447E
:1089D0004D5F4556545F4445564943455F434F4EAE
:1089E000544558545F44454C455445440D0A0000D5
:1089F0005B4150504C5D3A203C3C20444D5F455615
:108A0000545F4445564943455F434F4E544558547F
:108A10005F44454C455445440D0A00006E5246449F
:108A200075696E6F000000005B4150504C5D3A204C
:108A30005363616E2073746F70206661696C656446
:108A40002C20726561736F6E2025640D0A00000092
:108A500060DE01005B4150504C5D3A20436F6E6E0A
:108A6000656374696F6E2052657175657374204615
:108A700061696C65642C20726561736F6E2025647A
:108A80000D0A0000F3A004F03FFEF9480078012829
:108A90000BD10220F6490870FFF765FC05E0A878C5
:108AA000032802D1F3A004F02FFE11E02888A91CAE
:108AB00075DF044600BF2746002F06D000BFF74AE7
:108AC000FF21CB313846FFF733FC00BF00E000BF89
:108AD00000BF05B0F0BD10B50446022C02D0032C37
:108AE0000BD100E000BFEE480078002804D0002041
:108AF000EB490870FFF737FC00E000BF00BF10BD76
:108B000010B50446204602F04DFE2146E54804F02B
:108B100098FD2146E44800F06EFB2146E34800F052
:108B20004CFD2046FFF7A6FD10BD10B504462046BB
:108B300001F03BF92046FFF7CEFF10BD70B500BF36
:108B400000234822DA49092004F07BF9054600BFDA
:108B50002E46002E06D000BFD04A21210901304602
:108B6000FFF7E6FB00BF00BFD24804F09FF90446C0
:108B700000BF2546002D06D000BFC84A85218900C8
:108B80002846FFF7D5FB00BFCB4804F098F9044610
:108B900000BF2546002D06D000BFC04A4321C900B2
:108BA0002846FFF7C5FB00BF70BD7FB501F0A0F9F7
:108BB000044600BF2546002D06D000BFB74A452118
:108BC000C9002846FFF7B4FB00BF012000906846AB
:108BD00001F0C6FF044600BF2546002D05D000BFAA
:108BE000AE4AB6492846FFF7A3FB00BF052102A8FD
:108BF000013004F083FFB2480190022168460172FF
:108C0000407A41084900491C68464172407A022175
:108C10008843811C68464172407A1C218843014682
:108C20000C3168464172407A202188436946487277
:108C3000072101A881711021C171007A400840000C
:108C4000401C01A9087201A8007A02218843801CF7
:108C500001A908729B4801F0F4FF044600BF2546B5
:108C6000002D06D000BF8D4A944916312846FFF7E3
:108C70005FFB00BF7FBD1E200321052212070723D3
:108C80001B02D2188300D15000BF70477047704755
:108C900070B540DF044600BF2546002D06D000BF5A
:108CA0007E4A86494A312846FFF742FB00BF70BD25
:108CB000F0B585B007460C462068012802D002288E
:108CC0001ED113E0804801F0EDFF054600BF2E469F
:108CD000002E06D000BF714A78495A313046FFF75E
:108CE00027FB00BF79A004F00FFD0AE0A18880A057
:108CF00004F00AFDA28888A1684604F013FD00E094
:108D000000BF00BF05B0F0BDF0B585B007460C460A
:108D10002068002804D001282CD002283ED133E05E
:108D200081A004F0F1FC8AA004F0EEFC384600F0CB
:108D300078FC054600BF2E46002E06D000BF574ADD
:108D40005E4987313046FFF7F3FA00BF89A004F08F
:108D5000DBFC384600F059FC054600BF2E46002ECD
:108D600006D000BF4D4A55498C313046FFF7E0FA36
:108D700000BF14E021798BA004F0C6FC227993A1F6
:108D8000684604F0CFFC0AE0217994A004F0BCFC12
:108D900022798EA1684604F0C5FC00E000BF00BF48
:108DA00005B0F0BD38B59748009069463E4800F0E0
:108DB000EFF9044600BF2546002D06D000BF374A14
:108DC0005D21C9002846FFF7B3FA00BF38BD38B5AA
:108DD0008D4800906946354800F0CAFB044600BF44
:108DE0002546002D06D000BF2C4A3449C7312846FD
:108DF000FFF79EFA00BF38BD70B504F0ABFB044628
:108E000000BF2546002D06D000BF244A03210902D9
:108E10002846FFF78DFA00BF70BD00F07BFCFFF71E
:108E20002AFF1E2001218140784A916000BF78A06E
:108E300004F06AFCFFF72BFFFFF780FEFFF7B5FE9B
:108E4000FFF7DAFFFFF7AEFFFFF78DFA00BFFFF77E
:108E50001FFFFCE75B4150504C5D3A205363616E4D
:108E60002074696D6564206F75742E0D0A00000012
:108E70000B2800205B4150504C5D3A20436F6E6ED2
:108E8000656374696F6E20526571756573742074C3
:108E9000696D6564206F75742E0D0A0034870100BA
:108EA00005280020F42800205829002064290020EB
:108EB000AC280020018B01002B8B01002F02000049
:108EC0007184010006280020072800205B73696D6B
:108ED0006F6E5D20646973636F7665727920636F6E
:108EE0006D706C657465642E2E2E0D0A00000000F6
:108EF0005B4150504C5D3A204852204D656173757E
:108F000072656D656E74207265636569766564204F
:108F10002564200D0A0000004865617274205261CA
:108F200074652025640000005B4150504C5D3A2080
:108F30004261747465727920536572766963652045
:108F4000646973636F76657265642E200D0A000094
:108F50005B4150504C5D3A2052656164696E6720F8
:108F600062617474657279206C6576656C2E200D73
:108F70000A0000005B4150504C5D3A20456E616232
:108F80006C696E672042617474657279204C6576F5
:108F9000656C204E6F74696669636174696F6E2ECB
:108FA000200D0A005B4150504C5D3A2042617474C0
:108FB000657279204C6576656C20726563656976AB
:108FC00065642025642025250D0A00004261747423
:108FD0006572792025642025250000005B415050F2
:108FE0004C5D3A2042617474657279204C657665F7
:108FF0006C20526561642061732025642025250D55
:109000000A000000B18C0100098D0100000500502C
:1090100073746172742068727320636F6C6C656323
:10902000746F72200D0A000010B5A3480068A349B0
:10903000096888423DD0A048006818214843A049EB
:1090400040184068002810D19B4A126818235A43E0
:109050000B46D2181189984A126818235A43984B24
:10906000985A002295DF04460FE0934A12681823AD
:109070005A43934BD21811460C318F4A1268182369
:109080005A438F4B985A97DF0446002C0DD18DA080
:1090900004F03AFB88480068401C8749086008468D
:1090A00000784007400F086002E0924804F02CFB73
:1090B00000BF10BD70B504460D46FFF7B5FF70BD8B
:1090C0007CB505460C46A089A98888421FD1002698
:1090D000022000903146761C20461230405C304021
:1090E00007D13146761C20461230405C69468880A4
:1090F00008E02146123188190178427812021143A2
:109100006846818069462846AA68904700BF7CBDB2
:109110007CB50446A088784909680880002526E0C7
:109120000C202A46424320460E30815A73A004F098
:10913000EBFA0C202946414320460E30405A0228C3
:1091400014D10C202946414320460E30081840898E
:109150006949096848800C202946414320460E3061
:109160000818008964490968888003E06D1C207B29
:10917000A842D5D800BF6EA004F0C6FA0120009026
:109180005D480068694682685B48006890477CBD1E
:1091900070B586B004460D46002C01D0002D02D1DA
:1091A0000E2006B070BD534B103B0FCB02AE0FC666
:1091B0006C4902A862DF06466A4801786AA004F09A
:1091C000A3FA6848017868468171012181804A4884
:1091D000046049492868096888600020C0434649FE
:1091E000096808800020444909684880694901A845
:1091F00004F0C6F9D5E770B505460C46002D01D040
:10920000002C00D170BD2088102804D037280AD047
:1092100038280DD102E0A08828800AE0214628469F
:10922000FFF74EFF05E021462846FFF743FF00E029
:1092300000BF00BF00BFE5E7F7B50646154632465A
:109240002C485C30019904F05FFA2F461B480068F7
:109250001A490968491C194A1160182148431849DC
:109260004418104600784007400F114608600199E5
:10927000E181022161822146083161610021218260
:10928000012121732772FF20000238400112617210
:10929000268001206060FFF7C7FE0020FEBD10B5EC
:1092A0000446002C01D10E2010BD618820880122C7
:1092B000FFF7C2FFF8E70000102800200C2800206C
:1092C000802900205B4852535F435D3A205344207D
:1092D000526561642F57726974652041504920724C
:1092E000657475726E7320537563636573732E2E88
:1092F0000D0A0000BCDE0100142800205B73696DBC
:109300006F6E5D2023232323232323232320666FD3
:10931000756E64206368726163203D20256420239C
:10932000232323232323232323232323230D0A005F
:109330005B4852535F435D3A204E6F72646963200D
:109340005541525420536572766963652064697390
:10935000636F766572656420617420706565722E36
:109360000D0A0000182800205B626C655F6872734C
:109370005F635F696E69745D2009096D5F62617387
:10938000655F757569645F74797065203D2025643B
:10939000200D0A001191010010B5B0480068B049D5
:1093A000096888423DD0AD48006818214843AD495E
:1093B00040184068002810D1A84A126818235A4360
:1093C0000B46D2181189A54A126818235A43A54B97
:1093D000985A002295DF04460FE0A04A126818232D
:1093E0005A43A04BD21811460C319C4A12681823DC
:1093F0005A439C4B985A97DF0446002C0DD19AA0F3
:1094000004F082F995480068401C944908600846B9
:1094100000784007400F086002E09F4804F074F9AC
:1094200000BF10BD70B504460D46FFF7B5FF70BD17
:109430007CB504460D462E460C363088A1888842FD
:1094400008D102200090B079694608712046A268D0
:10945000904700BFFFF7A0FF7CBD7CB504460D46DA
:10946000A889A188884208D101200090A87C69467B
:1094700008712046A268904700BF7CBD7CB50446B9
:10948000206800283DD120898449884239D1A07ABA
:10949000012836D1A08882490968088000251FE08C
:1094A0000C202946414320460E30405A7D498842CF
:1094B00014D10C202946414320460E30081840891B
:1094C0007749096848800C202946414320460E30E0
:1094D0000818008972490968888004E0681CC5B2D0
:1094E000207BA842DCDC00BF6FA004F00DF9002057
:1094F00000906B4800686946826869480068904738
:1095000002E075A004F000F97CBDF7B506461546EB
:10951000324661485C30019904F0F6F82F46504815
:1095200000684F490968491C4D4A11601821484399
:109530004C494418104600784007400F1146086017
:109540000199E18102216182214608316161002196
:109550002182012121732772FF200002384001126D
:109560006172268001206060FFF716FF0020FEBDBB
:1095700038B504460D46002C01D0002D01D10E2037
:1095800038BD012168468170444901804448046027
:109590000020C0434249096808800020404909680A
:1095A00048803F49096888803D4928680968886083
:1095B0005749684603F0E4FFE2E770B505460C46FC
:1095C000002D01D0002C00D170BD2088102806D0BD
:1095D000352811D037280AD0382812D102E0A088C7
:1095E00028800FE021462846FFF737FF0AE0214692
:1095F0002846FFF717FF05E021462846FFF718FF2A
:1096000000E000BF00BF00BFDEE710B50446002C3D
:1096100001D10E2010BD618820880122FFF775FF5F
:10962000F8E770B504460E4800680D490968491C02
:109630000B4A1160182148430A4945181046007822
:109640004007400F11460860A088288120882880A4
:1096500000206860FFF7A0FE002070BD20280020D9
:109660001C2800205C2A00205B4241535F435D3A86
:1096700020534420526561642F57726974652041FC
:1096800050492072657475726E73205375636365FB
:1096900073732E2E0D0A000060DF01000F1800000A
:1096A00024280020192A00005B4241535F435D3AA1
:1096B00020426174746572792053657276696365BE
:1096C00020646973636F76657265642061742070CD
:1096D0006565722E0D0A00005B4241535F435D3A9F
:1096E000204261747465727920536572766963658E
:1096F00020646973636F76657279206661696C7541
:10970000726520617420706565722E200D0A00005C
:109710007D94010008B5002007230922082100904C
:109720000A2000F069F808BD70B504460D46E0B2A5
:1097300000F047F8204670BD70B505460E4608A0FB
:1097400003F0E2FF002404E0295D06A003F0DCFF43
:10975000641CB442F8D302A003F0D6FF70BD000031
:109760000D0A0000307825303258200000BF4248F2
:1097700080680128FBD100203F4988603F4880690C
:10978000C0B2704770B504460D4601260AE0204677
:10979000641E002804DB7D20C000FEF7F7FC01E01A
:1097A000002603E0344880680128F0D100BF002C77
:1097B00005DB0020304988603048806928703046D9
:1097C00070BD2E49C86100BF2B49C9690129FBD171
:1097D0000021294AD161704730B50346002528464B
:1097E0006D1C1C5C05E02046FFF7EBFF28466D1C56
:1097F0001C5C002CF7D130BDF8B507460C46154669
:109800001E46204600F025F80021304600F02AF8D8
:109810001A48C4604661069800280DD0384600F00A
:1098200018F80021284600F01DF8144805618760EB
:10983000012012494031C862114810494862042091
:10984000086001200F498860086000200A4988608C
:10985000F8BD03210522120707231B02D21883003B
:10986000D150704710B58A0005231B070724240236
:109870001B1984001A5110BD002100400025004032
:1098800000509D0000200040002314214143F94A6C
:1098900053541421414389184B800123142141431F
:1098A00089188B600023142141438918CB6014214F
:1098B000414389180B611421414389188B807047FB
:1098C00010B50020EC490880EC490860E949091FFF
:1098D000087048708870002403E02046FFF7D4FF2A
:1098E000641C0A2CF9D310BDFFB583B004460F46A3
:1098F00015460326E148006800280BD1002D06D14B
:109900000698002803D10220DC49086002E001200B
:10991000DA490860D9480068030004F08CFA07FCB3
:1099200005304D82B7D4FC00D5484069401C08D0B2
:1099300001221207126991B2D14A506904F0E2F88B
:1099400002E0012000074069401E01210907096962
:1099500089B2484302900120000700690004820C8C
:1099600001200007006980B278430146029821DF98
:109970000646002E02D10220C0490860CCE03846DD
:1099800020DF0646002E16D1002D11D106980028A2
:109990000AD12078042803D10720B84908600AE0DA
:1099A0000520B649086006E00420B449086002E0DA
:1099B0000320B2490860AFE0B1484069401C08D0BC
:1099C00001221207126991B2AD4A506904F09AF867
:1099D00002E0012000074069401E012109070969D2
:1099E00089B24843012109070290096989B2794384
:1099F00008462A46029921DF0646002E10D1069815
:109A000000280AD12078042803D106209B49086049
:109A100006E005209949086002E0042097490860A3
:109A20007AE097484069401C08D001221207126969
:109A300091B2934A506904F065F802E001200007F2
:109A40004069401E01210907096989B24843A900FC
:109A5000401861884018012109070290096989B2FC
:109A60007943AA00891862888818069A029921DF2A
:109A70000646002E09D12078042803D106207F490C
:109A8000086002E005207D49086045E001200007EC
:109A9000006980B27843AB00C018029060888208E9
:109AA0002169029821DF0646002E0BD1002D06D138
:109AB0000698002803D107207049086002E00620BC
:109AC0006E49086028E06E484069401C08D00122B9
:109AD0001207126991B26A4A506904F013F802E061
:109AE000012000074069401E01210907096989B268
:109AF0004843019001200007006981B2019804F0F9
:109B000001F8029020DF0646002E02D107205B49B3
:109B1000086001E0FFE700BF00BF304607B0F0BDBE
:109B2000F0B585B00F275348001F00781421484333
:109B300050494418E5682078022804D0042823D02E
:109B400005286FD16FE0206903904B48008886029A
:109B50006088801B0490039880190390A088801966
:109B60004519012189020498884206D20498820886
:109B70002846039921DF074605E0FF2201322846E7
:109B8000039921DF074680E0A06800013D494018A5
:109B900000890490A0680001401840890390A068E3
:109BA00000014018406802900298A84205D103992C
:109BB000049848436188884202D0A06802280DD1E9
:109BC00001200007006981B2284603F09BFF2A4963
:109BD00009884618304620DF074622E001200007AA
:109BE000006981B2284603F08DFF06460120000778
:109BF000006980B27043281A800801900120000794
:109C0000006980B2711C484361884919401A800874
:109C1000009031462046009B019AFFF765FE0746FB
:109C200000BF32E030E001200007006981B2284621
:109C300003F068FF0646A08841190120000700696B
:109C400080B27043081A80080490A0884019618887
:109C5000421801200007006980B2711C4843801A35
:109C60008008039031462046039B049AFFF73CFE90
:109C700007460AE0202B0020382800203C2800203E
:109C800000100010E82B002000BF00BF002F02D101
:109C90000120F7498870384605B0F0BDFFB581B0A6
:109CA000064617460024F24840780A2837D0F04884
:109CB0000078EF4949784018C4B20A2C02DB2046EC
:109CC0000A38C4B214206043E949091D0E54142017
:109CD000604340180761142060434118029805C88A
:109CE000CA60886014206043E14A121D80180499FC
:109CF00041801420604380180A9981800025101F3C
:109D00008078002805D1FFF70BFF0546112D00D103
:109D10000025D7484078401CD549487000E004250C
:109D2000284605B0F0BD10B50024D1484078002881
:109D300007DDFFF7F5FE0446002C02D0112C00D100
:109D40000024204610BDF8B50446C9480078142107
:109D50004843C749091D0E5C081F00781421484379
:109D6000C349091D401880680001C2490D58C04808
:109D7000007814214843BE49091D40184088091F36
:109D80000090097814225143B94A121D89180B69B1
:109D9000111F097814225143B54A121D891808462B
:109DA000083022463146A847F8BDFEB505460026D4
:109DB000AF48807801287DD10020AD498870AE4839
:109DC0000068082811D1022D03D10020AA4908609B
:109DD00002E00020A9490870FFF7A5FF0646002E03
:109DE00002D03046FFF7AFFFFEBD022D02D0032D9B
:109DF00079D174E09E480078142148439C49091D9C
:109E000044189F480088401C9D49088020780228FB
:109E100007D10846008880026188884201DB012062
:109E200000E0002007462078052805D19248006808
:109E3000072801D1012000E00020029020780428AA
:109E400005D18D480068072801D1012000E00020DD
:109E50000190207804280BD189480088800261880D
:109E6000884205DB84480068002801D1012000E019
:109E7000002000900298002807D10198002804D102
:109E80000098002801D1002F1FD000207A490860D7
:109E90003046FFF758FF76490878FFF7F5FC0020B9
:109EA0007749088072484078401E714948700846DA
:109EB000007800E01AE0401C0870084600780A2884
:109EC00003DB084600780A380870FFF72CFF0646C7
:109ED000002E02D03046FFF736FF05E003E00D20EC
:109EE000FFF731FF00E000BF00BF00BF00BF7BE70E
:109EF00070B5FFF7E5FC00206249088062484069C0
:109F0000401C08D001221207126991B25E4A5069C2
:109F100003F0F8FD02E0012000074069801E0121E6
:109F20000907096989B24843584908600020544923
:109F3000088000BF0DE0002102014E4B9950020144
:109F4000D21811810201D21891810201D2185181D7
:109F5000401C0028EFD00820474908604A48406963
:109F6000401C08D001221207126991B2464A50697A
:109F700003F0C8FD02E0012000074069401E0121F6
:109F80000907096989B248430646012000070069AC
:109F900081B2304603F0B6FD054620DF0446002CB2
:109FA00004D101203249887034490870204670BDC0
:109FB000F8B504460D4600BF30480078002801D1AE
:109FC0000820F8BD00BF002C01D10E20F9E7002DBC
:109FD00001D10E20F5E72068002801D10E20F0E71E
:109FE000A08801210907096989B2884202DCA0889A
:109FF000102801DA0720E4E7E08800282FD0224863
:10A000004069401C08D001221207126991B21E4A11
:10A01000506903F077FD02E0012000074069401E0F
:10A0200001210907096989B24843E188A28851439F
:10A03000164A12688918884211D3E088A1884843DB
:10A0400001210907096989B288420ADDA188012234
:10A050001207126990B203F05FFD002901D00720BA
:10A06000AFE720798007800F12D00720A9E7000012
:10A070001C2B0020E82B00203C280020302800204A
:10A08000382800203228002000100010342800203A
:10A09000FE480088012801D1042092E7FB4800888F
:10A0A0002860FB4800686860F84909880901F94A96
:10A0B000891868684860F549098809012068505086
:10A0C000A088F2490988090189180881E088EF49C8
:10A0D00009880901891848810027A688E1884E432C
:10A0E00000BF781C87B201200007006980B2B0422F
:10A0F00005D201200007006980B2361A00E0002670
:10A1000001200007006980B2E14909684018E04970
:10A11000086001200007006980B2B042E1D9DB4845
:10A1200000880001DB4940188781D8480088401C1E
:10A13000D6490880002044E73CB5034600BFD64816
:10A140000078002801D108203CBD00BF002B01D1C0
:10A150000E20F9E7002A01D10E20F5E71868002843
:10A1600005D118680001CB4C2058002801D10720E8
:10A17000EAE75C68186801940090019C1868000187
:10A18000C44D4019008948432018019000980001EF
:10A190002C4600194089009C2401641924896043DD
:10A1A000009C2401641964680019019CA04201D834
:10A1B0000720C9E7019C0098546010600020C3E7A5
:10A1C000F8B504460E4615461F4600BFB248007853
:10A1D000002801D10820F8BD00BF002E01D10E20BB
:10A1E000F9E7002C01D10E20F5E72068002805D101
:10A1F00020680001A7490858002801D10720EAE794
:10A2000020680001A3494018408921680901A14A3A
:10A210008918098948432168090189184968401843
:10A220006168884201D80720D5E7002D06D0206854
:10A230000001984940180089A84201DA0720CAE7BE
:10A24000E81921680901934A89180989884201DDC2
:10A250000720C0E7304600F05CF9002804D03846FB
:10A2600000F057F9002801D11020B4E7606800F031
:10A2700050F9002801D11020ADE72B463246214687
:10A2800002200097FFF70AFDA5E7F8B504460E4641
:10A2900015461F4600BF80480078002801D10820DD
:10A2A000F8BD00BF002E01D10E20F9E7002C01D12E
:10A2B0000E20F5E72068002805D1206800017549C7
:10A2C0000858002801D10720EAE7206800017149F9
:10A2D00040184089216809016E4A89180989484354
:10A2E000216809018918496840186168884201D8C5
:10A2F0000720D5E7002D06D02068000165494018E9
:10A300000089A84201DA0720CAE7E8192168090193
:10A31000604A89180989884201DD0720C0E7304674
:10A3200000F0F7F8002804D0384600F0F2F80028D2
:10A3300001D11020B4E7606800F0EBF8002801D1EB
:10A340001020ADE72B463246214605200097FFF747
:10A35000A5FCA5E7FFB581B00C4615461E4600BF1B
:10A360004D480078002802D1082005B0F0BD00BF9C
:10A37000002C01D10E20F8E70198002801D10E2011
:10A38000F3E72068002805D12068000141490858FA
:10A39000002801D10720E8E7206800013D49401866
:10A3A0004089216809013B4A891809894843216885
:10A3B00009018918496840186168884201D8072056
:10A3C000D3E7002D06D020680001324940180089EB
:10A3D000A84201DA0720C8E7A819216809012D4A17
:10A3E00089180989884201DD0720BEE7019800F03D
:10A3F00090F8002804D0304600F08BF8002801D1F6
:10A400001020B2E7606800F084F8002801D1102025
:10A41000ABE7606881192A46019803F012FB0095AA
:10A42000206800011B490F58002203212046019B90
:10A43000B847002099E7F8B504460D4600BF164816
:10A440000078002801D10820F8BD00BF002C01D100
:10A450000E20F9E72068002805D1206800010D4989
:10A460000858002801D10720EEE7206800010949BB
:10A470004018408921680901064A8918098948431A
:10A480002168090189184968401807E0322800202E
:10A4900034280020E82B0020302800206168884202
:10A4A00001D80720D0E7606800F033F8002801D118
:10A4B0001020C9E723681B011A4FDB1962685B682B
:10A4C000D01A226812013B46D218118903F01AFBF8
:10A4D000002901D00720B7E700202B46024621467D
:10A4E00000900420FFF7DAFB06463046ACE7014651
:10A4F00000BF0D480078002801D10820704700BF38
:10A50000002901D10E20F9E70848407808600020B2
:10A51000F4E701468807800F01D101207047002031
:10A52000FCE70000E82B0020302800201C2B002036
:10A5300010B5044601210C206043FA4A801881724C
:10A54000891E0C20604380180181FF210C2060438C
:10A550008018C1720C2161438818072103F0CEFADC
:10A5600010BD10B5044618216143EF4A891808460A
:10A570001130062103F0C2FA18206043EA4940185E
:10A580000021016041608160C160FF2118206043AB
:10A59000E54A80180174182060438018C175204670
:10A5A00001F0AEFB0020A100E04A505010BD70B594
:10A5B00003460C460820002114E00C254D43D94EDB
:10A5C000AD19AD7A25420CD0D94DAB4205D00C2542
:10A5D0004D43AD192D899D4202D11160002003E049
:10A5E0000520491C0029E8D000BF70BD7CB5054698
:10A5F000A9B26A46CF48FFF79FFD0446002C09D157
:10A600005C216846FFF717FF0446002C02D128465C
:10A61000FFF7A7FF20467CBDF8B505460E46052787
:10A6200000240FE018216143BF4A89180846103002
:10A630000722294603F0D8F9002802D13460002708
:10A6400002E0641C072CEDD300BF3846F8BD10B5FE
:10A650000446002010BDFEB504460E46A1786A46A9
:10A66000B448FFF769FD0546002D49D160780C21FB
:10A670004843AC494018807A40210840402801D026
:10A68000022E01D1AC4F04E0012E01D1AB4F00E00E
:10A69000AB4FA07818225043A34A811800231822F8
:10A6A0006846B8470546002D1AD1022E18D06078AA
:10A6B0000C2148439B494018807A402188436178A7
:10A6C0000C225143974A8918887260781C225043A3
:10A6D0009C4A811818231C226846B847054600BFCB
:10A6E000022E0DD020780C21484397494018807ADB
:10A6F000800096490A58214668469047054600BFA3
:10A70000FEBDFEB507460C460620029061780C227D
:10A710005143844A8918088902AA6946AADF064675
:10A72000002E45D161780C225143894A8918081DB1
:10A7300069460A8903F058F9002813D160780C2182
:10A74000484378494018807A0221084002282FD0D7
:10A7500060780C2148437E49401800210160416027
:10A76000816025E060780C21484379490858002829
:10A7700001D0714D00E0714D6946098960780C2265
:10A780005043734A115061780C225143704A891822
:10A79000081D69460A89FDF719FD60780C225043AF
:10A7A0006B4A811834230C223846A847064600BF5E
:10A7B0000020FEBD02460020704770B505460C46DD
:10A7C00061780C225143624A881834230C222946AE
:10A7D000FFF7C0FD0646002E0CD160780C214843DF
:10A7E0005B490858401C05D1002160780C22504379
:10A7F000574A1150304670BD024600207047F8B5E8
:10A8000004460026002760780C2148435049085828
:10A8100000281FD060780C21484342494018807AB4
:10A8200080210840802815D160780C2148433D499B
:10A830004018807A4021084040280BD060780C21D5
:10A84000484343494018061D60780C21484340495D
:10A85000085A87B261780C225143324A8918088914
:10A860003A463146A9DF0546002D00D0394D28462D
:10A87000F8BD01460020704770B5044622780C23CD
:10A880005A43314BD218111D62780C235A43254B81
:10A89000D21810897EDF0546002D29D120780C21A1
:10A8A000484329494018407A0121084321780C2265
:10A8B0005143254A8918487260780C214843194948
:10A8C0004018807A0421084361780C225143154ACC
:10A8D0008918887260780C21484311464018807AA4
:10A8E0002021884361780C2251430E4A89188872CE
:10A8F000284670BD0146002902D1164833387047FA
:10A90000FF20087048708870C8700020F7E7FFB516
:10A910008FB01D4600BF0C48006800281CD113B042
:10A92000F0BD0000E42C0020142C0020F82B0020A7
:10A93000FFFF0000442800208BA20100C1A10100FC
:10A940004FA60100BC2C0020F02C002004E00100E8
:10A95000D82C00204180000000BF18985C2801D945
:10A9600013B0F0BD012006900BA8FFF7C3FF064609
:10A9700000BF3746002F06D000BFFB4AFB493846D0
:10A98000FDF7D6FC00BF00BF002108A801730174C9
:10A990000A9518980990002712E0B9B207AAF4485E
:10A9A000FFF7CAFB0646002E09D1082207A90F9817
:10A9B00003F01AF8002802D108A98F7302E07F1C67
:10A9C000072FEAD300BF08A8807BFF2877D0109814
:10A9D00004280AD118985C2803D1202008A90874FB
:10A9E00098E0402008A9087494E0E249681A182108
:10A9F00003F088F80446072C1CD209A80D90119882
:10AA000000280FD108A9887B01218140DA4A126809
:10AA1000114201D0012100E00021002902D10020D3
:10AA2000069077E008A9887B01F06AF9202008A940
:10AA300008746FE0D149681A1C2103F063F80446DA
:10AA4000002C1AD109A80D90202108A80174447384
:10AA500000200390CA4904911C206043C749401854
:10AA6000009008A8807B18214843C24940180190F3
:10AA700068460A90182009904CE0C249681A0C21D7
:10AA800003F040F80446002C1AD1302108A80174C4
:10AA900044730121C1730C206043BB494018807A84
:10AAA00002210840022835D008A8407B0C214843E9
:10AAB000B449401800210160416081602AE04DE006
:10AAC00000200690402008A90874B048854204D1AF
:10AAD00004201090012006901CE008A8807B8000D4
:10AAE000AB490858A84215D10120069009A80D903D
:10AAF00000200CE008A98A7B0C214143A24BC91815
:10AB0000C97A8A4202D108AA507302E0401C002888
:10AB1000F0D000BF0698002820D01098042806D155
:10AB200008A9087C0321084308A908740FE01098BD
:10AB3000032806D108A9087C0121084308A9087444
:10AB400005E008A9087C0221084308A9087409A89F
:10AB50000D900CA90BA8119A01F015F900BFFFE6A2
:10AB60007FB50646002E02D18A4804B070BD00248D
:10AB70000FE000BF00210C206043874A11500C20D9
:10AB80006043801841720C2060438018817200BFBE
:10AB9000641C002CEDD0002403E02046FFF7C8FC25
:10ABA000641C002CF9D0774800210160416081606D
:10ABB000002403E02046FFF7D4FC641C072CF9D3E3
:10ABC0005C21684681810721C181744802906849EF
:10ABD00002A8FFF7EDF90546002D30D1012070499C
:10ABE00008703078002821D100241CE0A1B26A4608
:10ABF0005F48FFF7A1FA0546002D0FD118216143E8
:10AC00005C4A8818002318226946FFF7A3FB054613
:10AC1000002D07D000206249087006E0002060493E
:10AC2000087002E0641C072CE0D308E06A469089B3
:10AC3000D289504381B24E48FFF7FDFB05462846B6
:10AC400093E770B505460C4600BF554800780028CC
:10AC500002D15048801F70BD00BF002D01D14D486A
:10AC6000F9E7002C01D14B48F5E72068002801D115
:10AC70004848F0E74848006800280FD14649206856
:10AC800008600522611D4448001D02F0DAFE2079AB
:10AC90004149887200202870002601E03D4E0A3E9E
:10ACA0003046D8E7F8B5044600BF3D480078002894
:10ACB00002D13848801FF8BD00BF002C01D13548B3
:10ACC000F9E700BF2078012806DA20780C214843F4
:10ACD00031490858002802D12E48801FEBE700BFF9
:10ACE00000BF6078012807DA60780C2148432649C4
:10ACF0004018807A012802D12648801CDBE700BF7B
:10AD0000244DAD1F60780C2148431F494018807ABC
:10AD100002210840022825D1A078FF2807D16078B9
:10AD20000C21484318494018C07AFF283AD060786F
:10AD30000C21484314494018C07AA07063781C263F
:10AD400073430E4E9A1963781C2673430B4E9B195E
:10AD50001946123163780C2673430B4E9B191889E0
:10AD600081DF05465FE0000038E001005B05000080
:10AD700044280020142C00204C280020BC2C00204B
:10AD8000FC2C0020D82C0020E42C002034E0010012
:10AD9000F82B00200E800000F02C00200FA90100ED
:10ADA0004028002060780C225043F74A81186846FA
:10ADB00000F0AEFF0546002D34D16846017860787A
:10ADC0000C225043F04A8018C17268460078A07087
:10ADD00020780C214843ED494018407AC007C00F45
:10ADE0001CD060780C21484311464018807A2021FD
:10ADF000084361780C225143E34A8918887220780D
:10AE00000C214843E1494018407A02210843217847
:10AE10000C225143DD4A8918487203E02046FFF7AF
:10AE20002BFD054600BF284645E7024600BFD8482F
:10AE30000078002801D1D748704700BF002A02D10E
:10AE4000D448801DF8E7002902D1D248801DF3E7DD
:10AE500000BF1078012806DA10780C235843CB4B3A
:10AE60001858002801D1CB48E6E700BF00BF507852
:10AE7000012807DA50780C235843C34BC018807A56
:10AE8000012802D1C3480830D6E700BF50780C2310
:10AE90005843BD4BC018807A0423184208D150781B
:10AEA0000C235843B84BC018807A2023184202D094
:10AEB000012008600DE050780C235843B24BC018B5
:10AEC000807A8023184202D00220086001E000202E
:10AED00008600020B0E7F8B5044600BFAC48007831
:10AEE000002801D1AB48F8BD00BF002C02D1A94811
:10AEF000801DF8E7002902D1A648801DF3E7086805
:10AF0000002802D1A348801DEDE78868002802D1FF
:10AF1000A048801DE7E700BF2078012806DA2078E6
:10AF20000C256843994D2858002801D19948DAE743
:10AF300000BF002200230020009000BF43E0002556
:10AF4000009500BF12E00C266E438F4FF619F67A7B
:10AF500086420AD10C266E43F619B67A02273E4085
:10AF6000022E02D10126009602E06D1C002DEAD0CF
:10AF700000BF009D002D25D10D7B9D420ED91825C7
:10AF80004543854EAD19ED7DED07ED0F06D1182532
:10AF90004543AD199F008E68F5515B1C0D799542B4
:10AFA00010D9182545437C4EAD19ED7D022635425A
:10AFB00008D118254543784EAD19103597000E6815
:10AFC000F551521C401C0728B9D30A710B7300209D
:10AFD00089E702466F488830704770B5044600BF65
:10AFE0006B480078002801D16A4870BD00BF002C72
:10AFF00002D16848801DF8E700BF2078012806DAF2
:10B0000020780C21484361490858002801D1614843
:10B01000EBE700BF00BFA078072807DAA078182167
:10B0200048435D494018C07DFF2802D15948083087
:10B03000DBE700BFA078FFF7D9FA05462846D4E73A
:10B0400070B5044600BF52480078002801D151482D
:10B0500070BD00BF002C02D14E48801DF8E700BF34
:10B060002078012806DA20780C21484347490858FF
:10B07000002801D14748EBE700BF002600250BE080
:10B080001820684344494018C07DFF2803D0284653
:10B09000FFF7ACFA06466D1C072DF1D33046D7E713
:10B0A000FEB504460D4600BF39480078002801D19E
:10B0B0003848FEBD00BF002C02D13648801DF8E79D
:10B0C000002D02D13348801DF3E700BF207801280E
:10B0D00006DA20780C2148432C490858002801D171
:10B0E0002C48E6E700BF00BF6078012807DA6078E7
:10B0F0000C21484324494018807A012802D1254870
:10B100000830D6E700BF00BFA078072807DAA0788C
:10B110001821484320494018C07DFF2802D11D480E
:10B120000830C6E700BFA868002812D06868002869
:10B130000FD0686806280CD22878012809D16378D6
:10B140000C277B43154FDB19181D6A68A96802F0AC
:10B1500078FCA1786A461248FEF7EEFF064628788A
:10B16000800010490A5821466846904706463046F6
:10B170009FE77CB504460D4600BF054800780028CF
:10B1800012D104487CBD0000E42C0020F02C0020EB
:10B190004028002008800000142C0020D82C00201B
:10B1A0004428002004E0010000BF002C01D1F74832
:10B1B000E8E7002D01D1F548E4E700BF2078012839
:10B1C00006DA20780C214843F1490858002802D1BA
:10B1D000EE48801FD6E700BF00BFA078072807DA37
:10B1E000A07818214843EB494018C07DFF2802D1C0
:10B1F000E648801CC6E700BF60780C214843E6495A
:10B200004018807A02210840022802D0DF488330AB
:10B21000B8E7A868002812D1686806280FD22878F5
:10B2200001280CD160780C214843DC494018001DEE
:10B23000A86060780C214843D84908586860A17814
:10B240006A46D748FEF778FF064628788000D54939
:10B250000A582146684690470646304692E701461E
:10B2600000BFD1480078002802D1C848801F70472D
:10B2700000BF002901D1C548F9E700BF08780128BF
:10B2800006DA08780C225043C14A1058002802D12F
:10B29000BE48801FEBE700BF00BF8878072807DAA9
:10B2A000887818225043BB4A8018C07DFF2802D1FD
:10B2B000B648801CDBE700BFB4488230D7E7FEB554
:10B2C00004460D4600BFB8480078002802D1AF48B8
:10B2D000801FFEBD00BF002C01D1AC48F9E7002D56
:10B2E00001D1AA48F5E76868002801D1A748F0E72E
:10B2F00000BF2078012806DA20780C214843A449B1
:10B300000858002802D1A148801FE2E700BF00BF13
:10B31000A078072807DAA078182148439D494018EB
:10B32000C07DFF2802D19948801CD2E700BF286861
:10B33000042801D20720CCE79C4FA1786A469848A0
:10B34000FEF7FAFE0646002E22D144230422694667
:10B3500002A8FEF7FFFF0646002E03D10298401C0C
:10B3600000D0934F4423042229466846B847064636
:10B37000002E0DD14823142268466968FEF785FF28
:10B380000646002E04D1A17889008A4A6868505088
:10B3900030469EE7FEB504460D4600BF8248007861
:10B3A000002802D17948801FFEBD00BF002C01D1CA
:10B3B0007648F9E7002D01D17448F5E700BF207801
:10B3C000012806DA20780C214843714908580028E2
:10B3D00002D16E48801FE7E700BF00BFA0780728B2
:10B3E00007DAA078182148436A494018C07DFF2831
:10B3F00002D16648801CD7E700BF6868002805D1E5
:10B40000A07880006B490858686004E0A178890042
:10B41000684A68685050A1786A466148FEF78CFE19
:10B420000646002E19D144230422694602A8FEF7DD
:10B4300091FF0646002E0ED10298401C0BD04823E7
:10B44000142269466868FEF785FF0646002E04D17F
:10B450000298286001E04D4E32363046A4E73EB5F2
:10B46000044600BF50480078002802D14748801F9A
:10B470003EBD00BF002C01D14448F9E700BF207851
:10B48000012806DA20780C21484341490858002851
:10B4900002D13E48801FEBE700BF00BFA07807281D
:10B4A00007DAA078182148433A494018C07DFF28A0
:10B4B00002D13648801CDBE700BFA1786A463848D5
:10B4C000FEF73AFE0546002D16D1442304226946B4
:10B4D00002A8FEF73FFF05460298401C0CD044230B
:10B4E000042235496846FEF7D0FE0546002D03D1FB
:10B4F000A17889002F4A50502846B9E7024600BF7C
:10B5000029480078002802D12048801F704700BFDA
:10B51000002901D11D48F9E7002A01D11B48F5E7B0
:10B5200000BF1078012806DA10780C235843184B16
:10B530001858002802D11548801FE7E700BF10788F
:10B5400008700020E2E770B504460D4600BF1648BB
:10B550000078002802D10D48801F70BD00BF002C6C
:10B5600001D10A48F9E7002D01D10848F5E700BFED
:10B570002078012806DA20780C214843044908582D
:10B5800000281BD10148801FE7E700000E80000063
:10B59000F02C0020142C0020E42C0020D82C0020BB
:10B5A0004428002014E0010040280020C1A101002F
:10B5B0008BA20100F82B002034E0010000BF00BF87
:10B5C000A078072807DAA07818214843FE494018D8
:10B5D000C07DFF2801D1FD48BFE700BF6078FF288C
:10B5E0001CD12878022819D0A17818225143F64A94
:10B5F0008918084610300722294602F022FAA0785E
:10B6000001218140F24A12681143F14A116000BFE2
:10B6100002212046FFF71FF8002601E0EB4E093E0D
:10B6200030469AE770B504460E4600BFE9480078F8
:10B63000002802D1E548083870BD00BF002C02D1B7
:10B64000E248801EF8E7002E02D1E048801EF3E7B2
:10B6500000BF2078012806DA20780C214843DE4913
:10B660000858002802D1D9480838E5E700BFD74D6F
:10B670000B3DA078FF2817D16078FF2829D060788B
:10B680000C214843D5494018807A022108400228FD
:10B690001FD160780C225043D04A811807223046CF
:10B6A00002F0CFF9002514E0A07818214843C649DC
:10B6B0004018C07D022108420BD1A07818225043C7
:10B6C000C14A8018014610310722304602F0B9F90C
:10B6D00000252846B0E770B58AB005460C4600BF85
:10B6E000BC480078002803D1B84808380AB070BDBB
:10B6F00000BF002D02D1B548801EF7E7002C02D113
:10B70000B248801EF2E700BF2878012806DA2878C0
:10B710000C214843B0490858002802D1AB480838EA
:10B72000E4E700BF00BFA878072807DAA878182147
:10B730004843A5494018C07DFF2801D1A348D5E75B
:10B7400000BF00BF0020E060A549216100216161C8
:10B75000A878182148439C49401860600020A060E8
:10B76000A97801AA9F48FEF7E7FC0646002E17D1EC
:10B7700018231C2201A903A8FEF7ECFD0646002EA3
:10B780000ED1E0609649216100216161A8781821FD
:10B7900048438D49401860600020A06003A82060E5
:10B7A0003046A3E7F0B591B00546002600200E9084
:10B7B00000BF88480078002801D111B0F0BD00BF5B
:10B7C00000BF85480068002800D1F6E700BF0DA83B
:10B7D000FFF790F8044600BF2746002F06D000BFB1
:10B7E000814A82493846FCF7A3FD00BF00BF002014
:10B7F00009900024281D0B902A2168460186FF210C
:10B8000008A8817500210175002010902888102853
:10B8100013D0A88810AA0221FEF7C9FE0446002C06
:10B820000BD10C21109848436C494018C17A08A8E4
:10B8300081751098C1B208A84175288817287DD055
:10B8400006DC10280BD0112879D0132878D1EDE030
:10B85000182876D01C2875D05228F7D1FAE110AFFD
:10B860003A4601216248FEF7A2FE029002980028A3
:10B8700007D102210C2238685043584A801881723F
:10B8800001E00420029002980446002C62D10126B7
:10B89000112108A801721098C1B208A84175A988A1
:10B8A0000C22109850434D4A8018018102210C222D
:10B8B00010985043494A801881720C2210995143C4
:10B8C000464A88180722A91D02F0BBF80FA9A81D37
:10B8D000FEF7A2FE0446002C3CD10F98C1B20C2208
:10B8E000109850433D4A8018C1720C21109848436B
:10B8F00011464018807A082108430C2210995143C0
:10B90000364A8918887208A90F9888750F9881B2ED
:10B9100001AA3448FEF710FC0446002C19D11C2261
:10B9200010995143334A881818231C2201A9FEF7A5
:10B9300011FD2948807A80002F4904E0A9E00AE03F
:10B9400096E122E18FE10A580DA901A8904704462B
:10B9500000BF00BF8DE10C21109848431F494018DB
:10B96000807A022188430C22109951431B4A89187E
:10B9700088720C211098484311464018807A08219B
:10B98000084008280ED10C21109848431146401851
:10B99000807A8021084080280FD100210DA8FEF771
:10B9A0005AFE0AE008A8807DFF2806D008A9887DF5
:10B9B000FEF7D7FDFF2008A988750C211098484391
:10B9C00006494018807A19E0142C002010800000ED
:10B9D0004C28002040280020F02C0020E42C0020DF
:10B9E000FC2C00204428002038E0010088090000D9
:10B9F000FFFF0000BC2C002014E0010004210840DF
:10BA0000042807D101200E90F648407A40084000F3
:10BA1000F449487210210C2210985043F24A8018C1
:10BA200081720126122008A9087222E10026002056
:10BA30000690EE490791002108911C211098484377
:10BA4000EB49401803900C2110984843E6494018F0
:10BA5000C07A18214843E749401804900020059017
:10BA6000A88803AB002211467FDF0446002C01D0DA
:10BA700009940DE00C2110984843DB494018807A66
:10BA8000042108430C2210995143D74A891888721F
:10BA9000EFE0D448407A40084000D24948720C2177
:10BAA00010984843D0494018807A042188430C22DA
:10BAB00010995143CC4A89188872142008A9087239
:10BAC000012601200E90A879002802D0A8790990BB
:10BAD0005AE0E8794007C00F56D008A8807DFF28BB
:10BAE00052D00C2110984843BF494018807A082151
:10BAF00008430C2210995143BB4A89188872A87ACE
:10BB00008007C00F0DD0182110984843B94940183C
:10BB1000C07D41084900182210985043B54A80184A
:10BB2000C1750C2110984843AF494018C07AFF28CE
:10BB30002AD00C2110984843AB49085C02281FD03A
:10BB40000C23109A5A430B46D11808AA927D182349
:10BB50005A43A84BD21810461030072201F071FF4B
:10BB600008A8807D18214843A2494018C07D0221C1
:10BB7000884308A9897D182251439E4A8918C875AF
:10BB800001210DA8FEF767FD73E0A87900090128DF
:10BB90003FD1A8790007000F01283AD10C21109855
:10BBA000484391494018807A08210840082830D13C
:10BBB0000C2210995143904A8918081D062101F062
:10BBC0009FFF162008A9087201200E900C211098E2
:10BBD000484385494018807A202108430C22109957
:10BBE0005143814A891888720C21109848431146A4
:10BBF0004018807A402108430C22109951437A4A18
:10BC0000891888727748407A02210843754948723A
:10BC10001CE00C211098484373494018807A802119
:10BC200008430C22109951436F4A891888721520D5
:10BC300008A908726B48807A8000704A11580DA8D4
:10BC400088470446002C01D06D48099000200990D7
:10BC500001260EE06348807A8000684A11580DA8DA
:10BC60008847099005E0132008A90872012600E022
:10BC700000BF00BF002E16D00AA90DA8099A00F037
:10BC800082F808A8007A12280DD100BF0C21109864
:10BC9000484355494018807A012802D01098FEF791
:10BCA00047FC00BF00BF0E98002827D04D48407ABF
:10BCB00002210840022821D107AA20215148FEF77D
:10BCC00076FC0446002C12D1002108A801700798C8
:10BCD000C1B208A841700C21079848434249401856
:10BCE000C17A08A88170FEF7C7FD044605E03D480B
:10BCF000407A022188433B49487200BF00BF5CE59F
:10BD000001218140404A12688A433F490A607047D6
:10BD1000F8B505460E463A4FBF1C00242EE0182009
:10BD2000604334494018C07DFF2826D1307802286E
:10BD300014D0182060434018C07D02218843182188
:10BD400061432C4A8918C87518216143891808462F
:10BD500010300722314601F074FE0BE018206043DA
:10BD600024494018C07D4108490018206043214AF9
:10BD70008018C1752C70002702E0641C072CCED3FC
:10BD800000BF3846F8BDF8B504460D4616461548BE
:10BD90000768324629462046B847F8BD02460020CB
:10BDA000704770B505460E4631462846FEF7A9FC99
:10BDB0000446002C02D100BF00BF0446204670BDDF
:10BDC00002460020704770B505460E4631462846AB
:10BDD000FEF7F3FC0446002C02D100BF00BF04466E
:10BDE000204670BDF02C0020E42C0020FC2C00200C
:10BDF000BC2C0020142C0020D82C002024E00100B2
:10BE000041800000FFFF00004C2800200146002078
:10BE1000704770B505462846FEF7F1FC0446002C35
:10BE200002D100BF00BF0446204670BDF0B50246F7
:10BE30000C46002035E001238340194623460B427F
:10BE40002ED0D5680D4205D101235B04D5680D4382
:10BE5000D56004E003231B04D5688D43D560052518
:10BE60002D0707263602AD198600AD590326360484
:10BE7000B5430526360707273F02F6198700F55117
:10BE800005252D0707263602AD198600AD591D433D
:10BE90000526360707273F02F6198700F55100BF30
:10BEA000401C2028C7D3F0BDF0B585B0EC4805692B
:10BEB0000020EC49C86300263DE014207043EA49A5
:10BEC000096844180120B040E8490968084230D0A8
:10BED000E068C0436840216808400746394620466C
:10BEE000FFF7A4FFDE48006968400390039800282C
:10BEF0000ED003980543E068C043684021680840BD
:10BF0000009020460099FFF791FF0098074300BF7B
:10BF1000A068A843384001906068284038400290EB
:10BF200001990298084303D0226901990298904729
:10BF300000BF701CC6B2CE4800788642BDDB05B09B
:10BF4000F0BD10B50146002028E014224A43C64B3C
:10BF50001B689A58012383401A421ED005221207FB
:10BF600007231B02D2188300D25803231B049A43D1
:10BF700005231B07072424021B1984001A510522DC
:10BF8000120707231B02D2188300D25805231B0770
:10BF9000072424021B1984001A51401C2028D4D3E2
:10BFA00010BD70B505460C46002C01D1072070BDB0
:10BFB00020468107890F01D1012100E000210029DD
:10BFC00001D10720F3E7A8480460AA4805700020C3
:10BFD000A7490870A5490860A64800781422504374
:10BFE0000146A148006801F08BFD0020C043A24932
:10BFF0008860062001218140A04A116000BF012114
:10C0000000F0F7F80620012181409D4A116000BF31
:10C010000020CCE7F8B504460D4616461F46924868
:10C020000068002801D10820F8BD002F01D10720A9
:10C03000FAE78F4800788F490978884201DB0420AD
:10C04000F2E7284630438A49097814225143864A48
:10C050001268505086480078142148438249096884
:10C060004018456082480078142148437E49096899
:10C07000401886607E480078142148437A49096850
:10C08000401807617A480078207079480078401C91
:10C09000774908702078FFF754FF0020C4E7F0B517
:10C0A000024671480068002801D10820F0BD7048A0
:10C0B0000078824201DB0720F8E70020694BD86353
:10C0C0006748046969480068002802D158066A4B2D
:10C0D000586001209040654B1B681843634B186003
:10C0E000002314205043604D2D684019C360002187
:10C0F00040E001238B401846142353435A4D2D68CA
:10C10000EB58034235D02546054202D003231B04D9
:10C110000EE001235B0414255543534E3668AD19D8
:10C12000ED680543142656434F4F3F68F619F560F6
:10C1300005252D0707263602AD198E00AD590326B9
:10C140003604B5430526360707273F02F6198F0048
:10C15000F55105252D0707263602AD198E00AD597C
:10C160001D430526360707273F02F6198F00F551B4
:10C1700000BF491C2029BCD3002097E710B5044616
:10C1800039480068002801D1082010BD38480078DF
:10C19000844201DB0720F8E72046FFF7D2FE0120AA
:10C1A000A040324909688143304801600068002896
:10C1B00003D10120C007304988600020E5E710B5B1
:10C1C000024629480068002801D1082010BD2848EF
:10C1D0000078824201DB0720F8E714205043224C0C
:10C1E000246803191E4800691C682040086000206C
:10C1F000ECE710B5002819DA224A03071B0F083BA9
:10C200009B089B00D2588307DC0EFF23A3409A4370
:10C210008B071B0E8407E40EA3401A43194B040737
:10C22000240F083CA408A4001A5118E0144A032360
:10C230001B02D21883089B00D2588307DC0EFF2311
:10C24000A3409A438B071B0E8407E40EA3401A43B6
:10C250000B4B032424021B198408A4001A5110BD9F
:10C260000005005040610040502800205428002064
:10C2700059280020582800200063004080E200E098
:10C2800000E100E01CED00E010B5002819DAF74AE3
:10C2900003071B0F083B9B089B00D2588307DC0E4B
:10C2A000FF23A3409A438B071B0E8407E40EA34091
:10C2B0001A43EE4B0407240F083CA408A4001A51AB
:10C2C00018E0EB4A03231B02D21883089B00D258C4
:10C2D0008307DC0EFF23A3409A438B071B0E8407C2
:10C2E000E40EA3401A43E24B032424021B198408E2
:10C2F000A4001A5110BD10B50446DE488460032125
:10C300001120FFF7C1FF10BD10B501200004DA496C
:10C310004860D94940394860112000F00CFD1120D7
:10C3200000F0FBFC0120D54908602F20FBF73EFF01
:10C330000120D349087010BD10B5112001218140A2
:10C34000CB4A8032116000BF01200004CA498860D6
:10C35000C949403988600120C84948602F20FBF74F
:10C3600025FF0120C54988600020C64908602F20AC
:10C37000FBF71CFF0020C249087010BDF0B5024653
:10C3800028205043C04B1B68C118C0480068401C9F
:10C3900002D1BE48026057E0BC488B680068282480
:10C3A0006043B94C246800198068834217D8B748A5
:10C3B000006828235843B44B1B68C01880688B68FA
:10C3C000C31AB248006828246043AF4C246800199F
:10C3D0008360AE4800684862AC48026034E08B6815
:10C3E000AA4D2C6828680DE028254543A64E3668DE
:10C3F000AD19AD685B1B044628254543A24E36683F
:10C40000AD19686A451C07D0282545439E4E3668FD
:10C41000AD19AD689D42E7D3451C0CD02825454396
:10C42000994E3668AD19AD68EE1A28254543964FEA
:10C430003F68ED19AE608B60486228256543924ED7
:10C440003668AD196A6200BFF0BDF8B506468F4880
:10C4500005682C4609E0B44200D108E025462820B2
:10C460006043894909684018446A601CF3D100BFE1
:10C47000601C00D1F8BDA5420FD184480068282176
:10C480004843814909684018406A80490860084665
:10C490000068401C01D1FFF74FFF282060437A4914
:10C4A0000968401887682820604377490968401860
:10C4B000416A28206843744A126880184162282023
:10C4C0006843714909684018446A601C0CD02820F0
:10C4D00060436D49096840188068C119282060438D
:10C4E000694A12688018816000BFC3E710B5112047
:10C4F00000F01AFC10BD10B5142000F015FC10BDA2
:10C5000070B5044662480068002813D0604A216A6A
:10C51000E06912689047054600BF2E46002E07D0FE
:10C5200000BF5CA2FF2164313046FBF701FF00BF72
:10C5300000BF02E0E169206A884770BDF8B5534842
:10C540000068401C39D0002700F0FDFB04464D4830
:10C550000168204600F0FAFB06464C48056811E0E9
:10C5600028206843484909684418A068B04200D9A7
:10C570000AE0A068361AA068C719656A2046FFF766
:10C58000BFFF00BF681CEBD100BF4E4800784E498A
:10C590000978884209D14C480078401CC0B24A4909
:10C5A0000870022801D100200870474800788000F8
:10C5B00046490F50FFF79FFF00BFF8BD01464148B5
:10C5C0000078414A127890421DD03E480078401CC5
:10C5D0003C4A107010460078022801D100201070EB
:10C5E000384800788000394A10580860254A0868A1
:10C5F00012688018234A1060104600680002000A82
:10C600001060012070470020086000BFFAE7FEB507
:10C610001E48006801902E480078009076E000984F
:10C62000C0002C490968441825786BE0182068433D
:10C6300061680F18681CC5B2A078A84200D1002517
:10C640003868022802D0032859D145E028217868AB
:10C6500048430D4909684618307E002804D07868A0
:10C66000FFF7F3FE002030764AE000001CED00E00A
:10C6700000E100E0001501404013014000100140BE
:10C68000802800206C2800205C28002068280020DA
:10C690007C2800202E2E5C2E2E5C2E2E5C2E2E5CF6
:10C6A0002E2E5C536F757263655C6170705F636F93
:10C6B0006D6D6F6E5C6170705F74696D65722E6315
:10C6C0000000000078280020792800207028002031
:10C6D00061280020642800200CE0FE490968282217
:10C6E0005143FD4A1268881800210176F94A416ACF
:10C6F000116000BFF7480068401CEED100E000BFA9
:10C7000000BF00BF6078A84290D100BF0098411ED2
:10C71000C9B20091002882D1EE4801680198814297
:10C7200001D00120FEBD0020FCE7F0B50346002447
:10C7300026E0E84E366828277E43E74F3F68F01929
:10C7400086689E4203D98668F61A86601CE0866871
:10C750009B1B86683419002686600676DD4E356898
:10C76000DC4F466A3E604669002E08D00E1936023C
:10C77000360AC6604669066116684662156000BFE3
:10C78000D4480068401CD4D100BFF0BDFEB50746B8
:10C79000D04800680290D1480078019069E0019883
:10C7A000C000CF49096845185CE0781C07D03E46B8
:10C7B00028207043C84909684418676A23E029782B
:10C7C000182359436A6850182978491C2970297818
:10C7D000AA78914201D1002129704668282171432D
:10C7E000BD4A12688C180168012902D1217E0029F6
:10C7F00000D037E08168E160C16821610169616151
:10C800004169216200BFB749E0680968401A000227
:10C81000000AB549884208D2B249E068096800F0C8
:10C8200095FA21694018A06011E0AE48E1680068FF
:10C8300000F08CFA009021690098814204D92169A6
:10C840000098081AA06001E00020A06000BF00204E
:10C85000E060206101202076801E60623046FFF794
:10C860008DFD00BF781CA0D12878697888429CD1C2
:10C8700000BF0198411EC9B2019100288FD195488F
:10C8800001680298814201D00120FEBD0020FCE732
:10C89000FEB590480068401C34D08E4800682821BE
:10C8A00048438D4909684018856800F04CFA0190AA
:10C8B0008C4804682146019800F048FAC61C8B4851
:10C8C0000078002801D1FFF71FFDAE4201D22846B3
:10C8D00000E0304604192402240A204684490860F6
:10C8E00000BF00F030FA00900199009800F02EFA95
:10C8F000C71C2046019900F029FA874201D9FFF7A9
:10C90000F5FD01E0FFF718FDFEBDFEB50020C043B8
:10C910000190744804686F4807686846FFF74EFE48
:10C920000546FFF774FE0646002D05D001AA2146F4
:10C930000098FFF7FAFE01260198FFF727FF00286D
:10C9400000D00126002E02D03846FFF7A1FFFEBD21
:10C950004170704770B502460B465078411C907884
:10C96000884200D100211078884201D1002070BD9A
:10C97000196050781826704355682C182046F6E741
:10C98000FFB581B005460E461746E900544A1268C5
:10C9900088186946FFF7DEFF0446002C02D1042008
:10C9A00005B0F0BD01202060666000F0CCF9A06009
:10C9B000E760049820610A986061E900484A1268BB
:10C9C00088180099FFF7C4FFFFF795FD0020E7E7FF
:10C9D000F8B504460E46E100414A126888186946D7
:10C9E000FFF7B8FF0546002D01D10420F8BD022055
:10C9F00028606E60E1003A4A126888180099FFF7D3
:10CA0000A7FFFFF778FD0020F0E738B50446E10006
:10CA1000334A126888186946FFF79CFF0546002DC7
:10CA200001D1042038BD03202860001F6860E100A8
:10CA30002B4A126888180099FFF78AFFFFF75BFD01
:10CA40000020EFE710B500202A490860002129489E
:10CA500041608160C160002026494039086048601B
:10CA6000FFF76CFD10BD10B5FFF74FFF10BDFFB510
:10CA700081B00E4617461C4620468107890F01D11A
:10CA8000012100E00021002902D1072005B0F0BDFE
:10CA9000002C01D10720F9E7FFF74EFC16490A9850
:10CAA0000860164806700C48046000250CE0002160
:10CAB00028206843084A1268115028206843064A13
:10CAC0001268801801766D1CB542F0DB2820704397
:10CAD000041915E0682800205C2800206128002047
:10CAE000642800206C280020FFFF7F0080280020A1
:10CAF00040150140401101407C28002060280020A2
:10CB000003209549087095480460183400250CE00E
:10CB1000E900924A126888180021017041708770FC
:10CB20004460182179430C196D1C032DF0DB0020A3
:10CB3000C0438B49086000208A4908708A49087000
:10CB4000142000F0F8F803211420FFF79DFB1420B7
:10CB500000F0E3F80198FFF7CEFB00F0F4F883490A
:10CB60000860002092E770B503460C4680480068D4
:10CB7000002801D1082070BD002A01D10720FAE762
:10CB8000002B01D10720F6E700211CE028204843B4
:10CB9000774D2D682858002814D1012528204843B6
:10CBA000734E3668355028204843714D2D68401922
:10CBB0004460282048436E4D2D684019C2611960B9
:10CBC0000020D8E7491C6B4800788142DEDB042056
:10CBD000D1E730B500BF68484068C205D20D002AD1
:10CBE0001ED01346103B184600280CDA624C1C3449
:10CBF00005072D0F083DAD08AD0064598507ED0E02
:10CC0000EC40A4090AE05D4C03252D026419850857
:10CC1000AD0064598507ED0EEC40A409E0B200E0D8
:10CC20000420012802D0032804D101E0002103E000
:10CC3000012101E0022100BF00BF084630BDFEB562
:10CC400004460D4616464A480068002801D10820CF
:10CC5000FEBD48480078844201D2052D01D207204C
:10CC6000F6E728206043424909680858012801D0A6
:10CC70000820EDE7282060433D49096840184068D6
:10CC8000012801D1284600E000200746FFF7A1FF58
:10CC90003B462A46214600960190FFF771FED7E7F2
:10CCA00070B5044632480068002801D1082070BDE4
:10CCB00030480078844201D30720F8E728206043F9
:10CCC0002B4909680858012801D00820EFE7FFF731
:10CCD00080FF05462146FFF77BFEE8E710B52448B4
:10CCE0000068002801D1082010BDFFF772FF04463C
:10CCF000FFF78BFEF8E710B5044600F024F820603B
:10CD0000002010BD70B505460E4614463146284633
:10CD100000F01CF82060002070BDC206D20E012178
:10CD20009140164A11607047C206D20E012191400F
:10CD3000134A11607047C206D20E01219140104A79
:10CD40008032116070470F48406870470246501AA1
:10CD50000002000A704700006128002064280020BB
:10CD60006828002078280020792800206C280020DE
:10CD70005C2800206028002000ED00E000E100E0D9
:10CD800000E200E00015014070B506460C4615466D
:10CD900029462046FBF7E0FA70BDF8B559480078FF
:10CDA000002800D1F8BD58480068002801D10120B2
:10CDB00000E00020054655480068002801D1012008
:10CDC00000E00020064600BF002D14D1684651DF68
:10CDD0000446052C01D101250CE0002C06D000BF33
:10CDE0004BA269212046FBF7A3FA03E046490098CD
:10CDF0000968884700BF002E1AD153480088009068
:10CE000069465248006860DF0446052C01D10126BE
:10CE10000DE0002C06D000BF3DA280212046FBF78C
:10CE200087FA04E04948006838490968884700BF24
:10CE3000002D02D0002E00D000E0C5E700BF00BFEB
:10CE4000B0E7FFB581B00C4616461F46002C02D154
:10CE5000072005B0F0BD20468107890F01D10121CF
:10CE600000E00021002901D10720F2E737480460E3
:10CE700035480680364807603649019810DF054678
:10CE8000002D01D02846E4E701201E490870162035
:10CE900026DFDEE710B511DF0446002C01D00120AB
:10CEA00000E0002017490870204610BD0146002907
:10CEB00001D10E207047154801600020FAE70146B5
:10CEC000002901D10E2070470F4801600020FAE7C9
:10CED00070B51F480068002811D01D4800688047C1
:10CEE000044600BF2546002D07D000BF08A2FF2141
:10CEF00033312846FBF71CFA00BF00BF01E0FFF703
:10CF00004CFF70BD84280020982800209428002021
:10CF10002E2E5C2E2E5C2E2E5C2E2E5C2E2E5C5326
:10CF20006F757263655C73645F636F6D6D6F6E5C6C
:10CF3000736F66746465766963655F68616E646C5F
:10CF400065722E6300000000902800208C280020CD
:10CF50008828002089CD01000246002112E0C80087
:10CF6000F94BC0188078937898420AD1C800F64BE4
:10CF7000185A1388984204D1C800F34BC01840686F
:10CF80007047491CF14800688142E8D30020F7E768
:10CF90000246EE480068022815D2EC480068C0003E
:10CFA000E94BC0181388038053884380E748006822
:10CFB000C000E54BC0184160E4480068401CE34BEA
:10CFC0001860002070470420FCE710B5002409E039
:10CFD0003C226243DE4BD0183C226243D218916B54
:10CFE0008847641CD94800688442F1D30020D9499D
:10CFF000086010BDF8B504460D466020005D2E2186
:10D00000484307193846FFF7A7FF0646002E2ED0E3
:10D01000D048006802282AD25C20015BCD48006815
:10D020003C225043CA4A801881800121C9480068C7
:10D030003C225043C64A1150C64800683C21484330
:10D04000114640188560C34800683C21484311469A
:10D0500040188663BF480068401CBE490860084607
:10D060000068BA490968884201D1FFF7AEFFF8BDF0
:10D07000F8B504460D466020005D2E21484307198F
:10D080003846FFF769FF0646002E3DD0B1480068DC
:10D09000022839D25C20015BAE4800683C22504334
:10D0A000AB4A80188180002D13D00021A948006868
:10D0B0003C225043A64A1150A64909683C225143DC
:10D0C000A34A8918084608302E22394600F0B9FCD8
:10D0D00006E002219F4800683C2250439C4A1150C0
:10D0E0009C4800683C214843994940188663994808
:10D0F0000068401C97490860084600689349096821
:10D10000884201D1FFF761FFF8BD70B5044692482F
:10D110000068401C90490860084600688B4909680F
:10D1200088422ED200215F2001556020005D401C06
:10D13000C1B260200155005D2E21484305196020D1
:10D14000005DC000804940180188298040886880BF
:10D15000002028715C20025B2988804800F0D4FA06
:10D160005C21085B2A46012190DF0646002E07D08D
:10D1700000216120015531462046FFF73BFF70BD7D
:10D1800002E000216120015500BFF8E710B502461A
:10D190000B896020805C2E2460438018808D834240
:10D1A00001DA012010BD0020FCE770B50446002A1A
:10D1B00016D10D896020005D2E2670430019808DE8
:10D1C000854201D1002070BD0889401C1880602074
:10D1D000005D2E2568430019808D58800120F2E7FC
:10D1E0000889401CD588A84201D10020EBE70889B6
:10D1F000401C1880D088401E58800120E3E738B5D5
:10D2000004466020005D2E21484305195F20005D23
:10D21000002811D05F22125D521ED1B26022125D31
:10D220002E235A4315190C224A43AB1DD0180289EC
:10D23000521C6B461A8002E0688D69460880A88DF2
:10D24000694648805C21085B694692DF38BDF0B5CD
:10D2500085B004460F46002001906020005D2E211D
:10D26000484305195F20005D0C214843A91D401863
:10D2700002905F20005D401C2979884207D103ABF2
:10D28000002220460299FFF790FF019029E05F20DD
:10D29000065D21E02879401EB04202D100200090B6
:10D2A00005E0701C0C214843A91D4018009003ABF9
:10D2B0002046009A0299FFF778FF002802D001204B
:10D2C00001900CE0009802905F20005D401CC1B20C
:10D2D0005F200155701CC6B22879B042DADC00BF6D
:10D2E00000BF0198002804D101203870002005B04B
:10D2F000F0BD002038705C21085B03A993DFF6E7DE
:10D30000F8B504460D466888002829D16020005DE4
:10D310002E21484307192E46083671883980B08877
:10D320007880F2887A853189B9852046FFF767FFD2
:10D3300000900098002806D0002161200155204669
:10D340000099FFF757FE12E0142D0020A4280020BA
:10D35000242D0020A0280020A82800207CE0010027
:10D3600000212046FFF784FE2046FFF7CEFEF8BDE1
:10D37000F3B587B00546002006906020405D2E2161
:10D380004843441908984088002857D10898083025
:10D3900005902079049005980078039003990498EB
:10D3A0004018032804DC217903980818207101E053
:10D3B00003202071049E0020029017E00A220298A8
:10D3C00042430598801C11180C207043A21D83183D
:10D3D0000A22184600F035FB00210C207043A21DE4
:10D3E00080184181761C0298401C02902079B0423E
:10D3F000E4D8701E0C214843A11D40180190284616
:10D400000199FFF7C3FE002802D02079032802D13A
:10D410000120069011E021795F2041552846FFF751
:10D42000EEFE0746002F08D0002161204155394605
:10D430002846FFF7DFFD09B0F0BD01E001200690AE
:10D440000698002823D000215F20415505A92846D1
:10D45000FFF7FDFE0746002F07D000216120415550
:10D4600039462846FFF7C6FDE5E76846007D0028F7
:10D470000CD05C20425B2188914800F045F90121E5
:10D480002846FFF7F5FD2846FFF73FFE00BF00BF27
:10D49000D1E7FEB504460D466020005D2E214843CD
:10D4A00007192E4608365F20005D0C214843B91D40
:10D4B000401802906888002816D100BF0FE00621AE
:10D4C0004143B21C891849887E4A914206D10621FF
:10D4D0004143B21C525A02994A8103E0401C3188F0
:10D4E0008142ECD800BF00BF002001905F20005DAA
:10D4F000401C3979884202D10120019016E05F205A
:10D50000005D401CC1B25F20015501A92046FFF714
:10D510009EFE00900098002807D000216120015550
:10D5200020460099FFF766FDFEBD00BF6846007902
:10D5300000280DD05C20025B398861485C3000F027
:10D54000E3F801212046FFF793FD2046FFF7DDFDBC
:10D5500000BFE9E700205C49086001205B490870D2
:10D5600000205B4908605B4908607047002056490D
:10D570000860564908705649086056490860704767
:10D5800070B504460D46002C01D0002D01D10E20AF
:10D5900070BD4E480078002801D10820F8E74A48BD
:10D5A0000068022801D10620F2E729462046FFF74D
:10D5B000EFFCEDE7F8B504460F46002C01D10E2034
:10D5C000F8BD42480078002801D10820F8E73E481D
:10D5D0000068002801D10820F2E76120005D0028E2
:10D5E00001D01120ECE70020394908603949086072
:10D5F0000021602001555C2007536020005D2E2132
:10D60000484305196020005DC00033494018018877
:10D610002980408868805C20025B2988284850382F
:10D6200000F072F85C21085B2A46012190DF064673
:10D63000002E01D03046C3E70121612001550020B2
:10D64000BEE770B505460C46002D01D0002C00D178
:10D6500070BD1E480078002800D1F9E721881FA07E
:10D6600000F052F82088302817D004DC102807D0AA
:10D67000112821D108E0322814D033281CD116E01B
:10D68000A1885C20415318E06221284600F036FA58
:10D690000021C9435C2041530FE0211D2846FFF7BC
:10D6A0002FFE0AE0211D2846FFF762FE05E0211D3E
:10D6B0002846FFF7EEFE00E000BF00BF00BFC7E74F
:10D6C000CCE0010002290000A42800209C280020B2
:10D6D000A8280020A0280020142D00205B73696D6D
:10D6E0006F6E5D20626C655F64625F646973636F17
:10D6F000766572795F6F6E5F626C655F65767420C8
:10D7000030782578200D0A000FB4054910B503AA1A
:10D71000029800F033FB10BC08BC04B018470000AE
:10D72000282800200FB41CB5074B06AA7B44694685
:10D730000090059800F0F3FA0020694600F002FB23
:10D740001CBC08BC04B018471506000070B50446A0
:10D7500085690068C10601D5302600E02026C00793
:10D7600007D070BD62683046A1689047206A401CAF
:10D7700020626D1EF6D570BD70B5044685690078CF
:10D78000C00707D170BD6268A16820209047206A59
:10D79000401C20626D1EF6D570BD70B50C46054666
:10D7A000012A05D02878800600D5EA69002302E026
:10D7B000012305E05B1C934202D2E05C0028F9D112
:10D7C000A869E618C01AA861286AC0182862284605
:10D7D000FFF7BCFF04E06A682078A968641C9047E2
:10D7E000B442F8D32846FFF7C7FF70BDF7B5002550
:10D7F00075291068009914A611D0C046C0460028AB
:10D8000002DA404211A608E0009909688A0701D5AA
:10D810000FA602E0490704D50EA6012501E0C04687
:10D82000C046009F0024243704E000F0BBFA3031EA
:10D830003955641C0028F8D12B4632462146009801
:10D8400000F010FAFEBD0000000000002D000000F6
:10D850002B0000002000000070B504460D46214654
:10D860001068C046C0462188090502D50F4A7A448F
:10D8700002E00E4A7A440E3223460021243305E0AA
:10D880000607360F965D5E54491C00090028F7D143
:10D8900020780023000705D5702D03D0002901D082
:10D8A00011320223204600F0DDF970BD120900009C
:10D8B000F3B50446002081B020622046E168884725
:10D8C00000287DD0252802D06268A16883E0454FFA
:10D8D00000257F442046E16888472028064608DB6B
:10D8E000312E06D2B81920380078002801D005431F
:10D8F000F0E7A80701D5042085430020E061074632
:10D90000A0612A2E0AD0304600F0A3FA002827D0C2
:10D91000303EB80000190090866119E00298BA0004
:10D92000121902C8916102902046E1688847012FD0
:10D93000064617D1E06900281FDA202085431CE045
:10D9400000980A218069484300998019303888611D
:10D950002046E1688847064600F07BFA0028EFD1B0
:10D96000012F0AD02E2E08D12046E16888470646AE
:10D97000202005437F1C022FC3DBA069002803DAA7
:10D980004042A06101200543E80701D010208543F3
:10D99000002E25D030464138192803D80120C00276
:10D9A00005432036204625603146029A1546FAF78F
:10D9B000C5FB00280CD0012807D0ED1DE80800E0C9
:10D9C0000EE0C0000830029077E72D1D029574E745
:10D9D00062683046A1689047206A401C20626CE76C
:10D9E000206AFEBDD6080000034610B50B439B0716
:10D9F0000FD1042A0DD308C810C9121FA342F8D0B2
:10DA000018BA21BA884201D9012010BD0020C043B4
:10DA100010BD002A03D0D30703D0521C07E000201A
:10DA200010BD03780C78401C491C1B1B07D10378E0
:10DA30000C78401C491C1B1B01D1921EF1D11846C9
:10DA400010BDF8B5042A2CD3830712D00B78491CDB
:10DA50000370401C521E83070BD00B78491C0370C7
:10DA6000401C521E830704D00B78491C0370401CD5
:10DA7000521E8B079B0F05D0C91ADF002023DE1B27
:10DA800008C90AE0FAF7A2FBF8BD1D4608C9FD4027
:10DA90001C46B4402C4310C0121F042AF5D2F308D0
:10DAA000C91A521EF0D40B78491C0370401C521E38
:10DAB000EAD40B78491C0370401C521EE4D4097848
:10DAC0000170F8BD01E004C0091F0429FBD28B07D7
:10DAD00001D50280801CC90700D002707047002960
