:020000040001F9
:10800000A83F0020E5810100FF81010001820100FD
:108010000000000000000000000000000000000060
:1080200000000000000000000000000003820100CA
:10803000000000000000000005820100078201002E
:108040000982010009820100CF8B01000982010031
:10805000098201000000000009820100098201007C
:1080600009820100098201000982010009820100E0
:1080700009820100098201000982010009820100D0
:1080800009820100098201000982010009820100C0
:10809000098201000982010081BF010009820100FB
:1080A00009820100098201000000000000000000B8
:1080B00000000000000000000000000000000000C0
:1080C00000F002F800F052F80CA030C8083824186C
:1080D0002D18A246671EAB4654465D46AC4201D100
:1080E00000F044F87E460F3E0FCCB64601263342E0
:1080F00000D0FB1AA246AB4633431847A048000005
:10810000C0480000103A02D378C878C1FAD85207A4
:1081100001D330C830C101D504680C60704700003D
:108120000023002400250026103A01D378C1FBD893
:10813000520700D330C100D50B60704710B56429D9
:1081400002D103F0BFFF10BD782902D103F0F0FF88
:1081500010BD732902D104F05CFA10BD002010BDDF
:108160001FB5C046C0461FBD10B510BD04F09AFA39
:108170001146FFF7F5FF00F031FD04F0B2FA03B449
:10818000FFF7F2FF03BC04F0B7FA0000401E00BF87
:1081900000BF00BF00BF00BF00BF00BF00BF00BFE7
:1081A00000BF00BF00BFF1D17047000070B50546A9
:1081B0000C46164602E00FCC0FC5103E102EFAD228
:1081C000082E02D303CC03C5083E042E07D301CCEE
:1081D00001C5361F03E021782970641C6D1C761ED2
:1081E000F9D270BD03210C4802680A4302600B48B3
:1081F00002680A4302600A4880470A480047FEE7CF
:10820000FEE7FEE7FEE7FEE7FEE700000648074957
:10821000074A084B70470000240500405405004001
:10822000CF820100C1800100A82F0020A83F0020BC
:10823000A8370020A83700202E482F490860704733
:108240002E48008CC0B2012810D12C48808C000729
:10825000000F0BD12948806AF0210840402805D141
:108260002648C06A084201D1012070470020FCE77F
:108270002248008CC0B2012827D12048808C0007FA
:10828000000F22D11D48806AF021084205D11B4809
:10829000C06A084201D1012070471848806AF02165
:1082A0000840102805D11548C06A084201D10120B4
:1082B000F2E71248806AF0210840302805D10F48C3
:1082C000C06A084201D10120E6E70020E4E710B5CA
:1082D000FFF7CEFF002805D009480A494860C813B7
:1082E00009498861FFF7ACFF002802D00120074947
:1082F000886010BD0024F40000280020C00F00F0AA
:10830000DFFF07C000050040006C00400006004091
:1083100004460D46164623462A463146CBA003F0B6
:1083200073FE00BFBFF34F8FD248D349C860BFF37D
:108330004F8F00BF00BFFEE704460D462A46214688
:10834000CE48FFF7E5FF38B5684603F081F90446EB
:1083500000BF2546002D05D000BFC9A2CB49284645
:10836000FFF7D6FF00BF0098002803D00120C849BE
:10837000087038BDC74886DF044600BF2546002D7B
:1083800006D000BFBEA2C14908312846FFF7C0FF92
:1083900000BF00BFEDE7F7B584B004461646059868
:1083A000007815287AD008DC11280DD012284ED07C
:1083B000132878D0142873D193E0212871D0222873
:1083C00070D02328F7D1CBE06178B3A003F01CFE76
:1083D00005984068871CB87979793A7900920191BB
:1083E0000290FB78BA787978B54803F00DFEA0A02A
:1083F00003F00AFE6178B3A003F006FE059840681A
:108400000188204600F065FE054600BF0395039DE8
:10841000002D05D000BF9AA2B4210398FFF778FF82
:1084200000BFB5480078401CB34908700846007882
:10843000082801DAFFF787FF6178B0A003F0E4FDB8
:108440001E2001218140B74AD16000BF9EE06178C3
:10845000B5A003F0D9FD1E2000F00FFC204600F06F
:1084600063FE054600BF0395039D002D05D000BFA8
:1084700083A2C2210398FFF74BFF00BF9E480078FC
:10848000082801D1FFF75FFF9B480078401E9A49FA
:1084900008706178AFA003F0B7FD77E02CE002E050
:1084A00073E033E047E00422214603A803F035FFE0
:1084B0006178B3A003F0A8FD03A801F0F3FA054624
:1084C00000BF0295029D002D05D000BF6CA2D221F5
:1084D0000298FFF71DFF00BF6178B4A003F094FD80
:1084E00054E0617832467648443003F08DFD61787F
:1084F000B9A003F089FD49E061783246C3A003F0DA
:1085000083FD6178CFA003F07FFD3FE06178D8A0C4
:1085100003F07AFD00BF0396039E002E05D000BF36
:1085200057A2E3210398FFF7F3FE00BF6178DBA0B9
:1085300003F06AFD2AE06178E5A003F065FD00BF65
:108540000396039E002E05D000BF4DA2E82103989C
:10855000FFF7DEFE00BF6178EAA003F055FD15E0ED
:108560006178F5A003F050FD00BF0396039E002E36
:1085700005D000BF42A2ED210398FFF7C9FE00BF5E
:108580006178FAA003F040FD00E000BF00BF324672
:108590002046059900F0D6FC054600BF2F46002F67
:1085A00005D000BF36A2F6213846FFF7B1FE00BF66
:1085B000002007B0F0BDF0B505460B4600211C6851
:1085C0000EE0665C481C275CAF4206D1881C201870
:1085D0001060701E90800020F0BD701C091800BF54
:1085E00098888842EDD80520F6E77FB504462088B4
:1085F000192826D01B2825D120460F300290A07BB9
:10860000C008694688816A4602A90920FFF7D3FF9E
:108610000546002D05D06A4602A90820FFF7CBFFCA
:108620000546002D0FD168468288DDA0009903F031
:1086300047FE002807D187DF0546002D04D02946D4
:10864000B4E1C2E1CFE1BFE1B3E100005B415050D2
:108650004C5D3A204153534552543A2025732C2007
:1086600025642C206572726F72203078253038783E
:108670000D0A00000400FA0500ED00E0EFBEADDEDB
:108680002E2E5C6D61696E2E6300000002020000F8
:108690000528002030C701005B4150504C5D3A5B1B
:1086A0003078253032585D203E3E20444D5F45569F
:1086B000545F434F4E4E454354494F4E0D0A000000
:1086C00048C701005B4150504C5D3A5B4349203044
:1086D00078253032585D3A2052657175657374693A
:1086E0006E67204741545420636C69656E74206343
:1086F00072656174650D0A00042800205B415050CA
:108700004C5D3A5B3078253032585D203C3C20444B
:108710004D5F4556545F434F4E4E454354494F4E6F
:108720000D0A0000000500505B4150504C5D3A5B63
:108730003078253032585D203E3E20444D5F45560E
:10874000545F444953434F4E4E454354494F4E0D99
:108750000A0000005B4150504C5D3A5B3078253098
:1087600032585D203C3C20444D5F4556545F44499F
:1087700053434F4E4E454354494F4E0D0A0000009F
:108780005B4150504C5D3A5B3078253032585D206B
:108790003E3E20444D5F4556545F53454355524934
:1087A00054595F53455455500D0A00005B415050D9
:1087B0004C5D3A5B3078253032585D203C3C20449B
:1087C0004D5F4556545F53454355524954595F5385
:1087D000455455500D0A00005B4150504C5D3A5BCA
:1087E0003078253032585D203C3C20444D5F455662
:1087F000545F53454355524954595F53455455505E
:108800005F434F4D504C4554450D0A005B4150505D
:108810004C5D3A5B3078253032585D203E3E204436
:108820004D5F4C494E4B5F534543555245445F495C
:108830004E442C20726573756C7420307825303866
:10884000580D0A005B4150504C5D3A5B3078253042
:1088500032585D203C3C20444D5F4C494E4B5F53A9
:108860004543555245445F494E440D0A00000000FF
:108870005B4150504C5D3A5B3078253032585D207A
:108880003E3E20444D5F4556545F4C494E4B5F532E
:108890004543555245440D0A000000005B415050CD
:1088A0004C5D3A5B3078253032585D203C3C2044AA
:1088B0004D5F4556545F4445564943455F434F4ECF
:1088C000544558545F4C4F414445440D0A00000044
:1088D0005B4150504C5D3A5B3078253032585D201A
:1088E0003E3E20444D5F4556545F444556494345FE
:1088F0005F434F4E544558545F53544F5245440DB7
:108900000A0000005B4150504C5D3A5B30782530E6
:1089100032585D203C3C20444D5F4556545F4445F1
:10892000564943455F434F4E544558545F53544F47
:108930005245440D0A0000005B4150504C5D3A5BCB
:108940003078253032585D203E3E20444D5F4556FC
:10895000545F4445564943455F434F4E5445585430
:108960005F44454C455445440D0A00005B4150505E
:108970004C5D3A5B3078253032585D203C3C2044D9
:108980004D5F4556545F4445564943455F434F4EFE
:10899000544558545F44454C455445440D0A000025
:1089A0006E52464475696E6F00000000B5A003F07A
:1089B0002BFBBE4ABE49A01D88DF0546002D03D013
:1089C0002946BCA003F020FB0EE0A079022803D1C9
:1089D000C4A003F019FB05E0A079032802D1C8A0C8
:1089E00003F012FB00E000BF00BF7FBD10B50446DE
:1089F000022C02D0032C0BD100E000BFCA48007843
:108A0000002804D00020C8490870FFF79CFC00E053
:108A100000BF00BF10BD10B50446204601F096FC13
:108A2000204600F0A5FA2046FFF7DFFD10BD10B587
:108A30000446204602F06CFA2046FFF7D7FF10BD2F
:108A400070B500BF00234822B849092003F051FA4D
:108A5000054600BF2E46002E06D000BFB44AFF21B7
:108A6000A2313046FFF754FC00BF00BFB14803F00D
:108A700075FA044600BF2546002D06D000BFAC4A5B
:108A8000FF21A6312846FFF743FC00BFAA4803F0A8
:108A90006EFA044600BF2546002D06D000BFA44A4A
:108AA000FF21AA312846FFF733FC00BF70BD7FB518
:108AB00002F0D1FA044600BF2546002D06D000BFC3
:108AC0009B4AFF21BA312846FFF722FC00BF6846C7
:108AD00000F047FF044600BF2546002D06D000BF2A
:108AE000934AFF21C1312846FFF712FC00BF052140
:108AF00002A8013003F06EFC904801900221684604
:108B00000172407A41084900491C68464172407A26
:108B100002218843811C68464172407A1C218843A7
:108B200001460C3168464172407A202188436946EB
:108B30004872072101A881711021C171007A400893
:108B40004000401C01A9087201A8007A0221884354
:108B5000801C01A908727A4800F073FF044600BF28
:108B60002546002D06D000BF714AFF21D731284687
:108B7000FFF7CEFB00BF7FBD1E2003210522120799
:108B800007231B02D2188300D15000BF70477047E3
:108B900070B540DF044600BF2546002D06D000BF5B
:108BA000634AFF21F7312846FFF7B2FB00BF70BDD3
:108BB00010B50420634948600321022000F026F824
:108BC000022001218140604A116000BF10BD10B534
:108BD00000F048FB044600F070FB10BD00F016FBEF
:108BE000FFF7E6FFFFF7C8FF1E2000F046F857A08A
:108BF00003F00AFAFFF724FF00F026FAFFF757FF09
:108C0000FFF7A1FB00BFFFF7C3FFFCE710B500288B
:108C100019DA534A03071B0F083B9B089B00D258E5
:108C20008307DC0EFF23A3409A438B071B0E8407A8
:108C3000E40EA3401A434A4B0407240F083CA4083F
:108C4000A4001A5118E0404A03231B02D2188308DB
:108C50009B00D2588307DC0EFF23A3409A438B0767
:108C60001B0E8407E40EA3401A43374B032424024F
:108C70001B198408A4001A5110BD01218140394AF2
:108C8000916070475B4150504C5D3A205363616E78
:108C90002073746F70206661696C65642C20726546
:108CA00061736F6E2025640D0A00000040C701004B
:108CB00030C701005B4150504C5D3A20436F6E6EEF
:108CC000656374696F6E20526571756573742046B3
:108CD00061696C65642C20726561736F6E20256418
:108CE0000D0A00005B4150504C5D3A205363616EA9
:108CF0002054696D65646F75742E0D0A00000000C4
:108D00005B4150504C5D3A20436F6E6E65637469F1
:108D10006F6E20526571756573742054696D65645A
:108D20006F75742E0D0A00000528002058280020B9
:108D300080860100178A01002F8A010097830100B5
:108D4000062800200023004000E100E05B73696D0D
:108D50006F6E5D4E52462053746172740D0A0000AE
:108D60001CED00E000050050024600210AE06820EA
:108D70004843F84BC0184030808B904201D10846E0
:108D80007047491C0829F2D30820F9E770B504465A
:108D90000121672001555C20015B204602F0A6FFFF
:108DA000054600BF2E46002E06D000BFEAA2602175
:108DB0003046FFF7ADFA00BF00BF70BD7FB5044677
:108DC0000221672001550121684601700021417090
:108DD000012101716620005D0C214843A11D40184E
:108DE00041896846C18000210181022141810390AF
:108DF0005C21085B01A997DF054600BF2E46002EC7
:108E000006D000BFD4A27A213046FFF781FA00BF16
:108E100000BF7FBDFEB50446002001906088FFF7CB
:108E2000A3FF0290682102984843CA494618207857
:108E3000002821D100251BE00C2029464143204673
:108E40000A300F1800953B88217AC9480278C9A0DA
:108E500003F0DAF83888022808D1B878C4490978CC
:108E6000884203D16620855501200190681CC5B257
:108E7000207AA842E0DC00BF0198002803D03046E9
:108E8000FFF79CFF02E0042167208155FEBD10B56D
:108E9000002914D06722525C022A10D184896622EC
:108EA000525C0C235A438B1DD2185289944203D032
:108EB00004236722535402E003236722535410BD56
:108EC00030B5002923D067235B5C032B1FD1858934
:108ED00066235B5C0C2463438C1D1B191B899D421C
:108EE00015D1038A012B12D1837C002B07D11346A5
:108EF000083301249C40AD4DEC6000BF07E01346F1
:108F0000083301249C40A94DAC6000BF00BF30BDB8
:108F100070B505460C4600BF287B002801D1012012
:108F200000E000200646002E05D100BF8AA2E621FF
:108F3000FFF7EEF900BF00BF002C02D0042167202C
:108F4000015570BDF8B504460D4616466078682197
:108F50004843804947182878152805D1002E02D1AA
:108F60003846FFF72BFF00E000BF00BF0020F8BD30
:108F7000F8B504460025A088FFF7F6FE0646082E41
:108F800003D068207043734945182088352838D0AD
:108F9000372804D0382826D039283AD12CE084A0AC
:108FA00003F032F8E088C11FFE3904D0E0880146A2
:108FB000FF39103912D12846623000F073FD00905D
:108FC00000BF009F002F07D000BF63A2FF211B310D
:108FD0003846FFF79DF900BF00BF00BF2946204675
:108FE000FFF755FF16E079A003F00EF83246294648
:108FF0002046FFF765FF0DE029462046FFF788FF72
:1090000008E077A003F000F829462046FFF780FF2C
:1090100000E000BF00BF002D03D02146284602F02B
:10902000ACFEF8BD70B502F031FE044600BF254627
:10903000002D07D000BF48A2FF2140312846FFF78E
:1090400067F900BF00BF70BD70B586B06B4B0FCB2A
:1090500002AC0FC4464902A862DF044600BF2646A0
:10906000002E07D000BF3CA2FF214E313046FFF753
:109070004FF900BF00BF002507E0002168206843CA
:10908000344A80186030C1716D1C082DF5D3002062
:109090005B490870FFF7C6FF354801786846817163
:1090A00001218180574901A802F006FE044600BF55
:1090B0002646002E07D000BF27A2FF21643130468C
:1090C000FFF726F900BF00BF06B070BD4C4800781E
:1090D000704770B504460D46012160786822504300
:1090E0001C4A80186030C17160786821484311467D
:1090F00040184030858342480078401C4049087041
:10910000617868225143134A891808466230042264
:10911000214603F002F96178682251430D4A88180C
:10912000FFF734FE002070BD10B5014600204B78DB
:1091300068246343074C1A1967239B5C002B63D098
:109140002F4B1B785B1E2E4C2370002467239C54EE
:109150005BE059E0A02800202E2E5C636C69656EF0
:10916000745F68616E646C696E672E630000000056
:10917000082800206D6178203D202564206D5F6205
:109180006173655F757569645F74797065203D20F2
:10919000307825782075756964203D2030782578F1
:1091A000205B693D25645D200D0A0000000500502C
:1091B000424C455F47415454435F4556545F5752B4
:1091C0004954455F5253500D0A000000424C455F20
:1091D00047415454435F4556545F4856580D0A0062
:1091E000424C455F47415454435F4556545F524596
:1091F00041445F5253500D0A00000000D0C70100E7
:1092000007280020158E0100082010BD08B5002099
:1092100007230922082100900A2000F069F808BD00
:1092200070B504460D46E0B200F047F8204670BD28
:1092300070B505460E4608A002F0E6FE002404E0E4
:10924000295D06A002F0E0FE641CB442F8D302A03F
:1092500002F0DAFE70BD00000D0A00003078253003
:109260003258200000BF424880680128FBD100200E
:109270003F4988603F488069C0B2704770B5044676
:109280000D4601260AE02046641E002804DB7D20EE
:10929000C000FEF77BFF01E0002603E03448806851
:1092A0000128F0D100BF002C05DB00203049886088
:1092B000304880692870304670BD2E49C86100BFB3
:1092C0002B49C9690129FBD10021294AD161704785
:1092D00030B50346002528466D1C1C5C05E0204681
:1092E000FFF7EBFF28466D1C1C5C002CF7D130BD4E
:1092F000F8B507460C4615461E46204600F025F8F0
:109300000021304600F02AF81A48C46046610698E9
:1093100000280DD0384600F018F80021284600F04B
:109320001DF8144805618760012012494031C86268
:109330001148104948620420086001200F498860E4
:10934000086000200A498860F8BD03210522120741
:1093500007231B02D2188300D150704710B58A0032
:1093600005231B07072424021B1984001A5110BD72
:10937000002100400025004000509D0000200040DA
:1093800010B5044601210C206043F84A8018817210
:10939000891E0C20604380180181FF210C2060434E
:1093A0008018C1720C2161438818072103F012F85C
:1093B00010BD10B5044618216143ED4A89180846CE
:1093C0001130062103F006F818206043E8494018E0
:1093D0000021016041608160C160FF21182060436D
:1093E000E34A80180174182060438018C175204634
:1093F00001F070FA10BD70B503460C46082000213C
:1094000014E00C254D43D94EAD19AD7A25420CD050
:10941000D84DAB4205D00C254D43AD192D899D4249
:1094200002D11160002003E00520491C0829E8D37F
:1094300000BF70BD7CB50546A9B26A46CE4801F0B2
:109440002DFF0446002C09D14421684602F0A5F8FE
:109450000446002C02D12846FFF7ABFF20467CBD16
:10946000F8B505460E46052700240FE01821614394
:10947000BF4A8918084610300722294602F020FF0B
:10948000002802D13460002702E0641C082CEDD3D0
:1094900000BF3846F8BD10B50446002010BDFEB52B
:1094A00004460E46A1786A46B34801F0F7FE054629
:1094B000002D49D160780C214843AC494018807A8E
:1094C00040210840402801D0022E01D1AB4F04E0DA
:1094D000012E01D1AA4F00E0AA4FA07818225043D4
:1094E000A34A8118002318226846B8470546002D74
:1094F0001AD1022E18D060780C2148439B4940189D
:10950000807A4021884361780C225143974A891818
:10951000887260781C2250439B4A811818231C22B1
:109520006846B847054600BF022E0DD020780C21B2
:10953000484396494018807A800095490A58214648
:1095400068469047054600BFFEBDFEB507460C467F
:109550000620029061780C225143844A89180889B8
:1095600002AA6946AADF0646002E45D161780C2280
:109570005143884A8918081D69460A8902F0A0FEED
:10958000002813D160780C21484378494018807A2C
:109590000221084002282FD060780C2148437D49E1
:1095A0004018002101604160816025E060780C2155
:1095B000484378490858002801D0704D00E0704DAC
:1095C0006946098960780C225043724A11506178CB
:1095D0000C2251436F4A8918081D69460A89FEF713
:1095E000E5FD60780C2250436A4A811834230C222E
:1095F0003846A847064600BF0020FEBD02460020B0
:10960000704770B505460C4661780C225143614A9B
:10961000881834230C22294601F04EFF0646002EFE
:109620000CD160780C2148435A490858401C05D198
:10963000002160780C225043564A1150304670BDCC
:10964000024600207047F8B50446002600276078DF
:109650000C2148434F49085800281FD060780C213E
:10966000484342494018807A80210840802815D11B
:1096700060780C2148433D494018807A40210840D9
:1096800040280BD060780C21484342494018061D01
:1096900060780C2148433F49085A87B261780C2210
:1096A0005143324A891808893A463146A9DF0546AE
:1096B000002D00D0384D2846F8BD014600207047E7
:1096C00070B5044622780C235A43304BD218111D32
:1096D00062780C235A43254BD21810897EDF054649
:1096E000002D29D120780C21484328494018407A80
:1096F0000121084321780C225143244A89184872D9
:1097000060780C21484319494018807A04210843A5
:1097100061780C225143154A8918887260780C21AF
:10972000484311464018807A2021884361780C22F2
:1097300051430E4A89188872284670BD0146002997
:1097400002D1154833387047FF2008704870887080
:10975000C8700020F7E7FFB58FB00F461D4600BF69
:109760000A480068002819D113B0F0BDE02D002090
:10977000E02B0020FFFF000018280020EFB30100BD
:1097800025B3010097940100A02C0020402E00205A
:10979000E0C70100802D00204180000000BF189824
:1097A000442801D913B0F0BD012006900BA8FFF7A3
:1097B000C5FF064600BF0596059E002E06D000BFD9
:1097C000FD4AFE490598FEF7A3FD00BF00BF00213A
:1097D00008A8017301740A95189809900020059053
:1097E00016E0059881B207AAF54801F057FD064634
:1097F000002E0AD1082207A90F9802F061FD002867
:1098000003D108A90598887305E00598401C0590C8
:1098100005980828E5D300BF08A8807BFF2876D0EC
:10982000042F0AD11898442803D1202008A90874CD
:1098300073E0402008A908746FE0E249681A182113
:1098400002F0CCFD0446082C1CD209A80D901198FA
:1098500000280FD108A9887B01218140DA4A1268CB
:10986000114201D0012100E00021002902D1002095
:10987000069052E008A9887B01F02CF8202008A966
:1098800008744AE0D149681A1C2102F0A7FD044679
:10989000082C1AD209A80D90202108A8017444733D
:1098A00000200390CA4904911C206043C749401816
:1098B000009008A8807B18214843C24940180190B5
:1098C00068460A901820099027E0C249681A0C21BE
:1098D00002F084FD0446082C1AD2302108A8017435
:1098E00044730121C1730C206043BB494018807A46
:1098F00002210840022810D008A8407B0C214843D0
:10990000B4494018002101604160816005E026E013
:1099100000200690402008A90874069800281ED050
:10992000042F06D108A9087C0321084308A908745C
:109930000EE0032F06D108A9087C0121084308A9DD
:10994000087405E008A9087C0221084308A90874E6
:1099500009A80D900CA90BA8119A00F0FDFF00BFFB
:1099600020E77FB50646002E02D19C4804B070BDAA
:1099700000240FE000BF00210C206043984A1150E2
:109980000C206043801841720C2060438018817263
:1099900000BF641C002CEDD0002403E02046FFF73C
:1099A000EFFC641C082CF9D360218A4802F014FDF6
:1099B000002403E02046FFF7FCFC641C082CF9D3CC
:1099C0004421684681810821C181864802907C49F2
:1099D00002A801F0A0FB0546002D30D101208249EC
:1099E00008703078002821D100241CE0A1B26A461A
:1099F000734801F053FC0546002D0FD11821614337
:109A0000704A881800231822694601F055FD054662
:109A1000002D07D000207449087006E0002072492C
:109A2000087002E0641C082CE0D308E06A469089C4
:109A3000D289504381B2624801F0AFFD0546284605
:109A400094E770B505460C4600BF674800780028CB
:109A500002D16248801F70BD00BF002D01D15F4858
:109A6000F9E7002C01D15D48F5E72068002801D115
:109A70005A48F0E75A48006800280FD15849206832
:109A800008600522611D5648001D02F046FC207941
:109A90005349887200202870002601E04F4E0A3E8C
:109AA0003046D8E7F8B5044600BF4F480078002894
:109AB00002D14A48801FF8BD00BF002C01D14748A1
:109AC000F9E700BF2078012806DA20780C21484306
:109AD00043490858002802D14048801FEBE700BFE7
:109AE00000BF6078082807DA60780C2148433A49BB
:109AF0004018807A012802D13848801CDBE700BF7B
:109B0000364DAD1F60780C21484333494018807AA8
:109B100002210840022825D1A078FF2807D16078CB
:109B20000C2148432C494018C07AFF281BD060788C
:109B30000C21484328494018C07AA07063781C263D
:109B40007343224E9A1963781C2673431F4E9B1948
:109B50001946123163780C2673431F4E9B191889DE
:109B600081DF05465BE060780C2250431A4A811879
:109B7000684600F0B7FE0546002D4FD168460178D3
:109B800060780C225043144A8018C17268460078ED
:109B9000A07020780C21484311494018407AC00732
:109BA000C00F37D060780C21484311464018807AA6
:109BB00020210843617819E014C801005B0500000A
:109BC00018280020E02B002020280020A02C0020B6
:109BD0004C2E0020802D0020E02D00200E80000063
:109BE000402E002057970100142800200C225143DA
:109BF000F74A8918887220780C214843F5494018A3
:109C0000407A0221084321780C225143F14A8918F5
:109C1000487203E02046FFF753FD054600BF284683
:109C200049E7024600BFEC480078002801D1EB4824
:109C3000704700BF002A02D1E848801DF8E70029DC
:109C400002D1E648801DF3E700BF1078012806DA4C
:109C500010780C235843DF4B1858002801D1DF48F7
:109C6000E6E700BF00BF5078082807DA50780C23D9
:109C70005843D74BC018807A012802D1D748083002
:109C8000D6E700BF50780C235843D14BC018807AD8
:109C90000423184208D150780C235843CC4BC018E9
:109CA000807A2023184202D0012008700DE05078FD
:109CB0000C235843C64BC018807A8023184202D028
:109CC0000220087001E0002008700020B0E7F8B51D
:109CD000044600BFC0480078002801D1BF48F8BD45
:109CE00000BF002C02D1BD48801DF8E7002902D139
:109CF000BA48801DF3E70868002802D1B748801DE4
:109D0000EDE78868002802D1B448801DE7E700BF6E
:109D10002078012806DA20780C256843AD4D2858B4
:109D2000002801D1AD48DAE700BF0022002300205F
:109D3000009000BF43E00025009500BF12E00C2614
:109D40006E43A34FF619F67A86420AD10C266E436B
:109D5000F619B67A02273E40022E02D1012600965D
:109D600002E06D1C082DEAD300BF009D002D25D117
:109D70000D7B9D420ED918254543994EAD19ED7DB9
:109D8000ED07ED0F06D118254543AD199F008E68EC
:109D9000F5515B1C0D79954210D918254543904E1D
:109DA000AD19ED7D0226354208D1182545438C4E6C
:109DB000AD19103597000E68F551521C401C08284B
:109DC000B9D30A710B73002089E7024683488830B3
:109DD000704770B5044600BF7F480078002801D165
:109DE0007E4870BD00BF002C02D17C48801DF8E782
:109DF00000BF2078012806DA20780C2148437549F5
:109E00000858002801D17548EBE700BF00BFA078D3
:109E1000082807DAA0781821484371494018C07D06
:109E2000FF2802D16D480830DBE700BFA078FFF7BC
:109E300001FB05462846D4E770B5044600BF6648D6
:109E40000078002801D1654870BD00BF002C02D108
:109E50006248801DF8E700BF2078012806DA2078E4
:109E60000C2148435B490858002801D15B48EBE7C7
:109E700000BF002600250BE0182068435849401811
:109E8000C07DFF2803D02846FFF7D4FA06466D1C94
:109E9000082DF1D33046D7E7FEB504460D4600BF86
:109EA0004D480078002801D14C48FEBD00BF002C71
:109EB00002D14A48801DF8E7002D02D14748801D95
:109EC000F3E700BF2078012806DA20780C21484308
:109ED00040490858002801D14048E6E700BF00BFCC
:109EE0006078082807DA60780C2148433849401820
:109EF000807A012802D139480830D6E700BF00BF78
:109F0000A078082807DAA078182148433449401877
:109F1000C07DFF2802D131480830C6E700BFA868DD
:109F2000002812D0686800280FD0686806280CD274
:109F30002878012809D163780C277B43294FDB1946
:109F4000181D6A68A96802F0E8F9A1786A462648EF
:109F500001F0A4F906462878800024490A582146D1
:109F600068469047064630469FE77CB504460D4656
:109F700000BF19480078002801D118487CBD00BFF7
:109F8000002C02D11548801DF8E7002D02D113489E
:109F9000801DF3E700BF2078012806DA20780C2125
:109FA00048430C490858002801D10C48E6E700BF97
:109FB00000BFA078082807DAA0781821484308498C
:109FC0004018C07DFF2813D104480830D6E70000B0
:109FD000E02D0020402E00201428002008800000E2
:109FE000E02B0020802D002018280020E0C7010071
:109FF00000BF60780C214843FE494018807A022156
:10A000000840022801D0FC48B8E7A868002812D10F
:10A01000686806280FD2287801280CD160780C21B6
:10A020004843F6494018001DA86060780C21484359
:10A03000F24908586860A1786A46F14801F02EF9A3
:10A04000064628788000EF490A582146684690471E
:10A050000646304692E7014600BFEB4800780028EC
:10A0600002D1E5488938704700BF002902D1E24893
:10A070008338F8E700BF0878012806DA08780C2250
:10A080005043E24A1058002802D1DB488938EAE7F9
:10A0900000BF00BF8878082807DA88781822504364
:10A0A000DB4A8018C07DFF2802D1D3488138DAE727
:10A0B00000BFD148401ED6E70246CF48704702464F
:10A0C000CD4870470146CC487047024600BFCE4895
:10A0D0000078002802D1C8488938704700BF00299D
:10A0E00002D1C5488338F8E7002A02D1C248833834
:10A0F000F3E700BF1078012806DA10780C235843E4
:10A10000C24B1858002802D1BB488938E5E700BF88
:10A11000107808700020E0E770B504460D4600BFD7
:10A12000B9480078002802D1B348893870BD00BF13
:10A13000002C02D1B0488338F8E7002D02D1AE4898
:10A140008338F3E700BF2078012806DA20780C2155
:10A150004843AE490858002802D1A7488938E5E7A6
:10A1600000BF00BFA078082807DAA078182148436C
:10A17000A7494018C07DFF2802D19F488138D5E704
:10A1800000BF6078FF281CD12878022819D0A17858
:10A19000182251439E4A8918084610300722294642
:10A1A00002F0BBF8A078012181409A4A126811435D
:10A1B000984A116000BF02212046FFF770F900267F
:10A1C00001E08D4E8A3E3046B0E770B504460E463B
:10A1D00000BF8D480078002802D18748893870BDBB
:10A1E00000BF002C02D184488338F8E7002E02D14A
:10A1F00081488338F3E700BF2078012806DA207809
:10A200000C21484381490858002802D17A488938EE
:10A21000E5E700BF784D8C3DA078FF2817D1607826
:10A22000FF2829D060780C21484372494018807A71
:10A230000221084002281FD160780C2250436D4A49
:10A2400081180722304602F068F8002514E0A07853
:10A25000182148436E494018C07D022108420BD1A5
:10A26000A078182250436A4A80180146103107220C
:10A27000304602F052F800252846B0E770B58AB0A3
:10A2800005460C4600BF60480078002803D15A48B4
:10A2900089380AB070BD00BF002D02D156488338FE
:10A2A000F7E7002C02D154488338F2E700BF287842
:10A2B000012806DA28780C21484354490858002818
:10A2C00002D14D488938E4E700BF00BFA8780828CC
:10A2D00007DAA878182148434D494018C07DFF2867
:10A2E00002D145488138D4E700BF00BF0020E060BC
:10A2F0004949216100216161A878182148434449F6
:10A30000401860600020A060A97801AA3C4800F0D5
:10A31000C5FF0646002E17D118231C2201A903A849
:10A3200001F0CAF80646002E0ED1E0603A492161DC
:10A3300000216161A87818214843354940186060C0
:10A340000020A06003A820603046A2E7F0B591B0DD
:10A350000546002600200E9000BF2B4800780028FC
:10A3600001D111B0F0BD00BF00BF2848006800282F
:10A3700000D1F6E700BF0DA8FFF7E0F9044600BFE3
:10A380002746002F06D000BF244A25493846FDF74E
:10A39000BFFF00BF00BF002009900024281D0B90C4
:10A3A0002A2168460186FF2108A8817500210175D0
:10A3B000002010902888102813D0A88810AA022105
:10A3C000FFF719F80446002C0BD10C2110984843D4
:10A3D00008494018C17A08A881751098C1B208A828
:10A3E0004175288817287DD01FDC102824D011281B
:10A3F00079D017E0E02D002091800000802D002012
:10A4000018280020F0C7010014280020402E00204A
:10A41000E02B0020202800204C2E002014C8010032
:10A420008809000013287DD1D3E018287BD01C2890
:10A430007AD05228F7D1E0E110AF3A460121FE4828
:10A44000FEF7D9FF02900298002807D102210C22C2
:10A4500038685043F94A8018817201E00420029064
:10A4600002980446002C63D10126112108A801722C
:10A470001098C1B208A84175A9880C2210985043C1
:10A48000EE4A8018018102210C2210985043EB4AB9
:10A49000801881720C2210995143E84A88180722CB
:10A4A000A91D01F03AFF0FA9A81DFEF7D9FF044628
:10A4B000002C3DD10F98C1B20C2210985043DF4AB6
:10A4C0008018C1720C211098484311464018807AB8
:10A4D000082108430C2210995143D84A89188872E0
:10A4E00008A901E0A8E024E00F9888750F9881B2D0
:10A4F00001AAD34800F0D2FE0446002C17D11C223A
:10A5000010995143CF4A881818231C2201A900F042
:10A51000D3FFCD48807A8000CC490A580DA901A804
:10A52000904702E077E103E170E1044600BF00BF1D
:10A5300072E10C2110984843C0494018807A0221EA
:10A5400088430C2210995143BC4A891888720C2107
:10A550001098484311464018807A0821084008287E
:10A560000ED10C211098484311464018807A802162
:10A57000084080280FD100210DA8FEF790FF0AE0C7
:10A5800008A8807DFF2806D008A9887DFEF711FF66
:10A59000FF2008A988750C2110984843A749401846
:10A5A000807A04210840042807D101200E90A64893
:10A5B000407A40084000A449487210210C221098AB
:10A5C00050439E4A801881720126122008A9087201
:10A5D00022E10026002006909D4907910021089164
:10A5E0001C21109848439749401803900C2110985B
:10A5F000484392494018C07A182148439549401869
:10A60000049000200590A88803AB002211467FDF4C
:10A610000446002C01D009940DE00C211098484309
:10A6200086494018807A042108430C22109951432E
:10A63000824A89188872EFE08348407A40084000D7
:10A64000814948720C21109848437C494018807A0F
:10A65000042188430C2210995143784A8918887242
:10A66000142008A90872012601200E90A87900285C
:10A6700002D0A87909905AE0E8794007C00F56D077
:10A6800008A8807DFF2852D00C21109848436B49C0
:10A690004018807A082108430C2210995143674AD8
:10A6A00089188872A87A8007C00F0DD018211098D9
:10A6B000484368494018C07D410849001822109855
:10A6C0005043644A8018C1750C21109848435B4977
:10A6D0004018C07AFF282AD00C21109848435749C7
:10A6E000085C02281FD00C23109A5A430B46D1183D
:10A6F00008AA927D18235A43564BD21810461030A0
:10A70000072201F00AFE08A8807D1821484351491C
:10A710004018C07D0221884308A9897D1822514331
:10A720004C4A8918C87501210DA8FEF7B8FE73E0E0
:10A73000A879000901283FD1A8790007000F012856
:10A740003AD10C21109848433C494018807A08219E
:10A750000840082830D10C22109951433E4A8918EC
:10A76000081D062101F038FE162008A908720120F4
:10A770000E900C211098484330494018807A2021CF
:10A7800008430C22109951432C4A891888720C21D5
:10A790001098484311464018807A402108430C2203
:10A7A00010995143254A891888722748407A022116
:10A7B0000843254948721CE00C21109848431F4962
:10A7C0004018807A802108430C22109951431B4A7B
:10A7D00089188872152008A908721B48807A8000A1
:10A7E0001E4A11580DA888470446002C01D01C4869
:10A7F00009900020099001260EE01348807A80001D
:10A80000164A11580DA88847099005E0132008A999
:10A810000872012600E000BF00BF002E2DD00AA95B
:10A820000DA8099A00F098F808A8007A122824D1F7
:10A8300000BF0C21109815E0FFFF0000E02D002064
:10A8400018280020A02C0020402E0020F0C7010076
:10A850004C2E0020E02B0020802D002000C801009D
:10A860004180000048435C494018807A012802D0AA
:10A870001098FEF785FD00BF00BF0E98002827D076
:10A880005648407A02210840022821D107AA2021F7
:10A890005348FEF7B0FD0446002C12D1002108A851
:10A8A00001700798C1B208A841700C21079848436D
:10A8B00049494018C17A08A88170FEF701FF044693
:10A8C00005E04648407A022188434449487200BF67
:10A8D00000BF46E501218140424A12688A4341494E
:10A8E0000A607047F8B505460E463F4F00242EE03B
:10A8F000182060433D494018C07DFF2826D130789C
:10A90000022814D0182060434018C07D02218843DB
:10A9100018216143354A8918C8751821614389187F
:10A92000084610300722314601F0F7FC0BE01820F2
:10A9300060432E494018C07D4108490018206043FB
:10A940002A4A8018C1752C70002702E0641C082C6C
:10A95000CED300BF3846F8BDF8B504460D461646BE
:10A960001E480768324629462046B847F8BD0246C9
:10A970000020704770B505460E4631462846FEF762
:10A98000E4FD0446002C02D100BF00BF044620466F
:10A9900070BD02460020704770B505460E46314630
:10A9A0002846FEF72EFE0446002C02D100BF00BF51
:10A9B0000446204670BD01460020704770B505462C
:10A9C0002846FEF740FE0446002C02D100BF00BF1F
:10A9D0000446204670BD0000E02D0020402E0020DF
:10A9E000FFFF00002028002043800000E02B002013
:10A9F000002314214143F94A535414214143891837
:10AA00004B8001231421414389188B6000231421BA
:10AA100041438918CB601421414389180B611421EB
:10AA2000414389188B80704710B50020EC4908809D
:10AA3000EC490870E949091F0870487088700024C3
:10AA400003E02046FFF7D4FF641C042CF9D310BDAB
:10AA5000FFB583B004460F4615460326E14800784B
:10AA600000280BD1002D06D10698002803D1022022
:10AA7000DC49087002E00120DA490870D948007802
:10AA8000030001F040FE07FC05304D82B7D4FC0006
:10AA9000D5484069401C08D001221207126991B2C2
:10AAA000D14A506901F09AFC02E001200007406998
:10AAB000401E01210907096989B24843029001201B
:10AAC000000700690004820C01200007006980B2C1
:10AAD00078430146029821DF0646002E02D102206B
:10AAE000C0490870CCE0384620DF0646002E16D15B
:10AAF000002D11D1069800280AD12078042803D10E
:10AB00000720B84908700AE00520B649087006E039
:10AB10000420B449087002E00320B2490870AFE095
:10AB2000B1484069401C08D001221207126991B255
:10AB3000AD4A506901F052FC02E001200007406973
:10AB4000401E01210907096989B24843012109070B
:10AB50000290096989B2794308462A46029921DFA1
:10AB60000646002E10D1069800280AD12078042825
:10AB700003D106209B49087006E00520994908701A
:10AB800002E00420974908707AE097484069401C29
:10AB900008D001221207126991B2934A506901F05C
:10ABA0001DFC02E0012000074069401E0121090749
:10ABB000096989B24843A9004018618840180121F9
:10ABC00009070290096989B27943AA008918628845
:10ABD0008818069A029921DF0646002E09D12078AE
:10ABE000042803D106207F49087002E005207D4932
:10ABF000087045E001200007006980B27843AB008F
:10AC0000C0180290608882082169029821DF0646F8
:10AC1000002E0BD1002D06D10698002803D1072065
:10AC20007049087002E006206E49087028E06E48FE
:10AC30004069401C08D001221207126991B26A4A89
:10AC4000506901F0CBFB02E0012000074069401E83
:10AC500001210907096989B24843019001200007D1
:10AC6000006981B2019801F0B9FB029020DF06462D
:10AC7000002E02D107205B49087001E0FFE700BF0A
:10AC800000BF304607B0F0BDF0B585B00F27534880
:10AC9000001F00781421484350494418E568207883
:10ACA000022804D0042823D005286FD16FE0206942
:10ACB00003904B48008886026088801B04900398AC
:10ACC00080190390A08880194519012189020498F0
:10ACD000884206D2049882082846039921DF074655
:10ACE00005E0FF2201322846039921DF074680E074
:10ACF000A06800013D49401800890490A068000147
:10AD0000401840890390A0680001401840680290F4
:10AD10000298A84205D10399049848436188884263
:10AD200002D0A06802280DD101200007006981B27D
:10AD3000284601F053FB2A4909884618304620DF8F
:10AD4000074622E001200007006981B2284601F091
:10AD500045FB064601200007006980B27043281AAF
:10AD60008008019001200007006980B2711C4843EF
:10AD700061884919401A8008009031462046009B9E
:10AD8000019AFFF765FE074600BF32E030E0012080
:10AD90000007006981B2284601F020FB0646A08822
:10ADA000411901200007006980B27043081A800829
:10ADB0000490A088401961884218012000070069AA
:10ADC00080B2711C4843801A8008039031462046A7
:10ADD000039B049AFFF73CFE07460AE0682E00201A
:10ADE0002C2800202E28002000100010B82E002053
:10ADF00000BF00BF002F02D10120F94988703846FA
:10AE000005B0F0BDFFB581B0064617460024F448F2
:10AE10004078042836D0F2480078F1494978401843
:10AE2000C4B2042C01DB201FC4B214206043EC49DF
:10AE3000091D0E541420604340180761142060431C
:10AE40004118029805C8CA60886014206043E44A2B
:10AE5000121D8018049941801420604380180A99BB
:10AE600081800025101F8078002805D1FFF70CFF96
:10AE70000546112D00D10025D9484078401CD849FD
:10AE8000487000E00425284605B0F0BD10B5002448
:10AE9000D3484078002807DDFFF7F6FE0446002C73
:10AEA00002D0112C00D10024204610BDF8B5044674
:10AEB000CB48007814214843C949091D0E5C081F7E
:10AEC000007814214843C649091D401880680001D4
:10AED000C4490D58C248007814214843C049091D8F
:10AEE00040184088091F0090097814225143BC4A39
:10AEF000121D89180B69111F097814225143B84A91
:10AF0000121D89180846083022463146A847F8BD68
:10AF1000FEB505460026B248807801287ED1002083
:10AF2000AF498870B0480078082811D1022D03D1AC
:10AF30000020AD49087002E00020AC490870FFF71E
:10AF4000A5FF0646002E02D03046FFF7AFFFFEBD3C
:10AF5000022D02D0032D79D174E0A148007814218C
:10AF600048439F49091D4418A1480088401CA04936
:10AF700008802078022807D108460088800261886E
:10AF8000884201DB012000E00020074620780528E8
:10AF900005D195480078072801D1012000E0002064
:10AFA00002902078042805D18F480078072801D125
:10AFB000012000E000200190207804280BD18C486B
:10AFC000008880026188884205DB87480078002875
:10AFD00001D1012000E0002000900298002807D154
:10AFE0000198002804D10098002801D1002F1FD01B
:10AFF00000207D4908703046FFF758FF78490878EF
:10B00000FFF7F6FC00207A49088075484078401E1A
:10B010007349487008460078401C00E019E0087049
:10B0200008460078042803DB08460078001F0870F3
:10B03000FFF72CFF0646002E02D03046FFF736FF02
:10B0400005E003E00D20FFF731FF00E000BF00BF87
:10B0500000BF00BF7BE770B5FFF7E6FC0020654945
:10B06000088065484069401C08D001221207126917
:10B0700091B2614A506901F0B1F902E00120000784
:10B080004069801E01210907096989B248435B496B
:10B09000086000205649088000BF0DE00021020131
:10B0A000504B99500201D21811810201D21891819E
:10B0B0000201D2185181401C0028EFD008204A49D3
:10B0C00008704D484069401C08D0012212071269DF
:10B0D00091B2494A506901F081F902E0012000076C
:10B0E0004069401E01210907096989B248430646A3
:10B0F00001200007006981B2304601F06FF9054672
:10B1000020DF0446002C04D10120354988703749DE
:10B110000870204670BDF8B504460D4600BF3348A0
:10B120000078002801D10820F8BD00BF002C01D113
:10B130000E20F9E7002D01D10E20F5E72068002848
:10B1400001D10E20F0E7A08801210907096989B221
:10B15000884202DCA088102801DA0720E4E7E088B2
:10B1600000282FD024484069401C08D00122120733
:10B17000126991B2204A506901F030F902E00120D1
:10B1800000074069401E01210907096989B2484347
:10B19000E188A2885143194A12688918884211D35C
:10B1A000E088A188484301210907096989B28842DA
:10B1B0000ADDA18801221207126990B201F018F984
:10B1C000002901D00720AFE720798007800F01D048
:10B1D0000720A9E707480088012811D10420A3E728
:10B1E000642E0020B82E00202E28002024280020C5
:10B1F0002C280020262800200010001028280020DD
:10B20000FD4800882860FD4800686860FA490988A0
:10B210000901FB4A891868684860F74909880901EB
:10B2200020685050A088F4490988090189180881CC
:10B23000E088F14909880901891848810027A68812
:10B24000E1884E4300BF781C87B2012000070069E7
:10B2500080B2B04205D201200007006980B2361AE0
:10B2600000E0002601200007006980B2E349096878
:10B270004018E249086001200007006980B2B0422E
:10B28000E1D9DD4800880001DD4940188781DA48AE
:10B290000088401CD8490880002045E73CB503469B
:10B2A00000BFD8480078002801D108203CBD00BF6D
:10B2B000002B01D10E20F9E7002A01D10E20F5E77D
:10B2C0001868002805D118680001CD4C20580028C6
:10B2D00001D10720EAE75C68186801940090019C9E
:10B2E00018680001C64D4019008948432018019094
:10B2F000009800012C4600194089009C2401641923
:10B3000024896043009C2401641964680019019C2D
:10B31000A04201D80720C9E7019C00985460106042
:10B320000020C3E7F8B504460E4615461F4600BF89
:10B33000B4480078002801D10820F8BD00BF002ED5
:10B3400001D10E20F9E7002C01D10E20F5E720688D
:10B35000002805D120680001A9490858002801D11A
:10B360000720EAE720680001A549401840892168C4
:10B370000901A34A891809894843216809018918E4
:10B38000496840186168884201D80720D5E7002D38
:10B3900006D0206800019A4940180089A84201DAC5
:10B3A0000720CAE7E81921680901954A891809891F
:10B3B000884201DD0720C0E7304600F05BF9002835
:10B3C00004D0384600F056F9002801D11020B4E727
:10B3D000606800F04FF9002801D11020ADE72B463E
:10B3E0003246214602200097FFF70CFDA5E7F8B58D
:10B3F00004460E4615461F4600BF824800780028C6
:10B4000001D10820F8BD00BF002E01D10E20F9E7C0
:10B41000002C01D10E20F5E72068002805D1206816
:10B42000000177490858002801D10720EAE7206881
:10B43000000173494018408921680901704A891840
:10B4400009894843216809018918496840186168D9
:10B45000884201D80720D5E7002D06D020680001DA
:10B46000674940180089A84201DA0720CAE7E819AD
:10B4700021680901624A89180989884201DD07208B
:10B48000C0E7304600F0F6F8002804D0384600F057
:10B49000F1F8002801D11020B4E7606800F0EAF864
:10B4A000002801D11020ADE72B4632462146052069
:10B4B0000097FFF7A7FCA5E7FFB581B00C4615463E
:10B4C0001E4600BF4F480078002802D1082005B072
:10B4D000F0BD00BF002C01D10E20F8E70198002834
:10B4E00001D10E20F3E72068002805D12068000173
:10B4F00043490858002801D10720E8E720680001E7
:10B500003F4940184089216809013D4A8918098945
:10B5100048432168090189184968401861688842D0
:10B5200001D80720D3E7002D06D020680001344958
:10B5300040180089A84201DA0720C8E7A819216845
:10B5400009012F4A89180989884201DD0720BEE7D1
:10B55000019800F08FF8002804D0304600F08AF8F7
:10B56000002801D11020B2E7606800F083F80028BD
:10B5700001D11020ABE7606881192A46019800F0DC
:10B58000CCFE0095206800011D490F5800220321C0
:10B590002046019BB847002099E7F8B504460D46C0
:10B5A00000BF18480078002801D10820F8BD00BF6E
:10B5B000002C01D10E20F9E72068002805D1206871
:10B5C00000010F490858002801D10720EEE7206844
:10B5D00000010B494018408921680901084A89186F
:10B5E0000989484321680901891849684018616838
:10B5F000884209D80720D9E72628002028280020DB
:10B60000B82E002024280020606800F033F80028BD
:10B6100001D11020CAE723681B011A4FDB196268A9
:10B620005B68D01A226812013B46D218118900F0DB
:10B63000D5FE002901D00720B8E700202B4602469E
:10B64000214600900420FFF7DDFB06463046ADE7BB
:10B65000014600BF0C480078002801D1082070473F
:10B6600000BF002901D10E20F9E7084840780860A2
:10B670000020F4E701468807800F01D101207047C0
:10B680000020FCE7B82E002024280020642E002093
:10B690000246002112E0C800F94BC0188078937868
:10B6A00098420AD1C800F64B185A1388984204D120
:10B6B000C800F34BC01840687047491CF148006847
:10B6C0008142E8D30020F7E70246EE4800680228EE
:10B6D00015D2EC480068C000E94BC01813880380FD
:10B6E00053884380E7480068C000E54BC0184160BC
:10B6F000E4480068401CE34B1860002070470420B9
:10B70000FCE710B5002409E038226243DE4BD01874
:10B7100038226243D218516B8847641CD9480068AC
:10B720008442F1D30020D949086010BDF8B5044621
:10B730000D466020005D2E21484307193846FFF76B
:10B74000A7FF0646002E2ED0D048006802282AD235
:10B750005C20015BCD48006838225043CA4A8018FB
:10B7600041800121C948006838225043C64A11541B
:10B77000C648006838214843114640184560C34810
:10B78000006838214843114640184663BF480068A6
:10B79000401CBE49086008460068BA4909688842EA
:10B7A00001D1FFF7AEFFF8BDF8B504460D466020A5
:10B7B000005D2E21484307193846FFF769FF06460A
:10B7C000002E3CD0B1480068022838D25C20015BD2
:10B7D000AE48006838225043AB4A80184180002DA3
:10B7E00012D00021A948006838225043A64A1154BB
:10B7F000A649096838225143A34A8918081D2E22F8
:10B80000394600F08AFD06E00221A048006838228F
:10B8100050439D4A11549D480068382148439A4935
:10B820004018466399480068401C984908600846DB
:10B83000006894490968884201D1FFF762FFF8BDAA
:10B8400070B5044692480068401C9149086008465B
:10B8500000688C49096888422ED200215F2001557A
:10B860006020005D401CC1B260200155005D2E21AA
:10B87000484305196020005DC000814940180188D7
:10B88000298040886880002028715C20025B29881C
:10B89000804800F0B9FB5C21085B2A46012190DF5B
:10B8A0000646002E07D00021612001553146204672
:10B8B000FFF73CFF70BD02E000216120015500BF91
:10B8C000F8E710B502460B896020805C2E246043A7
:10B8D0008018808D834201DA012010BD0020FCE732
:10B8E00070B50446002A16D10D896020005D2E2611
:10B8F00070430019808D854201D1002070BD0889F8
:10B90000401C18806020005D2E2568430019808D42
:10B9100058800120F2E70889401CD588A84201D14F
:10B920000020EBE70889401C1880D088401E588012
:10B930000120E3E738B504466020005D2E2148432E
:10B9400005195F20005D002811D05F22125D521E94
:10B95000D1B26022125D2E235A4315190C224A439C
:10B96000AB1DD0180289521C6B461A8002E0688D0C
:10B9700069460880A88D694648805C21085B694655
:10B9800092DF38BDF0B585B004460F460020019027
:10B990006020005D2E21484305195F20005D0C21C9
:10B9A0004843A91D401802905F20005D401C297982
:10B9B000884207D103AB002220460299FFF790FF8F
:10B9C000019029E05F20065D21E02879401EB04209
:10B9D00002D10020009005E0701C0C214843A91DF5
:10B9E0004018009003AB2046009A0299FFF778FFB9
:10B9F000002802D0012001900CE0009802905F2006
:10BA0000005D401CC1B25F200155701CC6B2287990
:10BA1000B042DADC00BF00BF0198002804D1012049
:10BA20003870002005B0F0BD002038705C21085B44
:10BA300003A993DFF6E7F8B504460D4668880028A9
:10BA40002AD16020005D2E21484307192E46083672
:10BA500071883980B0887880F2887A853189B98593
:10BA60002046FFF767FF00900098002806D00021CD
:10BA70006120015520460099FFF758FE13E00000B1
:10BA8000C82E002038280020D82E0020342800207E
:10BA90003C28002058C8010000212046FFF784FE02
:10BAA0002046FFF7CDFEF8BDF3B587B00546002070
:10BAB00006906020405D2E21484344190898408834
:10BAC000002857D1089808300590207904900598EF
:10BAD00000780390039904984018032804DC217926
:10BAE00003980818207101E003202071049E0020B3
:10BAF000029017E00A22029842430598801C111810
:10BB00000C207043A21D83180A22184600F005FC81
:10BB100000210C207043A21D80184181761C0298E0
:10BB2000401C02902079B042E4D8701E0C2148439A
:10BB3000A11D4018019028460199FFF7C2FE002878
:10BB400002D02079032802D10120069011E021794A
:10BB50005F2041552846FFF7EDFE0746002F08D02D
:10BB600000216120415539462846FFF7DFFD09B025
:10BB7000F0BD01E0012006900698002823D00021A6
:10BB80005F20415505A92846FFF7FCFE0746002F18
:10BB900007D000216120415539462846FFF7C6FDF0
:10BBA000E5E76846007D00280CD05C20425B2188D8
:10BBB000924800F029FA01212846FFF7F5FD2846B2
:10BBC000FFF73EFE00BF00BFD1E7FEB504460D46BD
:10BBD0006020005D2E21484307192E4608365F205D
:10BBE000005D0C214843B91D401802906888002868
:10BBF00016D100BF0FE006214143B21C89184988C5
:10BC00007F4A914206D106214143B21C525A029901
:10BC10004A8103E0401C31888142ECD800BF00BF5C
:10BC2000002001905F20005D401C3979884202D1DC
:10BC30000120019016E05F20005D401CC1B25F2032
:10BC4000015501A92046FFF79DFE009000980028AD
:10BC500007D000216120015520460099FFF766FDBD
:10BC6000FEBD00BF6846007900280DD05C20025B55
:10BC7000398862485C3000F0C7F901212046FFF79F
:10BC800093FD2046FFF7DCFD00BFE9E700205D499A
:10BC9000086001205C49087000205C4908605C492C
:10BCA0000860704700205749086057490870574995
:10BCB000086057490860704770B504460D46002C6F
:10BCC00001D0002D01D10E2070BD4F480078002812
:10BCD00001D10820F8E74B480068022801D106206E
:10BCE000F2E729462046FFF7EFFCEDE7F8B50446FA
:10BCF0000F46002C01D10E20F8BD434800780028E3
:10BD000001D10820F8E73F480068002801D1082049
:10BD1000F2E76120005D002801D01120ECE700204F
:10BD20003A4908603A4908600021602001555C20CA
:10BD300007536020005D2E21484305196020005DF7
:10BD4000C0003449401801882980408868805C2000
:10BD5000025B29882948503800F056F95C21085BBD
:10BD60002A46012190DF0646002E01D03046C3E767
:10BD70000121612001550020BEE770B505460C4643
:10BD8000002D01D0002C00D170BD1F480078002884
:10BD900000D1F9E72088302817D004DC102807D01C
:10BDA000112827D108E0322814D0332822D119E0F5
:10BDB000A1885C2041531EE06221284600F00AFB66
:10BDC0000021C9435C20415315E0211D2846FFF79F
:10BDD00032FE10E010A000F017F9211D2846FFF7F1
:10BDE00063FE08E00CA000F00FF9211D2846FFF7C4
:10BDF000ECFE00E000BF00BF00BFC5E7A8C801001F
:10BE00000229000038280020302800203C2800208B
:10BE100034280020C82E0020424C455F474154542E
:10BE2000435F4556545F434841525F444953435F23
:10BE30005253500D0A00000070B506460C461546D8
:10BE400029462046FCF778FA70BDF8B559480078C5
:10BE5000002800D1F8BD58480068002801D1012011
:10BE600000E00020054655480068002801D1012067
:10BE700000E00020064600BF002D14D1684651DFC7
:10BE80000446052C01D101250CE0002C06D000BF92
:10BE90004BA269212046FCF73BFA03E04649009893
:10BEA0000968884700BF002E1AD1534800880090C7
:10BEB00069465248006860DF0446052C01D101261E
:10BEC0000DE0002C06D000BF3DA280212046FCF7EB
:10BED0001FFA04E04948006838490968884700BFEC
:10BEE000002D02D0002E00D000E0C5E700BF00BF4B
:10BEF000B0E7FFB581B00C4616461F46002C02D1B4
:10BF0000072005B0F0BD20468107890F01D101212E
:10BF100000E00021002901D10720F2E73748046042
:10BF200035480680364807603649019810DF0546D7
:10BF3000002D01D02846E4E701201E490870162094
:10BF400026DFDEE710B511DF0446002C01D001200A
:10BF500000E0002017490870204610BD0146002966
:10BF600001D10E207047154801600020FAE7014614
:10BF7000002901D10E2070470F4801600020FAE728
:10BF800070B51F480068002811D01D480068804720
:10BF9000044600BF2546002D07D000BF08A2FF21A0
:10BFA00033312846FCF7B4F900BF00BF01E0FFF7CA
:10BFB0004CFF70BD4028002054280020502800204D
:10BFC0002E2E5C2E2E5C2E2E5C2E2E5C2E2E5C5386
:10BFD0006F757263655C73645F636F6D6D6F6E5CCC
:10BFE000736F66746465766963655F68616E646CBF
:10BFF00065722E63000000004C28002048280020B5
:10C000004428002039BE01000FB4054910B503AA29
:10C01000029800F003FB10BC08BC04B018470000F5
:10C020000C28002070B5044685690068C10601D55A
:10C03000302600E02026C00707D070BD6268304679
:10C04000A1689047206A401C20626D1EF6D570BD25
:10C0500070B5044685690078C00707D170BD626875
:10C06000A16820209047206A401C20626D1EF6D5F2
:10C0700070BD70B50C460546012A05D028788006AB
:10C0800000D5EA69002302E0012305E05B1C93422E
:10C0900002D2E05C0028F9D1A869E618C01AA861AC
:10C0A000286AC01828622846FFF7BCFF04E06A68C7
:10C0B0002078A968641C9047B442F8D32846FFF75B
:10C0C000C7FF70BDF7B5002575291068009914A643
:10C0D00011D0C046C046002802DA404211A608E04E
:10C0E000009909688A0701D50FA602E0490704D51F
:10C0F0000EA6012501E0C046C046009F002424375B
:10C1000004E000F09FFA30313955641C0028F8D162
:10C110002B4632462146009800F010FAFEBD000082
:10C12000000000002D0000002B0000002000000097
:10C1300070B504460D4621461068C046C0462188A9
:10C14000090502D50F4A7A4402E00E4A7A440E32BB
:10C1500023460021243305E00607360F965D5E5422
:10C16000491C00090028F7D120780023000705D5D5
:10C17000702D03D0002901D011320223204600F097
:10C18000DDF970BD16080000F3B50446002081B04B
:10C1900020622046E168884700287DD0252802D00B
:10C1A0006268A16883E0454F00257F442046E1682E
:10C1B00088472028064608DB312E06D2B8192038D9
:10C1C0000078002801D00543F0E7A80701D5042036
:10C1D00085430020E0610746A0612A2E0AD0304640
:10C1E00000F09FFA002827D0303EB80000190090D8
:10C1F000866119E00298BA00121902C89161029092
:10C200002046E1688847012F064617D1E0690028DB
:10C210001FDA202085431CE000980A2180694843EA
:10C2200000998019303888612046E16888470646C1
:10C2300000F077FA0028EFD1012F0AD02E2E08D176
:10C240002046E16888470646202005437F1C022FD0
:10C25000C3DBA069002803DA4042A0610120054346
:10C26000E80701D010208543002E25D03046413804
:10C27000192803D80120C002054320362046256036
:10C280003146029A1546FBF759FF00280CD00128C9
:10C2900007D0ED1DE80800E00EE0C0000830029075
:10C2A00077E72D1D029574E762683046A1689047D4
:10C2B000206A401C20626CE7206AFEBDDA0700009D
:10C2C000034610B50B439B070FD1042A0DD308C8B2
:10C2D00010C9121FA342F8D018BA21BA884201D956
:10C2E000012010BD0020C04310BD002A03D0D30799
:10C2F00003D0521C07E0002010BD03780C78401CCE
:10C30000491C1B1B07D103780C78401C491C1B1BC4
:10C3100001D1921EF1D1184610BDF8B5042A2CD3D4
:10C32000830712D00B78491C0370401C521E8307F0
:10C330000BD00B78491C0370401C521E830704D09D
:10C340000B78491C0370401C521E8B079B0F05D0B5
:10C35000C91ADF002023DE1B08C90AE0FBF726FF0D
:10C36000F8BD1D4608C9FD401C46B4402C4310C012
:10C37000121F042AF5D2F308C91A521EF0D40B7802
:10C38000491C0370401C521EEAD40B78491C0370F0
:10C39000401C521EE4D409780170F8BD01E004C0CD
:10C3A000091F0429FBD28B0701D50280801CC90715
:10C3B00000D00270704700290BD0C30702D0027072
:10C3C000401C491E022904D3830702D50280801C29
:10C3D000891EE3E70022EEE70022DFE700220309DF
:10C3E0008B422CD3030A8B4211D300239C464EE090
:10C3F00003460B433CD4002243088B4231D303094C
:10C400008B421CD3030A8B4201D394463FE0C309FD
:10C410008B4201D3CB01C01A524183098B4201D315
:10C420008B01C01A524143098B4201D34B01C01A00
:10C43000524103098B4201D30B01C01A5241C30878
:10C440008B4201D3CB00C01A524183088B4201D3E7
:10C450008B00C01A524143088B4201D34B00C01AD3
:10C460005241411A00D201465241104670475DE0E8
:10C47000CA0F00D04942031000D34042534000226B
:10C480009C4603098B422DD3030A8B4212D3FC2214
:10C49000890112BA030A8B420CD3890192118B4293
:10C4A00008D3890192118B4204D389013AD09211A9
:10C4B00000E08909C3098B4201D3CB01C01A524164
:10C4C00083098B4201D38B01C01A524143098B422D
:10C4D00001D34B01C01A524103098B4201D30B0116
:10C4E000C01A5241C3088B4201D3CB00C01A52413B
:10C4F00083088B4201D38B00C01A5241D9D2430822
:10C500008B4201D34B00C01A5241411A00D201465E
:10C51000634652415B10104601D34042002B00D5C8
:10C520004942704763465B1000D3404201B500208A
:10C53000C046C04602BD704770477047FFB504460D
:10C540000D4681B0243000902168880604D5102261
:10C55000E0699143216000E00120A84201DD471B12
:10C5600000E000270498A1697A191018081AA06140
:10C570002078C00602D42046FFF754FD002608E0CC
:10C5800003986268A168805D9047206A401C761C11
:10C59000206204988642F3DB2078C0060AD5204644
:10C5A000FFF740FD06E06268A16830209047206AEE
:10C5B000401C206238467F1E0028F4DC07E000980B
:10C5C0006268A168405D9047206A401C206228464E
:10C5D0006D1E0028F3DC2046FFF73AFD20780006A8
:10C5E00002D5022005B0F0BD0120FBE710B543697C
:10C5F000002B02D0C046C04601E0FFF73AFD012003
:10C6000010BD1278014624310A7000224A700122BE
:10C61000ECE711680022D243E8E70000084B70B550
:10C620000D467B4400F027F80446284600F036F813
:10C63000002802D00020C04370BD204670BD00001D
:10C64000FBCBFFFF01468008081A02091018020AF6
:10C650001018020C1018C008820012185200891A13
:10C6600001E00A39401C0A29FBD2704701694A1CC3
:10C6700002610878704700B58FB0029100210591E2
:10C680000549019379440391114604906846FFF7E8
:10C690007BFD0FB000BD0000E5FFFFFFC0688021FB
:10C6A00008407047754600F023F8AE46050069461D
:10C6B0005346C008C000854618B020B5FBF7A6FD5C
:10C6C00060BC00274908B6460026C0C5C0C5C0C525
:10C6D000C0C5C0C5C0C5C0C5C0C5403D49008D4628
:10C6E00070470446C046C0462046FBF748FD0000A0
:10C6F00000487047482F002001491820ABBEFEE7D4
:10C7000026000200704730B47446641E2578641C0D
:10C71000AB4204D3635D5B00E31830BC18471D4691
:10C72000F8E730380A2801D201207047002070470E
:10C730000000000000000000A00050000000000009
:10C7400018003000000090015B4150504C5D3A5B96
:10C7500025303258202530325820253032582025B7
:10C76000303258202530325820253032585D3A205A
:10C77000436F6E6E656374696F6E2045737461629A
:10C780006C69736865640D0A000000005B415050DD
:10C790004C5D3A5B3078253032585D203E3E204477
:10C7A0004D5F4556545F53454355524954595F5365
:10C7B000455455505F434F4D504C4554452C2072C5
:10C7C0006573756C74203078253038580D0A000078
:10C7D0009ECADC240EE5A9E093F3A3B50000406EE9
:10C7E0006FA901004B950100FD95010075A901009D
:10C7F00093A90100039601004196010099A9010047
:10C80000B7A9010047960100BB960100BDA9010030
:10C81000FFFFFFFF2E2E5C2E2E5C2E2E5C2E2E5C3C
:10C820002E2E5C536F757263655C626C655C64652B
:10C83000766963655F6D616E616765725C6465767C
:10C840006963655F6D616E616765725F63656E7474
:10C8500072616C2E630000005B44425D3A205374A9
:10C86000617274696E6720646973636F766572794B
:10C87000206F6620736572766963652077697468D6
:10C880002055554944203078257820666F72204322
:10C890006F6E6E656374696F6E2068616E646C653F
:10C8A0002025640D0A0000005B44425D3A20446983
:10C8B00073636F76657279206F662073657276692F
:10C8C0006365207769746820555549442030782580
:10C8D0007820636F6D706C65746564207769746827
:10C8E000207375636365737320666F7220436F6E88
:10C8F0006E656374696F6E2068616E646C65202577
:10C90000640D0A005B44425D3A20446973636F76AC
:10C91000657279206F66207365727669636520772A
:10C920006974682055554944203078257820636F14
:10C930006D706C65746564207769746820737563C5
:10C940006365737320666F7220436F6E6E656374E8
:10C95000696F6E68616E646C652025640D0A000065
:10C960003031323334353637383941424344454625
:10C97000403058003031323334353637383961621F
:10C980006364656640307800040000080000000021
:10C99000000000020001000010000000BCC90100FE
:10C9A00000280020580000000481010014CA010082
:10C9B0005828002050170000208101000024F400B6
:10C9C0000000000000000000000000000000000067
:10C9D0000000000000000000000000000000000057
:10C9E0000000000000000000000000000000000047
:10C9F0000000000000000000000000000000000037
:10CA00000000000000000000000000000000000026
:04CA10000000000022
:04000005000180C1B5
:00000001FF
