:020000040001F9
:1060000018370020C1610100DB610100DD61010082
:106010000000000000000000000000000000000080
:10602000000000000000000000000000DF6101002F
:106030000000000000000000E1610100E3610100D8
:10604000E5610100E5610100E5610100E561010034
:10605000E561010000000000C5910100E56101005B
:10606000E5610100E5610100E5610100E561010014
:10607000E5610100E5610100E5610100E561010004
:10608000E561010081860100E5610100E561010033
:10609000A3860100E5610100158E0100E5610100A4
:1060A000E5610100E5610100000000000000000062
:1060B00000000000000000000000000000000000E0
:1060C00000F002F800F040F80CA030C8083824189E
:1060D0002D18A246671EAB4654465D46AC4201D120
:1060E00000F032F87E460F3E0FCCB6460126334212
:1060F00000D0FB1AA246AB46334318474C3700008A
:106100006C370000103A02D378C878C1FAD8520729
:1061100001D330C830C101D504680C60704700005D
:106120000023002400250026103A01D378C1FBD8B3
:10613000520700D330C100D50B6070471FB5C04671
:10614000C0461FBD10B510BD03F03DFB1146FFF763
:10615000F5FF00F071FB03F055FB03B4FFF7F2FF0E
:1061600003BC03F059FB0000401E00BF00BF00BF8E
:1061700000BF00BF00BF00BF00BF00BF00BF00BF27
:1061800000BFF1D17047000070B505460C461646B9
:1061900002E00FCC0FC5103E102EFAD2082E02D30B
:1061A00003CC03C5083E042E07D301CC01C5361F1E
:1061B00003E021782970641C6D1C761EF9D270BD35
:1061C00003210C4802680A4302600B4802680A4334
:1061D00002600A4880470A480047FEE7FEE7FEE7FC
:1061E000FEE7FEE7FEE7000006480749074A084BBE
:1061F000704700002405004054050040AB620100D8
:10620000C16001001827002018370020182F002037
:10621000182F00202E482F49086070472E48008C08
:10622000C0B2012810D12C48808C0007000F0BD180
:106230002948806AF0210840402805D12648C06AD4
:10624000084201D1012070470020FCE72248008C61
:10625000C0B2012827D12048808C0007000F22D12E
:106260001D48806AF021084205D11B48C06A0842D7
:1062700001D1012070471848806AF0210840102899
:1062800005D11548C06A084201D10120F2E7124841
:10629000806AF0210840302805D10F48C06A0842C2
:1062A00001D10120E6E70020E4E710B5FFF7CEFFBB
:1062B000002805D009480A494860C813094988617F
:1062C000FFF7ACFF002802D001200749886010BD0D
:1062D0000024F40000200020C00F00F0DFFF07C002
:1062E00000050040006C0040000600400F2000F058
:1062F000CCFA00BFBFF34F8FFD48FE49C860BFF323
:106300004F8F00BF00BFFEE704460D462A462146D8
:10631000F948FFF7EBFF10B5082000F0ADFA0920AF
:1063200000F0AAFA0F2000F0A7FA10BD38B500BFA0
:10633000F248F34B052202210090002002F0B5F94B
:10634000044600BF2546002D05D000BFEDA2B821B0
:106350002846FFF7CBFF00BF00BF38BD3EB500BFEA
:106360006846007801090901491C009168460078D7
:10637000F02188431030009000BF0F22E4A168464E
:106380007CDF044600BF2546002D05D000BFDDA2FE
:10639000D3212846FFF7AAFF00BF002001900290FA
:1063A000FF219131684681804900C180002101812F
:1063B000FF219131418101A87ADF044600BF2546C3
:1063C000002D05D000BFCFA2E1212846FFF78EFFA8
:1063D00000BF3EBD30B591B005210191D0480068A5
:1063E00000903C2102A803F03CF902200290012118
:1063F00068464173018201A90591012181846946A2
:106400000A91002102A801F0E7FB044600BF2546DF
:10641000002D05D000BFBBA2FE212846FFF766FF76
:1064200000BF11B030BD70471E20BE49088008462D
:10643000807840084000401C88700846807802211F
:106440008843B8498870084680781C2188430C30FE
:10645000B44988700846807820218843B149887003
:106460000720C87010200871704770B5054628686D
:10647000002810D13B21AC48008876DF044600BFDD
:106480002646002E06D000BF9EA2FF212A313046AC
:10649000FFF72CFF00BF70BD044600BF99A2FF218B
:1064A00035312046FFF722FF30B587B01C21684602
:1064B00003F0D7F8002000900520C00301900F20C2
:1064C000000402900321684601730021C181017418
:1064D0009648059096480690684602F0C6FA04462B
:1064E00000BF2546002D06D000BF86A2FF214C31FB
:1064F0002846FFF7FBFE00BF07B030BD704730B540
:1065000085B01421684603F0ACF80021684601709C
:10651000002001906846017240210182B42141822D
:1065200073DF044600BF2546002D06D000BF75A2CC
:10653000FF216D312846FFF7D9FE00BF082000F08B
:10654000A4F905B030BDF8B50546288814284ED00A
:1065500006DC10280BD0112813D0132872D11AE0B2
:1065600017283ED019286FD05228F7D126E00920ED
:1065700000F08BF9082000F08DF9A8886A4908809E
:1065800088E0092000F086F90020C04366490880B1
:10659000FFF7B5FF7EE0634A0021634800887FDF94
:1065A000044600BF2746002F06D000BF55A2FF219A
:1065B000A0313846FFF79AFE00BF6BE0002211467B
:1065C00059480088A9DF044600BF2746002F06D09F
:1065D00000BF4CA2FF21A5313846FFF787FE00BF60
:1065E00058E03222A91D534802F0DCFF52E0514E20
:1065F000B61D3188E889814211D1002231464A48CE
:10660000008881DF044600BF2746002F06D000BF68
:106610003CA2FF21B1313846FFF768FE11E00022AD
:1066200011464148008881DF044600BF2746002FFD
:1066300006D000BF33A2FF21B7313846FFF756FE20
:1066400000BF27E025E0FFE7A879002820D1082037
:1066500000F020F90020014603220092009A120463
:106660008B001A4305231B0707273F02DB1987000E
:10667000DA5100BF34DF044600BF2746002F06D0A2
:1066800000BF20A2FF21C7313846FFF72FFE00BF11
:1066900000E000BF00BFF8BD10B504462046FFF77C
:1066A00052FF204602F0B5FA10BD10B50446204650
:1066B00000F017FC10BDF8B500BF002350221E49A2
:1066C000082002F060FB054600BF2E46002E06D0D3
:1066D00000BF0CA2FF21FA313046FFF707FE00BFD2
:1066E00000BF002000900090684660DF044625E06F
:1066F0000400FA0500ED00E0EFBEADDE9F6801008A
:10670000B42000202E2E5C6D61696E2E63000000A7
:106710004E6F726469635F54656D706C617465007F
:106720004498010006200020042000206B64010032
:1067300099640100CC2200200023002000BF2546E0
:10674000002D06D000BF7A4A012149022846FFF7F2
:10675000CDFD00BF774802F04BFB044600BF254645
:10676000002D06D000BF724A812189002846FFF71C
:10677000BDFD00BF704802F044FB044600BF254643
:10678000002D06D000BF6A4A4121C9002846FFF704
:10679000ADFD00BFF8BD70B500BF684A0A210820F2
:1067A00001F062FA044600BF2546002D06D000BF66
:1067B0005F4A212109012846FFF798FD00BF00BF6D
:1067C00070BD70B500BF5E49012002F078FD04463F
:1067D00000BF2546002D05D000BF554A594928461F
:1067E000FFF784FD00BF00BF70BD70B500BF564B02
:1067F000564A0121564802F0DBFB044600BF2546FD
:10680000002D06D000BF4A4A4E4911312846FFF7F5
:106810006DFD00BF00BF70BD70B540DF044600BF16
:106820002546002D06D000BF414A46491E31284664
:10683000FFF75CFD00BF70BDFFF76DFDFFF776FD54
:10684000FFF7BFFFFFF7D1FFFFF735FFFFF7A3FF0C
:10685000FFF784FDFFF7BEFDFFF7E5FDFFF724FE20
:10686000FFF7E2FDFFF74AFEFFF749FE00BF01F028
:10687000E3FAFFF7D1FFFAE7032105221207072306
:106880001B02D2188300D150704701218140314A48
:1068900091607047012181402E4AD16070477CB5DC
:1068A00004460D46009401952B4A0821684601F0E4
:1068B000FBF97CBD7CB504460D461646009468463F
:1068C00005714671254A082101F0EEF97CBDF8B545
:1068D00004460D46264600BF082D01D1012000E0E8
:1068E00000200746002F05D100BF1DA2FF211B314C
:1068F000FFF7FCFC00BF316870688847F8BDF8B549
:1069000005460E462C4600BF082E01D1012000E0AE
:1069100000200746002F04D100BF1DA2A821FFF7C9
:10692000E5FC00BF6179207922689047F8BD00003E
:106930000467010099660100AB6601005023002046
:106940000024002031020000B56801006606000046
:106950001424002000050050CF680100FF680100EA
:106960002E2E5C2E2E5C2E2E5C2E2E5C2E2E5C4946
:106970006E636C7564655C6170705F636F6D6D6F85
:106980006E5C6170705F74696D65722E68000000E6
:106990002E2E5C2E2E5C2E2E5C2E2E5C2E2E5C4916
:1069A0006E636C7564655C6170705F636F6D6D6F55
:1069B0006E5C6170705F627574746F6E2E6800003B
:1069C000002314214143F94A5354142141438918A7
:1069D0004B8002231421414389188B60002314212A
:1069E00041438918CB601421414389180B6114215C
:1069F000414389188B80704710B50020EC4908800E
:106A0000EC490860E949091F087048708870002443
:106A100003E02046FFF7D4FF641C1E2CF9D310BD01
:106A2000FFB583B004460F4615460326E1480068CB
:106A300000280BD1002D06D10698002803D1022092
:106A4000DC49086002E00120DA490860D9480068A2
:106A5000030002F0E8FE07FC05304D82B7D4FC00CD
:106A6000D5484069401C08D001221207126991B232
:106A7000D14A506902F0F7FD02E0012000074069A9
:106A8000401E01210907096989B24843029001208B
:106A9000000700690004820C01200007006980B231
:106AA00078430146029821DF0646002E02D10220DB
:106AB000C0490860CCE0384620DF0646002E16D1DB
:106AC000002D11D1069800280AD12078042803D17E
:106AD0000720B84908600AE00520B649086006E0CA
:106AE0000420B449086002E00320B2490860AFE026
:106AF000B1484069401C08D001221207126991B2C6
:106B0000AD4A506902F0AFFD02E001200007406984
:106B1000401E01210907096989B24843012109077B
:106B20000290096989B2794308462A46029921DF11
:106B30000646002E10D1069800280AD12078042895
:106B400003D106209B49086006E0052099490860AA
:106B500002E00420974908607AE097484069401CA9
:106B600008D001221207126991B2934A506902F0CB
:106B70007AFD02E0012000074069401E012109075B
:106B8000096989B24843A900401861884018012169
:106B900009070290096989B27943AA0089186288B5
:106BA0008818069A029921DF0646002E09D120781E
:106BB000042803D106207F49086002E005207D49B2
:106BC000086045E001200007006980B27843AB000F
:106BD000C0180290608882082169029821DF064669
:106BE000002E0BD1002D06D10698002803D10720D6
:106BF0007049086002E006206E49086028E06E488F
:106C00004069401C08D001221207126991B26A4AF9
:106C1000506902F028FD02E0012000074069401E93
:106C200001210907096989B2484301900120000741
:106C3000006981B2019802F016FD029020DF06463D
:106C4000002E02D107205B49086001E0FFE700BF8A
:106C500000BF304607B0F0BDF0B585B00F275348F0
:106C6000001F00781421484350494418E5682078F3
:106C7000022804D0042823D005286FD16FE02069B2
:106C800003904B48008886026088801B049003981C
:106C900080190390A0888019451901218902049860
:106CA000884206D2049882082846039921DF0746C5
:106CB00005E0FF2201322846039921DF074680E0E4
:106CC000A06800013D49401800890490A0680001B7
:106CD000401840890390A068000140184068029065
:106CE0000298A84205D103990498484361888842D4
:106CF00002D0A06803280DD101200007006981B2ED
:106D0000284602F0B0FC2A4909884618304620DFA0
:106D1000074622E001200007006981B2284602F000
:106D2000A2FC064601200007006980B27043281AC1
:106D30008008019001200007006980B2711C48435F
:106D400061884919401A8008009031462046009B0E
:106D5000019AFFF765FE074600BF32E030E00120F0
:106D60000007006981B2284602F07DFC0646A08833
:106D7000411901200007006980B27043081A800899
:106D80000490A0884019618842180120000700691A
:106D900080B2711C4843801A800803903146204617
:106DA000039B049AFFF73CFE07460AE024240020D8
:106DB0001420002018200020001000107C26002045
:106DC00000BF00BF002F02D10120F749887038466C
:106DD00005B0F0BDFFB581B0064617460024F24865
:106DE00040781E2837D0F0480078EF49497840189D
:106DF000C4B21E2C02DB20461E38C4B214206043ED
:106E0000E949091D0E5414206043401807611420FD
:106E100060434118029805C8CA6088601420604326
:106E2000E14A121D801804994180142060438018A3
:106E30000A9981800025101F8078002805D1FFF76E
:106E40000BFF0546112D00D10025D7484078401C86
:106E5000D549487000E00425284605B0F0BD10B5BE
:106E60000024D1484078002807DDFFF7F5FE0446EE
:106E7000002C02D0112C00D10024204610BDF8B502
:106E80000446C948007814214843C749091D0E5CCF
:106E9000081F007814214843C349091D4018806821
:106EA0000001C2490D58C048007814214843BE492A
:106EB000091D40184088091F009009781422514389
:106EC000B94A121D89180B69111F09781422514300
:106ED000B54A121D89180846083022463146A8478F
:106EE000F8BDFEB505460026AF48807801287DD163
:106EF0000020AD498870AE480068082811D1022DE5
:106F000003D10020AA49086002E00020A9490870C6
:106F1000FFF7A5FF0646002E02D03046FFF7AFFF71
:106F2000FEBD022D02D0032D79D174E09E48007879
:106F3000142148439C49091D44189F480088401C5F
:106F40009D4908802078022807D1084600888002E1
:106F50006188884201DB012000E00020074620789C
:106F6000052805D192480068072801D1012000E0DA
:106F7000002002902078042805D18D480068072859
:106F800001D1012000E000200190207804280BD1DD
:106F90008948008880026188884205DB844800684F
:106FA000002801D1012000E0002000900298002874
:106FB00007D10198002804D10098002801D1002FA2
:106FC0001FD000207A4908603046FFF758FF764905
:106FD0000878FFF7F5FC0020774908807248407870
:106FE000401E714948700846007800E01AE0401CD5
:106FF0000870084600781E2803DB084600781E3813
:107000000870FFF72CFF0646002E02D03046FFF72F
:1070100036FF05E003E00D20FFF731FF00E000BF81
:1070200000BF00BF00BF7BE770B5FFF7E5FC0020A5
:107030006249088062484069401C08D0012212075A
:10704000126991B25E4A506902F00DFB02E0012024
:1070500000074069C01E01210907096989B2484338
:107060005849086000205449088000BF0DE0002105
:1070700002014E4B99500201D21811810201D2181F
:1070800091810201D2185181401C0228EFD30820BF
:10709000474908604A484069401C08D0012212074D
:1070A000126991B2464A506902F0DDFA02E001200D
:1070B00000074069401E01210907096989B2484358
:1070C000064601200007006981B2304602F0CBFA83
:1070D000054620DF0446002C04D101203249887087
:1070E00034490870204670BDF8B504460D4600BF0F
:1070F00030480078002801D10820F8BD00BF002CDE
:1071000001D10E20F9E7002D01D10E20F5E720680E
:10711000002801D10E20F0E7A088012109070969A4
:1071200089B2884202DCA088102801DA0720E4E74F
:10713000E08800282FD022484069401C08D0012256
:107140001207126991B21E4A506902F08CFA02E0ED
:10715000012000074069401E01210907096989B221
:107160004843E188A2885143164A12688918884228
:1071700011D3E088A188484301210907096989B230
:1071800088420ADDA18801221207126990B202F03A
:1071900074FA002901D00720AFE720798007800F1B
:1071A00012D00720A9E70000202400207C26002020
:1071B000182000200C200020142000200E20002089
:1071C0000010001010200020FE480088022801D185
:1071D000042092E7FB4800882860FB48006868604C
:1071E000F84909880901F94A891868684860F54929
:1071F0000988090120685050A088F24909880901CE
:1072000089180881E088EF490988090189184881AF
:107210000027A688E1884E4300BF781C87B2012072
:107220000007006980B2B04205D201200007006962
:1072300080B2361A00E0002601200007006980B203
:10724000E14909684018E049086001200007006929
:1072500080B2B042E1D9DB4800880001DB49401828
:107260008781D8480088401CD6490880002044E720
:107270003CB5034600BFD6480078002801D108205D
:107280003CBD00BF002B01D10E20F9E7002A01D13F
:107290000E20F5E71868022805D218680001CB4CCB
:1072A0002058002801D10720EAE75C68186801949B
:1072B0000090019C18680001C44D401900894843A2
:1072C00020180190009800012C4600194089009C6C
:1072D0002401641924896043009C240164196468B2
:1072E0000019019CA04201D80720C9E7019C009821
:1072F000546010600020C3E7F8B504460E461546FA
:107300001F4600BFB2480078002801D10820F8BD10
:1073100000BF002E01D10E20F9E7002C01D10E2074
:10732000F5E72068022805D220680001A74908581F
:10733000002801D10720EAE720680001A34940188E
:10734000408921680901A14A8918098948432168AF
:1073500009018918496840186168884201D80720E6
:10736000D5E7002D06D02068000198494018008913
:10737000A84201DA0720CAE7E81921680901934AFF
:1073800089180989884201DD0720C0E7304600F0EE
:107390005CF9002804D0384600F057F9002801D1E4
:1073A0001020B4E7606800F050F9002801D11020E7
:1073B000ADE72B463246214602200097FFF70AFD33
:1073C000A5E7F8B504460E4615461F4600BF80489F
:1073D0000078002801D10820F8BD00BF002E01D19F
:1073E0000E20F9E7002C01D10E20F5E720680228D5
:1073F00005D22068000175490858002801D10720EE
:10740000EAE72068000171494018408921680901B4
:107410006E4A891809894843216809018918496811
:1074200040186168884201D80720D5E7002D06D0B2
:1074300020680001654940180089A84201DA072048
:10744000CAE7E81921680901604A89180989884250
:1074500001DD0720C0E7304600F0F7F8002804D02F
:10746000384600F0F2F8002801D11020B4E7606837
:1074700000F0EBF8002801D11020ADE72B46324692
:10748000214605200097FFF7A5FCA5E7FFB581B0D1
:107490000C4615461E4600BF4D480078002802D114
:1074A000082005B0F0BD00BF002C01D10E20F8E788
:1074B0000198002801D10E20F3E72068022805D2A8
:1074C0002068000141490858002801D10720E8E759
:1074D000206800013D4940184089216809013B4A64
:1074E00089180989484321680901891849684018A1
:1074F0006168884201D80720D3E7002D06D02068B4
:107500000001324940180089A84201DA0720C8E783
:10751000A819216809012D4A89180989884201DDC5
:107520000720BEE7019800F090F8002804D030460C
:1075300000F08BF8002801D11020B2E7606800F05D
:1075400084F8002801D11020ABE7606881192A4631
:10755000019802F027F80095206800011B490F5898
:10756000002203212046019BB847002099E7F8B587
:1075700004460D4600BF16480078002801D10820B7
:10758000F8BD00BF002C01D10E20F9E720680228C9
:1075900005D2206800010D490858002801D10720B4
:1075A000EEE7206800010949401840892168090177
:1075B000064A8918098948432168090189184968D8
:1075C000401807E00E200020102000207C2600201C
:1075D0000C2000206168884201D80720D0E760684D
:1075E00000F033F8002801D11020C9E723681B01FF
:1075F0001A4FDB1962685B68D01A226812013B4699
:10760000D218118902F02FF8002901D00720B7E71E
:1076100000202B460246214600900420FFF7DAFBAB
:1076200006463046ACE7014600BF0D48007800280A
:1076300001D10820704700BF002901D10E20F9E7D1
:107640000848407808600020F4E701468807800F6A
:1076500001D1012070470020FCE700007C260020BB
:107660000C20002020240020F7B584B004460F46EB
:1076700006980678B01C1F2803DC2079801C1F2880
:1076800002DD0C2007B0F0BD1F20801B801E85B2DC
:107690000295B11C781802A97DDF03900398002899
:1076A00001D00398EEE72068022808D168460089D7
:1076B000A84204DC09200190684605890BE00820F7
:1076C00001902079002804D02079A84201DC257996
:1076D00001E068460589681CC2B23046711CCEB212
:1076E0003A543046721CD6B2019939540698017842
:1076F000A81C0818C1B2069801700020C2E7F8B5AE
:1077000005460C462078001D1F2801DD0C20F8BD21
:10771000684679DF0646002E01D03046F7E70321A0
:107720002278501C2070A95419212278501C2070F6
:10773000A954207841196846008800F08AFA217817
:10774000401820700020E2E7F8B505460F461646BF
:107750001C466868002801D10720F8BD2078801CED
:10776000298840181F2801DD0C20F6E72878401CE6
:10777000C1B22278501C2070B1542178481C20706E
:1077800077542A8823789819696801F00BFF2078CC
:107790002978401820700020DFE730B503461078C4
:1077A000C01C1F2801DD0C2030BD02241578681C88
:1077B00010704C550A241578681C10704C551578BB
:1077C000681C10704B550020EEE7FFB587B00646E9
:1077D0001D46109C0020069020780590002747E069
:1077E000B900706841180A88684602814988418159
:1077F000002203A902A865DF04900498002802D0A3
:1078000004980BB0F0BD6846017B099881422ED1E7
:107810000698002801D0002000E002200190207886
:107820006946097B4118019808181F2801DD0C20C2
:10783000E7E70698002809D12078401C20702278BC
:10784000511C08982170A8540120069020784219F4
:1078500003A902A865DF04900498002801D00498C9
:10786000CFE720786946097B4018207000BF7F1C55
:107870003088B842B4DC0698002806D021780598F4
:10788000401C081AC1B2059829540020B9E7FFB579
:1078900081B0074615460A9E009602223846049B90
:1078A0000299FFF792FF0446002C02D0204605B053
:1078B000F0BD0096102229463846049BFFF785FF4D
:1078C0000446002C01D02046F1E70020EFE70146F6
:1078D0000888062808DB08881922D201904205DDB5
:1078E0000888E04A904201D007207047488806285F
:1078F00008DB48881922D201904205DD4888D94A20
:10790000904201D00720F0E70888D64A904208D07C
:107910004888904205D008884A88904201DD0720B7
:10792000E3E70020E1E7F8B506460D461446207867
:10793000801D1F2801D90C20F8BD3046FFF7C7FF76
:107940000746002F01D03846F6E705212278501C63
:107950002070A95412212278501C2070A95422783A
:107960005119308800F075F921784018207022787C
:107970005119708800F06DF92178401820700020AE
:10798000DAE7F8B505460E4614462879801CC7B2DA
:107990002078801CC0191F2801DD0C20F8BD781C40
:1079A000C1B22278501C2070B154FF212278501CA3
:1079B0002070B15422789119288800F04AF9217872
:1079C00040182070A88800280EDDA868002801D182
:1079D0000720E3E7AA8823789819A96801F0E2FD57
:1079E00020782979401820700020D7E7FEB5074697
:1079F0000E461446786B002801D10720FEBD0020FA
:107A0000019032E0796B0C22019850430D182879CF
:107A1000801CC0B200900098401CC1B22278501C5B
:107A20002070B15416212278501C2070B154227855
:107A30009119288800F00DF9217840182070A88845
:107A400000280EDDA868002801D10720D6E7AA8803
:107A500023789819A96801F0A5FD207829794018A4
:107A600020700198401CC0B201903820C15D01987F
:107A70008142C7DC0020C1E7F8B504460F46164630
:107A80000025002030702068002809D03246394691
:107A90002046FFF7E9FD0546002D01D02846F8BD38
:107AA0006079002808D031463846FFF728FE0546A1
:107AB000002D01D02846F2E7208900280BDD33464F
:107AC0003A46012120460830FFF73EFE0546002DCC
:107AD00001D02846E3E7206900280BD00020216967
:107AE000085632463946FFF758FE0546002D01D0AC
:107AF0002846D4E7A08A00280CDD3B460622022156
:107B0000204614300096FFF7C2FE0546002D01D036
:107B10002846C4E7A08B00280CDD3B460722032142
:107B200020461C300096FFF7B2FE0546002D01D01E
:107B30002846B4E7A08C00280CDD3B461522142112
:107B4000204624300096FFF7A2FE0546002D01D006
:107B50002846A4E7E06A002809D032463946E06AA0
:107B6000FFF7E1FE0546002D01D0284697E7206B80
:107B7000002809D032463946206BFFF702FF054640
:107B8000002D01D028468AE73820005D002809DD55
:107B9000324639462046FFF729FF0546002D01D021
:107BA00028467CE728467AE701460889002807D05E
:107BB000C868002804D0C86800780422104201D1A7
:107BC000072070470020FCE701460889002801DDF6
:107BD000072070470020FCE7F3B593B00D46002165
:107BE000129111911398002814D01398FFF7DCFF1D
:107BF0000446002C02D0204615B0F0BD12AA09A9F7
:107C00001398FFF739FF0446002C01D02046F3E714
:107C100009AE00E00026002D13D02846FFF7D4FF60
:107C20000446002C01D02046E6E711AA01A9284607
:107C3000FFF722FF0446002C01D02046DCE701AF0D
:107C400000E0002710A803793A46017A304672DF37
:107C5000D2E702460A70FF2000021040001248706E
:107C600002207047FFFF000030B50346481CC004E7
:107C7000040C10468507AD0F01D1012500E0002559
:107C8000002D01D1072030BD784802601019784DD1
:107C900028600020774D2870774D28707748038042
:107CA000774801800020EEE7F7B584B00C467348B2
:107CB000008884427EDC734D0020039000BF724830
:107CC0004068C105C90D00291ED00A46103A104669
:107CD00000280CDA6C4B1C3307073F0F083FBF0826
:107CE000BF00DB598707FF0EFB409B090AE0674B8B
:107CF00003273F02DB198708BF00DB598707FF0E08
:107D0000FB409B09D8B200E00420029002980128B1
:107D100014D003A82EDF0746022F01D172B60CE063
:107D200000BF0197019F002F06D000BF58A2592124
:107D30000198FEF7DBFA00BF00BF00BF4D48007896
:107D400000F089F84C490978884206D049480578FE
:107D5000007800F080F8474908700298012814D094
:107D600062B66846007B2FDF0746022F0CD000BFAB
:107D70000197019F002F06D000BF45A26121019805
:107D8000FEF7B4FA00BF00BF00BF3E48854223D0D3
:107D9000E900364A0698126850500498002813D01B
:107DA000002C11DD354909886943314A1268881869
:107DB000224600E012E0049901F0F4FBE8002B49B0
:107DC00009684018848005E00020E900274A12680D
:107DD00089188880002600E0042600E00926304645
:107DE00007B0F0BDF8B505460E46174605200090D1
:107DF000204800782049097888421BD01E48047822
:107E0000007800F028F81C4908701C48008860437E
:107E10001749096840182860E000144909684018AB
:107E200080883080E00011490968085838600020D7
:107E3000009000BF0098F8BD0EB504E06846818848
:107E4000009A029890476A4601A902A8FFF7CAFF64
:107E50000028F3D00EBD014609480088814201DAAE
:107E6000481C00E00020C0B2704700001C20002029
:107E70002020002025200020242000202620002073
:107E800028200020FFFF000000ED00E000E100E0FE
:107E90002E2E5C2E2E5C2E2E5C2E2E5C2E2E5C53F7
:107EA0006F757263655C6170705F636F6D6D6F6E2F
:107EB0005C6170705F7363686564756C65722E6376
:107EC0000000000010B5002819DAF74A03071B0F5D
:107ED000083B9B089B00D2588307DC0EFF23A3407E
:107EE0009A438B071B0E8407E40EA3401A43EE4B04
:107EF0000407240F083CA408A4001A5118E0EB4A18
:107F000003231B02D21883089B00D2588307DC0E80
:107F1000FF23A3409A438B071B0E8407E40EA34064
:107F20001A43E24B032424021B198408A4001A51AB
:107F300010BD10B50446DE48846003211120FFF710
:107F4000C1FF10BD10B501200004DA494860D949CD
:107F500040394860112000F00CFD112000F0FBFCBE
:107F60000120D54908602F20FEF7FEF80120D349F3
:107F7000087010BD10B5112001218140CB4A80321C
:107F8000116000BF01200004CA498860C949403916
:107F900088600120C84948602F20FEF7E5F80120DD
:107FA000C54988600020C64908602F20FEF7DCF82C
:107FB0000020C249087010BDF0B502462820504389
:107FC000C04B1B68C118C0480068401C02D1BE48A5
:107FD000026057E0BC488B68006828246043B94CB5
:107FE000246800198068834217D8B748006828239E
:107FF0005843B44B1B68C01880688B68C31AB248DA
:10800000006828246043AF4C246800198360AE48A0
:1080100000684862AC48026034E08B68AA4D2C6866
:1080200028680DE028254543A64E3668AD19AD6891
:108030005B1B044628254543A24E3668AD19686A85
:10804000451C07D0282545439E4E3668AD19AD68BE
:108050009D42E7D3451C0CD028254543994E3668F0
:10806000AD19AD68EE1A28254543964F3F68ED19C6
:10807000AE608B60486228256543924E3668AD1924
:108080006A6200BFF0BDF8B506468F4805682C4609
:1080900009E0B44200D108E0254628206043894920
:1080A00009684018446A601CF3D100BF601C00D10D
:1080B000F8BDA5420FD18448006828214843814972
:1080C00009684018406A8049086008460068401CFA
:1080D00001D1FFF74FFF282060437A490968401813
:1080E000876828206043774909684018416A28203A
:1080F0006843744A126880184162282068437149B5
:1081000009684018446A601C0CD0282060436D49FF
:10811000096840188068C11928206043694A1268BC
:108120008018816000BFC3E710B5112000F01AFC71
:1081300010BD10B5142000F015FC10BD70B504463C
:1081400062480068002813D0604A216AE06912681A
:108150009047054600BF2E46002E07D000BF5CA208
:10816000FF2164313046FEF7C1F800BF00BF02E0D6
:10817000E169206A884770BDF8B553480068401C23
:1081800039D0002700F0FDFB04464D480168204629
:1081900000F0FAFB06464C48056811E028206843C9
:1081A000484909684418A068B04200D90AE0A068AC
:1081B000361AA068C719656A2046FFF7BFFF00BFDF
:1081C000681CEBD100BF4E4800784E4909788842C0
:1081D00009D14C480078401CC0B24A4908700228B6
:1081E00001D10020087047480078800046490F50B0
:1081F000FFF79FFF00BFF8BD014641480078414AA4
:10820000127890421DD03E480078401C3C4A1070C5
:1082100010460078022801D10020107038480078FC
:108220008000394A10580860254A0868126880188A
:10823000234A1060104600680002000A1060012006
:1082400070470020086000BFFAE7FEB51E480068CE
:1082500001902E480078009076E00098C0002C49EC
:108260000968441825786BE01820684361680F1886
:10827000681CC5B2A078A84200D100253868022841
:1082800002D0032859D145E02821786848430D4998
:1082900009684618307E002804D07868FFF7F3FE9E
:1082A000002030764AE000001CED00E000E100E034
:1082B00000150140401301400010014050200020F3
:1082C0003C2000202C200020382000204C200020C2
:1082D0002E2E5C2E2E5C2E2E5C2E2E5C2E2E5C53B3
:1082E0006F757263655C6170705F636F6D6D6F6EEB
:1082F0005C6170705F74696D65722E6300000000D0
:10830000482000204920002040200020312000206B
:10831000342000200CE0FE49096828225143FD4A20
:108320001268881800210176F94A416A116000BF7D
:10833000F7480068401CEED100E000BF00BF00BF5E
:108340006078A84290D100BF0098411EC9B2009148
:10835000002882D1EE4801680198814201D00120B5
:10836000FEBD0020FCE7F0B50346002426E0E84E01
:10837000366828277E43E74F3F68F01986689E429B
:1083800003D98668F61A86601CE086689B1B86689F
:108390003419002686600676DD4E3568DC4F466A65
:1083A0003E604669002E08D00E193602360AC660B5
:1083B0004669066116684662156000BFD4480068C9
:1083C000401CD4D100BFF0BDFEB50746D0480068C0
:1083D0000290D1480078019069E00198C000CF492F
:1083E000096845185CE0781C07D03E462820704399
:1083F000C84909684418676A23E029781823594353
:108400006A6850182978491C29702978AA789142FD
:1084100001D100212970466828217143BD4A1268A4
:108420008C180168012902D1217E002900D037E093
:108430008168E160C168216101696161416921620E
:1084400000BFB749E0680968401A0002000AB54950
:10845000884208D2B249E068096800F095FA2169BB
:108460004018A06011E0AE48E168006800F08CFAA6
:10847000009021690098814204D921690098081A66
:10848000A06001E00020A06000BF0020E06020614B
:1084900001202076801E60623046FFF78DFD00BF10
:1084A000781CA0D12878697888429CD100BF0198B7
:1084B000411EC9B2019100288FD1954801680298E8
:1084C000814201D00120FEBD0020FCE7FEB59048AE
:1084D0000068401C34D08E480068282148438D49EC
:1084E00009684018856800F04CFA01908C480468CF
:1084F0002146019800F048FAC61C8B4800780028F5
:1085000001D1FFF71FFDAE4201D2284600E0304600
:1085100004192402240A20468449086000BF00F0A0
:1085200030FA00900199009800F02EFAC71C2046FE
:10853000019900F029FA874201D9FFF7F5FD01E022
:10854000FFF718FDFEBDFEB50020C0430190744842
:1085500004686F4807686846FFF74EFE0546FFF758
:1085600074FE0646002D05D001AA21460098FFF7AB
:10857000FAFE01260198FFF727FF002800D0012608
:10858000002E02D03846FFF7A1FFFEBD41707047B4
:1085900070B502460B465078411C9078884200D155
:1085A00000211078884201D1002070BD19605078F8
:1085B0001826704355682C182046F6E7FFB581B0A1
:1085C00005460E461746E900544A1268881869465F
:1085D000FFF7DEFF0446002C02D1042005B0F0BDF9
:1085E00001202060666000F0CCF9A060E76004988C
:1085F00020610A986061E900484A12688818009969
:10860000FFF7C4FFFFF795FD0020E7E7F8B5044644
:108610000E46E100414A126888186946FFF7B8FF24
:108620000546002D01D10420F8BD022028606E60AF
:10863000E1003A4A126888180099FFF7A7FFFFF790
:1086400078FD0020F0E738B50446E100334A1268AF
:1086500088186946FFF79CFF0546002D01D10420CC
:1086600038BD03202860001F6860E1002B4A1268B3
:1086700088180099FFF78AFFFFF75BFD0020EFE7FE
:1086800010B500202A490860002129484160816016
:10869000C16000202649403908604860FFF76CFD42
:1086A00010BD10B5FFF74FFF10BDFFB581B00E46EE
:1086B00017461C4620468107890F01D1012100E0A1
:1086C0000021002902D1072005B0F0BD002C01D106
:1086D0000720F9E7FFF74EFC16490A98086016488C
:1086E00006700C48046000250CE000212820684337
:1086F000084A1268115028206843064A12688018F8
:1087000001766D1CB542F0DB28207043041915E09A
:10871000382000202C200020312000203420002090
:108720003C200020FFFF7F0050200020401501402A
:10873000401101404C2000203020002003209549AA
:10874000087095480460183400250CE0E900924A4E
:1087500012688818002101704170877044601821E8
:1087600079430C196D1C032DF0DB0020C0438B49AD
:10877000086000208A4908708A490870142000F0B7
:10878000F8F803211420FFF79DFB142000F0E3F814
:108790000198FFF7CEFB00F0F4F883490860002051
:1087A00092E770B503460C4680480068002801D166
:1087B000082070BD002A01D10720FAE7002B01D163
:1087C0000720F6E700211CE028204843774D2D685C
:1087D0002858002814D1012528204843734E3668B4
:1087E000355028204843714D2D6840194460282099
:1087F00048436E4D2D684019C26119600020D8E7CA
:10880000491C6B4800788142DEDB0420D1E730B59B
:1088100000BF68484068C205D20D002A1ED013462A
:10882000103B184600280CDA624C1C3405072D0F4B
:10883000083DAD08AD0064598507ED0EEC40A40974
:108840000AE05D4C03252D0264198508AD006459CA
:108850008507ED0EEC40A409E0B200E004200128F9
:1088600002D0032804D101E0002103E0012101E04E
:10887000022100BF00BF084630BDFEB504460D46CC
:1088800016464A480068002801D10820FEBD484825
:108890000078844201D2052D01D20720F6E7282076
:1088A0006043424909680858012801D00820EDE7D3
:1088B000282060433D49096840184068012801D1DB
:1088C000284600E000200746FFF7A1FF3B462A4666
:1088D000214600960190FFF771FED7E770B5044678
:1088E00032480068002801D1082070BD3048007867
:1088F000844201D30720F8E7282060432B49096808
:108900000858012801D00820EFE7FFF780FF05464F
:108910002146FFF77BFEE8E710B5244800680028F1
:1089200001D1082010BDFFF772FF0446FFF78BFE50
:10893000F8E710B5044600F024F82060002010BDD0
:1089400070B505460E4614463146284600F01CF820
:108950002060002070BDC206D20E01219140164A4F
:1089600011607047C206D20E01219140134A116076
:108970007047C206D20E01219140104A8032116028
:1089800070470F48406870470246501A0002000ABC
:1089900070470000312000203420002038200020C3
:1089A00048200020492000203C2000202C200020CE
:1089B0003020002000ED00E000E100E000E200E0F7
:1089C0000015014001464888B74A1288904206DBEC
:1089D0004888B54A5288904201DC01207047002047
:1089E000FCE738B50546B1480088B14988423BD01C
:1089F000B0480078401CAF490870AF48007B097848
:108A000088420FDBA849A948008875DF0446002C7E
:108A100007D0A9488069002803D0A748816920466B
:108A2000884721E00020A3490870A348007C002863
:108A30000FD03B219D48008876DF0446002C07D0EC
:108A40009D488069002803D09B488169204688475B
:108A500000BF99484069002806D000200090964841
:108A600041696846884700BF38BD70B505461C227D
:108A700029469148FDF788FB002090490870286836
:108A800000280BD008228848296800F08BFD864812
:108A90007ADF0446002C08D0204670BD82487BDF78
:108AA0000446002C01D02046F7E70020C0437F4950
:108AB000088000207F490870814A00218148FFF723
:108AC00070FEEAE710B57F480068FFF707FF10BDAA
:108AD00038B57D48FFF776FF002829D17748007820
:108AE00000280AD074484069002820D00020009057
:108AF000714841696846884719E06E480078002847
:108B000002D16D48456801E06B488568002229461E
:108B10006C480068FFF7B1FE0446002C07D0664899
:108B20008069002803D064488169204688470AE0AC
:108B300061484069002806D0012000905E484169E4
:108B40006846884700BF00205C49087038BD10B5F2
:108B50000446A08855490880082221460E315A480B
:108B600000F020FD0020534908705348C0890028B8
:108B700001D1FFF7ADFF10BD70B505460020C04321
:108B80004A49088000204B4908704E480068FFF7AA
:108B9000A5FE0446002C07D047488069002803D072
:108BA000454881692046884770BD70B50546AC1DB3
:108BB00020884149C989884220D1208B02281DD1B3
:108BC00000BF00BFA17EE27E120211430846C1072A
:108BD000C90F002902D0FFF77BFF0FE0394800687A
:108BE000FFF77CFE0646002E07D033488069002838
:108BF00003D0314881693046884700BF70BD10B549
:108C000004460822A11D304800F0CCFCFFF760FFAD
:108C100010BD10B504462088102806D0112808D0B1
:108C200012280ED0502810D107E02046FFF78FFF02
:108C30000CE02046FFF7A0FF08E02046FFF7B5FF55
:108C400004E02046FFF7DBFF00E000BF00BF10BDDF
:108C500038B5044608222146134800F0A3FC124808
:108C60007ADF0546002D1CD11748FFF7ABFE002820
:108C70000BD10120114908700B490C48008875DFA1
:108C8000054601200B4908700BE00B48406900289D
:108C900006D001200090084841696846884700BF17
:108CA0000025284638BD0000562000206020002006
:108CB000FFFF00005E2000209C26002054200020A2
:108CC000E38901006C2000206220002070B5064678
:108CD0000C46154629462046FDF716FB70BDF8B533
:108CE00059480078002800D1F8BD5848006800288D
:108CF00001D1012000E00020054655480068002809
:108D000001D1012000E00020064600BF002D14D153
:108D1000684651DF0446052C01D101250CE0002CEA
:108D200006D000BF4BA269212046FDF7DFFA03E021
:108D3000464900980968884700BF002E1AD1534859
:108D40000088009069465248006861DF0446052C9F
:108D500001D101260DE0002C06D000BF3DA28021EC
:108D60002046FDF7C3FA04E049480068384909681D
:108D7000884700BF002D02D0002E00D000E0C5E7DC
:108D800000BF00BFB0E7FFB581B00C4616461F46D6
:108D9000002C02D1072005B0F0BD20468107890FC5
:108DA00001D1012100E00021002901D10720F2E7D3
:108DB00037480460354806803648076036490198D0
:108DC00010DF0546002D01D02846E4E701201E49AA
:108DD0000870162026DFDEE710B511DF0446002CF0
:108DE00001D0012000E0002017490870204610BD86
:108DF0000146002901D10E2070471548016000206E
:108E0000FAE70146002901D10E2070470F480160A2
:108E10000020FAE770B51F480068002811D01D48EF
:108E200000688047044600BF2546002D07D000BFDC
:108E300008A2FF2133312846FDF758FA00BF00BFD2
:108E400001E0FFF74CFF70BD70200020842000205F
:108E5000802000202E2E5C2E2E5C2E2E5C2E2E5C72
:108E60002E2E5C536F757263655C73645F636F6D08
:108E70006D6F6E5C736F66746465766963655F6859
:108E8000616E646C65722E63000000007C2000201F
:108E90007820002074200020CD8C0100F8B5044615
:108EA0000D4694480068002813D0EAB22178914B0F
:108EB000A0681B689847064600BF3746002F06D0BB
:108EC00000BF8DA228213846FDF710FA00BF00BF71
:108ED0000CE0012D04D120780121A268904705E023
:108EE000002D03D120780021A2689047F8BDF8B585
:108EF000074669468C48007800F0EFFA0646002ED7
:108F000000D0F8BD002533E00C206843874909688C
:108F100044188748006822780121914008420FD008
:108F2000A06800280CD06078012804D100212046D8
:108F3000FFF7B4FF1AE001212046FFF7AFFF15E06D
:108F40007B48406822780121914008420ED0A068F9
:108F500000280BD06078012804D101212046FFF7BA
:108F60009DFF03E000212046FFF798FF681CC5B273
:108F7000704800788542C7DB00BFC2E770B5044681
:108F80000D466D480068FFF7A9FC0646002E00D08C
:108F900070BD674844600560204628430246674824
:108FA000016865480068FFF768FC064600BFEFE708
:108FB000FFB583B006460C461746052F02D20720A0
:108FC00007B0F0BD594806605A4804705B48076016
:108FD000484906980860002516E00C21614388196D
:108FE00002780092416801910199890005221207D7
:108FF00007231B02D318009A9200995000BF0278F1
:10900000012191400D4300BF2046611ECCB20028D3
:10901000E3D14B4B2A462946434800F089F9029098
:109020000298002801D00298CAE7464A0021424827
:10903000FFF7B7FBC4E710B53C480068002801D132
:10904000082010BD3848007800F0B7F9F9E710B5EE
:1090500036480068002801D1082010BD3248007849
:1090600000F01AFA0446002C01D02046F5E73248F9
:109070000068FFF733FCF0E7F8B506460C462D48CC
:109080000078864201DD0720F8BD0C207043274997
:109090000968451825480068002801D10820F3E731
:1090A00069462148007800F018FA0746002F01D0E1
:1090B0003846E9E7687800280BD129780098C8403D
:1090C000C007C00F02D00020207010E001202070E7
:1090D0000DE0687801280AD129780098C840C007B7
:1090E000C00F02D00120207001E00020207000207D
:1090F000CAE70000942000202E2E5C2E2E5C2E2E1F
:109100005C2E2E5C2E2E5C536F757263655C6170F5
:10911000705F636F6D6D6F6E5C6170705F627574B0
:10912000746F6E2E630000009820002088200020BD
:10913000A02000208C2000209C20002090200020D7
:109140007D8F0100EF8E0100F0B502460C46002035
:1091500035E001238340194623460B422ED0D568C3
:109160000D4205D101235B04D5680D43D56004E0B1
:1091700003231B04D5688D43D56005252D070726DD
:109180003602AD198600AD5903263604B5430526CF
:10919000360707273F02F6198700F55105252D07E9
:1091A00007263602AD198600AD591D430526360740
:1091B00007273F02F6198700F55100BF401C202801
:1091C000C7D3F0BDF0B585B0EC4805690020EC4987
:1091D000C86300263DE014207043EA49096844183A
:1091E0000120B040E8490968084230D0E068C04337
:1091F000684021680840074639462046FFF7A4FF2B
:10920000DE48006968400390039800280ED0039858
:109210000543E068C043684021680840009020464C
:109220000099FFF791FF0098074300BFA068A8438B
:1092300038400190606828403840029001990298B7
:10924000084303D0226901990298904700BF701C1F
:10925000C6B2CE4800788642BDDB05B0F0BD10B581
:109260000146002028E014224A43C64B1B689A5846
:10927000012383401A421ED00522120707231B0236
:10928000D2188300D25803231B049A4305231B07DB
:10929000072424021B1984001A51052212070723F0
:1092A0001B02D2188300D25805231B07072424026F
:1092B0001B1984001A51401C2028D4D310BD70B54E
:1092C00005460C46002C01D1072070BD20468107C1
:1092D000890F01D1012100E00021002901D10720DF
:1092E000F3E7A8480460AA4805700020A749087061
:1092F000A5490860A6480078142250430146A148B9
:10930000006800F0AEF90020C043A2498860062042
:1093100001218140A04A116000BF012100F0F7F84F
:109320000620012181409D4A116000BF0020CCE74A
:10933000F8B504460D4616461F46924800680028B8
:1093400001D10820F8BD002F01D10720FAE78F488E
:1093500000788F490978884201DB0420F2E728462B
:1093600030438A49097814225143864A1268505082
:1093700086480078142148438249096840184560AE
:1093800082480078142148437E4909684018866065
:109390007E480078142148437A49096840180761DB
:1093A0007A480078207079480078401C7749087026
:1093B0002078FFF754FF0020C4E7F0B5024671485B
:1093C0000068002801D10820F0BD70480078824272
:1093D00001DB0720F8E70020694BD8636748046980
:1093E00069480068002802D158066A4B586001207D
:1093F0009040654B1B681843634B18600023142092
:109400005043604D2D684019C360002140E00123A6
:109410008B401846142353435A4D2D68EB58034292
:1094200035D02546054202D003231B040EE001235C
:109430005B0414255543534E3668AD19ED6805435A
:10944000142656434F4F3F68F619F56005252D0742
:1094500007263602AD198E00AD5903263604B543F2
:109460000526360707273F02F6198F00F551052517
:109470002D0707263602AD198E00AD591D4305266E
:10948000360707273F02F6198F00F55100BF491C28
:109490002029BCD3002097E710B50446394800685E
:1094A000002801D1082010BD38480078844201DB33
:1094B0000720F8E72046FFF7D2FE0120A0403249FE
:1094C00009688143304801600068002803D1012009
:1094D000C007304988600020E5E710B502462948FA
:1094E0000068002801D1082010BD28480078824279
:1094F00001DB0720F8E714205043224C24680319AD
:109500001E4800691C68204008600020ECE710B588
:10951000002819DA224A03071B0F083B9B089B000F
:10952000D2588307DC0EFF23A3409A438B071B0E00
:109530008407E40EA3401A43194B0407240F083C88
:10954000A408A4001A5118E0144A03231B02D218DD
:1095500083089B00D2588307DC0EFF23A3409A4365
:109560008B071B0E8407E40EA3401A430B4B032406
:1095700024021B198408A4001A5110BD00050050D4
:1095800040610040A8200020AC200020B120002035
:10959000B02000200063004080E200E000E100E035
:1095A0001CED00E0F8B5042A2CD3830712D00B7809
:1095B000491C0370401C521E83070BD00B78491CBA
:1095C0000370401C521E830704D00B78491C0370A3
:1095D000401C521E8B079B0F05D0C91ADF002023A9
:1095E000DE1B08C90AE0FCF7CFFDF8BD1D4608C91F
:1095F000FD401C46B4402C4310C0121F042AF5D273
:10960000F308C91A521EF0D40B78491C0370401C91
:10961000521EEAD40B78491C0370401C521EE4D43D
:1096200009780170F8BD01E004C0091F0429FBD2CC
:109630008B0701D50280801CC90700D002707047DB
:1096400000290BD0C30702D00270401C491E02291A
:1096500004D3830702D50280801C891EE3E7002221
:10966000EEE70022DFE7002203098B422CD3030A36
:109670008B4211D300239C464EE003460B433CD45F
:10968000002243088B4231D303098B421CD3030AC7
:109690008B4201D394463FE0C3098B4201D3CB01F7
:1096A000C01A524183098B4201D38B01C01A524127
:1096B00043098B4201D34B01C01A524103098B422B
:1096C00001D30B01C01A5241C3088B4201D3CB0016
:1096D000C01A524183088B4201D38B00C01A5241F9
:1096E00043088B4201D34B00C01A5241411A00D2A9
:1096F00001465241104670475DE0CA0F00D0494212
:10970000031000D34042534000229C4603098B4281
:109710002DD3030A8B4212D3FC22890112BA030A09
:109720008B420CD3890192118B4208D3890192118B
:109730008B4204D389013AD0921100E08909C30910
:109740008B4201D3CB01C01A524183098B4201D312
:109750008B01C01A524143098B4201D34B01C01AFD
:10976000524103098B4201D30B01C01A5241C30875
:109770008B4201D3CB00C01A524183088B4201D3E4
:109780008B00C01A5241D9D243088B4201D34B00FF
:10979000C01A5241411A00D20146634652415B1041
:1097A000104601D34042002B00D549427047634622
:1097B0005B1000D3404201B50020C046C04602BD48
:1097C000704770477047754600F022F8AE460500B6
:1097D00069465346C008C000854618B020B5FCF75E
:1097E00003FD60BC00274908B6460026C0C5C0C5B9
:1097F000C0C5C0C5C0C5C0C5C0C5C0C5403D490085
:109800008D4670470446C046C0462046FCF7A5FC7E
:1098100000487047B826002001491820ABBEFEE77B
:1098200026000200704730B47446641E2578641C1C
:10983000AB4204D3635D5B00E31830BC18471D46A0
:10984000F8E700000F1801006898010000200020D0
:10985000B4000000046101001C990100B420002044
:1098600064160000206101000024F400FFFF0000E6
:1098700000000000000000000000000000000000E8
:1098800000000000000000000000000000000000D8
:1098900000000000000000000000000000000000C8
:1098A00000000000000000000000000000000000B8
:1098B00000000000000000000000000000000000A8
:1098C0000000000000000000000000000000000098
:1098D0000000000000000000000000000000000088
:1098E0000000000000000000000000000000000078
:1098F0000000000000000000000000000000000068
:109900000000000000000000000000000000000057
:0C9910000000000000000000000000004B
:04000005000160C1D5
:00000001FF
