:020000040001F9
:1060000008370020A5610100BF610100C1610100E6
:106010000000000000000000000000000000000080
:10602000000000000000000000000000C36101004B
:106030000000000000000000C5610100C761010010
:10604000C9610100C9610100C9610100C9610100A4
:10605000C9610100000000000DB40100C961010028
:10606000C9610100C9610100C9610100C961010084
:10607000C9610100C9610100C9610100C961010074
:10608000C9610100E1890100C9610100C961010024
:10609000038A0100C961010035B90100C96101002D
:1060A000C9610100C961010000000000000000009A
:1060B00000000000000000000000000000000000E0
:1060C00000F002F800F032F80CA030C808382418AC
:1060D0002D18A246671EAB4654465D46AC4201D120
:1060E00000F024F87E460F3E0FCCB6460126334220
:1060F00000D0FB1AA246AB4633431847C05C0000F1
:10610000E05C00000023002400250026103A01D3A3
:1061100078C1FBD8520700D330C100D50B6070475F
:106120001FB5C046C0461FBD10B510BD05F0A7FD88
:106130001146FFF7F5FF00F0BDFE05F0BFFD03B40B
:10614000FFF7F2FF03BC05F0C3FD0000401E00BFD7
:1061500000BF00BF00BF00BF00BF00BF00BF00BF47
:1061600000BF00BF00BFF1D17047000070B5054609
:106170000C46164602E00FCC0FC5103E102EFAD288
:10618000082E02D303CC03C5083E042E07D301CC4E
:1061900001C5361F03E021782970641C6D1C761E32
:1061A000F9D270BD03210C4802680A4302600B4813
:1061B00002680A4302600A4880470A480047FEE72F
:1061C000FEE7FEE7FEE7FEE7FEE7000006480749B8
:1061D000074A084B70470000240500405405004062
:1061E0008F620100C16001000827002008370020ED
:1061F000082F0020082F00202E482F4908607047E4
:106200002E48008CC0B2012810D12C48808C000789
:10621000000F0BD12948806AF0210840402805D1A1
:106220002648C06A084201D1012070470020FCE7DF
:106230002248008CC0B2012827D12048808C00075A
:10624000000F22D11D48806AF021084205D11B4869
:10625000C06A084201D1012070471848806AF021C5
:106260000840102805D11548C06A084201D1012014
:10627000F2E71248806AF0210840302805D10F4823
:10628000C06A084201D10120E6E70020E4E710B52A
:10629000FFF7CEFF002805D009480A494860C81317
:1062A00009498861FFF7ACFF002802D001200749A7
:1062B000886010BD0024F40000200020C00F00F012
:1062C000DFFF07C000050040006C004000060040F2
:1062D00030B513048C0023430524240707252D0221
:1062E00064198500635130BD0F2000F00AFE00BF25
:1062F000BFF34F8FFD48FE49C860BFF34F8F00BF0B
:1063000000BFFEE704460D462A462146F948FFF73E
:10631000EBFF70B5F849F94801F05FFFC5B22946B7
:10632000F74801F070F90446002C0DD0082C0BD072
:10633000F448844208D0F448844205D000BFF3A258
:10634000D3212046FFF7D0FF70BD10B50446FFF7FC
:10635000E0FF10BD10B5044600202070EE48007824
:10636000002803D0EC480078022801D1012000E089
:1063700000206070E8480078002803D0E6480078E4
:10638000012801D1012000E00020A0700020E07071
:106390002071E14800780001E049401841882181DE
:1063A000DD4800780001DD49085CA071DA4800781A
:1063B00000014018C188A181D74800780001D74961
:1063C00040180079A072D448007800014018418933
:1063D0002182D14800780001D0494018007AA0738A
:1063E0000822CF492046123005F038FBCA48007811
:1063F0000001CA494018C189A183C748007800013B
:10640000C6494018007BA076C3480078401CC249AA
:10641000087008460078042801D100200870C048A0
:1064200080791B30BE498871084680793B280DDD94
:10643000084680793C38887108464079401C48718C
:10644000084640793B2801DD0020487110BD10B599
:10645000082000F04DFD092000F04AFD0F2000F05B
:1064600047FD10BDF8B500BF0020AE4B052204214A
:10647000009002F0CAFA054600BF2E46002E06D054
:1064800000BFA2A2FF212D313046FFF72DFF00BF34
:1064900000BFA54A0121A54802F033FB044600BF16
:1064A0002546002D06D000BF98A2FF213331284693
:1064B000FFF71AFF00BFF8BD3EB500BF6846007881
:1064C00001090901491C009168460078F0218843C0
:1064D0001030009000BF0A2295A168467CDF044678
:1064E00000BF2546002D06D000BF88A2FF214731FE
:1064F0002846FFF7F9FE00BF0720C00178DF0446F9
:1065000000BF2546002D06D000BF80A2FF214A31E2
:106510002846FFF7E9FE00BF002001900290FF210E
:106520009131684681804900C18000210181FF21AD
:106530009131418101A87ADF044600BF2546002D34
:1065400006D000BF71A2FF2154312846FFF7CCFED0
:1065500000BF3EBD30B593B006210391774A07CA0C
:106560006B4607C33C2104A805F0D7FA022004902B
:10657000012168464175018303A9079103218185A3
:1065800069460C91002104A801F08EFD044600BF6D
:106590002546002D06D000BF5CA2FF21753128469C
:1065A000FFF7A2FE00BF1421654805F0B6FA0020EF
:1065B000634908704860087228200882B420488225
:1065C00013B030BD30B58BB001A95E4801F064FA5C
:1065D000044600BF2546002D06D000BF4BA2FF2178
:1065E0008B312846FFF780FE00BF684600790028FF
:1065F0001DD055480078002819D102A8FFF7AAFE3F
:1066000002A9504801F019FA0446002C02D0082CC7
:1066100005D103E001204C49087007E006E000BF07
:106620003AA2FF219E312046FFF75EFE00BF0BB06D
:1066300030BD70B505460C462068002802D00228FF
:1066400007D102E0FFF7BEFF04E000203E490870DA
:1066500000E000BF00BF70BD30B59DB000201990B4
:106660001A901B9039481990112010A9C88500BFB5
:1066700018A8007A01090901491C18A80172007ABA
:10668000F0218843203018A9087200BF00BF19A864
:1066900040790009000119A9487119A84079F02131
:1066A000884319A9487100BF00BF19A88079000963
:1066B0000001887119A88079F021884319A988718F
:1066C00000BF00BF18A8C07A01090901491C18A819
:1066D000C172C07AF0218843103018A9C87200BF77
:1066E00000BF19A8007A0009000131E00400FA0592
:1066F00000ED00E0EFBEADDE882400202C2000205D
:106700001424002004300000013400002E2E5C6DA3
:1067100061696E2E630000001020002048240020D4
:1067200008200020342100204B6301003420002089
:106730004E6F726469635F425053000034BD0100C4
:10674000002400202C2400200620002033660100B5
:1067500019A9087219A8007AF021884319A90872AA
:1067600000BFFE4801F03BF9044600BF2546002D5E
:1067700006D000BFFA4AFF21DD312846FFF7B4FDFD
:1067800000BF142114A805F0C8F900BF10A8407F6D
:1067900001090901491C10A84177407FF021884375
:1067A000103010A9487700BF00BF14A8807B0009F3
:1067B0000001401C14A9887314A8807BF021884331
:1067C000103014A9887300BF00BF14A8C07B000953
:1067D0000001C87314A8C07BF021884314A9C873B2
:1067E00000BF00BF18A8007801090901491C18A8BA
:1067F00001700078F0218843103018A9087000BF9C
:1068000000201490012110A8017500201690642129
:1068100010A8017714A9D34800F0D4FE044600BFA5
:106820002546002D06D000BFCD4AFF21EF31284676
:10683000FFF75AFD00BF402104A805F06EF9CAA178
:1068400004A801F097FCCDA106A801F093FCCF4964
:10685000112000910190CE4802906846109000BF30
:1068600010A8007B01090901491C10A80173007BD5
:10687000F0218843103010A9087300BF00BF13A88F
:1068800040780009000113A9487013A84078F0214E
:10689000884313A9487000BF04A800F06BFC0446AD
:1068A00000BF2546002D06D000BFAD4AFF21FF31B5
:1068B0002846FFF719FD00BF1DB030BD10B55120AF
:1068C000B449086064204860012088600873B248B9
:1068D00001F076FC7520B1494880002008704C21F9
:1068E000AE48C1800020AD4908716721AB484181A5
:1068F0000020AA4908723C21A848C1810020A7496C
:1069000008737921A54841820020A44908745121C7
:10691000A248C182002101756A21418300210176CC
:106920004821C183002101778A2141840021203040
:10693000017058212038C184002120300171782154
:106940002038418500212030017269212038C1851D
:106950000021203001739121203841860021203010
:10696000017464212038C1860021303001718321F7
:10697000303841870021303001727D213038C187A5
:1069800000213030017310BD70B5002201210904CF
:106990008348006802F021F9044600BF2546002D17
:1069A00005D000BF6E4A7F492846FFF79DFC00BF17
:1069B00070BD38B5684604F074FB044600BF254638
:1069C000002D06D000BF664A76490E312846FFF7F3
:1069D0008BFC00BF0098002803D00120724908708A
:1069E00038BD724873DF044600BF2546002D06D02F
:1069F00000BF5B4A6B4917312846FFF775FC00BFA3
:106A0000082000F07EFA00BFEAE770B50546286866
:106A1000002810D13B216648008876DF044600BF7D
:106A20002646002E06D000BF4D4A5E492E31304624
:106A3000FFF75AFC00BF70BD044600BF484A4F2113
:106A4000C9002046FFF750FC30B587B01C216846CE
:106A500005F063F8002000900520C00301900F208E
:106A6000000402900321684601730021C181017472
:106A70005048059050480690684602F0A6F9044632
:106A800000BF2546002D06D000BF354A454950318C
:106A90002846FFF729FC00BF07B030BD70B505469A
:106AA00000242888102806D011281DD0192837D096
:106AB000552851D188E0092000F023FA082000F081
:106AC00025FA04F0DCFB044600BF2646002E06D063
:106AD00000BF234A334964313046FFF705FC00BF4D
:106AE000A8883349088084E0092000F00FFA0020CC
:106AF000C0432F49088000203049087004F0CBFBC8
:106B0000044600BF2646002E06D000BF144A2B21A3
:106B100009013046FFF7E8FB00BFFFF74AFF68E0D6
:106B2000A87900284FD1082000F0F0F903220021B5
:106B30000846FFF7CDFB032200210120FFF7C8FB29
:106B400034DF044600BF2646002E3BD000BF044A77
:106B500014498631304633E04AE000002C240020FE
:106B60000C670100142400204E6F72646963536542
:106B70006D69636F6E647563746F72004E532D425E
:106B800050532D4558414D504C450000554433223B
:106B900088776600882400202C20002048240020CC
:106BA000342000203F0200000720002000240020A5
:106BB000042000200B6A0100396A01000620002031
:106BC000FFF792FB00BF14E0A87900280FD1132132
:106BD000D148008876DF044600BF2646002E05D047
:106BE00000BFCE4ACE493046FFF77EFB00BF00E033
:106BF00000BF00BF70BD10B50446022C02D0032CAC
:106C00000BD100E000BFC7480078002804D0002066
:106C1000C4490870FFF7CDFE00E000BF00BF10BD03
:106C200010B504462146C04800F06EFD2146BF481D
:106C300000F0CBFB204602F09CF9204603F0D8F888
:106C40002046FFF72BFF10BD10B50446204603F089
:106C500086FE2046FFF7CFFF10BDF8B500BF00232A
:106C60005022B349082004F01EFE054600BF2E4600
:106C7000002E06D000BFA94A6321C9003046FFF7A5
:106C800033FB00BF00BF002000900090684660DF2B
:106C9000044600BF2546002D06D000BF9F4AA049EC
:106CA00051312846FFF720FB00BFA24804F030FE18
:106CB000044600BF2546002D06D000BF974A9849DC
:106CC00055312846FFF710FB00BF9B4804F029FE12
:106CD000044600BF2546002D06D000BF8F4A9049CC
:106CE00059312846FFF700FB00BFF8BD70B50446D8
:106CF0000D46012D0CD1002C02D1FFF763FC06E0FC
:106D000000BF864A86496C312046FFF7EDFA00BF86
:106D100070BD70B500BF8949012004F0F4FB044642
:106D200000BF2546002D06D000BF7C4A7C49773144
:106D30002846FFF7D9FA00BF00BF70BD70B500BF8D
:106D400000237F4A02217F4804F056FA044600BF20
:106D50002546002D06D000BF704A7149853128466E
:106D6000FFF7C2FA00BF00BF70BDF8B50E4615466A
:106D700000BF2F46002F06D000BF684A68499431F3
:106D80003846FFF7B1FA00BF3078152817D16946A9
:106D9000654800F081FE044600BF2746002F06D05C
:106DA00000BF5E4A5E499D313846FFF79DFA00BF3D
:106DB00068460078002801D0FFF704FC00E000BF1F
:106DC00000BF0020F8BD7FB503F06CFE044600BF95
:106DD0002546002D06D000BF504A5149B7312846FC
:106DE000FFF782FA00BF012057490969C1400140FD
:106DF000002900D100E00020039003A802F07FFBEF
:106E0000044600BF2546002D06D000BF434A444932
:106E1000BD312846FFF768FA00BF062101A80230FD
:106E200004F079FE1E216846C180007A40084000C7
:106E3000401C694608726846007A02218843694608
:106E400008726846007A1C2188430C306946087233
:106E50006846007A202188436946087207216846FF
:106E600041721021817239480090012168460171F8
:106E70006946374802F0B2FB044600BF2546002DA4
:106E800006D000BF254A2649CC312846FFF72CFA08
:106E900000BF7FBD70B540DF044600BF2546002D12
:106EA00006D000BF1D4A1E49D5312846FFF71CFAFF
:106EB00000BF70BDFFF7CBFAFFF7D4FAFFF729FF49
:106EC000FFF73CFFFFF7C9FEFFF77DFFFFF7F4FA7E
:106ED000FFF740FBFFF7C0FBFFF7F0FCFFF7B4FD47
:106EE000FFF752FDFFF765FD00BFFFF7D3FFFCE79B
:106EF00003210522120707231B02D2188300D15059
:106F0000704701218140104A916070470121814002
:106F10000D4AD16070470000042000200C6701007A
:106F2000CE020000072000202C2400201424002082
:106F30009C230020216C0100496C0100EC230020FF
:106F40006606000014200020000500506B6D010053
:106F50003820002070B504460D4600BF002D01D03A
:106F6000012000E000200646002E05D100BFE6A269
:106F70003321FFF7B9F900BF00BF00BF002C01D0DB
:106F8000012000E000200646002E05D100BFDEA251
:106F90003421FFF7A9F900BF00BF287820702988A5
:106FA0002879FF231B02194000200206080A10431B
:106FB000607028791B022968194000200204080C1F
:106FC0001043A07029791B0228681840002109028B
:106FD000000E0843E07028792071287A6071190C3E
:106FE000A8680840000AA0710902A8680840000CBF
:106FF000E07170BDF8B505460E46002400BF002EB6
:1070000001D0012000E000200746002F05D100BF7D
:10701000BDA24B21FFF768F900BF00BF00BF002DE4
:1070200001D0012000E000200746002F05D100BF5D
:10703000B5A24C21FFF758F900BF00BF32782046B7
:10704000611CCCB22A542919708800F054F9001937
:10705000C4B22919B08800F04EF90019C4B2291938
:10706000F08800F048F90019C4B200BF072C01D124
:10707000012000E000200746002F05D100BFA2A29A
:107080005421FFF731F900BF00BFF8BDF0B58FB054
:1070900007460D4614461E4600BF002D01D00120B4
:1070A00000E0002000900098002805D100BF96A2C3
:1070B0006D21FFF719F900BF00BF00BF002C01DDF3
:1070C000012000E0002000900098002805D100BFBA
:1070D0008DA26E21FFF708F900BF00BF1C2107A891
:1070E00004F01BFD6946087F02218843801C694625
:1070F0000877002008900A900B900C900D9000BF2C
:10710000012108A881766846078700BF002001900A
:107110003178684601717178417180790621884320
:10712000811C684681718079082188430146684640
:107130008171807910218843014668468171807988
:107140004108490068468171142102A804F0E5FC59
:107150000EA8029001A80390684604820021418293
:107160008482069502AA07A974480088149BA2DFAE
:107170000FB0F0BD7FB5044600BF012168468173A2
:107180006F49818100BF6D4A03A90120A0DF054638
:10719000002D02D0284604B070BD208800280DDDE7
:1071A00068480090228823463C3367486168FFF7AF
:1071B0006DFF0546002D01D02846ECE72089002808
:1071C0000EDD62480090228923463C335E48401F12
:1071D000E168FFF75BFF0546002D01D02846DAE79E
:1071E000208A00280EDD5A480090228A23463C332C
:1071F0005548001F6169FFF749FF0546002D01D082
:107200002846C8E7208B00280EDD52480090228BCC
:1072100023463C334C48801EE169FFF737FF0546A3
:10722000002D01D02846B6E7208C00280EDD4A4804
:107230000090228C23463C334348C01E616AFFF70E
:1072400025FF0546002D01D02846A4E7208D002803
:107250000EDD42480090228D23463C333A48401EC2
:10726000E16AFFF713FF0546002D01D0284692E79B
:10727000206B002813D001A8216BFFF76BFE384864
:1072800023463C33082201A900902F48801FFFF7B6
:10729000FDFE0546002D01D028467CE700BF606B4F
:1072A00000280FD02F480090606B027923463C33B2
:1072B00001682548401CFFF7E9FE0546002D01D076
:1072C000284668E7A06B002813D001A8A16BFFF740
:1072D00091FE254823463C33072201A900901A4815
:1072E0002730FFF7D3FE0546002D01D0284652E790
:1072F00000BF00204FE702460A70FF200002104046
:1073000000124870022070472E2E5C2E2E5C2E2E0E
:107310005C2E2E5C2E2E5C536F757263655C626C06
:10732000655C626C655F73657276696365735C62E8
:107330006C655F6469732E63000000003A200020D2
:107340000A1800003C200020292A000044200020C8
:107350004C200020542000205C20002064200020CD
:107360006C200020742000207C2000208A8842822B
:1073700070470022D24342827047F8B504460E4659
:10738000207D002820D0B51D2988608981421AD12E
:10739000288B022817D12068002814D000BF00BF16
:1073A000A97EEA7E120211430846C107C90F0029CF
:1073B00002D00020009001E00120009069462046A4
:1073C0002268904700BF00BFF8BD70B505460C4667
:1073D0002088102804D0112807D050280FD109E0A8
:1073E00021462846FFF7C2FF0AE021462846FFF75C
:1073F000C0FF05E021462846FFF7BFFF00E000BFC1
:1074000000BF70BDF0B591B004460D46207D002848
:1074100019D00020099000BF08A8007901090901CE
:10742000491C08A801710079F0218843103008A98F
:10743000087100BF697B08A84171807906218843E3
:10744000801C08A988711C210AA804F066FB08A802
:10745000007A02218843811C08A80172007A102159
:107460008843217D002901D0012100E0002109018C
:1074700010221140084308A9087200200B900D90BB
:107480000E90207D002801D009A800E000200F9078
:107490000020109000BF01216846817377498181E7
:1074A00000BF00200290A97B68460172E97B41720F
:1074B000807A06218843811C68468172807A08217F
:1074C0008843014668468172807A102188430146CC
:1074D00068468172807A4108490068468172297B3A
:1074E0000191142104A804F018FB03A8049002A839
:1074F0000590012168460183002141830121818398
:1075000001A80890A088A31D04AA0AA9A2DF064624
:10751000002E02D0304611B0F0BDA86800284DD032
:1075200000BF0121684681735549818100BF002059
:107530000290287C6946087200BF6846407A0109BB
:10754000090168464172407AF021884369464872D1
:1075500000BF6846807A06218843811C6846817294
:10756000807A08218843014668468172807A10211A
:107570008843014668468172807A4108490068461E
:107580008172A96800F0D8FD0746142104A804F010
:10759000C4FA03A8049002A8059068460783002156
:1075A0004183018B81830890E08822460E3204A932
:1075B000A3DF0646002E03D03046ACE70020E08172
:1075C0000020A8E7F8B504460D4628682060002092
:1075D000C043608228792075FF20207400BF0121FC
:1075E000684681702749018000BF221D694601203D
:1075F000A0DF0646002E01D03046F8BD29462046C1
:10760000FFF700FFF9E733B585B004460025207C7D
:107610006946097E88422FD0012104916846007E88
:107620002074E08806AB04AA0021A4DF0546002DE3
:1076300002D0284607B030BD608A1349884219D06D
:10764000207D002816D00020009001900290039029
:1076500001210491E18868460180012181700021A7
:10766000818004A8029006A80390608A6946A6DF7C
:10767000054600E0082500BF2846DBE7192A000080
:10768000082900000F180000FFFF00008A88C2824E
:1076900070470022D243C282704738B504460D4677
:1076A000288B022812D1206800280FD028461A30D3
:1076B00000F00EFA002802D00020009001E0012026
:1076C0000090694620462268904700BF38BD70B5DB
:1076D00004460D46AE1D31886089814203D1314692
:1076E0002046FFF7DAFF70BDF8B504460D46AE1D23
:1076F0003088E188884206D1022000906946204601
:107700002268904700BFF8BD70B505460C4620883A
:10771000102806D0112809D050280CD0532814D195
:107720000EE021462846FFF7B1FF0FE0214628462C
:10773000FFF7AFFF0AE021462846FFF7C8FF05E044
:1077400021462846FFF7D0FF00E000BF00BF70BD14
:10775000F8B50C461646002701252078002801D0F0
:10776000012007430620205600030F21090308408B
:1077700021890905090D084300907119009800F04E
:107780009EF94019C5B20A20205600030F210903B3
:107790000840A1890905090D084300907119009856
:1077A00000F08DF94019C5B20E20205600030F21BC
:1077B00009030840218A0905090D08430090711941
:1077C000009800F07CF94019C5B26078002808D014
:1077D0000220074371192046123000F084F9401945
:1077E000C5B2A078002812D0042007431A202056E2
:1077F00000030F2109030840A18B0905090D084367
:1078000000907119009800F05AF94019C5B2E0785B
:10781000002806D008200743A27F2846691CCDB265
:1078200032542079002807D0102007437119208C8A
:1078300000F045F94019C5B237702846F8BD30B59B
:107840009DB005460C460020159000BF10A8007D95
:1078500001090901491C10A80175007DF021884328
:10786000103010A9087500BF10A8807D062188433C
:10787000811C10A88175217941751C2116A804F07E
:107880004CF910A8007E20218843203010A90876EA
:107890000020179019901A9015A81B9000201C909A
:1078A00000BF012108A88177A0496846818700BFF1
:1078B00000200E9008A8807E06218843811C08A81D
:1078C000817661790176A1794176807E08218843AD
:1078D000014608A88176807E10218843014608A8C9
:1078E0008176807E41084900491C08A881761421D0
:1078F00010A804F012F9242105A804F00EF90FA82D
:1079000010900EA811906A4605A92846FFF720FF9F
:10791000014610A80181002141811421818168461E
:107920001490A888AB1D10AA16A9A2DF1DB030BD07
:1079300070B590B005460C461C2109A804F0EDF87E
:1079400008A9087902218843801C08A90871002031
:107950000A900C900D900E900F9000BF0121684688
:10796000817372491431818100BF00200290684602
:10797000807A06218843811C68468172E179017210
:10798000217A4172807A08218843014668468172D3
:10799000807A10218843014668468172807A4108C6
:1079A000490068468172142104A804F0B6F8608981
:1079B00001A900F084F8064603A8049002A80590E7
:1079C0006846068300214183868301A80890A88821
:1079D0002B460E3304AA09A9A2DF10B070BDF8B57A
:1079E00004460E46306820600020C043E082708963
:1079F000208300BF0121684681704D49018000BF8E
:107A0000221D69460120A0DF0546002D01D0284631
:107A1000F8BD31462046FFF712FF0546002D01D084
:107A20002846F5E731462046FFF782FF0546002D40
:107A300001D02846ECE70020EAE7F0B58BB0044619
:107A40000F46E08A3B49884222D006AA39462046A2
:107A5000FFF77EFE064605960020019002900390F7
:107A60000490E188684681800221817100210181B2
:107A700005A8039006A80490E08A01A9A6DF0546A0
:107A8000002D04D16846808AB04200D00C2500E069
:107A9000082528460BB0F0BD7CB504460D460220F3
:107AA0000090608901AB6A460021A5DF0646002EE2
:107AB00003D101A800F00CF8287030467CBD0246C6
:107AC0000A70FF2000021040001248700220704728
:107AD000014600BF08784B781B021843024602207B
:107AE00010404008704770B504460D46208829466E
:107AF000FFF7E5FF0646A2783046711CCEB22A5445
:107B0000E2783046711CCEB22A5422793046711C7C
:107B1000CEB22A5462793046711CCEB22A54A27970
:107B20003046711CCEB22A54304670BD352A000052
:107B300010180000FFFF0000F7B584B004460F46A0
:107B400006980678B01C1F2803DC2079801C1F28AB
:107B500002DD0C2007B0F0BD1F20801B801E85B207
:107B60000295B11C781802A97DDF039003980028C4
:107B700001D00398EEE72068022808D16846008902
:107B8000A84204DC09200190684605890BE0082022
:107B900001902079002804D02079A84201DC2579C1
:107BA00001E068460589681CC2B23046711CCEB23D
:107BB0003A543046721CD6B201993954069801786D
:107BC000A81C0818C1B2069801700020C2E7F8B5D9
:107BD00005460C462078001D1F2801DD0C20F8BD4D
:107BE000684679DF0646002E01D03046F7E70321CC
:107BF0002278501C2070A95419212278501C207022
:107C0000A954207841196846008800F08AFA217842
:107C1000401820700020E2E7F8B505460F461646EA
:107C20001C466868002801D10720F8BD2078801C18
:107C3000298840181F2801DD0C20F6E72878401C11
:107C4000C1B22278501C2070B1542178481C207099
:107C500077542A8823789819696803F0FFFE207802
:107C60002978401820700020DFE730B503461078EF
:107C7000C01C1F2801DD0C2030BD02241578681CB3
:107C800010704C550A241578681C10704C551578E6
:107C9000681C10704B550020EEE7FFB587B0064614
:107CA0001D46109C0020069020780590002747E094
:107CB000B900706841180A88684602814988418184
:107CC000002203A902A865DF04900498002802D0CE
:107CD00004980BB0F0BD6846017B099881422ED113
:107CE0000698002801D0002000E0022001902078B2
:107CF0006946097B4118019808181F2801DD0C20EE
:107D0000E7E70698002809D12078401C20702278E7
:107D1000511C08982170A85401200690207842191F
:107D200003A902A865DF04900498002801D00498F4
:107D3000CFE720786946097B4018207000BF7F1C80
:107D40003088B842B4DC0698002806D0217805981F
:107D5000401C081AC1B2059829540020B9E7FFB5A4
:107D600081B0074615460A9E009602223846049BBB
:107D70000299FFF792FF0446002C02D0204605B07E
:107D8000F0BD0096102229463846049BFFF785FF78
:107D90000446002C01D02046F1E70020EFE7014621
:107DA0000888062808DB08881922D201904205DDE0
:107DB0000888E04A904201D007207047488806288A
:107DC00008DB48881922D201904205DD4888D94A4B
:107DD000904201D00720F0E70888D64A904208D0A8
:107DE0004888904205D008884A88904201DD0720E3
:107DF000E3E70020E1E7F8B506460D461446207893
:107E0000801D1F2801D90C20F8BD3046FFF7C7FFA1
:107E10000746002F01D03846F6E705212278501C8E
:107E20002070A95412212278501C2070A954227865
:107E30005119308800F075F92178401820702278A7
:107E40005119708800F06DF92178401820700020D9
:107E5000DAE7F8B505460E4614462879801CC7B205
:107E60002078801CC0191F2801DD0C20F8BD781C6B
:107E7000C1B22278501C2070B154FF212278501CCE
:107E80002070B15422789119288800F04AF921789D
:107E900040182070A88800280EDDA868002801D1AD
:107EA0000720E3E7AA8823789819A96803F0D6FD8C
:107EB00020782979401820700020D7E7FEB50746C2
:107EC0000E461446786B002801D10720FEBD002025
:107ED000019032E0796B0C22019850430D182879FB
:107EE000801CC0B200900098401CC1B22278501C87
:107EF0002070B15416212278501C2070B154227881
:107F00009119288800F00DF9217840182070A88870
:107F100000280EDDA868002801D10720D6E7AA882E
:107F200023789819A96803F099FD207829794018D9
:107F300020700198401CC0B201903820C15D0198AA
:107F40008142C7DC0020C1E7F8B504460F4616465B
:107F50000025002030702068002809D032463946BC
:107F60002046FFF7E9FD0546002D01D02846F8BD63
:107F70006079002808D031463846FFF728FE0546CC
:107F8000002D01D02846F2E7208900280BDD33467A
:107F90003A46012120460830FFF73EFE0546002DF7
:107FA00001D02846E3E7206900280BD00020216992
:107FB000085632463946FFF758FE0546002D01D0D7
:107FC0002846D4E7A08A00280CDD3B460622022181
:107FD000204614300096FFF7C2FE0546002D01D062
:107FE0002846C4E7A08B00280CDD3B46072203216E
:107FF00020461C300096FFF7B2FE0546002D01D04A
:108000002846B4E7A08C00280CDD3B46152214213D
:10801000204624300096FFF7A2FE0546002D01D031
:108020002846A4E7E06A002809D032463946E06ACB
:10803000FFF7E1FE0546002D01D0284697E7206BAB
:10804000002809D032463946206BFFF702FF05466B
:10805000002D01D028468AE73820005D002809DD80
:10806000324639462046FFF729FF0546002D01D04C
:1080700028467CE728467AE701460889002807D089
:10808000C868002804D0C86800780422104201D1D2
:10809000072070470020FCE701460889002801DD21
:1080A000072070470020FCE7F3B593B00D46002190
:1080B000129111911398002814D01398FFF7DCFF48
:1080C0000446002C02D0204615B0F0BD12AA09A922
:1080D0001398FFF739FF0446002C01D02046F3E740
:1080E00009AE00E00026002D13D02846FFF7D4FF8C
:1080F0000446002C01D02046E6E711AA01A9284633
:10810000FFF722FF0446002C01D02046DCE701AF38
:1081100000E0002710A803793A46017A304672DF62
:10812000D2E702460A70FF20000210400012487099
:1081300002207047FFFF0000F8B505460E460024F8
:1081400032782146641C6A5472782146641C6A5451
:1081500000BF022C01D1012000E000200746002FC3
:1081600005D100BF08A22021FEF7BEF800BF00BF66
:108170002046F8BD70B504460D46284603F04CFC79
:108180002080656070BD00002E2E5C2E2E5C2E2E91
:108190005C2E2E5C2E2E5C536F757263655C626C78
:1081A000655C626C655F73657276696365735C625A
:1081B0006C655F7372765F636F6D6D6F6E2E6300BB
:1081C0000A7B002A04D04A6802600022027103E0A0
:1081D0000A68026001220271704702461079002885
:1081E0000FD048681368C01A8B68984204D9106889
:1081F0008B68C018106013E0486810600020107190
:108200000EE010680B68C01A8B68984204D9106899
:108210008B68C01A106003E00868106001201071BC
:108220001068704710B5002819DAF74A03071B0FCA
:10823000083B9B089B00D2588307DC0EFF23A3401A
:108240009A438B071B0E8407E40EA3401A43EE4BA0
:108250000407240F083CA408A4001A5118E0EB4AB4
:1082600003231B02D21883089B00D2588307DC0E1D
:10827000FF23A3409A438B071B0E8407E40EA34001
:108280001A43E24B032424021B198408A4001A5148
:1082900010BD10B50446DE48846003211120FFF7AD
:1082A000C1FF10BD10B501200004DA494860D9496A
:1082B00040394860112000F00CFD112000F0FBFC5B
:1082C0000120D54908602F20FDF740FF0120D34948
:1082D000087010BD10B5112001218140CB4A8032B9
:1082E000116000BF01200004CA498860C9494039B3
:1082F00088600120C84948602F20FDF727FF012032
:10830000C54988600020C64908602F20FDF71EFF80
:108310000020C249087010BDF0B502462820504325
:10832000C04B1B68C118C0480068401C02D1BE4841
:10833000026057E0BC488B68006828246043B94C51
:10834000246800198068834217D8B748006828233A
:108350005843B44B1B68C01880688B68C31AB24876
:10836000006828246043AF4C246800198360AE483D
:1083700000684862AC48026034E08B68AA4D2C6803
:1083800028680DE028254543A64E3668AD19AD682E
:108390005B1B044628254543A24E3668AD19686A22
:1083A000451C07D0282545439E4E3668AD19AD685B
:1083B0009D42E7D3451C0CD028254543994E36688D
:1083C000AD19AD68EE1A28254543964F3F68ED1963
:1083D000AE608B60486228256543924E3668AD19C1
:1083E0006A6200BFF0BDF8B506468F4805682C46A6
:1083F00009E0B44200D108E02546282060438949BD
:1084000009684018446A601CF3D100BF601C00D1A9
:10841000F8BDA5420FD1844800682821484381490E
:1084200009684018406A8049086008460068401C96
:1084300001D1FFF74FFF282060437A4909684018AF
:10844000876828206043774909684018416A2820D6
:108450006843744A12688018416228206843714951
:1084600009684018446A601C0CD0282060436D499C
:10847000096840188068C11928206043694A126859
:108480008018816000BFC3E710B5112000F01AFC0E
:1084900010BD10B5142000F015FC10BD70B50446D9
:1084A00062480068002813D0604A216AE0691268B7
:1084B0009047054600BF2E46002E07D000BF5CA2A5
:1084C000FF2164313046FDF70FFF00BF00BF02E01F
:1084D000E169206A884770BDF8B553480068401CC0
:1084E00039D0002700F0FDFB04464D4801682046C6
:1084F00000F0FAFB06464C48056811E02820684366
:10850000484909684418A068B04200D90AE0A06848
:10851000361AA068C719656A2046FFF7BFFF00BF7B
:10852000681CEBD100BF4E4800784E49097888425C
:1085300009D14C480078401CC0B24A490870022852
:1085400001D10020087047480078800046490F504C
:10855000FFF79FFF00BFF8BD014641480078414A40
:10856000127890421DD03E480078401C3C4A107062
:1085700010460078022801D1002010703848007899
:108580008000394A10580860254A08681268801827
:10859000234A1060104600680002000A10600120A3
:1085A00070470020086000BFFAE7FEB51E4800686B
:1085B00001902E480078009076E00098C0002C4989
:1085C0000968441825786BE01820684361680F1823
:1085D000681CC5B2A078A84200D1002538680228DE
:1085E00002D0032859D145E02821786848430D4935
:1085F00009684618307E002804D07868FFF7F3FE3B
:10860000002030764AE000001CED00E000E100E0D0
:10861000001501404013014000100140A820002037
:10862000942000208420002090200020A4200020FE
:108630002E2E5C2E2E5C2E2E5C2E2E5C2E2E5C534F
:108640006F757263655C6170705F636F6D6D6F6E87
:108650005C6170705F74696D65722E63000000006C
:10866000A0200020A12000209820002089200020A8
:108670008C2000200CE0FE49096828225143FD4A65
:108680001268881800210176F94A416A116000BF1A
:10869000F7480068401CEED100E000BF00BF00BFFB
:1086A0006078A84290D100BF0098411EC9B20091E5
:1086B000002882D1EE4801680198814201D0012052
:1086C000FEBD0020FCE7F0B50346002426E0E84E9E
:1086D000366828277E43E74F3F68F01986689E4238
:1086E00003D98668F61A86601CE086689B1B86683C
:1086F0003419002686600676DD4E3568DC4F466A02
:108700003E604669002E08D00E193602360AC66051
:108710004669066116684662156000BFD448006865
:10872000401CD4D100BFF0BDFEB50746D04800685C
:108730000290D1480078019069E00198C000CF49CB
:10874000096845185CE0781C07D03E462820704335
:10875000C84909684418676A23E0297818235943EF
:108760006A6850182978491C29702978AA7891429A
:1087700001D100212970466828217143BD4A126841
:108780008C180168012902D1217E002900D037E030
:108790008168E160C16821610169616141692162AB
:1087A00000BFB749E0680968401A0002000AB549ED
:1087B000884208D2B249E068096800F095FA216958
:1087C0004018A06011E0AE48E168006800F08CFA43
:1087D000009021690098814204D921690098081A03
:1087E000A06001E00020A06000BF0020E0602061E8
:1087F00001202076801E60623046FFF78DFD00BFAD
:10880000781CA0D12878697888429CD100BF019853
:10881000411EC9B2019100288FD195480168029884
:10882000814201D00120FEBD0020FCE7FEB590484A
:108830000068401C34D08E480068282148438D4988
:1088400009684018856800F04CFA01908C4804686B
:108850002146019800F048FAC61C8B480078002891
:1088600001D1FFF71FFDAE4201D2284600E030469D
:1088700004192402240A20468449086000BF00F03D
:1088800030FA00900199009800F02EFAC71C20469B
:10889000019900F029FA874201D9FFF7F5FD01E0BF
:1088A000FFF718FDFEBDFEB50020C04301907448DF
:1088B00004686F4807686846FFF74EFE0546FFF7F5
:1088C00074FE0646002D05D001AA21460098FFF748
:1088D000FAFE01260198FFF727FF002800D00126A5
:1088E000002E02D03846FFF7A1FFFEBD4170704751
:1088F00070B502460B465078411C9078884200D1F2
:1089000000211078884201D1002070BD1960507894
:108910001826704355682C182046F6E7FFB581B03D
:1089200005460E461746E900544A126888186946FB
:10893000FFF7DEFF0446002C02D1042005B0F0BD95
:1089400001202060666000F0CCF9A060E760049828
:1089500020610A986061E900484A12688818009905
:10896000FFF7C4FFFFF795FD0020E7E7F8B50446E1
:108970000E46E100414A126888186946FFF7B8FFC1
:108980000546002D01D10420F8BD022028606E604C
:10899000E1003A4A126888180099FFF7A7FFFFF72D
:1089A00078FD0020F0E738B50446E100334A12684C
:1089B00088186946FFF79CFF0546002D01D1042069
:1089C00038BD03202860001F6860E1002B4A126850
:1089D00088180099FFF78AFFFFF75BFD0020EFE79B
:1089E00010B500202A4908600021294841608160B3
:1089F000C16000202649403908604860FFF76CFDDF
:108A000010BD10B5FFF74FFF10BDFFB581B00E468A
:108A100017461C4620468107890F01D1012100E03D
:108A20000021002902D1072005B0F0BD002C01D1A2
:108A30000720F9E7FFF74EFC16490A980860164828
:108A400006700C48046000250CE0002128206843D3
:108A5000084A1268115028206843064A1268801894
:108A600001766D1CB542F0DB28207043041915E037
:108A70009020002084200020892000208C200020CD
:108A800094200020FFFF7F00A82000204015014017
:108A900040110140A4200020882000200320954997
:108AA000087095480460183400250CE0E900924AEB
:108AB0001268881800210170417087704460182185
:108AC00079430C196D1C032DF0DB0020C0438B494A
:108AD000086000208A4908708A490870142000F054
:108AE000F8F803211420FFF79DFB142000F0E3F8B1
:108AF0000198FFF7CEFB00F0F4F8834908600020EE
:108B000092E770B503460C4680480068002801D102
:108B1000082070BD002A01D10720FAE7002B01D1FF
:108B20000720F6E700211CE028204843774D2D68F8
:108B30002858002814D1012528204843734E366850
:108B4000355028204843714D2D6840194460282035
:108B500048436E4D2D684019C26119600020D8E766
:108B6000491C6B4800788142DEDB0420D1E730B538
:108B700000BF68484068C205D20D002A1ED01346C7
:108B8000103B184600280CDA624C1C3405072D0FE8
:108B9000083DAD08AD0064598507ED0EEC40A40911
:108BA0000AE05D4C03252D0264198508AD00645967
:108BB0008507ED0EEC40A409E0B200E00420012896
:108BC00002D0032804D101E0002103E0012101E0EB
:108BD000022100BF00BF084630BDFEB504460D4669
:108BE00016464A480068002801D10820FEBD4848C2
:108BF0000078844201D2052D01D20720F6E7282013
:108C00006043424909680858012801D00820EDE76F
:108C1000282060433D49096840184068012801D177
:108C2000284600E000200746FFF7A1FF3B462A4602
:108C3000214600960190FFF771FED7E770B5044614
:108C400032480068002801D1082070BD3048007803
:108C5000844201D30720F8E7282060432B490968A4
:108C60000858012801D00820EFE7FFF780FF0546EC
:108C70002146FFF77BFEE8E710B52448006800288E
:108C800001D1082010BDFFF772FF0446FFF78BFEED
:108C9000F8E710B5044600F024F82060002010BD6D
:108CA00070B505460E4614463146284600F01CF8BD
:108CB0002060002070BDC206D20E01219140164AEC
:108CC00011607047C206D20E01219140134A116013
:108CD0007047C206D20E01219140104A80321160C5
:108CE00070470F48406870470246501A0002000A59
:108CF00070470000892000208C2000209020002058
:108D0000A0200020A120002094200020842000200A
:108D10008820002000ED00E000E100E000E200E03B
:108D20000015014001464888B74A1288904206DB88
:108D30004888B54A5288904201DC012070470020E3
:108D4000FCE738B50546B1480088B14988423BD0B8
:108D5000B0480078401CAF490870AF48007B0978E4
:108D600088420FDBA849A948008875DF0446002C1B
:108D700007D0A9488069002803D0A7488169204608
:108D8000884721E00020A3490870A348007C002800
:108D90000FD03B219D48008876DF0446002C07D089
:108DA0009D488069002803D09B48816920468847F8
:108DB00000BF99484069002806D0002000909648DE
:108DC00041696846884700BF38BD70B505461C221A
:108DD00029469148FDF7CAF9002090490870286893
:108DE00000280BD008228848296802F037FE864800
:108DF0007ADF0446002C08D0204670BD82487BDF15
:108E00000446002C01D02046F7E70020C0437F49EC
:108E1000088000207F490870814A00218148FFF7BF
:108E200070FEEAE710B57F480068FFF707FF10BD46
:108E300038B57D48FFF776FF002829D177480078BC
:108E400000280AD074484069002820D000200090F3
:108E5000714841696846884719E06E4800780028E3
:108E600002D16D48456801E06B48856800222946BB
:108E70006C480068FFF7B1FE0446002C07D0664836
:108E80008069002803D064488169204688470AE049
:108E900061484069002806D0012000905E48416981
:108EA0006846884700BF00205C49087038BD10B58F
:108EB0000446A08855490880082221460E315A48A8
:108EC00002F0CCFD0020534908705348C0890028A7
:108ED00001D1FFF7ADFF10BD70B505460020C043BE
:108EE0004A49088000204B4908704E480068FFF747
:108EF000A5FE0446002C07D047488069002803D00F
:108F0000454881692046884770BD70B50546AC1D4F
:108F100020884149C989884220D1208B02281DD14F
:108F200000BF00BFA17EE27E120211430846C107C6
:108F3000C90F002902D0FFF77BFF0FE03948006816
:108F4000FFF77CFE0646002E07D0334880690028D4
:108F500003D0314881693046884700BF70BD10B5E5
:108F600004460822A11D304802F078FDFFF760FF9B
:108F700010BD10B504462088102806D0112808D04E
:108F800012280ED0502810D107E02046FFF78FFF9F
:108F90000CE02046FFF7A0FF08E02046FFF7B5FFF2
:108FA00004E02046FFF7DBFF00E000BF00BF10BD7C
:108FB00038B5044608222146134802F04FFD1248F6
:108FC0007ADF0546002D1CD11748FFF7ABFE0028BD
:108FD0000BD10120114908700B490C48008875DF3E
:108FE000054601200B4908700BE00B48406900283A
:108FF00006D001200090084841696846884700BFB4
:109000000025284638BD0000AE200020B8200020F2
:10901000FFFF0000B620002098240020AC20002094
:10902000438D0100C4200020BA20002070B5034603
:109030000C460820002114E00C254D43FC4EAD19D0
:10904000AD7A25420CD0FB4DAB4205D00C254D43EB
:10905000AD192D899D4202D11160002003E0052049
:10906000491C0029E8D000BF70BD10B504461C2182
:109070006143F14A891808461130062102F04BFD80
:109080001C216143EC4A8818102102F044FDFF21A5
:109090001C206043E84A801801741C20604380183B
:1090A00081760021C9431C2060438018018320463B
:1090B00001F031F910BD7CB50546A9B26A46DF481A
:1090C00001F014FE0446002C09D15C21684601F031
:1090D0008CFF0446002C02D12846FFF7C6FF20462D
:1090E0007CBDF8B505460E461746052000900024C5
:1090F0001BE0002D06D11C206043CF494018008B97
:10910000B8420DD0002D0FD01C216143CA4A8918E6
:10911000084610300722294602F050FC002803D1EF
:1091200034600020009002E0641C072CE1D300BFF3
:109130000098F8BD10B5044601210C206043BC4ADC
:1091400080188172891E0C20604380180181FF21E4
:109150000C2060438018C1720C21614388180721DC
:1091600002F0D9FC10BD10B50446002010BDF0B5CA
:1091700089B007460C462020009061780C225143AC
:10918000AB4A891808896A4601A9AADF0646002E5B
:1091900046D1617824225143A94A8918081D69469D
:1091A0000A8801A902F00AFC002812D160780C217B
:1091B00048439F494018807A0221084002282FD056
:1091C0006178242251439E4A8818242102F0A5FC8C
:1091D00026E060782421484399490858002801D0A6
:1091E000984D00E0984D69460988607824225043E4
:1091F000934A1150617824225143914A8918081DDD
:1092000069460A8801A9FCF7B1FF6078242250431F
:109210008B4A8118342324223846A847064600BFCB
:10922000002009B0F0BD02460020704770B5054629
:109230000C46617824225143814A88183423242221
:10924000294601F061FE0646002E0CD160782421EB
:1092500048437B490858401C05D1002160782422EE
:109260005043774A1150304670BD02460020704787
:10927000F8B5044600260027607824214843704949
:10928000085800281FD060780C21484368494018CE
:10929000807A40210840402815D160780C2148434D
:1092A00063494018807A2021084020280BD060783C
:1092B0002421484362494018061D60782421484310
:1092C0005F49085A87B261780C225143584A89187D
:1092D00008893A463146A9DF0546002D00D05B4D8E
:1092E0002846F8BD0146002070470146002902D1FA
:1092F000564833387047FF20087048708870C8702F
:109300000020F7E7FFB58BB00F461D4600BF504861
:109310000068002801D10FB0F0BD00BF14985C2890
:1093200000D9F8E70120029007A8FFF7DEFF064604
:1093300000BF0196019E002E06D000BF454A464957
:109340000198FCF7D1FF00BF00BF002168460177FC
:1093500008A801700695149805900020019017E068
:10936000019881B203AA354801F0C0FC0646002EE0
:109370000BD1082203A90B9802F020FB002804D18E
:109380000198C1B26846817705E00198401C0190C0
:1093900001980728E4D300BF6846807FFF287DD06E
:1093A000042F0AD114985C2803D1202008A9087042
:1093B00081E0402008A908707DE01F49681A1C213F
:1093C00002F0ADFB0446072C1CD205A809900D98AD
:1093D00000280FD16946887F012181401F4A126809
:1093E000114201D0012100E00021002902D100201A
:1093F000029060E06946887F00F08DFF202008A978
:10940000087058E01649681A182102F088FB0446D3
:10941000002C27D105A80990202108A801706846D2
:109420004477807F1C21484303494018069042E05E
:10943000B4250020FFFF0000B4240020CC20002031
:10944000902500203FAE010075AD01004180000075
:10945000C025002074BD0100C3040000D4200020FA
:1094600078250020F849681A242102F058FB0446A8
:10947000002C1BD1302108A80170684644770121D7
:10948000C1770C206043F1494018807A02210840DE
:10949000022810D06946497F242200E02DE0514384
:1094A000E94A8818242102F038FB04E000200290E9
:1094B000402008A90870029800281ED0042F06D169
:1094C00008A908780321084308A908700EE0032FB3
:1094D00006D108A908780121084308A9087005E009
:1094E00008A908780221084308A9087005A809906E
:1094F00008A907A80D9A00F051FF00BF0BE77FB540
:109500000646002E02D1D24804B070BD00240BE004
:1095100000BF00210C206043CE4A11500C20604354
:109520008018817200BF641C002CF1D0002403E07D
:109530002046FFF7FFFD641C002CF9D02421C2480F
:1095400002F0EBFA002406E02046FFF78EFDFF2034
:10955000C1490855641C072CF6D35C2168468181FB
:109560000721C181BD480290BD4902A801F0FAFA65
:109570000546002D30D10120BA4908703078002806
:1095800021D100241CE0A1B26A46B54801F0AEFB2F
:109590000546002D0FD11C216143B34A88180023D2
:1095A0001C22694601F0B0FC0546002D07D00020C2
:1095B000AC49087006E00020AA49087002E0641C6B
:1095C000072CE0D308E06A469089D289504381B2E3
:1095D000A34801F00AFD0546284695E770B5054603
:1095E0000C4600BF9F480078002802D19848801F91
:1095F00070BD00BF002D01D19548F9E7002C01D1C5
:109600009348F5E72068002801D19148F0E7914898
:10961000006800280FD18F49206808600622A11D2C
:109620008C48001D02F01AFA20798A4988720020BD
:109630002870002601E0864E0A3E3046D8E770B515
:10964000044600BF87480078002802D18048801F68
:1096500070BD00BF002C01D17D48F9E700BF207824
:10966000012806DA20780C2148437A490858002856
:1096700002D17748801FEBE700BF00BF6078012868
:1096800007DA60780C21484370494018807A012835
:1096900002D16F48801CDBE700BF6D4DAD1F6078C5
:1096A0000C21484369494018807A02210840022869
:1096B00009D161780C225143644A891808896549A7
:1096C000091D7EDF05462846C2E7024600BF654801
:1096D0000078002802D15E48801F704700BF002A32
:1096E00001D15B48F9E7002901D15948F5E700BFEE
:1096F0001078012806DA10780C235843554B185877
:10970000002802D15248801FE7E700BF00BF507811
:10971000012807DA50780C2358434C4BC018807A44
:10972000012802D14A48801CD7E700BF50780C239B
:109730005843464BC018807A0423184202D00120B7
:1097400008600DE050780C235843404BC018807AD5
:109750004023184202D00220086001E00020086087
:109760000020BAE7F0B5044600BF3E480078002864
:1097700002D13748801FF0BD00BF002C01D1344812
:10978000F9E7002901D13248F5E70868002801D13E
:109790002F48F0E78868002801D12D48EBE700BF8B
:1097A0002078012806DA20780C256843294D2858AE
:1097B000002802D12648801FDDE700BF00230022D9
:1097C000002022E01C254543274EAD19AD7EED0754
:1097D000ED0F08D11C254543AD1997008E68F55152
:1097E0001D4EB054521C1C2545431F4EAD19AD7E75
:1097F0000226354208D11C2545431B4EAD191035B4
:109800009F000E68F5515B1C401C072805D20D799E
:109810009D4202D90D7B9542D4D80B710A7300206A
:10982000A9E702460A488230704770B5044600BF77
:109830000C480078002802D10548801F70BD00BF89
:10984000002C13D10248F9E790250020B425002010
:109850000E800000C0250020D820002005930100C4
:10986000CC200020C8200020B424002000BF207895
:10987000012806DA20780C214843FA4908580028C4
:1098800001D1F948DAE700BF00BFA078072807DA5E
:10989000A0781C214843F5494018807EFF2802D15A
:1098A000F1480830CAE700BFA078FFF704FC05467E
:1098B0002846C3E770B5044600BFED48007800288D
:1098C00001D1E94870BD00BF002C02D1E648801DDF
:1098D000F8E700BF2078012806DA20780C214843F9
:1098E000E0490858002801D1DF48EBE700BF002617
:1098F00000250BE01C206843DC494018807EFF28CF
:1099000003D02846FFF7D7FB06466D1C072DF1D381
:109910003046D7E7FEB504460D4600BFD448007870
:10992000002801D1D048FEBD00BF002C02D1CE4896
:10993000801DF8E7002D02D1CB48801DF3E700BF62
:109940002078012806DA20780C214843C5490858B8
:10995000002801D1C448E6E700BF00BF60780128B5
:1099600007DA60780C214843C2494018807A012800
:1099700002D1BD480830D6E700BF00BFA078072855
:1099800007DAA0781C214843B8494018807EFF2898
:1099900002D1B5480830C6E700BFA868002812D039
:1099A000686800280FD0686820280CD22878012821
:1099B00009D1637824277B43AF4FDB19181D6A68F0
:1099C000A96802F04BF8A1786A46AC4801F08EF91C
:1099D000064628788000AA490A58214668469047DA
:1099E000064630469FE77CB504460D4600BFA048BA
:1099F0000078002801D19C487CBD00BF002C02D11A
:109A00009948801DF8E7002D02D19748801DF3E7A3
:109A100000BF2078012806DA20780C2148439149BC
:109A20000858002801D19048E6E700BF00BFA078A1
:109A3000072807DAA0781C2148438C494018807E0B
:109A4000FF2802D188480830D6E700BF60780C2193
:109A5000484388494018807A02210840022802D0F1
:109A600081488930C8E7A868002812D16868202892
:109A70000FD2287801280CD16078242148437E49F0
:109A80004018001DA8606078242148437A4908588E
:109A90006860A1786A46794801F028F90646287876
:109AA000800078490A582146684690470646304665
:109AB000A2E7014600BF6E480078002801D16A483D
:109AC000704700BF002902D16748801DF8E700BF3A
:109AD0000878012806DA08780C225043614A1058A9
:109AE000002801D16048EBE700BF00BF8878072855
:109AF00007DA88781C2250435C4A8018807EFF2851
:109B000002D159480830DBE700BF57488830D7E713
:109B1000024655488930704702465348893070479D
:109B20000146514889307047024600BF50480078CE
:109B3000002801D14C48704700BF002902D14A4893
:109B4000801DF8E7002A02D14748801DF3E700BFD7
:109B50001078012806DA10780C235843414B185826
:109B6000002801D14048E6E700BF107808700020C7
:109B7000E1E7FEB504460E46A1786A463F4801F08B
:109B8000B5F80546002D49D160780C214843394984
:109B90004018807A20210840202801D0022E01D1CF
:109BA000394F04E0012E01D1384F00E0384FA07842
:109BB0001C2250432D4A811800231C226846B847B6
:109BC0000546002D1AD1022E18D060780C2148438A
:109BD00028494018807A2021884361780C2251431B
:109BE000244A89188872607818225043294A8118BB
:109BF0001C2318226846B847054600BF022E0DD028
:109C000020780C21484317494018807A80001C496D
:109C10000A58214668469047054600BFFEBD70B50C
:109C200004460D4600BF12480078002801D10E48B6
:109C300070BD00BF002C02D10B48801DF8E7002D3D
:109C400002D10948801DF3E700BF2078012806DA19
:109C500020780C2148430349085800281CD10248A9
:109C6000E6E70000C025002008800000B4240020A2
:109C7000C8200020B425002090250020CC20002002
:109C800040BD010050BD01003FAE010075AD0100B7
:109C9000679101007825002000BF00BFA078072849
:109CA00007DAA0781C214843F7494018807EFF2836
:109CB00001D1F648BCE700BF6078FF281CD12878A6
:109CC000022819D0A1781C225143EF4A891808466E
:109CD00010300722294601F0C1FEA0780121814001
:109CE000EB4A12681143EA4A116000BF0221204684
:109CF000FFF73FFF002601E0E44E093E304697E7BC
:109D000070B504460E4600BFE2480078002802D134
:109D1000DE48083870BD00BF002C02D1DB48801E31
:109D2000F8E7002E02D1D948801EF3E700BF207863
:109D3000012806DA20780C214843D7490858002822
:109D400002D1D2480838E5E700BFD04D0B3DA078DE
:109D5000FF2817D16078FF2829D060780C2148436C
:109D6000CE494018807A0221084002281FD160782D
:109D70000C225043C94A81180722304601F06EFE7A
:109D8000002514E0A0781C214843BF494018807E7C
:109D9000022108420BD1A0781C225043BA4A8018F5
:109DA000014610310722304601F058FE00252846B2
:109DB000B0E77CB50446A1786A46B94800F096FF42
:109DC0000546002D13D1617818225143B54A8818F1
:109DD0001C231822694601F097F8AF48807A80006A
:109DE000B1490A58214668469047054600BF7CBDE8
:109DF000F0B589B004460026FF20029000BFA548B8
:109E00000078002801D109B0F0BD00BF00BFA24812
:109E10000068002800D1F6E700BF06A8FFF765FA42
:109E2000054600BF2F46002F06D000BF9F4AA0491D
:109E30003846FCF759FA00BF00BF00200190079098
:109E40000025201D0490342168468182FF218176FF
:109E500000210176002008902088102813D0A088C7
:109E600008AA0221FFF7E2F80546002D0BD10C21CC
:109E70000898484389494018C17A6846817608980D
:109E8000C1B2684641762088142878D006DC1028B4
:109E90000BD0112878D0132873D10FE1172871D077
:109EA000182870D05228F7D10EE208AF3A460121A7
:109EB0008048FFF7BBF800900098002807D10221E6
:109EC0000C2238685043754A8018817201E00420E2
:109ED000009000980546002D50D1012611216846BA
:109EE00001730898C1B268464176A1880C2208988F
:109EF00050436A4A8018018102210C22089850437D
:109F0000664A801881720C2208995143634A881866
:109F10000722A11D01F0A2FD607B30400AD0607BCA
:109F200040086549085CFF280AD0607B4008085C4F
:109F3000029005E05F4A02A9A01DFFF7D2F805468E
:109F4000002D1BD10298C1B20C2208985043534AED
:109F50008018C1720C210898484311464018807A35
:109F6000082108430C22089951434C4A89188872E9
:109F700069460298887606A8FFF71BFFAFE141E02B
:109F800002E0ABE1DAE07DE10C2108984843434967
:109F90004018807A022188430C22089951433F4A95
:109FA000891888720C210898484311464018807A15
:109FB0000821084008280ED10C2108984843114672
:109FC0004018807A4021084040280FD1002106A87F
:109FD000FFF7CFFD0AE06846807EFF2806D069467D
:109FE000887EFFF742F8FF206946887610210C2210
:109FF00008985043294A8018817201261220694628
:10A0000008736CE10C210898484324494018C07A31
:10A01000FF2823D1E28902A90020FFF762F8054654
:10A02000002D1BD10298C1B20C22089850431B4A44
:10A030008018C1720C210898484311464018807A54
:10A04000082108430C2208995143144A8918887240
:10A0500069460298887606A8FFF7ABFE0C2108989F
:10A0600048430E494018C07AFF2806D018210898A6
:10A0700048430C494018001D0190A0880022019916
:10A0800081DF05462BE10000B42400201080000091
:10A09000D4200020C8200020C0250020B4250020A6
:10A0A000CC2000207825002050BD010074BD0100A7
:10A0B00037090000FFFF0000D82000201320694668
:10A0C0000873A088D54A00217FDF0546002D02D005
:10A0D0000795002631E00C2108984843D0494018E4
:10A0E000807A042108430C2208995143CC4A8918EC
:10A0F000887201260C210898484311464018C07AFE
:10A10000FF281AD000BF1620694608732422089938
:10A110005143C44A8918081D202101F0FEFC0C217E
:10A1200008984843BE494018807A202108430C22F1
:10A1300008995143BA4A89188872D0E00C210898CE
:10A140004843B7494018807A042188430C22089973
:10A150005143B34A8918887214206946087301264E
:10A16000A079002802D0A07907908AE018210898E9
:10A170004843AD494118E07A88701821089848434F
:10A18000A9494118A07A4870182208995143A64A53
:10A190008918081D142221460C3101F05FFC0C21A6
:10A1A000089848439E494018807A4021084040283A
:10A1B00067D10C210898484399494018807A0821B2
:10A1C00008430C2208995143954A891888720C213A
:10A1D0000898484311464018C07AFF283FD10C2206
:10A1E000089850430A46811802A800F09CF80546DA
:10A1F000002D32D16946029888760298C1B20C22AD
:10A2000008985043864A8018C172A1891C2202987E
:10A210005043864A80180183E07A4007C00F17D068
:10A220001C2208995143814A881810222146203166
:10A2300001F014FC1C21089848437C494018807E9A
:10A24000410849001C2208985043784A80188176BA
:10A25000012106A8FFF78DFC13E0079511E00C2102
:10A26000089848436E494018807A202108430C2200
:10A27000089951436A4A89188872002106A8FFF795
:10A2800078FC2CE00C210898484365494018807AF6
:10A29000402108430C2208995143614A8918887269
:10A2A0001520694608730020079001265B48001FAF
:10A2B000807A80005E4A115806A888470546002D1E
:10A2C00001D05C4807900AE05448001F807A800063
:10A2D000574A115806A88847079000E000BF00BF02
:10A2E000002E16D003A906A8079A00F057F8684672
:10A2F000007B12280DD100BF0C2108984843484923
:10A300004018807A012802D00898FEF713FF00BF9A
:10A3100000BF00BF77E501218140474A12688A43A8
:10A3200045490A607047F8B505460E46414FBF1CC7
:10A3300000242EE01C2060433C494018807EFF280A
:10A3400026D13078022814D01C2060434018807E2B
:10A35000022188431C216143344A891888761C21D4
:10A3600061438918084610300722314601F076FB18
:10A370000BE01C2060432D494018807E41084900B5
:10A380001C206043294A801881762C70002702E047
:10A39000641C072CCED300BF3846F8BDF8B5044680
:10A3A0000D4616461D48001F0768324629462046BE
:10A3B000B847F8BD02460020704770B505460E4606
:10A3C00031462846FEF7D3FE0446002C02D100BFDA
:10A3D00000BF0446204670BD02460020704770B59D
:10A3E00005460E4631462846FEF720FF0446002C5F
:10A3F00002D100BF00BF0446204670BD01460020C8
:10A40000704770B505462846FEF732FF0446002C1B
:10A4100002D100BF00BF0446204670BDC425002005
:10A42000B42500209025002078250020B4240020A9
:10A4300060BD010041800000D420002000231421D1
:10A440004143F94A53541421414389184B80012355
:10A450001421414389188B6000231421414389183A
:10A46000CB601421414389180B61142141438918A1
:10A470008B80704710B50020EC490880EC490860DB
:10A48000E949091F087048708870002403E02046DD
:10A49000FFF7D4FF641C0A2CF9D310BDFFB583B0BD
:10A4A00004460F4615460326E148006800280BD1F4
:10A4B000002D06D10698002803D10220DC4908604F
:10A4C00002E00120DA490860D9480068030001F081
:10A4D00023FC07FC05304D82B7D4FC00D548406909
:10A4E000401C08D001221207126991B2D14A50696A
:10A4F00001F015FB02E0012000074069401E012128
:10A500000907096989B248430290012000070069E0
:10A510000004820C01200007006980B278430146E4
:10A52000029821DF0646002E02D10220C0490860B1
:10A53000CCE0384620DF0646002E16D1002D11D182
:10A54000069800280AD12078042803D10720B849AA
:10A5500008600AE00520B649086006E00420B44916
:10A56000086002E00320B2490860AFE0B1484069EA
:10A57000401C08D001221207126991B2AD4A5069FD
:10A5800001F0CDFA02E0012000074069401E0121E0
:10A590000907096989B2484301210907029009693D
:10A5A00089B2794308462A46029921DF0646002EE1
:10A5B00010D1069800280AD12078042803D106205B
:10A5C0009B49086006E005209949086002E00420E4
:10A5D000974908607AE097484069401C08D00122FA
:10A5E0001207126991B2934A506901F098FA02E099
:10A5F000012000074069401E01210907096989B24D
:10A600004843A900401861884018012109070290B9
:10A61000096989B27943AA00891862888818069A5C
:10A62000029921DF0646002E09D12078042803D1A3
:10A6300006207F49086002E005207D49086045E06A
:10A6400001200007006980B27843AB00C018029077
:10A65000608882082169029821DF0646002E0BD10E
:10A66000002D06D10698002803D107207049086004
:10A6700002E006206E49086028E06E484069401CF0
:10A6800008D001221207126991B26A4A506901F09A
:10A6900046FA02E0012000074069401E0121090737
:10A6A000096989B24843019001200007006981B21D
:10A6B000019801F034FA029020DF0646002E02D104
:10A6C00007205B49086001E0FFE700BF00BF30469C
:10A6D00007B0F0BDF0B585B00F275348001F0078D4
:10A6E0001421484350494418E5682078022804D0D2
:10A6F000042823D005286FD16FE0206903904B48D0
:10A70000008886026088801B04900398801903905B
:10A71000A08880194519012189020498884206D22F
:10A72000049882082846039921DF074605E0FF22A6
:10A7300001322846039921DF074680E0A068000126
:10A740003D49401800890490A068000140184089E4
:10A750000390A06800014018406802900298A84247
:10A7600005D10399049848436188884202D0A068C3
:10A7700002280DD101200007006981B2284601F0AE
:10A78000CEF92A4909884618304620DF074622E0DC
:10A7900001200007006981B2284601F0C0F9064691
:10A7A00001200007006980B27043281A80080190D8
:10A7B00001200007006980B2711C48436188491973
:10A7C000401A8008009031462046009B019AFFF70E
:10A7D00065FE074600BF32E030E001200007006957
:10A7E00081B2284601F09BF90646A0884119012054
:10A7F0000007006980B27043081A80080490A0889E
:10A8000040196188421801200007006980B2711C5C
:10A810004843801A8008039031462046039B049ADF
:10A82000FFF73CFE07460AE0D0250020E820002084
:10A83000EC200020001000109826002000BF00BF70
:10A84000002F02D10120F7498870384605B0F0BDCD
:10A85000FFB581B0064617460024F24840780A2822
:10A8600037D0F0480078EF4949784018C4B20A2C34
:10A8700002DB20460A38C4B214206043E949091DAE
:10A880000E5414206043401807611420604341189F
:10A89000029805C8CA60886014206043E14A121D0E
:10A8A0008018049941801420604380180A9981809F
:10A8B0000025101F8078002805D1FFF70BFF054603
:10A8C000112D00D10025D7484078401CD54948704B
:10A8D00000E00425284605B0F0BD10B50024D1489D
:10A8E0004078002807DDFFF7F5FE0446002C02D073
:10A8F000112C00D10024204610BDF8B50446C948EB
:10A90000007814214843C749091D0E5C081F0078D0
:10A9100014214843C349091D401880680001C249F9
:10A920000D58C048007814214843BE49091D4018FD
:10A930004088091F0090097814225143B94A121D1A
:10A9400089180B69111F097814225143B54A121D49
:10A9500089180846083022463146A847F8BDFEB59A
:10A9600005460026AF48807801287DD10020AD49FA
:10A970008870AE480068082811D1022D03D100204C
:10A98000AA49086002E00020A9490870FFF7A5FF66
:10A990000646002E02D03046FFF7AFFFFEBD022D67
:10A9A00002D0032D79D174E09E48007814214843E9
:10A9B0009C49091D44189F480088401C9D490880F7
:10A9C0002078022807D108460088800261888842E2
:10A9D00001DB012000E0002007462078052805D192
:10A9E00092480068072801D1012000E00020029071
:10A9F0002078042805D18D480068072801D101205E
:10AA000000E000200190207804280BD189480088BC
:10AA100080026188884205DB84480068002801D1F3
:10AA2000012000E0002000900298002807D1019842
:10AA3000002804D10098002801D1002F1FD0002049
:10AA40007A4908603046FFF758FF76490878FFF7E3
:10AA5000F5FC00207749088072484078401E714913
:10AA600048700846007800E01AE0401C087008466C
:10AA700000780A2803DB084600780A380870FFF7D8
:10AA80002CFF0646002E02D03046FFF736FF05E0C9
:10AA900003E00D20FFF731FF00E000BF00BF00BF63
:10AAA00000BF7BE770B5FFF7E5FC00206249088036
:10AAB00062484069401C08D001221207126991B215
:10AAC0005E4A506901F02BF802E00120000740695E
:10AAD000801E01210907096989B248435849086065
:10AAE00000205449088000BF0DE0002102014E4BB8
:10AAF00099500201D21811810201D21891810201EC
:10AB0000D2185181401C0028EFD008204749086026
:10AB10004A484069401C08D001221207126991B2CC
:10AB2000464A506900F0FBFF02E00120000740693F
:10AB3000401E01210907096989B2484306460120E0
:10AB40000007006981B2304600F0E9FF054620DFCA
:10AB50000446002C04D10120324988703449087021
:10AB6000204670BDF8B504460D4600BF3048007859
:10AB7000002801D10820F8BD00BF002C01D10E2013
:10AB8000F9E7002D01D10E20F5E72068002801D15A
:10AB90000E20F0E7A08801210907096989B28842DF
:10ABA00002DCA088102801DA0720E4E7E08800280A
:10ABB0002FD022484069401C08D001221207126998
:10ABC00091B21E4A506900F0AAFF02E0012000077E
:10ABD0004069401E01210907096989B24843E1889B
:10ABE000A2885143164A12688918884211D3E08816
:10ABF000A188484301210907096989B288420ADD11
:10AC0000A18801221207126990B200F092FF002978
:10AC100001D00720AFE720798007800F12D00720EE
:10AC2000A9E70000CC25002098260020EC20002079
:10AC3000E0200020E8200020E2200020001000108A
:10AC4000E4200020FE480088012801D1042092E77A
:10AC5000FB4800882860FB4800686860F84909885C
:10AC60000901F94A891868684860F54909880901A5
:10AC700020685050A088F249098809018918088184
:10AC8000E088EF4909880901891848810027A688CA
:10AC9000E1884E4300BF781C87B20120000700699D
:10ACA00080B2B04205D201200007006980B2361A96
:10ACB00000E0002601200007006980B2E149096830
:10ACC0004018E049086001200007006980B2B042E6
:10ACD000E1D9DB4800880001DB4940188781D8486A
:10ACE0000088401CD6490880002044E73CB5034654
:10ACF00000BFD6480078002801D108203CBD00BF25
:10AD0000002B01D10E20F9E7002A01D10E20F5E732
:10AD10001868002805D118680001CB4C205800287D
:10AD200001D10720EAE75C68186801940090019C53
:10AD300018680001C44D401900894843201801904B
:10AD4000009800012C4600194089009C24016419D8
:10AD500024896043009C2401641964680019019CE3
:10AD6000A04201D80720C9E7019C009854601060F8
:10AD70000020C3E7F8B504460E4615461F4600BF3F
:10AD8000B2480078002801D10820F8BD00BF002E8D
:10AD900001D10E20F9E7002C01D10E20F5E7206843
:10ADA000002805D120680001A7490858002801D1D2
:10ADB0000720EAE720680001A3494018408921687C
:10ADC0000901A14A8918098948432168090189189C
:10ADD000496840186168884201D80720D5E7002DEE
:10ADE00006D020680001984940180089A84201DA7D
:10ADF0000720CAE7E81921680901934A89180989D7
:10AE0000884201DD0720C0E7304600F05CF90028E9
:10AE100004D0384600F057F9002801D11020B4E7DB
:10AE2000606800F050F9002801D11020ADE72B46F2
:10AE30003246214602200097FFF70AFDA5E7F8B544
:10AE400004460E4615461F4600BF8048007800287D
:10AE500001D10820F8BD00BF002E01D10E20F9E776
:10AE6000002C01D10E20F5E72068002805D12068CC
:10AE7000000175490858002801D10720EAE7206839
:10AE80000001714940184089216809016E4A8918FA
:10AE9000098948432168090189184968401861688F
:10AEA000884201D80720D5E7002D06D02068000190
:10AEB000654940180089A84201DA0720CAE7E81965
:10AEC00021680901604A89180989884201DD072043
:10AED000C0E7304600F0F7F8002804D0384600F00C
:10AEE000F2F8002801D11020B4E7606800F0EBF818
:10AEF000002801D11020ADE72B463246214605201F
:10AF00000097FFF7A5FCA5E7FFB581B00C461546F5
:10AF10001E4600BF4D480078002802D1082005B029
:10AF2000F0BD00BF002C01D10E20F8E701980028E9
:10AF300001D10E20F3E72068002805D12068000128
:10AF400041490858002801D10720E8E7206800019E
:10AF50003D4940184089216809013B4A89180989FF
:10AF60004843216809018918496840186168884286
:10AF700001D80720D3E7002D06D020680001324910
:10AF800040180089A84201DA0720C8E7A8192168FB
:10AF900009012D4A89180989884201DD0720BEE789
:10AFA000019800F090F8002804D0304600F08BF8AB
:10AFB000002801D11020B2E7606800F084F8002872
:10AFC00001D11020ABE7606881192A46019800F092
:10AFD00045FD0095206800011B490F580022032100
:10AFE0002046019BB847002099E7F8B504460D4676
:10AFF00000BF16480078002801D10820F8BD00BF26
:10B00000002C01D10E20F9E72068002805D1206826
:10B0100000010D490858002801D10720EEE72068FB
:10B02000000109494018408921680901064A891828
:10B03000098948432168090189184968401807E0CF
:10B04000E2200020E420002098260020E0200020BC
:10B050006168884201D80720D0E7606800F033F8C3
:10B06000002801D11020C9E723681B011A4FDB1902
:10B0700062685B68D01A226812013B46D2181189B7
:10B0800000F04DFD002901D00720B7E700202B4636
:10B090000246214600900420FFF7DAFB06463046C0
:10B0A000ACE7014600BF0D480078002801D1082018
:10B0B000704700BF002901D10E20F9E70848407809
:10B0C00008600020F4E701468807800F01D10120C5
:10B0D00070470020FCE7000098260020E0200020B8
:10B0E000CC250020F8B504460D4694480068002899
:10B0F00013D0EAB22178914BA0681B6898470646A6
:10B1000000BF3746002F06D000BF8DA22821384649
:10B11000FBF7EAF800BF00BF0CE0012D04D1207856
:10B120000121A268904705E0002D03D1207800217D
:10B13000A2689047F8BDF8B5074669468C48007884
:10B1400000F0EFFA0646002E00D0F8BD002533E0EF
:10B150000C206843874909684418874800682278AA
:10B160000121914008420FD0A06800280CD06078DF
:10B17000012804D100212046FFF7B4FF1AE0012185
:10B180002046FFF7AFFF15E07B4840682278012199
:10B19000914008420ED0A06800280BD060780128AA
:10B1A00004D101212046FFF79DFF03E00021204646
:10B1B000FFF798FF681CC5B2704800788542C7DB6E
:10B1C00000BFC2E770B504460D466D480068FDF744
:10B1D00035FD0646002E00D070BD6748446005600E
:10B1E0002046284302466748016865480068FDF725
:10B1F000F4FC064600BFEFE7FFB583B006460C46F9
:10B200001746052F02D2072007B0F0BD5948066047
:10B210005A4804705B480760484906980860002552
:10B2200016E00C216143881902780092416801916F
:10B23000019989000522120707231B02D318009ADF
:10B240009200995000BF0278012191400D4300BF48
:10B250002046611ECCB20028E3D14B4B2A4629463A
:10B26000434800F089F902900298002801D0029822
:10B27000CAE7464A00214248FDF743FCC4E710B53F
:10B280003C480068002801D1082010BD38480078EB
:10B2900000F0B7F9F9E710B536480068002801D189
:10B2A000082010BD3248007800F01AFA0446002C3D
:10B2B00001D02046F5E732480068FDF7BFFCF0E713
:10B2C000F8B506460C462D480078864201DD072079
:10B2D000F8BD0C20704327490968451825480068C7
:10B2E000002801D10820F3E769462148007800F0E2
:10B2F00018FA0746002F01D03846E9E76878002899
:10B300000BD129780098C840C007C00F02D0002098
:10B31000207010E0012020700DE0687801280AD12B
:10B3200029780098C840C007C00F02D001202070C3
:10B3300001E0002020700020CAE70000FC2000206F
:10B340002E2E5C2E2E5C2E2E5C2E2E5C2E2E5C5312
:10B350006F757263655C6170705F636F6D6D6F6E4A
:10B360005C6170705F627574746F6E2E63000000B4
:10B3700000210020F020002008210020F4200020DF
:10B3800004210020F8200020C5B1010037B10100E0
:10B39000F0B502460C46002035E0012383401946F3
:10B3A00023460B422ED0D5680D4205D101235B0404
:10B3B000D5680D43D56004E003231B04D5688D4395
:10B3C000D56005252D0707263602AD198600AD5933
:10B3D00003263604B5430526360707273F02F6192C
:10B3E0008700F55105252D0707263602AD19860081
:10B3F000AD591D430526360707273F02F61987007A
:10B40000F55100BF401C2028C7D3F0BDF0B585B072
:10B41000EC4805690020EC49C86300263DE0142093
:10B420007043EA49096844180120B040E8490968B6
:10B43000084230D0E068C0436840216808400746B1
:10B4400039462046FFF7A4FFDE48006968400390B4
:10B45000039800280ED003980543E068C043684075
:10B4600021680840009020460099FFF791FF00985E
:10B47000074300BFA068A843384001906068284097
:10B480003840029001990298084303D0226901993B
:10B490000298904700BF701CC6B2CE480078864222
:10B4A000BDDB05B0F0BD10B50146002028E0142238
:10B4B0004A43C64B1B689A58012383401A421ED048
:10B4C0000522120707231B02D2188300D258032338
:10B4D0001B049A4305231B07072424021B1984001D
:10B4E0001A510522120707231B02D2188300D258D3
:10B4F00005231B07072424021B1984001A51401C32
:10B500002028D4D310BD70B505460C46002C01D1BF
:10B51000072070BD20468107890F01D1012100E07D
:10B520000021002901D10720F3E7A8480460AA48B8
:10B5300005700020A7490870A5490860A648007852
:10B54000142250430146A148006800F0E6FA0020AA
:10B55000C043A2498860062001218140A04A1160B1
:10B5600000BF012100F0F7F80620012181409D4A2B
:10B57000116000BF0020CCE7F8B504460D46164622
:10B580001F4692480068002801D10820F8BD002F0E
:10B5900001D10720FAE78F4800788F49097888425F
:10B5A00001DB0420F2E7284630438A490978142257
:10B5B0005143864A12685050864800781421484307
:10B5C0008249096840184560824800781421484340
:10B5D0007E490968401886607E48007814214843F7
:10B5E0007A490968401807617A48007820707948DC
:10B5F0000078401C774908702078FFF754FF00203E
:10B60000C4E7F0B5024671480068002801D108205F
:10B61000F0BD70480078824201DB0720F8E7002087
:10B62000694BD8636748046969480068002802D1FB
:10B6300058066A4B586001209040654B1B681843C0
:10B64000634B1860002314205043604D2D6840194F
:10B65000C360002140E001238B401846142353436C
:10B660005A4D2D68EB58034235D02546054202D08D
:10B6700003231B040EE001235B0414255543534EA2
:10B680003668AD19ED680543142656434F4F3F68A1
:10B69000F619F56005252D0707263602AD198E002F
:10B6A000AD5903263604B5430526360707273F0262
:10B6B000F6198F00F55105252D0707263602AD191D
:10B6C0008E00AD591D430526360707273F02F619A0
:10B6D0008F00F55100BF491C2029BCD3002097E7FB
:10B6E00010B5044639480068002801D1082010BD73
:10B6F00038480078844201DB0720F8E72046FFF74E
:10B70000D2FE0120A04032490968814330480160DF
:10B710000068002803D10120C0073049886000205C
:10B72000E5E710B5024629480068002801D1082045
:10B7300010BD28480078824201DB0720F8E714207A
:10B740005043224C246803191E4800691C6820409D
:10B7500008600020ECE710B5002819DA224A030738
:10B760001B0F083B9B089B00D2588307DC0EFF236E
:10B77000A3409A438B071B0E8407E40EA3401A4391
:10B78000194B0407240F083CA408A4001A5118E020
:10B79000144A03231B02D21883089B00D258830744
:10B7A000DC0EFF23A3409A438B071B0E8407E40E95
:10B7B000A3401A430B4B032424021B198408A40042
:10B7C0001A5110BD000500504061004010210020BA
:10B7D00014210020192100201821002000630040BE
:10B7E00080E200E000E100E01CED00E070B50646FC
:10B7F0000C46154629462046FAF784FD70BDF8B57B
:10B8000059480078002800D1F8BD58480068002841
:10B8100001D1012000E000200546554800680028BD
:10B8200001D1012000E00020064600BF002D14D108
:10B83000684651DF0446052C01D101250CE0002C9F
:10B8400006D000BF4BA269212046FAF74DFD03E068
:10B85000464900980968884700BF002E1AD153480E
:10B860000088009069465248006861DF0446052C54
:10B8700001D101260DE0002C06D000BF3DA28021A1
:10B880002046FAF731FD04E0494800683849096864
:10B89000884700BF002D02D0002E00D000E0C5E791
:10B8A00000BF00BFB0E7FFB581B00C4616461F468B
:10B8B000002C02D1072005B0F0BD20468107890F7A
:10B8C00001D1012100E00021002901D10720F2E788
:10B8D0003748046035480680364807603649019885
:10B8E00010DF0546002D01D02846E4E701201E495F
:10B8F0000870162026DFDEE710B511DF0446002CA5
:10B9000001D0012000E0002017490870204610BD3A
:10B910000146002901D10E20704715480160002022
:10B92000FAE70146002901D10E2070470F48016057
:10B930000020FAE770B51F480068002811D01D48A4
:10B9400000688047044600BF2546002D07D000BF91
:10B9500008A2FF2133312846FAF7C6FC00BF00BF1A
:10B9600001E0FFF74CFF70BD1C21002030210020BA
:10B970002C2100202E2E5C2E2E5C2E2E5C2E2E5C7A
:10B980002E2E5C536F757263655C73645F636F6DBD
:10B990006D6F6E5C736F66746465766963655F680E
:10B9A000616E646C65722E63000000002821002027
:10B9B0002421002020210020EDB70100034610B50E
:10B9C0000B439B070FD1042A0DD308C810C9121FBF
:10B9D000A342F8D018BA21BA884201D9012010BD7B
:10B9E0000020C04310BD002A03D0D30703D0521C4F
:10B9F00007E0002010BD03780C78401C491C1B1B7D
:10BA000007D103780C78401C491C1B1B01D1921EE6
:10BA1000F1D1184610BD000030B5441C03E0017898
:10BA2000401C00290DD08107F9D10B4BDD0104C862
:10BA3000D11A91432940FAD0001B0A0603D0C01E38
:10BA400030BD001B30BD0A0401D0801E30BD09028C
:10BA5000FCD0401E30BD000001010101F8B5042AF0
:10BA60002CD3830712D00B78491C0370401C521E44
:10BA700083070BD00B78491C0370401C521E8307B0
:10BA800004D00B78491C0370401C521E8B079B0F7F
:10BA900005D0C91ADF002023DE1B08C90AE0FAF727
:10BAA00065FBF8BD1D4608C9FD401C46B4402C434B
:10BAB00010C0121F042AF5D2F308C91A521EF0D47E
:10BAC0000B78491C0370401C521EEAD40B78491CA9
:10BAD0000370401C521EE4D409780170F8BD01E0E7
