:020000040001F9
:10600000B8330020E1610100FB610100FD61010086
:106010000000000000000000000000000000000080
:10602000000000000000000000000000FF6101000F
:106030000000000000000000016201000362010096
:10604000056201000562010025680100056201008A
:106050000562010000000000056201000562010008
:1060600005620100056201000F690100056201007F
:106070000562010005620100056201000562010080
:1060800005620100A58101000562010005620100B1
:10609000C781010005620100457801000562010029
:1060A0000562010005620100000000000000000020
:1060B00000000000000000000000000000000000E0
:1060C00000F002F800F040F80CA030C8083824189E
:1060D0002D18A246671EAB4654465D46AC4201D120
:1060E00000F032F87E460F3E0FCCB6460126334212
:1060F00000D0FB1AA246AB46334318472C250000BC
:106100004C250000103A02D378C878C1FAD852075B
:1061100001D330C830C101D504680C60704700005D
:106120000023002400250026103A01D378C1FBD8B3
:10613000520700D330C100D50B6070471FB5C04671
:10614000C0461FBD10B510BD02F032FA1146FFF770
:10615000F5FF00F004FC02F04AFA03B4FFF7F2FF87
:1061600003BC02F04FFA0000401E00BF00BF00BF9A
:1061700000BF00BF00BF00BF00BF00BF00BF00BF27
:1061800000BFF1D170470000401E00BF00BF00BF3C
:1061900000BF00BF00BF00BF00BF00BF00BF00BF07
:1061A00000BFF1D17047000070B505460C46164699
:1061B00002E00FCC0FC5103E102EFAD2082E02D3EB
:1061C00003CC03C5083E042E07D301CC01C5361FFE
:1061D00003E021782970641C6D1C761EF9D270BD15
:1061E00003210C4802680A4302600B4802680A4314
:1061F00002600A4880470A480047FEE7FEE7FEE7DC
:10620000FEE7FEE7FEE7000006480749074A084B9D
:10621000704700002405004054050040CB62010097
:10622000C1600100B8230020B8330020B82B002043
:10623000B82B00202E482F49086070472E48008C4C
:10624000C0B2012810D12C48808C0007000F0BD160
:106250002948806AF0210840402805D12648C06AB4
:10626000084201D1012070470020FCE72248008C41
:10627000C0B2012827D12048808C0007000F22D10E
:106280001D48806AF021084205D11B48C06A0842B7
:1062900001D1012070471848806AF0210840102879
:1062A00005D11548C06A084201D10120F2E7124821
:1062B000806AF0210840302805D10F48C06A0842A2
:1062C00001D10120E6E70020E4E710B5FFF7CEFF9B
:1062D000002805D009480A494860C813094988615F
:1062E000FFF7ACFF002802D001200749886010BDED
:1062F0000024F40000200020C00F00F0DFFF07C0E2
:1063000000050040006C00400006004000BFBFF3E5
:106310004F8FF948F949C860BFF34F8F00BF00BFE6
:10632000FEE703460C4622461946F548FFF7EEFF06
:106330001E2003210522120707231B02D218830007
:10634000D15000BF704738B500BF0020ED4B05228B
:106350000221009001F03BFF044600BF2346002BC2
:1063600005D000BFE8A29A211846FFF7CFFF00BF73
:1063700000BF38BD3EB500BF68460078010909017D
:10638000491C009168460078F02188431030009045
:1063900000BF0822DFA168467CDF044600BF234619
:1063A000002B05D000BFD8A2AE211846FFF7AEFFE4
:1063B00000BF0020019002901021684681803C219E
:1063C000C18000210181FF219131418101A87ADF43
:1063D000044600BF2346002B05D000BFCAA2B82147
:1063E0001846FFF793FF00BF3EBD10B5A0B00521D2
:1063F0000191CB4800680090CA48017868468170D6
:106400003C2111A802F0CFF802201190002110A821
:1064100041720121818101A914913C2102A802F05D
:10642000C2F801216846818469460A9102A911A82F
:1064300000F098FF044600BF2346002B05D000BFA4
:10644000B1A2D5211846FFF761FF00BF20B010BDF3
:10645000F8B507460D461646002403E0285D01F016
:1064600060FA641CB442F9DB0A2001F05AFAF8BD64
:1064700038B500200090AC4800906946A94800F06B
:106480004AFC044600BF2346002B05D000BF9EA255
:10649000F6211846FFF73AFF00BF38BD1E20A3497A
:1064A00008800846807840084000401C88700846F4
:1064B0008078022188439D498870084680781C2195
:1064C00088430C3099498870084680782021884399
:1064D000964988700720C87010200871704770B501
:1064E00005462868002810D13B219148008876DFB6
:1064F000044600BF2346002B06D000BF82A2FF2126
:106500001B311846FFF702FF00BF70BD034600BFF6
:106510007DA2FF2126311846FFF7F8FE10B588B09E
:106520001C2101A802F03FF8002001900520C003C3
:1065300002900F200004039003216846017400219B
:10654000418201757B4806907B48079001A800F0C6
:10655000A4FF044600BF2346002B06D000BF6AA25A
:10656000FF213D311846FFF7D1FE00BF08B010BD36
:1065700010B586B0142101A802F015F80021684674
:106580000171002002906846017340218182B4218C
:10659000C18201A873DF044600BF2346002B06D04A
:1065A00000BF59A2FF2152311846FFF7AFFE00BFCE
:1065B00006B010BD70B50546288814284DD006DCFD
:1065C00010280BD0112811D0132871D119E01728E9
:1065D0003DD019286ED052287ED125E0012000033D
:1065E00056490860A8885249088076E00120800357
:1065F000524908600020C0434D490880FFF7B8FFAA
:106600006BE04A4A00214A4800887FDF044600BF09
:106610002346002B06D000BF3BA2FF21783118464D
:10662000FFF774FE00BF58E0002211464048008882
:10663000A9DF044600BF2346002B06D000BF32A2CC
:10664000FF217D311846FFF761FE00BF45E0322291
:10665000A91D3B4801F048FF3FE0394EB61D318887
:10666000E889814211D1002231463148008881DF1A
:10667000044600BF2346002B06D000BF22A2FF2104
:1066800089311846FFF742FE11E0002211462848E2
:10669000008881DF044600BF2346002B06D000BFE0
:1066A00019A2FF218F311846FFF730FE00BF14E01A
:1066B00012E0FFE7A87900280DD134DF044600BFBF
:1066C0002346002B06D000BF0FA2FF219F311846A2
:1066D000FFF71CFE00BF00E000BF00BF70BD10B59B
:1066E0000446204600F0ADFF21460E4800F0F0FAC7
:1066F0002046FFF75FFF10BD0400FA0500ED00E043
:10670000EFBEADDE6C2000202E2E5C6D61696E2E1A
:10671000630000006E52464475696E6F0000000011
:10672000148601001C230020516401000820002071
:1067300004200020DF6401000D65010040A5004039
:106740008422002038B500BF00235022B24909201E
:1067500001F031F8054600BF2B46002B06D000BFE4
:10676000AE4AFF21C3311846FFF7D0FD00BF00BF7E
:10677000002000900090684660DF044600BF23467A
:10678000002B06D000BFA54AFF21CB311846FFF7EA
:10679000BDFD00BFA24801F043F8044600BF2346F8
:1067A000002B06D000BF9D4AFF21CF311846FFF7CE
:1067B000ADFD00BF38BD30B5102003210A461304DB
:1067C0008C0023430524240707252D026419850026
:1067D000635100BF30BD10B540DF044600BF234603
:1067E000002B06D000BF8D4AFF21E1311846FFF78C
:1067F0008DFD00BF10BD08B5002007230922082128
:1068000000900A2001F0A8F804208649486003217E
:10681000022000F0C9F8022001218140824A116063
:1068200000BF08BD10B501F051F88049804A1278C8
:1068300088547F480078401C7D49087008460078DD
:10684000401E7A49085C0A2803D07948007813284A
:1068500017DB77480278521C7449764800F09BFA9F
:106860000446082C0AD000BF2346002B05D000BFE9
:106870006A4A71491846FFF749FD00BF00206C497C
:10688000087010BD10B500206C4948608860082071
:10689000086101206A4908606A49C8608003674945
:1068A00040310860800068494860012065490860FF
:1068B00003210A202BDF044600BF2346002B06D00D
:1068C00000BF564A5C4929311846FFF71FFD00BF3B
:1068D0000A202ADF044600BF2346002B06D000BF53
:1068E0004E4A8D2189001846FFF710FD00BF0A208F
:1068F00026DF044600BF2346002B06D000BF474AD0
:106900004D492D311846FFF701FD00BF10BD4C4821
:10691000C038006800281BD04B484068012109049A
:10692000084215D000204649C03908601E200123C6
:1069300083401946454B5B68C340DA07D20F002AF3
:1069400002D1424B996001E0404BD96000BF00BFCB
:106950000A20012181403E4A116000BF7047FFF7C5
:10696000E7FCFFF7F0FCFFF726FFFFF744FFFFF718
:10697000E9FE1E2001218140344AD16000BFFFF7AB
:10698000F9FCFFF775FDFFF730FDFFF7C7FDFFF7D7
:1069900085FD30A000F0D0FFFFF7EAFDFFF772FFA2
:1069A00000BFFFF718FFFCE710B5002819DA2E4AE0
:1069B00003071B0F083B9B089B00D2588307DC0E84
:1069C000FF23A3409A438B071B0E8407E40EA340CA
:1069D0001A43254B0407240F083CA408A4001A51AD
:1069E00018E0114A03231B02D21883089B00D258D7
:1069F0008307DC0EFF23A3409A438B071B0E8407FB
:106A0000E40EA3401A43084B032424021B198408F4
:106A1000A4001A5110BD0000B82200200867010030
:106A2000DF6601000023004000E100E008230020B1
:106A3000062000201C2300200902000000A50040C1
:106A400000A2004000A0004000A30040000500504C
:106A500080E200E05374617274206E52464475699E
:106A60006E6F2E2E2E0D0A001CED00E08A888282A9
:106A700070470022D2438282704770B504460E46AA
:106A8000B51D2988208A814213D1288B022810D174
:106A900000BF00BFA97EEA7E120211430846C1076B
:106AA000C90F002902D00120A0750FE00020A075B9
:106AB0000CE02888A188884208D1A069002805D068
:106AC0002A8B29461A312046A369984770BD30B5F4
:106AD0008FB004460D460020079000BF6846007F37
:106AE00001090901491C68460177007FF0218843AC
:106AF00010306946087700BF00BF6846407F010933
:106B00000901491C68464177407FF02188431030D5
:106B10006946487700BF6846807F06218843811C0C
:106B2000684681771C2108A801F03DFD08A800787F
:106B300010218843411808A80170002009900B908B
:106B40000C9007A80D9000200E9021786846817166
:106B5000032181800020009000BF68460078010971
:106B60000901491C684601700078F0218843103003
:106B70006946087000BF00BF6846407801090901F6
:106B8000491C684641704078F021884310306946BE
:106B9000487000BF6846807806218843811C68469B
:106BA000817080780821884301466846817080782A
:106BB0001021884301466846817080784108490069
:106BC000491C68468170142102A801F0ECFC01A860
:106BD0000290684603900121018200214182142124
:106BE0008182608823460C3302AA08A9A2DF0FB075
:106BF00030BD30B58FB004460D461C2108A801F009
:106C0000D2FC08A8007808218843411808A8017020
:106C1000007804218843011D08A801700020099014
:106C20000B900C900D900E90217868468172022195
:106C300001810020019000BF684600790109090127
:106C4000491C684601710079F0218843103069467B
:106C5000087100BF00BF6846407901090901491C5D
:106C6000684641714079F021884310306946487187
:106C700000BF6846807906218843811C684681717F
:106C80008079082188430146684681718079102106
:106C90008843014668468171807941084900491C52
:106CA00068468171142103A801F07DFC02A80390BD
:106CB00001A804900121684681820021C18214212B
:106CC00001836088231D03AA08A9A2DF0FB030BD8D
:106CD00070B505460C46002D01D0002C00D170BDCA
:106CE0002088102804D0112807D050280FD109E09F
:106CF00021462846FFF7BAFE0AE021462846FFF75C
:106D0000B8FE05E021462846FFF7B7FE00E000BFC9
:106D100000BF00BFE3E770B586B004460E46334BB4
:106D20000FCB01AD0FC5002C01D0002E02D10E20DB
:106D300006B070BD0020C043A0823068A061002072
:106D4000A075214601A863DF0546002D01D0284625
:106D5000EEE721786846817501218182A21C05A990
:106D60000120A0DF0546002D01D02846E0E731468E
:106D70002046FFF7ACFE0546002D01D02846D7E798
:106D800031462046FFF735FF0546002D01D0284645
:106D9000CEE70020CCE737B584B004460D46002C82
:106DA00002D10E2007B030BDA08A1149884202D01E
:106DB000A07D002801D10820F4E76846008B142844
:106DC00001DD0720EEE70020009001900290039083
:106DD000A18968460180039506A8029001216846B2
:106DE0008170A08A6946A6DFDCE7000018860100F2
:106DF000FFFF0000F7B584B004460F4606980678FA
:106E0000B01C1F2803DC2079801C1F2802DD0C2009
:106E100007B0F0BD1F20801B801E85B20295B11CFB
:106E2000781802A97DDF03900398002801D0039809
:106E3000EEE72068022808D168460089A84204DCF1
:106E400009200190684605890BE00820019020790F
:106E5000002804D02079A84201DC257901E06846A9
:106E60000589681CC2B23046711CCEB23A54304615
:106E7000721CD6B20199395406980178A81C0818DA
:106E8000C1B2069801700020C2E7F8B505460C466D
:106E90002078001D1F2801DD0C20F8BD684679DF31
:106EA0000646002E01D03046F7E703212278501C19
:106EB0002070A95419212278501C2070A9542078E0
:106EC00041196846008800F08AFA2178401820703D
:106ED0000020E2E7F8B505460F4616461C466868EE
:106EE000002801D10720F8BD2078801C298840188F
:106EF0001F2801DD0C20F6E72878401CC1B222785B
:106F0000501C2070B1542178481C207077542A8876
:106F100023789819696801F0E7FA207829784018F1
:106F200020700020DFE730B503461078C01C1F2812
:106F300001DD0C2030BD02241578681C10704C5502
:106F40000A241578681C10704C551578681C107050
:106F50004B550020EEE7FFB587B006461D46109C56
:106F60000020069020780590002747E0B90070685F
:106F700041180A886846028149884181002203A994
:106F800002A865DF04900498002802D004980BB092
:106F9000F0BD6846017B099881422ED106980028F1
:106FA00001D0002000E00220019020786946097B92
:106FB0004118019808181F2801DD0C20E7E7069802
:106FC000002809D12078401C20702278511C089894
:106FD0002170A854012006902078421903A902A824
:106FE00065DF04900498002801D00498CFE720784A
:106FF0006946097B4018207000BF7F1C3088B8426A
:10700000B4DC0698002806D021780598401C081AA0
:10701000C1B2059829540020B9E7FFB581B00746F1
:1070200015460A9E009602223846049B0299FFF7F5
:1070300092FF0446002C02D0204605B0F0BD009619
:10704000102229463846049BFFF785FF0446002C92
:1070500001D02046F1E70020EFE701460888062826
:1070600008DB08881922D201904205DD0888E04A31
:10707000904201D0072070474888062808DB4888DE
:107080001922D201904205DD4888D94A904201D0A8
:107090000720F0E70888D64A904208D048889042F6
:1070A00005D008884A88904201DD0720E3E70020E8
:1070B000E1E7F8B506460D4614462078801D1F28E6
:1070C00001D90C20F8BD3046FFF7C7FF0746002F57
:1070D00001D03846F6E705212278501C2070A954CB
:1070E00012212278501C2070A9542278511930881E
:1070F00000F075F9217840182070227851197088B5
:1071000000F06DF92178401820700020DAE7F8B51A
:1071100005460E4614462879801CC7B22078801C8C
:10712000C0191F2801DD0C20F8BD781CC1B22278DF
:10713000501C2070B154FF212278501C2070B15493
:1071400022789119288800F04AF921784018207097
:10715000A88800280EDDA868002801D10720E3E7F1
:10716000AA8823789819A96801F0BEF920782979AE
:10717000401820700020D7E7FEB507460E4614469B
:10718000786B002801D10720FEBD0020019032E07D
:10719000796B0C22019850430D182879801CC0B2DD
:1071A00000900098401CC1B22278501C2070B1544D
:1071B00016212278501C2070B15422789119288809
:1071C00000F00DF9217840182070A88800280EDD05
:1071D000A868002801D10720D6E7AA882378981943
:1071E000A96801F081F92078297940182070019868
:1071F000401CC0B201903820C15D01988142C7DCBB
:107200000020C1E7F8B504460F46164600250020C9
:1072100030702068002809D0324639462046FFF7F2
:10722000E9FD0546002D01D02846F8BD607900280B
:1072300008D031463846FFF728FE0546002D01D01C
:107240002846F2E7208900280BDD33463A46012123
:1072500020460830FFF73EFE0546002D01D02846A7
:10726000E3E7206900280BD0002021690856324648
:107270003946FFF758FE0546002D01D02846D4E7D1
:10728000A08A00280CDD3B4606220221204614304D
:107290000096FFF7C2FE0546002D01D02846C4E740
:1072A000A08B00280CDD3B460722032120461C3022
:1072B0000096FFF7B2FE0546002D01D02846B4E740
:1072C000A08C00280CDD3B461522142120462430DA
:1072D0000096FFF7A2FE0546002D01D02846A4E740
:1072E000E06A002809D032463946E06AFFF7E1FE3D
:1072F0000546002D01D0284697E7206B002809D0CD
:1073000032463946206BFFF702FF0546002D01D0BB
:1073100028468AE73820005D002809DD32463946D4
:107320002046FFF729FF0546002D01D028467CE7BF
:1073300028467AE701460889002807D0C86800284F
:1073400004D0C86800780422104201D10720704799
:107350000020FCE701460889002801DD072070476E
:107360000020FCE7F3B593B00D4600211291119176
:107370001398002814D01398FFF7DCFF0446002C64
:1073800002D0204615B0F0BD12AA09A91398FFF744
:1073900039FF0446002C01D02046F3E709AE00E097
:1073A0000026002D13D02846FFF7D4FF0446002CFA
:1073B00001D02046E6E711AA01A92846FFF722FFDF
:1073C0000446002C01D02046DCE701AF00E0002796
:1073D00010A803793A46017A304672DFD2E70246B6
:1073E0000A70FF200002104000124870022070470F
:1073F000FFFF000001464888B74A1288904206DB2A
:107400004888B54A5288904201DC0120704700202C
:10741000FCE738B50546B1480088B14988423BD001
:10742000B0480078401CAF490870AF48007B09782D
:1074300088420FDBA849A948008875DF0446002C64
:1074400007D0A9488069002803D0A7488169204651
:10745000884721E00020A3490870A348007C002849
:107460000FD03B219D48008876DF0446002C07D0D2
:107470009D488069002803D09B4881692046884741
:1074800000BF99484069002806D000200090964827
:1074900041696846884700BF38BD70B505461C2263
:1074A00029469148FEF780FE002090490870286820
:1074B00000280BD008228848296801F015F8864872
:1074C0007ADF0446002C08D0204670BD82487BDF5E
:1074D0000446002C01D02046F7E70020C0437F4936
:1074E000088000207F490870814A0021814800F00F
:1074F000EAFEEAE710B57F48006800F081FF10BDA2
:1075000038B57D48FFF776FF002829D17748007805
:1075100000280AD074484069002820D0002000903C
:10752000714841696846884719E06E48007800282C
:1075300002D16D48456801E06B4885680022294604
:107540006C48006800F02BFF0446002C07D066480A
:107550008069002803D064488169204688470AE092
:1075600061484069002806D0012000905E484169CA
:107570006846884700BF00205C49087038BD10B5D8
:107580000446A08855490880082221460E315A48F1
:1075900000F0AAFF0020534908705348C089002812
:1075A00001D1FFF7ADFF10BD70B505460020C04307
:1075B0004A49088000204B4908704E48006800F096
:1075C0001FFF0446002C07D047488069002803D0DD
:1075D000454881692046884770BD70B50546AC1D99
:1075E00020884149C989884220D1208B02281DD199
:1075F00000BF00BFA17EE27E120211430846C10710
:10760000C90F002902D0FFF77BFF0FE0394800685F
:1076100000F0F6FE0646002E07D0334880690028A9
:1076200003D0314881693046884700BF70BD10B52E
:1076300004460822A11D304800F056FFFFF760FF06
:1076400010BD10B504462088102806D0112808D097
:1076500012280ED0502810D107E02046FFF78FFFE8
:107660000CE02046FFF7A0FF08E02046FFF7B5FF3B
:1076700004E02046FFF7DBFF00E000BF00BF10BDC5
:1076800038B5044608222146134800F02DFF124861
:107690007ADF0546002D1CD11748FFF7ABFE002806
:1076A0000BD10120114908700B490C48008875DF87
:1076B000054601200B4908700BE00B484069002883
:1076C00006D001200090084841696846884700BFFD
:1076D0000025284638BD0000122000201C20002074
:1076E000FFFF00001A200020382300201020002077
:1076F00013740100282000201E20002070B50646CB
:107700000C46154629462046FEF70BFE70BDF8B51F
:1077100059480078002800D1F8BD58480068002872
:1077200001D1012000E000200546554800680028EE
:1077300001D1012000E00020064600BF002D14D139
:10774000684651DF0446052C01D101250CE0002CD0
:1077500006D000BF4BA269212046FEF7D7FD03E00B
:10776000464900980968884700BF002E1AD153483F
:107770000088009069465248006861DF0446052C85
:1077800001D101260DE0002C06D000BF3DA28021D2
:107790002046FEF7BBFD04E0494800683849096807
:1077A000884700BF002D02D0002E00D000E0C5E7C2
:1077B00000BF00BFB0E7FFB581B00C4616461F46BC
:1077C000002C02D1072005B0F0BD20468107890FAB
:1077D00001D1012100E00021002901D10720F2E7B9
:1077E00037480460354806803648076036490198B6
:1077F00010DF0546002D01D02846E4E701201E4990
:107800000870162026DFDEE710B511DF0446002CD5
:1078100001D0012000E0002017490870204610BD6B
:107820000146002901D10E20704715480160002053
:10783000FAE70146002901D10E2070470F48016088
:107840000020FAE770B51F480068002811D01D48D5
:1078500000688047044600BF2546002D07D000BFC2
:1078600008A2FF2133312846FEF750FD00BF00BFBC
:1078700001E0FFF74CFF70BD2C20002040200020CD
:107880003C2000202E2E5C2E2E5C2E2E5C2E2E5C9C
:107890002E2E5C2E2E5C536F757263655C73645F75
:1078A000636F6D6D6F6E5C736F667464657669632C
:1078B000655F68616E646C65722E6300382000201D
:1078C0003420002030200020FD76010000BF424817
:1078D00080680128FBD100203F4988603F488069CB
:1078E000C0B2704770B504460D4601260AE0204636
:1078F000641E002804DB7D20C000FEF735FC01E09B
:10790000002603E0344880680128F0D100BF002C35
:1079100005DB002030498860304880692870304697
:1079200070BD2E49C86100BF2B49C9690129FBD12F
:107930000021294AD161704730B503460025284609
:107940006D1C1C5C05E02046FFF7EBFF28466D1C14
:107950001C5C002CF7D130BDF8B507460C46154627
:107960001E46204600F025F80021304600F02AF897
:107970001A48C4604661069800280DD0384600F0C9
:1079800018F80021284600F01DF8144805618760AA
:10799000012012494031C862114810494862042050
:1079A000086001200F498860086000200A4988604B
:1079B000F8BD03210522120707231B02D2188300FA
:1079C000D150704710B58A0005231B0707242402F5
:1079D0001B1984001A5110BD0021004000250040F1
:1079E00000509D000020004010B5002819DAF74A29
:1079F00003071B0F083B9B089B00D2588307DC0E34
:107A0000FF23A3409A438B071B0E8407E40EA34079
:107A10001A43EE4B0407240F083CA408A4001A5193
:107A200018E0EB4A03231B02D21883089B00D258AC
:107A30008307DC0EFF23A3409A438B071B0E8407AA
:107A4000E40EA3401A43E24B032424021B198408CA
:107A5000A4001A5110BD10B50446DE48846003210D
:107A60001120FFF7C1FF10BD10B501200004DA4955
:107A70004860D94940394860112000F00CFD1120C0
:107A800000F0FBFC0120D54908602F20FEF77CFBAD
:107A90000120D349087010BD10B51120012181408B
:107AA000CB4A8032116000BF01200004CA498860BF
:107AB000C949403988600120C84948602F20FEF735
:107AC00063FB0120C54988600020C64908602F205B
:107AD000FEF75AFB0020C249087010BDF0B50246FF
:107AE00028205043C04B1B68C118C0480068401C88
:107AF00002D1BE48026057E0BC488B680068282469
:107B00006043B94C246800198068834217D8B7488D
:107B1000006828235843B44B1B68C01880688B68E2
:107B2000C31AB248006828246043AF4C2468001987
:107B30008360AE4800684862AC48026034E08B68FD
:107B4000AA4D2C6828680DE028254543A64E3668C6
:107B5000AD19AD685B1B044628254543A24E366827
:107B6000AD19686A451C07D0282545439E4E3668E6
:107B7000AD19AD689D42E7D3451C0CD0282545437F
:107B8000994E3668AD19AD68EE1A28254543964FD3
:107B90003F68ED19AE608B60486228256543924EC0
:107BA0003668AD196A6200BFF0BDF8B506468F4869
:107BB00005682C4609E0B44200D108E0254628209B
:107BC0006043894909684018446A601CF3D100BFCA
:107BD000601C00D1F8BDA5420FD18448006828215F
:107BE0004843814909684018406A8049086008464E
:107BF0000068401C01D1FFF74FFF282060437A49FD
:107C00000968401887682820604377490968401848
:107C1000416A28206843744A12688018416228200B
:107C20006843714909684018446A601C0CD02820D8
:107C300060436D49096840188068C1192820604375
:107C4000694A12688018816000BFC3E710B511202F
:107C500000F01AFC10BD10B5142000F015FC10BD8A
:107C600070B5044662480068002813D0604A216A53
:107C7000E06912689047054600BF2E46002E07D0E7
:107C800000BF5CA2FF2164313046FEF73FFB00BF1E
:107C900000BF02E0E169206A884770BDF8B553482B
:107CA0000068401C39D0002700F0FDFB04464D4819
:107CB0000168204600F0FAFB06464C48056811E0D2
:107CC00028206843484909684418A068B04200D990
:107CD0000AE0A068361AA068C719656A2046FFF74F
:107CE000BFFF00BF681CEBD100BF4E4800784E4973
:107CF0000978884209D14C480078401CC0B24A49F2
:107D00000870022801D100200870474800788000E0
:107D100046490F50FFF79FFF00BFF8BD014641489D
:107D20000078414A127890421DD03E480078401CAD
:107D30003C4A107010460078022801D100201070D3
:107D4000384800788000394A10580860254A086889
:107D500012688018234A1060104600680002000A6A
:107D60001060012070470020086000BFFAE7FEB5F0
:107D70001E48006801902E480078009076E0009838
:107D8000C0002C490968441825786BE01820684326
:107D900061680F18681CC5B2A078A84200D1002500
:107DA0003868022802D0032859D145E02821786894
:107DB00048430D4909684618307E002804D0786889
:107DC000FFF7F3FE002030764AE000001CED00E0F3
:107DD00000E100E0001501404013014000100140A7
:107DE0006820002054200020442000205020002043
:107DF000642000202E2E5C2E2E5C2E2E5C2E2E5CFF
:107E00002E2E5C2E2E5C536F757263655C617070F4
:107E10005F636F6D6D6F6E5C6170705F74696D65CF
:107E2000722E630060200020612000205820002076
:107E3000492000204C2000200CE0FE49096828223F
:107E40005143FD4A1268881800210176F94A416AB7
:107E5000116000BFF7480068401CEED100E000BF91
:107E600000BF00BF6078A84290D100BF0098411EBB
:107E7000C9B20091002882D1EE4801680198814280
:107E800001D00120FEBD0020FCE7F0B50346002430
:107E900026E0E84E366828277E43E74F3F68F01912
:107EA00086689E4203D98668F61A86601CE086685A
:107EB0009B1B86683419002686600676DD4E356881
:107EC000DC4F466A3E604669002E08D00E19360225
:107ED000360AC6604669066116684662156000BFCC
:107EE000D4480068401CD4D100BFF0BDFEB50746A1
:107EF000D04800680290D1480078019069E001986C
:107F0000C000CF49096845185CE0781C07D03E46A0
:107F100028207043C84909684418676A23E0297813
:107F2000182359436A6850182978491C2970297800
:107F3000AA78914201D10021297046682821714315
:107F4000BD4A12688C180168012902D1217E0029DE
:107F500000D037E08168E160C16821610169616139
:107F60004169216200BFB749E0680968401A000210
:107F7000000AB549884208D2B249E068096800F0B1
:107F800095FA21694018A06011E0AE48E1680068E8
:107F900000F08CFA009021690098814204D921698F
:107FA0000098081AA06001E00020A06000BF002037
:107FB000E060206101202076801E60623046FFF77D
:107FC0008DFD00BF781CA0D12878697888429CD1AB
:107FD00000BF0198411EC9B2019100288FD1954878
:107FE00001680298814201D00120FEBD0020FCE71B
:107FF000FEB590480068401C34D08E4800682821A7
:1080000048438D4909684018856800F04CFA019092
:108010008C4804682146019800F048FAC61C8B4839
:108020000078002801D1FFF71FFDAE4201D228469B
:1080300000E0304604192402240A204684490860DE
:1080400000BF00F030FA00900199009800F02EFA7D
:10805000C71C2046019900F029FA874201D9FFF791
:10806000F5FD01E0FFF718FDFEBDFEB50020C043A1
:108070000190744804686F4807686846FFF74EFE31
:108080000546FFF774FE0646002D05D001AA2146DD
:108090000098FFF7FAFE01260198FFF727FF002856
:1080A00000D00126002E02D03846FFF7A1FFFEBD0A
:1080B0004170704770B502460B465078411C90786D
:1080C000884200D100211078884201D1002070BD83
:1080D000196050781826704355682C182046F6E72A
:1080E000FFB581B005460E461746E900544A1268AE
:1080F00088186946FFF7DEFF0446002C02D10420F1
:1081000005B0F0BD01202060666000F0CCF9A060F1
:10811000E760049820610A986061E900484A1268A3
:1081200088180099FFF7C4FFFFF795FD0020E7E7E7
:10813000F8B504460E46E100414A126888186946BF
:10814000FFF7B8FF0546002D01D10420F8BD02203D
:1081500028606E60E1003A4A126888180099FFF7BB
:10816000A7FFFFF778FD0020F0E738B50446E100EF
:10817000334A126888186946FFF79CFF0546002DB0
:1081800001D1042038BD03202860001F6860E10091
:108190002B4A126888180099FFF78AFFFFF75BFDEA
:1081A0000020EFE710B500202A4908600021294887
:1081B00041608160C1600020264940390860486004
:1081C000FFF76CFD10BD10B5FFF74FFF10BDFFB5F9
:1081D00081B00E4617461C4620468107890F01D103
:1081E000012100E00021002902D1072005B0F0BDE7
:1081F000002C01D10720F9E7FFF74EFC16490A9839
:108200000860164806700C48046000250CE0002148
:1082100028206843084A1268115028206843064AFB
:108220001268801801766D1CB542F0DB282070437F
:10823000041915E05020002044200020492000208F
:108240004C20002054200020FFFF7F0068200020E9
:1082500040150140401101406420002048200020CA
:1082600003209549087095480460183400250CE0F7
:10827000E900924A126888180021017041708770E5
:108280004460182179430C196D1C032DF0DB00208C
:10829000C0438B49086000208A4908708A490870E9
:1082A000142000F0F8F803211420FFF79DFB1420A0
:1082B00000F0E3F80198FFF7CEFB00F0F4F88349F3
:1082C0000860002092E770B503460C4680480068BD
:1082D000002801D1082070BD002A01D10720FAE74B
:1082E000002B01D10720F6E700211CE0282048439D
:1082F000774D2D682858002814D10125282048439F
:10830000734E3668355028204843714D2D6840190A
:108310004460282048436E4D2D684019C2611960A1
:108320000020D8E7491C6B4800788142DEDB04203E
:10833000D1E730B500BF68484068C205D20D002AB9
:108340001ED01346103B184600280CDA624C1C3431
:1083500005072D0F083DAD08AD0064598507ED0EEA
:10836000EC40A4090AE05D4C03252D026419850840
:10837000AD0064598507ED0EEC40A409E0B200E0C1
:108380000420012802D0032804D101E0002103E0E9
:10839000012101E0022100BF00BF084630BDFEB54B
:1083A00004460D4616464A480068002801D10820B8
:1083B000FEBD48480078844201D2052D01D2072035
:1083C000F6E728206043424909680858012801D08F
:1083D0000820EDE7282060433D49096840184068BF
:1083E000012801D1284600E000200746FFF7A1FF41
:1083F0003B462A46214600960190FFF771FED7E7DB
:1084000070B5044632480068002801D1082070BDCC
:1084100030480078844201D30720F8E728206043E1
:108420002B4909680858012801D00820EFE7FFF719
:1084300080FF05462146FFF77BFEE8E710B524489C
:108440000068002801D1082010BDFFF772FF044624
:10845000FFF78BFEF8E710B5044600F024F8206023
:10846000002010BD70B505460E461446314628461C
:1084700000F01CF82060002070BDC206D20E012161
:108480009140164A11607047C206D20E01219140F8
:10849000134A11607047C206D20E01219140104A62
:1084A0008032116070470F48406870470246501A8A
:1084B0000002000A70470000492000204C200020E4
:1084C0005020002060200020612000205420002047
:1084D000442000204820002000ED00E000E100E002
:1084E00000E200E000150140F8B5042A2CD3830710
:1084F00012D00B78491C0370401C521E83070BD00E
:108500000B78491C0370401C521E830704D00B7863
:10851000491C0370401C521E8B079B0F05D0C91AC3
:10852000DF002023DE1B08C90AE0FDF73DFEF8BD91
:108530001D4608C9FD401C46B4402C4310C0121F04
:10854000042AF5D2F308C91A521EF0D40B78491C3C
:108550000370401C521EEAD40B78491C0370401C67
:10856000521EE4D409780170F8BD01E004C0091F6F
:108570000429FBD28B0701D50280801CC90700D0DB
:108580000270704700290BD0C30702D00270401C54
:10859000491E022904D3830702D50280801C891E4C
:1085A000E3E70022EEE70022DFE7704770477047FD
:1085B000754600F023F8AE46050069465346C008EC
:1085C000C000854618B020B5FDF71EFE60BC002730
:1085D0004908B6460026C0C5C0C5C0C5C0C5C0C58F
:1085E000C0C5C0C5C0C5403D49008D467047044662
:1085F000C046C0462046FDF7B0FD00000048704769
:108600005423002001491820ABBEFEE726000200DB
:1086100070470000010000009ECADC240EE5A9E0BE
:1086200093F3A3B50000406E4886010000200020AF
:108630006C00000004610100B48601006C20002081
:108640004C130000206101000024F400FFFF000033
:10865000000000000000000000000000000000001A
:10866000000000000000000000000000000000000A
:1086700000000000000000000000000000000000FA
:1086800000000000000000000000000000000000EA
:1086900000000000000000000000000000000000DA
:1086A00000000000000000000000000000000000CA
:0486B00000000000C6
:04000005000160C1D5
:00000001FF
