:020000040001F9
:1060000088390020C1610100DB610100DD61010010
:106010000000000000000000000000000000000080
:10602000000000000000000000000000DF6101002F
:106030000000000000000000E1610100E3610100D8
:10604000E5610100E5610100E5610100E561010034
:10605000E561010000000000699D0100E5610100AB
:10606000E5610100E5610100E5610100E561010014
:10607000E5610100E5610100E5610100E561010004
:10608000E5610100558A0100E5610100E56101005B
:10609000778A0100E561010009790100E5610100ED
:1060A000E5610100E5610100000000000000000062
:1060B00000000000000000000000000000000000E0
:1060C00000F002F800F040F80CA030C8083824189E
:1060D0002D18A246671EAB4654465D46AC4201D120
:1060E00000F032F87E460F3E0FCCB6460126334212
:1060F00000D0FB1AA246AB4633431847D8570000DE
:10610000F8570000103A02D378C878C1FAD852077D
:1061100001D330C830C101D504680C60704700005D
:106120000023002400250026103A01D378C1FBD8B3
:10613000520700D330C100D50B6070471FB5C04671
:10614000C0461FBD10B510BD05F046FB1146FFF758
:10615000F5FF00F0E6FD05F05EFB03B4FFF7F2FF8C
:1061600003BC05F063FB0000401E00BF00BF00BF82
:1061700000BF00BF00BF00BF00BF00BF00BF00BF27
:1061800000BFF1D17047000070B505460C461646B9
:1061900002E00FCC0FC5103E102EFAD2082E02D30B
:1061A00003CC03C5083E042E07D301CC01C5361F1E
:1061B00003E021782970641C6D1C761EF9D270BD35
:1061C00003210C4802680A4302600B4802680A4334
:1061D00002600A4880470A480047FEE7FEE7FEE7FC
:1061E000FEE7FEE7FEE7000006480749074A084BBE
:1061F000704700002405004054050040AB620100D8
:10620000C1600100882900208839002088310020E1
:10621000883100202E482F49086070472E48008C96
:10622000C0B2012810D12C48808C0007000F0BD180
:106230002948806AF0210840402805D12648C06AD4
:10624000084201D1012070470020FCE72248008C61
:10625000C0B2012827D12048808C0007000F22D12E
:106260001D48806AF021084205D11B48C06A0842D7
:1062700001D1012070471848806AF0210840102899
:1062800005D11548C06A084201D10120F2E7124841
:10629000806AF0210840302805D10F48C06A0842C2
:1062A00001D10120E6E70020E4E710B5FFF7CEFFBB
:1062B000002805D009480A494860C813094988617F
:1062C000FFF7ACFF002802D001200749886010BD0D
:1062D0000024F40000200020C00F00F0DFFF07C002
:1062E00000050040006C00400006004030B513047B
:1062F0008C0023430524240707252D0264198500FB
:10630000635130BD0F2000F02FFD00BFBFF34F8F52
:10631000FD48FE49C860BFF34F8F00BF00BFFEE7D6
:1063200004460D462A462146F948FFF7EBFF70B5B3
:10633000F84801F09DF9044600BF2546002D05D020
:1063400000BFF5A2B3212846FFF7DCFF00BF012004
:10635000F4490860EF4801F09DF9044600BF254666
:10636000002D05D000BFECA2B8212846FFF7CAFFD8
:1063700000BF0120EC49086070BD7CB50446A088D0
:10638000EA49884212D1207A0007C00F04D00120C8
:1063900000900320019022E0207AC006C00F04D0B4
:1063A000012000900420019019E07CBDA088DF4905
:1063B000491E884212D1207A0007C00F04D0002065
:1063C0000090032001900AE0207AC006C00F04D09C
:1063D000002000900420019001E0E6E7E5E769462F
:1063E000CC4800F095FD054600BF2E46002E05D096
:1063F00000BFC9A2F4213046FFF784FF00BF00BFF1
:10640000D3E770B5C34801F059F9044600BF2546EB
:10641000002D06D000BFC0A2FF2102312846FFF7A1
:1064200071FF00BFBB4801F067F9044600BF254675
:10643000002D06D000BFB8A2FF2105312846FFF786
:1064400061FF00BF70BD10B50024B6480068022887
:1064500006D10120B34908600A2000F08AFC12E04E
:10646000B0480068012807D10020AE490860A9485B
:1064700001F007F9044606E00120AA490860A54892
:1064800001F0F6F80446002C08D0082C06D000BF16
:10649000A1A2FF2126312046FFF734FF10BD10B521
:1064A0000024A1480068022806D101209E49086006
:1064B0000B2000F05EFC12E09B480068012807D129
:1064C000002099490860934801F0EEF8044606E080
:1064D0000120954908608F4801F0DCF80446002C43
:1064E00008D0082C06D000BF8BA2FF2148312046DF
:1064F000FFF708FF10BD10B500248B480068022884
:1065000003D08948006801280FD1FF21814800F09D
:1065100031FD0446002C08D0082C06D000BF7EA216
:10652000FF215D312046FFF7EDFE7E48006802281E
:1065300003D07C48006801280FD1FF21754800F086
:1065400024FD0446002C08D0082C06D000BF72A2FF
:10655000FF2168312046FFF7D5FE10BD10B5044677
:10656000A0887249C91E88420AD16F480068012874
:1065700015D10B2000F0F8FB02206B4908600EE0FB
:10658000A0886A49891E884209D1664800680128A6
:1065900005D10A2000F0E8FB02206249086010BD26
:1065A00010B504462068030005F047F90608220DDF
:1065B000160412222046FFF7D1FF1AE0FFF721FF51
:1065C000FFF7B5FE15E0FFF71CFFFFF7B0FE10E088
:1065D0002046FFF7D2FE0CE00020524908605249E5
:1065E00008600A2000F0C5FB0B2000F0C2FB00E0B1
:1065F00000BF00BF10BD10B5082000F0ACFB0920A3
:1066000000F0A9FB0F2000F0A6FB0A2000F0A3FB7E
:106610000B2000F0A0FB10BD38B500BF0020444B9C
:1066200005220321009002F02AFA044600BF254605
:10663000002D06D000BF38A2FF21CC312846FFF73D
:1066400061FE00BF00BF38BD3EB500BF68460078A0
:1066500001090901491C009168460078F02188432E
:106660001030009000BF132232A168467CDF044640
:1066700000BF2546002D06D000BF27A2FF21E03134
:106680002846FFF73FFE00BF002001900290FF2147
:106690009131684681804900C18000210181FF213C
:1066A0009131418101A87ADF044600BF2546002DC3
:1066B00006D000BF18A2FF21EA312846FFF722FECC
:1066C00000BF3EBD30B591B0052101913C2102A82B
:1066D00004F0D0FF0220029001216846417301823C
:1066E00001A90591002181840A9102A801F008FC0A
:1066F000044600BF2546002D05D000BF06A2124962
:106700002846FFF7FFFD21E00400FA0500ED00E058
:10671000EFBEADDEC42300202E2E5C6D61696E2EAF
:10672000630000000420002008200020482A000008
:10673000202100204E6F726469635F416C65727442
:106740005F4E6F7469662E000302000000BF11B037
:1067500030BD38B5684603F052F9044600BF2546FF
:10676000002D05D000BFF84AF8492846FFF7CAFDBA
:1067700000BF0098002803D00120F549087038BDFB
:10678000F4480068002803D10220F249086002E0C2
:106790000120F04908601421EF4804F06BFF00204D
:1067A000ED49087048600872EA480068022804D180
:1067B000282008821E20488205E01920C001E649F1
:1067C0000882B4204882E44873DF044600BF2546AF
:1067D000002D06D000BFDC4ADC4924312846FFF7F3
:1067E00091FD00BF082000F0BFFA00BFC7E70446D4
:1067F00000BFD54AD54930312046FFF783FD30B57B
:1068000085B0002001900290039004901221D3489B
:1068100004F030FFD248019012200390CF4804903A
:10682000D048029001A9D04800F0ABFE044600BF5A
:106830002546002D06D000BFC34AC449453128462D
:10684000FFF760FD00BF6946012003F0E7F9044649
:1068500000BF2546002D06D000BFBB4ABB494931C9
:106860002846FFF74FFD00BF6846007800280ED08D
:1068700000F087FF044600BF2546002D06D000BF6C
:10688000B14AB2494E312846FFF73CFD00BFB64839
:1068900000F050FF044600BF2546002D06D000BF83
:1068A000A94AAA4952312846FFF72CFD00BF05B07E
:1068B00030BD044600BFA44AA4495C312046FFF71E
:1068C00021FD30B587B01C21684604F0D3FE0020BE
:1068D00000900520C00301900F20000402900321C6
:1068E000684601730021C1810121017400200590D7
:1068F0009E480690684601F09EFB044600BF254670
:10690000002D06D000BF904AA12189002846FFF73C
:10691000F9FC00BF07B030BDF8B505460E46144679
:1069200000BF2746002F06D000BF874A2921090152
:106930003846FFF7E7FC00BF324629468A4800F098
:1069400093FD0020F8BD7FB502F05AFD044600BF5C
:106950002546002D06D000BF7B4A15214901284657
:10696000FFF7D0FC00BF03A9012003F057F904464C
:1069700000BF2546002D06D000BF734AA92189001B
:106980002846FFF7BFFC00BF03A803F046FE0446FD
:1069900000BF2546002D06D000BF6B4A6B499631DB
:1069A0002846FFF7AFFC00BF062101A8023004F023
:1069B0005FFE1E216846C180007A40084000401CEE
:1069C000694608726846007A02218843694608725F
:1069D0006846007A1C2188430C3069460872684674
:1069E000007A20218843694608720721684641726F
:1069F000102181725E48009001216846017169464C
:106A00005C4803F079FE044600BF2546002D06D001
:106A100000BF4D4A4D49A5312846FFF773FC00BF22
:106A20007FBD70B505460024288819284ED004DCA7
:106A3000102807D0112872D120E0392871D05528AC
:106A4000F9D16FE0092000F08FF9082000F091F9EA
:106A500003F0C3F8044600BF2646002E06D000BF50
:106A6000394A3A49BA313046FFF74CFC00BF0020A2
:106A700038490860A8884049088080E0092000F073
:106A800078F90020C0433C49088003F0B2F804467E
:106A900000BF2646002E06D000BF2B4A2B49C63128
:106AA0003046FFF72FFC00BF00F060FE044600BF39
:106AB0002646002E06D000BF234A2449C93130465D
:106AC000FFF720FC00BFFFF744FE58E0A87900283C
:106AD00024D120480068022802D1FFF73AFE1DE0C9
:106AE000082000F046F900201A490860032200211E
:106AF0000846FFF7FBFB032200210120FFF7F6FB0E
:106B000034DF044600BF2646002E06D000BF0E4AE2
:106B10000E49E5313046FFF7F5FB00BF2FE02DE0D1
:106B2000FFE700BF13211448008876DF044600BF4A
:106B30002646002E06D000BF034A03210902304634
:106B4000FFF7E0FB00BF1AE0186701001102000028
:106B50000C2000204C200020EC230020D823002013
:106B6000A1650100EF670100C4230020B3680100A4
:106B700019690100502000200E20002000BF00BF36
:106B800070BD10B50446022C02D0032C0BD100E0DE
:106B900000BF7A480078002804D0002077490870A8
:106BA000FFF7D7FD00E000BF00BF10BD70B5044681
:106BB0000D46012D17D1022C04D0032C05D0042C36
:106BC00009D105E0FFF73FFC0CE0FFF768FC09E0A6
:106BD000FFF791FC06E000BF694A6721C900204623
:106BE000FFF790FB00BF70BD70B500BF6549012085
:106BF00003F037F9044600BF2546002D05D000BF3D
:106C00005F4A61492846FFF77DFB00BF00BF70BDAA
:106C100070B500BF00235D4A05215D4802F09AFF70
:106C2000044600BF2546002D06D000BF544A6B2104
:106C3000C9002846FFF766FB00BF00BF70BD10B556
:106C40000446204604F062F9204601F0C8FA2146C5
:106C5000504800F016FC2046FFF7E3FE10BD10B5CB
:106C60000446204602F029FB2046FFF78AFF10BDAC
:106C7000F8B500BF002350224749082000F0FDFD71
:106C8000054600BF2E46002E06D000BF3C4A3E49B6
:106C900040313046FFF736FB00BF00BF00200090B8
:106CA0000090684660DF044600BF2546002D06D0F0
:106CB00000BF334A344947312846FFF723FB00BF62
:106CC000364800F00FFE044600BF2546002D06D0D2
:106CD00000BF2B4A2C494B312846FFF713FB00BF5E
:106CE0002F4800F008FE044600BF2546002D06D0C0
:106CF00000BF234A24494F312846FFF703FB00BF5A
:106D0000F8BD70B540DF044600BF2546002D06D013
:106D100000BF1B4A1C4958312846FFF7F3FA00BF51
:106D200070BDFFF768FCFFF777FCFFF75DFFFFF72B
:106D30006FFFFFF79DFFFFF706FEFFF785FCFFF7EC
:106D4000C1FCFFF75CFDFFF7BCFDFFF702FD00BFD4
:106D5000FFF7D7FFFCE703210522120707231B02D9
:106D6000D2188300D1507047012181400D4A9160B3
:106D70007047012181400B4AD16070470C200020F0
:106D8000186701006023002043030000660600002E
:106D900010200020C4230020742300203F6C010039
:106DA0005F6C01000005005010B5F8480068F84914
:106DB0000968884236D0F54800681C214843F549E7
:106DC00040184068012810D1F04A12681C235A4329
:106DD0000B46D2181189ED4A12681C235A43ED4B19
:106DE000985A002295DF04460FE0E84A12681C23F7
:106DF0005A43E84BD21811460C31E44A12681C235E
:106E00005A43E44B985A97DF0446002C09D1DF48D7
:106E10000068401CDD490860084600784007400FC4
:106E2000086000BF10BD30B585B004460D46072090
:106E3000D94908600120009002956846216888477A
:106E400005B030BDF8B50546012600BF01216846F2
:106E50008170D249018000BF28896A46314690DF9F
:106E60000446002C04D021462846FFF7DCFF02E050
:106E70000220C9490860F8BD70B504460E46208955
:106E8000314692DF0546002D03D10320C249086038
:106E900003E029462046FFF7C6FF70BD38B504461B
:106EA0000025BF48008FFF2810D1BD48C08E401C70
:106EB00081B268460180BA48C08E401C81B26846E3
:106EC00041802089694693DF054616E0B4483A3090
:106ED0004089FF2811D1B2483A300089401C81B264
:106EE00068460180AE483A300089401C81B268464D
:106EF00041802089694693DF0546002D03D1042097
:106F0000A549086003E029462046FFF78CFF38BDFD
:106F100070B506460D46A0480068052801D0082037
:106F200070BD9B4800689A490968491C984A1160DD
:106F30001C21484397494418104600784007400FE9
:106F4000114608609648418AE1810221618221460A
:106F5000083161610021218201212173287820728A
:106F6000287960723089208002206060FFF71CFF62
:106F70000020D5E77CB505460C460520009001941D
:106F800069462846FFF7C4FF7CBD7CB505460C4624
:106F900004200090019469462846FFF7B9FF7CBDA4
:106FA00030B585B0044605207B4908607C480078F0
:106FB000FF2802D1FE207A490870A07AFF2823D04A
:106FC00077480078F0281FDAFF212046FFF7DDFF21
:106FD0000546002D05D06068002802D0284661686B
:106FE0008847FF212046FFF7C5FF0546002D05D045
:106FF0006068002802D02846616888470220009017
:1070000068462168884704E00020009068462168AF
:10701000884705B030BD06215F4A1160704770B5E2
:1070200004460D46A8882081A07AFF280DD0A07ABA
:10703000462250435B4A126881184622584804F0A1
:10704000BAFA2046FFF7E7FF05E0FF205449087031
:107050002046FFF7F7FE70BD70B504460D46504858
:1070600040884E49884206D0FF204D49087020468E
:10707000FFF7E8FE02E02046FFF792FF70BD70B513
:1070800006460C46E088002804D0E1883046FFF729
:10709000CAFE1AE000BF217C41480171E0894049E5
:1070A000488000BFA08900280BDD25460E35A98841
:1070B0003B48C180E9880181811D3046FFF7DCFE35
:1070C00003E0E1883046FFF7AEFE70BD00BF8A786E
:1070D00082700A88028000BF0A790271CA88C28061
:1070E0000A890281FF2242817047F8B507460C46A3
:1070F000E0880146FF390B3903D0E088C11FFA3917
:107100001DD12748408A002810D02548C08B002870
:107110000CD02348408D002808D02148C08E00287C
:1071200004D01F483A300089002804D10521384690
:10713000FFF779FE68E03846FFF7B0FE64E0E088CC
:10714000002804D0E1883846FFF76DFE5CE000259A
:1071500000263FE00A203146414320460E300D18FC
:10716000288811494018030004F067FB05040A2031
:107170002B25310029460A480A30FFF7A7FF27E0F0
:10718000294607483A30FFF7A1FF21E058200020A8
:1071900054200020002400205C2000201118000052
:1071A000CC26002068200020BCD5FFFF2946F948E6
:1071B000FFF78CFF0CE02946F6480C38FFF786FFF6
:1071C00006E02946F3481838FFF780FF00E000BFCB
:1071D00000BF761CA089B042BCD8002D0ED02889F3
:1071E000401C81B268460180EA482E380189684611
:1071F000418069463846FFF73FFE04E0E5492839FB
:107200003846FFF739FE00BFF8BDC38E0A88521E0C
:10721000934206D14A88E04B9A4202D10B880387F9
:107220000CE04222135A0A88521E934206D14A8821
:10723000D94B9A4202D10B8844221352704770B541
:1072400005460C46E0880146FF390B3903D0E0883B
:10725000C11FFA3904D105212846FFF7E4FD21E0DA
:10726000E088002804D0E1882846FFF7DCFD19E01B
:10727000A089002805DD21460E31C6482E38FFF7CB
:10728000C4FFC4482E38008FFF2804D0C1480C30FA
:107290004089FF2803D12846FFF700FE02E0284678
:1072A000FFF77EFE70BDF0B587B006460F4603AD12
:1072B0003C460C3404200190A088022801DA07B073
:1072C000F0BDA088801E06902188B2482E38C08E5E
:1072D00081420AD100BFAF48817801A88171AD48D1
:1072E0002E38C08D6946088112E02188A9480C30EB
:1072F000008981420BD100BFA6480C30817801A8DB
:107300008171A4482E38408F6946088100E0D6E795
:10731000A0792870E0796870F1680698814201D2FE
:10732000F06800E0069868603069A860214608317E
:107330006A68A86804F03FF901A83168884700BF6F
:10734000BDE770B504460D46FFF72EFD70BD70B564
:1073500086B005460E4634460C3405200190A088C0
:10736000012803DAFFF720FD06B070BD21888948A7
:107370002E38C08B81420BD100BF86482E38017E4B
:1073800001A8817183482E38C08A6946088114E0BB
:10739000218880482E38408D81420BD100BF7D4826
:1073A0000C38817801A881717A482E38408C694662
:1073B000088102E0FFF7F8FCD6E7E088694688819B
:1073C000A08801280BD101A8407A4008400001A9FB
:1073D000487201A8407A0221884301A9487201A895
:1073E00029688847FFF7E0FC00BFBDE730B585B0EE
:1073F00004466A48056801206849086065482E38D7
:107400000078FE2806D1A07AFF2803D0A07A61492F
:107410002E3908705F482E38007807280CDA5D494D
:107420002E390978462251435D4A1268881846224F
:1074300058492E3904F0BFF8462156482E3804F03A
:1074400017F9FF2053492E390870E0720020C0431D
:107450002081FF20A072052D04D1032000906846F2
:107460002168884705B030BD1378112B02D0142B4A
:1074700004D100E000BF8B78837200E000BF00BF42
:10748000704770B506460D462C88444800680300D6
:1074900004F0D3F90805061C2936430D5E6461E04B
:1074A000102C03D129463046FFF7B9FD5AE0172CBE
:1074B00001D0142C04D129463046FFF7CDFD04E05D
:1074C000112C02D13046FFF791FF4BE0302C04D154
:1074D00029463046FFF7D3FD04E0112C02D1304697
:1074E000FFF784FF3EE0322C04D129463046FFF7F7
:1074F000FCFD04E0112C02D13046FFF777FF31E0AC
:10750000332C04D129463046FFF799FE04E0112CB4
:1075100002D13046FFF76AFF24E0382C04D1294617
:107520003046FFF7C0FE12E0352C04D12946304624
:10753000FFF70DFF0BE0372C04D129463046FFF74B
:1075400000FF04E0112C02D13046FFF74FFF09E0A5
:10755000112C02D13046FFF749FF03E03046FFF718
:1075600045FF00BF00BF70BDF8B506460F46144684
:10757000069D002C04D00B480068416820468847CF
:10758000F8BD7CB504460D46286800280CD10720BC
:107590007CBD0000FA260020022900005C200020AB
:1075A000682000206C2000202868206068686060E7
:1075B000FF20E072A0720020E072A868E060E86836
:1075C00020610020C0432081744804604621744833
:1075D00004F04EF87348002101604160FF207049BB
:1075E000087001207049086001216846C180FF21B0
:1075F000ED3181806D4800906D49684601F060FF73
:1076000006466C486C4908603046C1E7F7B5054648
:107610000E46029F64480068052801D00820FEBD80
:107620006648006865490968491C644A11601C2164
:1076300048435C494418104600784007400F114603
:107640000860E681022161822146083161610021E2
:107650002182012121732772FF200002384001128C
:107660006172258002206060FFF79EFB0020D6E754
:1076700010B504464A4A118F20890122FFF7C6FF40
:1076800010BD10B50446464A118F20890022FFF72D
:10769000BDFF10BD10B50446414A3A3251892089D8
:1076A0000122FFF7B3FF10BD10B504463C4A3A3241
:1076B000518920890022FFF7A9FF10BD70B505464A
:1076C0003E4800683D490968491C3C4A11601C213C
:1076D000484334494418104600784007400F11468B
:1076E00008602F48C08B208128892080012060609D
:1076F000FFF75AFB002070BD70B505462F480068A3
:107700002E490968491C2D4A11601C21484325490E
:107710004418104600784007400F11460860204882
:10772000408D20812889208001206060FFF73CFB8C
:10773000002070BD70B506460023FF22ED321C49C3
:107740001C4802F08FF80546002D0DD0002406E0FD
:10775000FF2146206043184A12681154641C072C0C
:10776000F6D3052D00D10025284670BD10B50023A5
:10777000FF22ED320F490E4801F0AAFF04462046D1
:1077800010BD10B508480068002800D110BDFF21C9
:10779000ED31074802F0D7F8F8E700006C20002030
:1077A000CC260020002400205C2000206975010008
:1077B00060200020E02400206820002054200020C9
:1077C00070B506460C46154629462046FEF7A8FD2C
:1077D00070BDF8B559480078002800D1F8BD584868
:1077E0000068002801D1012000E00020054655482E
:1077F0000068002801D1012000E00020064600BFFB
:10780000002D14D1684651DF0446052C01D1012515
:107810000CE0002C06D000BF4BA269212046FEF7E9
:1078200071FD03E0464900980968884700BF002EB3
:107830001AD153480088009069465248006861DFB9
:107840000446052C01D101260DE0002C06D000BF16
:107850003DA280212046FEF755FD04E0494800681E
:1078600038490968884700BF002D02D0002E00D09B
:1078700000E0C5E700BF00BFB0E7FFB581B00C4630
:1078800016461F46002C02D1072005B0F0BD204649
:107890008107890F01D1012100E00021002901D1D8
:1078A0000720F2E73748046035480680364807600D
:1078B0003649019810DF0546002D01D02846E4E73F
:1078C00001201E490870162026DFDEE710B511DF03
:1078D0000446002C01D0012000E000201749087068
:1078E000204610BD0146002901D10E2070471548E1
:1078F00001600020FAE70146002901D10E207047FF
:107900000F4801600020FAE770B51F4800680028A2
:1079100011D01D4800688047044600BF2546002D51
:1079200007D000BF08A2FF2133312846FEF7EAFC4A
:1079300000BF00BF01E0FFF74CFF70BD70200020CA
:1079400084200020802000202E2E5C2E2E5C2E2EE7
:107950005C2E2E5C2E2E5C536F757263655C7364B7
:107960005F636F6D6D6F6E5C736F6674646576696F
:1079700063655F68616E646C65722E630000000071
:107980007C2000207820002074200020C177010096
:10799000F7B584B004460F4606980678B01C1F2839
:1079A00003DC2079801C1F2802DD0C2007B0F0BD0D
:1079B0001F20801B801E85B20295B11C781802A979
:1079C0007DDF03900398002801D00398EEE720683C
:1079D000022808D168460089A84204DC09200190E9
:1079E000684605890BE0082001902079002804D022
:1079F0002079A84201DC257901E068460589681CE8
:107A0000C2B23046711CCEB23A543046721CD6B265
:107A10000199395406980178A81C0818C1B2069833
:107A200001700020C2E7F8B505460C462078001D1D
:107A30001F2801DD0C20F8BD684679DF0646002EC0
:107A400001D03046F7E703212278501C2070A9545A
:107A500019212278501C2070A954207841196846B9
:107A6000008800F08AFA2178401820700020E2E7B0
:107A7000F8B505460F4616461C466868002801D131
:107A80000720F8BD2078801C298840181F2801DDB8
:107A90000C20F6E72878401CC1B22278501C2070D8
:107AA000B1542178481C207077542A88237898197B
:107AB000696803F080FD2078297840182070002044
:107AC000DFE730B503461078C01C1F2801DD0C200D
:107AD00030BD02241578681C10704C550A241578A6
:107AE000681C10704C551578681C10704B550020A0
:107AF000EEE7FFB587B006461D46109C00200690B5
:107B000020780590002747E0B900706841180A887E
:107B10006846028149884181002203A902A865DFE5
:107B200004900498002802D004980BB0F0BD684679
:107B3000017B099881422ED10698002801D00020AF
:107B400000E00220019020786946097B41180198E5
:107B500008181F2801DD0C20E7E70698002809D146
:107B60002078401C20702278511C08982170A8545D
:107B7000012006902078421903A902A865DF04902D
:107B80000498002801D00498CFE720786946097B43
:107B90004018207000BF7F1C3088B842B4DC0698C3
:107BA000002806D021780598401C081AC1B2059813
:107BB00029540020B9E7FFB581B0074615460A9E53
:107BC000009602223846049B0299FFF792FF044672
:107BD000002C02D0204605B0F0BD009610222946A8
:107BE0003846049BFFF785FF0446002C01D0204651
:107BF000F1E70020EFE701460888062808DB08883F
:107C00001922D201904205DD0888E04A904201D055
:107C1000072070474888062808DB48881922D201C7
:107C2000904205DD4888D94A904201D00720F0E70C
:107C30000888D64A904208D04888904205D00888E3
:107C40004A88904201DD0720E3E70020E1E7F8B52C
:107C500006460D4614462078801D1F2801D90C20A9
:107C6000F8BD3046FFF7C7FF0746002F01D0384662
:107C7000F6E705212278501C2070A95412212278A1
:107C8000501C2070A95422785119308800F075F9E1
:107C900021784018207022785119708800F06DF911
:107CA0002178401820700020DAE7F8B505460E4626
:107CB00014462879801CC7B22078801CC0191F2860
:107CC00001DD0C20F8BD781CC1B22278501C207058
:107CD000B154FF212278501C2070B15422789119A0
:107CE000288800F04AF9217840182070A8880028D8
:107CF0000EDDA868002801D10720E3E7AA882378D1
:107D00009819A96803F057FC207829794018207049
:107D10000020D7E7FEB507460E461446786B0028CC
:107D200001D10720FEBD0020019032E0796B0C22CA
:107D3000019850430D182879801CC0B2009000981B
:107D4000401CC1B22278501C2070B15416212278F8
:107D5000501C2070B15422789119288800F00DF938
:107D6000217840182070A88800280EDDA868002817
:107D700001D10720D6E7AA8823789819A96803F0CB
:107D80001AFC20782979401820700198401CC0B254
:107D900001903820C15D01988142C7DC0020C1E715
:107DA000F8B504460F4616460025002030702068BE
:107DB000002809D0324639462046FFF7E9FD05463E
:107DC000002D01D02846F8BD6079002808D0314642
:107DD0003846FFF728FE0546002D01D02846F2E779
:107DE000208900280BDD33463A4601212046083021
:107DF000FFF73EFE0546002D01D02846E3E7206947
:107E000000280BD000202169085632463946FFF77A
:107E100058FE0546002D01D02846D4E7A08A002848
:107E20000CDD3B4606220221204614300096FFF767
:107E3000C2FE0546002D01D02846C4E7A08B0028CD
:107E40000CDD3B460722032120461C300096FFF73D
:107E5000B2FE0546002D01D02846B4E7A08C0028CC
:107E60000CDD3B4615221421204624300096FFF7F6
:107E7000A2FE0546002D01D02846A4E7E06A0028AE
:107E800009D032463946E06AFFF7E1FE0546002D8B
:107E900001D0284697E7206B002809D032463946A2
:107EA000206BFFF702FF0546002D01D028468AE728
:107EB0003820005D002809DD324639462046FFF7AC
:107EC00029FF0546002D01D028467CE728467AE7A1
:107ED00001460889002807D0C868002804D0C8686F
:107EE00000780422104201D1072070470020FCE7EF
:107EF00001460889002801DD072070470020FCE7C3
:107F0000F3B593B00D4600211291119113980028FA
:107F100014D01398FFF7DCFF0446002C02D0204653
:107F200015B0F0BD12AA09A91398FFF739FF04464E
:107F3000002C01D02046F3E709AE00E00026002D1A
:107F400013D02846FFF7D4FF0446002C01D020466A
:107F5000E6E711AA01A92846FFF722FF0446002CF4
:107F600001D02046DCE701AF00E0002710A803792C
:107F70003A46017A304672DFD2E702460A70FF20A5
:107F8000000210400012487002207047FFFF0000FE
:107F900001464888B74A1288904206DB4888B54AAD
:107FA0005288904201DC012070470020FCE738B580
:107FB0000546B1480088B14988423BD0B0480078B6
:107FC000401CAF490870AF48007B097888420FDB3E
:107FD000A849A948008875DF0446002C07D0A948A5
:107FE0008069002803D0A74881692046884721E09E
:107FF0000020A3490870A348007C00280FD03B2133
:108000009D48008876DF0446002C07D09D48806993
:10801000002803D09B4881692046884700BF9948C3
:108020004069002806D000200090964841696846C3
:10803000884700BF38BD70B505461C2229469148C7
:10804000FEF7A2F8002090490870286800280BD09D
:1080500008228848296803F0AEFA86487ADF044689
:10806000002C08D0204670BD82487BDF0446002CDF
:1080700001D02046F7E70020C0437F490880002058
:108080007F490870814A0021814800F074FDEAE7C9
:1080900010B57F48006800F00BFE10BD38B57D4874
:1080A000FFF776FF002829D17748007800280AD00A
:1080B00074484069002820D0002000907148416930
:1080C0006846884719E06E480078002802D16D485C
:1080D000456801E06B488568002229466C480068C5
:1080E00000F0B5FD0446002C07D0664880690028E2
:1080F00003D064488169204688470AE061484069A6
:10810000002806D0012000905E48416968468847F3
:1081100000BF00205C49087038BD10B50446A08837
:1081200055490880082221460E315A4803F043FA87
:108130000020534908705348C089002801D1FFF737
:10814000ADFF10BD70B505460020C0434A49088008
:1081500000204B4908704E48006800F0A9FD044615
:10816000002C07D047488069002803D04548816922
:108170002046884770BD70B50546AC1D2088414932
:10818000C989884220D1208B02281DD100BF00BFA1
:10819000A17EE27E120211430846C107C90F0029E1
:1081A00002D0FFF77BFF0FE03948006800F080FD48
:1081B0000646002E07D033488069002803D0314896
:1081C00081693046884700BF70BD10B5044608225B
:1081D000A11D304803F0EFF9FFF760FF10BD10B5A7
:1081E00004462088102806D0112808D012280ED066
:1081F000502810D107E02046FFF78FFF0CE0204603
:10820000FFF7A0FF08E02046FFF7B5FF04E0204697
:10821000FFF7DBFF00E000BF00BF10BD38B504462C
:1082200008222146134803F0C6F912487ADF0546B2
:10823000002D1CD11748FFF7ABFE00280BD1012001
:10824000114908700B490C48008875DF054601206C
:108250000B4908700BE00B484069002806D001204C
:108260000090084841696846884700BF00252846B5
:1082700038BD00008A20002094200020FFFF00006D
:10828000922000201427002088200020AF7F0100CA
:10829000A02000209620002010B5002819DAF74A07
:1082A00003071B0F083B9B089B00D2588307DC0E7B
:1082B000FF23A3409A438B071B0E8407E40EA340C1
:1082C0001A43EE4B0407240F083CA408A4001A51DB
:1082D00018E0EB4A03231B02D21883089B00D258F4
:1082E0008307DC0EFF23A3409A438B071B0E8407F2
:1082F000E40EA3401A43E24B032424021B19840812
:10830000A4001A5110BD10B50446DE488460032154
:108310001120FFF7C1FF10BD10B501200004DA499C
:108320004860D94940394860112000F00CFD112007
:1083300000F0FBFC0120D54908602F20FDF714FF59
:108340000120D349087010BD10B5112001218140D2
:10835000CB4A8032116000BF01200004CA49886006
:10836000C949403988600120C84948602F20FDF77D
:10837000FBFE0120C54988600020C64908602F2007
:10838000FDF7F2FE0020C249087010BDF0B50246AC
:1083900028205043C04B1B68C118C0480068401CCF
:1083A00002D1BE48026057E0BC488B6800682824B0
:1083B0006043B94C246800198068834217D8B748D5
:1083C000006828235843B44B1B68C01880688B682A
:1083D000C31AB248006828246043AF4C24680019CF
:1083E0008360AE4800684862AC48026034E08B6845
:1083F000AA4D2C6828680DE028254543A64E36680E
:10840000AD19AD685B1B044628254543A24E36686E
:10841000AD19686A451C07D0282545439E4E36682D
:10842000AD19AD689D42E7D3451C0CD028254543C6
:10843000994E3668AD19AD68EE1A28254543964F1A
:108440003F68ED19AE608B60486228256543924E07
:108450003668AD196A6200BFF0BDF8B506468F48B0
:1084600005682C4609E0B44200D108E025462820E2
:108470006043894909684018446A601CF3D100BF11
:10848000601C00D1F8BDA5420FD1844800682821A6
:108490004843814909684018406A80490860084695
:1084A0000068401C01D1FFF74FFF282060437A4944
:1084B0000968401887682820604377490968401890
:1084C000416A28206843744A126880184162282053
:1084D0006843714909684018446A601C0CD0282020
:1084E00060436D49096840188068C11928206043BD
:1084F000694A12688018816000BFC3E710B5112077
:1085000000F01AFC10BD10B5142000F015FC10BDD1
:1085100070B5044662480068002813D0604A216A9A
:10852000E06912689047054600BF2E46002E07D02E
:1085300000BF5CA2FF2164313046FDF7E3FE00BFBF
:1085400000BF02E0E169206A884770BDF8B5534872
:108550000068401C39D0002700F0FDFB04464D4860
:108560000168204600F0FAFB06464C48056811E019
:1085700028206843484909684418A068B04200D9D7
:108580000AE0A068361AA068C719656A2046FFF796
:10859000BFFF00BF681CEBD100BF4E4800784E49BA
:1085A0000978884209D14C480078401CC0B24A4939
:1085B0000870022801D10020087047480078800028
:1085C00046490F50FFF79FFF00BFF8BD01464148E5
:1085D0000078414A127890421DD03E480078401CF5
:1085E0003C4A107010460078022801D1002010701B
:1085F000384800788000394A10580860254A0868D1
:1086000012688018234A1060104600680002000AB1
:108610001060012070470020086000BFFAE7FEB537
:108620001E48006801902E480078009076E000987F
:10863000C0002C490968441825786BE0182068436D
:1086400061680F18681CC5B2A078A84200D1002547
:108650003868022802D0032859D145E028217868DB
:1086600048430D4909684618307E002804D07868D0
:10867000FFF7F3FE002030764AE000001CED00E03A
:1086800000E100E0001501404013014000100140EE
:10869000C8200020B4200020A4200020B02000200A
:1086A000C42000202E2E5C2E2E5C2E2E5C2E2E5CE6
:1086B0002E2E5C536F757263655C6170705F636FC3
:1086C0006D6D6F6E5C6170705F74696D65722E6345
:1086D00000000000C0200020C1200020B8200020A1
:1086E000A9200020AC2000200CE0FE4909682822C7
:1086F0005143FD4A1268881800210176F94A416AFF
:10870000116000BFF7480068401CEED100E000BFD8
:1087100000BF00BF6078A84290D100BF0098411E02
:10872000C9B20091002882D1EE48016801988142C7
:1087300001D00120FEBD0020FCE7F0B50346002477
:1087400026E0E84E366828277E43E74F3F68F01959
:1087500086689E4203D98668F61A86601CE08668A1
:108760009B1B86683419002686600676DD4E3568C8
:10877000DC4F466A3E604669002E08D00E1936026C
:10878000360AC6604669066116684662156000BF13
:10879000D4480068401CD4D100BFF0BDFEB50746E8
:1087A000D04800680290D1480078019069E00198B3
:1087B000C000CF49096845185CE0781C07D03E46E8
:1087C00028207043C84909684418676A23E029785B
:1087D000182359436A6850182978491C2970297848
:1087E000AA78914201D1002129704668282171435D
:1087F000BD4A12688C180168012902D1217E002926
:1088000000D037E08168E160C16821610169616180
:108810004169216200BFB749E0680968401A000257
:10882000000AB549884208D2B249E068096800F0F8
:1088300095FA21694018A06011E0AE48E16800682F
:1088400000F08CFA009021690098814204D92169D6
:108850000098081AA06001E00020A06000BF00207E
:10886000E060206101202076801E60623046FFF7C4
:108870008DFD00BF781CA0D12878697888429CD1F2
:1088800000BF0198411EC9B2019100288FD19548BF
:1088900001680298814201D00120FEBD0020FCE762
:1088A000FEB590480068401C34D08E4800682821EE
:1088B00048438D4909684018856800F04CFA0190DA
:1088C0008C4804682146019800F048FAC61C8B4881
:1088D0000078002801D1FFF71FFDAE4201D22846E3
:1088E00000E0304604192402240A20468449086026
:1088F00000BF00F030FA00900199009800F02EFAC5
:10890000C71C2046019900F029FA874201D9FFF7D8
:10891000F5FD01E0FFF718FDFEBDFEB50020C043E8
:108920000190744804686F4807686846FFF74EFE78
:108930000546FFF774FE0646002D05D001AA214624
:108940000098FFF7FAFE01260198FFF727FF00289D
:1089500000D00126002E02D03846FFF7A1FFFEBD51
:108960004170704770B502460B465078411C9078B4
:10897000884200D100211078884201D1002070BDCA
:10898000196050781826704355682C182046F6E771
:10899000FFB581B005460E461746E900544A1268F5
:1089A00088186946FFF7DEFF0446002C02D1042038
:1089B00005B0F0BD01202060666000F0CCF9A06039
:1089C000E760049820610A986061E900484A1268EB
:1089D00088180099FFF7C4FFFFF795FD0020E7E72F
:1089E000F8B504460E46E100414A12688818694607
:1089F000FFF7B8FF0546002D01D10420F8BD022085
:108A000028606E60E1003A4A126888180099FFF702
:108A1000A7FFFFF778FD0020F0E738B50446E10036
:108A2000334A126888186946FFF79CFF0546002DF7
:108A300001D1042038BD03202860001F6860E100D8
:108A40002B4A126888180099FFF78AFFFFF75BFD31
:108A50000020EFE710B500202A49086000212948CE
:108A600041608160C160002026494039086048604B
:108A7000FFF76CFD10BD10B5FFF74FFF10BDFFB540
:108A800081B00E4617461C4620468107890F01D14A
:108A9000012100E00021002902D1072005B0F0BD2E
:108AA000002C01D10720F9E7FFF74EFC16490A9880
:108AB0000860164806700C48046000250CE0002190
:108AC00028206843084A1268115028206843064A43
:108AD0001268801801766D1CB542F0DB28207043C7
:108AE000041915E0B0200020A4200020A9200020B7
:108AF000AC200020B4200020FFFF7F00C820002011
:108B00004015014040110140C4200020A820002051
:108B100003209549087095480460183400250CE03E
:108B2000E900924A1268881800210170417087702C
:108B30004460182179430C196D1C032DF0DB0020D3
:108B4000C0438B49086000208A4908708A49087030
:108B5000142000F0F8F803211420FFF79DFB1420E7
:108B600000F0E3F80198FFF7CEFB00F0F4F883493A
:108B70000860002092E770B503460C468048006804
:108B8000002801D1082070BD002A01D10720FAE792
:108B9000002B01D10720F6E700211CE028204843E4
:108BA000774D2D682858002814D1012528204843E6
:108BB000734E3668355028204843714D2D68401952
:108BC0004460282048436E4D2D684019C2611960E9
:108BD0000020D8E7491C6B4800788142DEDB042086
:108BE000D1E730B500BF68484068C205D20D002A01
:108BF0001ED01346103B184600280CDA624C1C3479
:108C000005072D0F083DAD08AD0064598507ED0E31
:108C1000EC40A4090AE05D4C03252D026419850887
:108C2000AD0064598507ED0EEC40A409E0B200E008
:108C30000420012802D0032804D101E0002103E030
:108C4000012101E0022100BF00BF084630BDFEB592
:108C500004460D4616464A480068002801D10820FF
:108C6000FEBD48480078844201D2052D01D207207C
:108C7000F6E728206043424909680858012801D0D6
:108C80000820EDE7282060433D4909684018406806
:108C9000012801D1284600E000200746FFF7A1FF88
:108CA0003B462A46214600960190FFF771FED7E722
:108CB00070B5044632480068002801D1082070BD14
:108CC00030480078844201D30720F8E72820604329
:108CD0002B4909680858012801D00820EFE7FFF761
:108CE00080FF05462146FFF77BFEE8E710B52448E4
:108CF0000068002801D1082010BDFFF772FF04466C
:108D0000FFF78BFEF8E710B5044600F024F820606A
:108D1000002010BD70B505460E4614463146284663
:108D200000F01CF82060002070BDC206D20E0121A8
:108D30009140164A11607047C206D20E012191403F
:108D4000134A11607047C206D20E01219140104AA9
:108D50008032116070470F48406870470246501AD1
:108D60000002000A70470000A9200020AC2000206B
:108D7000B0200020C0200020C1200020B42000200E
:108D8000A4200020A820002000ED00E000E100E089
:108D900000E200E000150140002314214143F94A9C
:108DA00053541421414389184B8002231421414319
:108DB00089188B600023142141438918CB6014214A
:108DC000414389180B611421414389188B807047F6
:108DD00010B50020EC490880EC490860E949091FFA
:108DE000087048708870002403E02046FFF7D4FF25
:108DF000641C0A2CF9D310BDFFB583B004460F469E
:108E000015460326E148006800280BD1002D06D145
:108E10000698002803D10220DC49086002E0012006
:108E2000DA490860D9480068030002F006FD07FC33
:108E300005304D82B7D4FC00D5484069401C08D0AD
:108E400001221207126991B2D14A506902F014FC52
:108E500002E0012000074069401E0121090709695D
:108E600089B2484302900120000700690004820C87
:108E700001200007006980B278430146029821DF93
:108E80000646002E02D10220C0490860CCE03846D8
:108E900020DF0646002E16D1002D11D1069800289D
:108EA0000AD12078042803D10720B84908600AE0D5
:108EB0000520B649086006E00420B449086002E0D5
:108EC0000320B2490860AFE0B1484069401C08D0B7
:108ED00001221207126991B2AD4A506902F0CCFB2F
:108EE00002E0012000074069401E012109070969CD
:108EF00089B24843012109070290096989B279437F
:108F000008462A46029921DF0646002E10D106980F
:108F100000280AD12078042803D106209B49086044
:108F200006E005209949086002E00420974908609E
:108F30007AE097484069401C08D001221207126964
:108F400091B2934A506902F097FB02E001200007BA
:108F50004069401E01210907096989B24843A900F7
:108F6000401861884018012109070290096989B2F7
:108F70007943AA00891862888818069A029921DF25
:108F80000646002E09D12078042803D106207F4907
:108F9000086002E005207D49086045E001200007E7
:108FA000006980B27843AB00C018029060888208E4
:108FB0002169029821DF0646002E0BD1002D06D133
:108FC0000698002803D107207049086002E00620B7
:108FD0006E49086028E06E484069401C08D00122B4
:108FE0001207126991B26A4A506902F045FB02E029
:108FF000012000074069401E01210907096989B263
:109000004843019001200007006981B2019802F0F5
:1090100033FB029020DF0646002E02D107205B4979
:10902000086001E0FFE700BF00BF304607B0F0BDB9
:10903000F0B585B00F275348001F0078142148432E
:1090400050494418E5682078022804D0042823D029
:1090500005286FD16FE0206903904B480088860295
:109060006088801B0490039880190390A088801961
:109070004519012189020498884206D20498820881
:109080002846039921DF074605E0FF2201322846E2
:10909000039921DF074680E0A06800013D494018A0
:1090A00000890490A0680001401840890390A068DE
:1090B00000014018406802900298A84205D1039927
:1090C000049848436188884202D0A06803280DD1E3
:1090D00001200007006981B2284602F0CDFA2A4932
:1090E00009884618304620DF074622E001200007A5
:1090F000006981B2284602F0BFFA06460120000747
:10910000006980B27043281A80080190012000078E
:10911000006980B2711C484361884919401A80086F
:10912000009031462046009B019AFFF765FE0746F6
:1091300000BF32E030E001200007006981B228461C
:1091400002F09AFA0646A08841190120000700693A
:1091500080B27043081A80080490A0884019618882
:10916000421801200007006980B2711C4843801A30
:109170008008039031462046039B049AFFF73CFE8B
:1091800007460AE034270020D4200020D820002001
:1091900000100010FC27002000BF00BF002F02D1EC
:1091A0000120F7498870384605B0F0BDFFB581B0A1
:1091B000064617460024F24840780A2837D0F0487F
:1091C0000078EF4949784018C4B20A2C02DB2046E7
:1091D0000A38C4B214206043E949091D0E54142012
:1091E000604340180761142060434118029805C885
:1091F000CA60886014206043E14A121D80180499F7
:1092000041801420604380180A9981800025101F36
:109210008078002805D1FFF70BFF0546112D00D1FE
:109220000025D7484078401CD549487000E0042507
:10923000284605B0F0BD10B50024D148407800287C
:1092400007DDFFF7F5FE0446002C02D0112C00D1FB
:109250000024204610BDF8B50446C9480078142102
:109260004843C749091D0E5C081F00781421484374
:10927000C349091D401880680001C2490D58C04803
:10928000007814214843BE49091D40184088091F31
:109290000090097814225143B94A121D89180B69AC
:1092A000111F097814225143B54A121D8918084626
:1092B000083022463146A847F8BDFEB505460026CF
:1092C000AF48807801287DD10020AD498870AE4834
:1092D0000068082811D1022D03D10020AA49086096
:1092E00002E00020A9490870FFF7A5FF0646002EFE
:1092F00002D03046FFF7AFFFFEBD022D02D0032D96
:1093000079D174E09E480078142148439C49091D96
:1093100044189F480088401C9D49088020780228F6
:1093200007D10846008880026188884201DB01205D
:1093300000E0002007462078052805D19248006803
:10934000072801D1012000E00020029020780428A5
:1093500005D18D480068072801D1012000E00020D8
:109360000190207804280BD1894800888002618808
:10937000884205DB84480068002801D1012000E014
:10938000002000900298002807D10198002804D1FD
:109390000098002801D1002F1FD000207A490860D2
:1093A0003046FFF758FF76490878FFF7F5FC0020B4
:1093B0007749088072484078401E714948700846D5
:1093C000007800E01AE0401C0870084600780A287F
:1093D00003DB084600780A380870FFF72CFF0646C2
:1093E000002E02D03046FFF736FF05E003E00D20E7
:1093F000FFF731FF00E000BF00BF00BF00BF7BE709
:1094000070B5FFF7E5FC00206249088062484069BA
:10941000401C08D001221207126991B25E4A5069BD
:1094200002F02AF902E0012000074069C01E012174
:109430000907096989B2484358490860002054491E
:10944000088000BF0DE0002102014E4B995002013F
:10945000D21811810201D21891810201D2185181D2
:10946000401C0228EFD30820474908604A48406959
:10947000401C08D001221207126991B2464A506975
:1094800002F0FAF802E0012000074069401E0121C5
:109490000907096989B248430646012000070069A7
:1094A00081B2304602F0E8F8054620DF0446002C81
:1094B00004D101203249887034490870204670BDBB
:1094C000F8B504460D4600BF30480078002801D1A9
:1094D0000820F8BD00BF002C01D10E20F9E7002DB7
:1094E00001D10E20F5E72068002801D10E20F0E719
:1094F000A08801210907096989B2884202DCA08895
:10950000102801DA0720E4E7E08800282FD022485D
:109510004069401C08D001221207126991B21E4A0C
:10952000506902F0A9F802E0012000074069401EDE
:1095300001210907096989B24843E188A28851439A
:10954000164A12688918884211D3E088A1884843D6
:1095500001210907096989B288420ADDA18801222F
:109560001207126990B202F091F8002901D0072089
:10957000AFE720798007800F12D00720A9E700000D
:1095800030270020FC270020D8200020CC200020FD
:10959000D4200020CE20002000100010D020002079
:1095A000FE480088022801D1042092E7FB48008889
:1095B0002860FB4800686860F84909880901F94A91
:1095C000891868684860F549098809012068505081
:1095D000A088F2490988090189180881E088EF49C3
:1095E00009880901891848810027A688E1884E4327
:1095F00000BF781C87B201200007006980B2B0422A
:1096000005D201200007006980B2361A00E000266A
:1096100001200007006980B2E14909684018E0496B
:10962000086001200007006980B2B042E1D9DB4840
:1096300000880001DB4940188781D8480088401C19
:10964000D6490880002044E73CB5034600BFD64811
:109650000078002801D108203CBD00BF002B01D1BB
:109660000E20F9E7002A01D10E20F5E7186802283C
:1096700005D218680001CB4C2058002801D10720E2
:10968000EAE75C68186801940090019C1868000182
:10969000C44D4019008948432018019000980001EA
:1096A0002C4600194089009C2401641924896043D8
:1096B000009C2401641964680019019CA04201D82F
:1096C0000720C9E7019C0098546010600020C3E7A0
:1096D000F8B504460E4615461F4600BFB24800784E
:1096E000002801D10820F8BD00BF002E01D10E20B6
:1096F000F9E7002C01D10E20F5E72068022805D2F9
:1097000020680001A7490858002801D10720EAE78E
:1097100020680001A3494018408921680901A14A35
:10972000891809894843216809018918496840183E
:109730006168884201D80720D5E7002D06D020684F
:109740000001984940180089A84201DA0720CAE7B9
:10975000E81921680901934A89180989884201DDBD
:109760000720C0E7304600F05CF9002804D03846F6
:1097700000F057F9002801D11020B4E7606800F02C
:1097800050F9002801D11020ADE72B463246214682
:1097900002200097FFF70AFDA5E7F8B504460E463C
:1097A00015461F4600BF80480078002801D10820D8
:1097B000F8BD00BF002E01D10E20F9E7002C01D129
:1097C0000E20F5E72068022805D2206800017549BF
:1097D0000858002801D10720EAE7206800017149F4
:1097E00040184089216809016E4A8918098948434F
:1097F000216809018918496840186168884201D8C0
:109800000720D5E7002D06D02068000165494018E3
:109810000089A84201DA0720CAE7E819216809018E
:10982000604A89180989884201DD0720C0E730466F
:1098300000F0F7F8002804D0384600F0F2F80028CD
:1098400001D11020B4E7606800F0EBF8002801D1E6
:109850001020ADE72B463246214605200097FFF742
:10986000A5FCA5E7FFB581B00C4615461E4600BF16
:109870004D480078002802D1082005B0F0BD00BF97
:10988000002C01D10E20F8E70198002801D10E200C
:10989000F3E72068022805D22068000141490858F2
:1098A000002801D10720E8E7206800013D49401861
:1098B0004089216809013B4A891809894843216880
:1098C00009018918496840186168884201D8072051
:1098D000D3E7002D06D020680001324940180089E6
:1098E000A84201DA0720C8E7A819216809012D4A12
:1098F00089180989884201DD0720BEE7019800F038
:1099000090F8002804D0304600F08BF8002801D1F0
:109910001020B2E7606800F084F8002801D1102020
:10992000ABE7606881192A46019801F044FE009572
:10993000206800011B490F58002203212046019B8B
:10994000B847002099E7F8B504460D4600BF164811
:109950000078002801D10820F8BD00BF002C01D1FB
:109960000E20F9E72068022805D2206800010D4981
:109970000858002801D10720EEE7206800010949B6
:109980004018408921680901064A89180989484315
:109990002168090189184968401807E0CE20002095
:1099A000D0200020FC270020CC20002061688842C5
:1099B00001D80720D0E7606800F033F8002801D113
:1099C0001020C9E723681B011A4FDB1962685B6826
:1099D000D01A226812013B46D218118901F04CFEC0
:1099E000002901D00720B7E700202B460246214678
:1099F00000900420FFF7DAFB06463046ACE701464C
:109A000000BF0D480078002801D10820704700BF32
:109A1000002901D10E20F9E70848407808600020AD
:109A2000F4E701468807800F01D10120704700202C
:109A3000FCE70000FC270020CC200020302700207D
:109A4000F8B504460D4694480068002813D0EAB2E1
:109A50002178914BA0681B689847064600BF37469F
:109A6000002F06D000BF8DA228213846FCF74AFC03
:109A700000BF00BF0CE0012D04D120780121A268B5
:109A8000904705E0002D03D120780021A26890477F
:109A9000F8BDF8B5074669468C48007800F0EFFA43
:109AA0000646002E00D0F8BD002533E00C206843A8
:109AB0008749096844188748006822780121914045
:109AC00008420FD0A06800280CD06078012804D18B
:109AD00000212046FFF7B4FF1AE001212046FFF7DE
:109AE000AFFF15E07B484068227801219140084291
:109AF0000ED0A06800280BD06078012804D1012185
:109B00002046FFF79DFF03E000212046FFF798FF66
:109B1000681CC5B2704800788542C7DB00BFC2E749
:109B200070B504460D466D480068FFF7C1F806465B
:109B3000002E00D070BD6748446005602046284371
:109B400002466748016865480068FFF780F80646E6
:109B500000BFEFE7FFB583B006460C461746052F5A
:109B600002D2072007B0F0BD594806605A48047079
:109B70005B480760484906980860002516E00C21FC
:109B80006143881902780092416801910199890026
:109B90000522120707231B02D318009A920099503E
:109BA00000BF0278012191400D4300BF2046611E95
:109BB000CCB20028E3D14B4B2A462946434800F05B
:109BC00089F902900298002801D00298CAE7464A13
:109BD00000214248FEF7CFFFC4E710B53C480068BB
:109BE000002801D1082010BD3848007800F0B7F9EE
:109BF000F9E710B536480068002801D1082010BDEB
:109C00003248007800F01AFA0446002C01D02046B1
:109C1000F5E732480068FFF74BF8F0E7F8B506467D
:109C20000C462D480078864201DD0720F8BD0C2047
:109C3000704327490968451825480068002801D164
:109C40000820F3E769462148007800F018FA074633
:109C5000002F01D03846E9E7687800280BD1297831
:109C60000098C840C007C00F02D00020207010E04C
:109C7000012020700DE0687801280AD12978009829
:109C8000C840C007C00F02D00120207001E00020B2
:109C900020700020CAE70000E82000202E2E5C2E55
:109CA0002E5C2E2E5C2E2E5C2E2E5C536F757263F6
:109CB000655C6170705F636F6D6D6F6E5C6170701D
:109CC0005F627574746F6E2E63000000EC200020DC
:109CD000DC200020F4200020E0200020F0200020E4
:109CE000E4200020219B0100939A0100F0B5024678
:109CF0000C46002035E001238340194623460B42E1
:109D00002ED0D5680D4205D101235B04D5680D43E3
:109D1000D56004E003231B04D5688D43D560052579
:109D20002D0707263602AD198600AD5903263604E5
:109D3000B5430526360707273F02F6198700F55178
:109D400005252D0707263602AD198600AD591D439E
:109D50000526360707273F02F6198700F55100BF91
:109D6000401C2028C7D3F0BDF0B585B0EC4805698C
:109D70000020EC49C86300263DE014207043EA4906
:109D8000096844180120B040E8490968084230D009
:109D9000E068C043684021680840074639462046CD
:109DA000FFF7A4FFDE48006968400390039800288D
:109DB0000ED003980543E068C0436840216808401E
:109DC000009020460099FFF791FF0098074300BFDD
:109DD000A068A8433840019060682840384002904D
:109DE00001990298084303D022690199029890478B
:109DF00000BF701CC6B2CE4800788642BDDB05B0FD
:109E0000F0BD10B50146002028E014224A43C64B9D
:109E10001B689A58012383401A421ED0052212075C
:109E200007231B02D2188300D25803231B049A4332
:109E300005231B07072424021B1984001A5105223D
:109E4000120707231B02D2188300D25805231B07D1
:109E5000072424021B1984001A51401C2028D4D343
:109E600010BD70B505460C46002C01D1072070BD11
:109E700020468107890F01D1012100E0002100293E
:109E800001D10720F3E7A8480460AA480570002024
:109E9000A7490870A5490860A648007814225043D5
:109EA0000146A148006801F0E5FB0020C043A2493B
:109EB0008860062001218140A04A116000BF012175
:109EC00000F0F7F80620012181409D4A116000BF93
:109ED0000020CCE7F8B504460D4616461F469248CA
:109EE0000068002801D10820F8BD002F01D107200B
:109EF000FAE78F4800788F490978884201DB04200F
:109F0000F2E7284630438A49097814225143864AA9
:109F100012685050864800781421484382490968E5
:109F20004018456082480078142148437E490968FA
:109F3000401886607E480078142148437A490968B1
:109F4000401807617A480078207079480078401CF2
:109F5000774908702078FFF754FF0020C4E7F0B578
:109F6000024671480068002801D10820F0BD704801
:109F70000078824201DB0720F8E70020694BD863B4
:109F80006748046969480068002802D158066A4B8E
:109F9000586001209040654B1B681843634B186064
:109FA000002314205043604D2D684019C3600021E8
:109FB00040E001238B401846142353435A4D2D682B
:109FC000EB58034235D02546054202D003231B043B
:109FD0000EE001235B0414255543534E3668AD193A
:109FE000ED680543142656434F4F3F68F619F56058
:109FF00005252D0707263602AD198E00AD5903261B
:10A000003604B5430526360707273F02F6198F00A9
:10A01000F55105252D0707263602AD198E00AD59DD
:10A020001D430526360707273F02F6198F00F55115
:10A0300000BF491C2029BCD3002097E710B5044677
:10A0400039480068002801D1082010BD3848007840
:10A05000844201DB0720F8E72046FFF7D2FE01200B
:10A06000A0403249096881433048016000680028F7
:10A0700003D10120C007304988600020E5E710B512
:10A08000024629480068002801D1082010BD284850
:10A090000078824201DB0720F8E714205043224C6D
:10A0A000246803191E4800691C68204008600020CD
:10A0B000ECE710B5002819DA224A03071B0F083B0A
:10A0C0009B089B00D2588307DC0EFF23A3409A43D2
:10A0D0008B071B0E8407E40EA3401A43194B040799
:10A0E000240F083CA408A4001A5118E0144A0323C2
:10A0F0001B02D21883089B00D2588307DC0EFF2373
:10A10000A3409A438B071B0E8407E40EA3401A4317
:10A110000B4B032424021B198408A4001A5110BD00
:10A120000005005040610040FC200020002100207C
:10A1300005210020042100200063004080E200E0AF
:10A1400000E100E01CED00E070B503460C4608207D
:10A15000002114E00C254D43FC4EAD19AD7A25428B
:10A160000CD0FB4DAB4205D00C254D43AD192D89CC
:10A170009D4202D11160002003E00520491C002906
:10A18000E8D000BF70BD10B504461C216143F14A00
:10A19000891808461130062101F06AFA1C21614332
:10A1A000EC4A8818102101F063FAFF211C2060435B
:10A1B000E84A801801741C206043801881760021D1
:10A1C000C9431C20604380180183204601F032F906
:10A1D00010BD7CB50546A9B26A46DF48FFF734FAE0
:10A1E0000446002C09D14C216846FFF7ACFB04461D
:10A1F000002C02D12846FFF7C6FF20467CBDF8B5EB
:10A2000005460E4617460520009000241BE0002D51
:10A2100006D11C206043CF494018008BB8420DD0B6
:10A22000002D0FD01C216143CA4A891808461030FE
:10A230000722294601F092F9002803D1346000205A
:10A24000009002E0641C072CE1D300BF0098F8BD29
:10A2500010B5044601210C206043BC4A801881726D
:10A26000891E0C20604380180181FF210C2060436F
:10A270008018C1720C2161438818072101F0F8F998
:10A2800010BD10B50446002010BDF0B585B00746DE
:10A290000C461020009061780C225143AB4A89187B
:10A2A00008896A4601A9AADF0646002E46D16178D0
:10A2B00014225143A94A8918081D69460A8801A930
:10A2C00001F04CF9002812D160780C2148439F49D5
:10A2D0004018807A0221084002282FD06178142289
:10A2E00051439E4A8818142101F0C4F926E0607891
:10A2F0001421484399490858002801D0984D00E09E
:10A30000984D69460988607814225043934A115049
:10A31000617814225143914A8918081D69460A88B8
:10A3200001A9FBF731FF6078142250438B4A811852
:10A33000342314223846A847064600BF002005B043
:10A34000F0BD02460020704770B505460C466178A6
:10A3500014225143814A8818342314222946FFF7D6
:10A3600081FA0646002E0CD16078142148437B49BF
:10A370000858401C05D10021607814225043774AC8
:10A380001150304670BD024600207047F8B50446B3
:10A390000026002760781421484370490858002897
:10A3A0001FD060780C21484368494018807A4021CA
:10A3B0000840402815D160780C2148436349401873
:10A3C000807A2021084020280BD06078142148434F
:10A3D00062494018061D6078142148435F49085AB5
:10A3E00087B261780C225143584A891808893A4645
:10A3F0003146A9DF0546002D00D05B4D2846F8BD4B
:10A400000146002070470146002902D156483338E2
:10A410007047FF20087048708870C8700020F7E708
:10A42000FFB58BB00F461D4600BF5048006800289E
:10A4300001D10FB0F0BD00BF14984C2800D9F8E747
:10A440000120029007A8FFF7DEFF064600BF019635
:10A45000019E002E06D000BF454A46490198FBF7F1
:10A4600051FF00BF00BF00216846017708A80170B6
:10A470000695149805900020019017E0019881B28C
:10A4800003AA3548FFF7E0F80646002E0BD1082254
:10A4900003A90B9801F062F8002804D10198C1B219
:10A4A0006846817705E00198401C019001980728D3
:10A4B000E4D300BF6846807FFF287DD0042F0AD1F7
:10A4C00014984C2803D1202008A9087081E040206E
:10A4D00008A908707DE01F49681A1C2101F0CCF81A
:10A4E0000446072C1CD205A809900D9800280FD10E
:10A4F0006946887F012181401F4A1268114201D0BC
:10A50000012100E00021002902D10020029060E03A
:10A510006946887F00F08EFF202008A9087058E067
:10A520001649681A182101F0A7F80446002C27D113
:10A5300005A80990202108A8017068464477807F0B
:10A540001C21484303494018069042E00C29002092
:10A55000FFFF00001C2800200C210020F82800200C
:10A560009B970100D196010041800000182900202E
:10A570008CB80100C304000014210020E028002052
:10A58000F849681A142101F077F80446002C1BD111
:10A59000302108A80170684644770121C1770C205A
:10A5A0006043F1494018807A02210840022810D007
:10A5B0006946497F142200E02DE05143E94A88189A
:10A5C000142101F057F804E000200290402008A96F
:10A5D0000870029800281ED0042F06D108A9087818
:10A5E0000321084308A908700EE0032F06D108A92B
:10A5F00008780121084308A9087005E008A908782F
:10A600000221084308A9087005A8099008A907A80D
:10A610000D9A00F052FF00BF0BE77FB50646002EF3
:10A6200002D1D24804B070BD00240BE000BF00216D
:10A630000C206043CE4A11500C2060438018817278
:10A6400000BF641C002CF1D0002403E02046FFF77B
:10A65000FFFD641C002CF9D01421C24801F00AF857
:10A66000002406E02046FFF78EFDFF20C149085573
:10A67000641C072CF6D34C21684681810721C181D7
:10A68000BD480290BD4902A8FEF71AFF0546002DFD
:10A6900030D10120BA4908703078002821D1002437
:10A6A0001CE0A1B26A46B548FEF7CEFF0546002D74
:10A6B0000FD11C216143B34A881800231C2269462C
:10A6C000FFF7D0F80546002D07D00020AC490870F0
:10A6D00006E00020AA49087002E0641C072CE0D3C1
:10A6E00008E06A469089D289504381B2A348FFF7B7
:10A6F0002AF90546284695E770B505460C4600BF81
:10A700009F480078002802D19848801F70BD00BF84
:10A71000002D01D19548F9E7002C01D19348F5E7C8
:10A720002068002801D19148F0E79148006800288E
:10A730000FD18F49206808600622A11D8C48001D9A
:10A7400000F039FF20798A4988720020287000269D
:10A7500001E0864E0A3E3046D8E770B5044600BF99
:10A7600087480078002802D18048801F70BD00BF54
:10A77000002C01D17D48F9E700BF2078012806DAD6
:10A7800020780C2148437A490858002802D177489C
:10A79000801FEBE700BF00BF6078012807DA607810
:10A7A0000C21484370494018807A012802D16F4833
:10A7B000801CDBE700BF6D4DAD1F60780C21484366
:10A7C00069494018807A02210840022809D161783D
:10A7D0000C225143644A891808896549091D7EDFA6
:10A7E00005462846C2E7024600BF654800780028B3
:10A7F00002D15E48801F704700BF002A01D15B482C
:10A80000F9E7002901D15948F5E700BF1078012880
:10A8100006DA10780C235843554B1858002802D1FB
:10A820005248801FE7E700BF00BF5078012807DAD1
:10A8300050780C2358434C4BC018807A012802D121
:10A840004A48801CD7E700BF50780C235843464B3A
:10A85000C018807A0423184202D0012008600DE05D
:10A8600050780C235843404BC018807A402318423C
:10A8700002D00220086001E0002008600020BAE752
:10A88000F0B5044600BF3E480078002802D13748A2
:10A89000801FF0BD00BF002C01D13448F9E700292A
:10A8A00001D13248F5E70868002801D12F48F0E7C8
:10A8B0008868002801D12D48EBE700BF20780128E7
:10A8C00006DA20780C256843294D2858002802D143
:10A8D0002648801FDDE700BF00230022002022E081
:10A8E0001C254543274EAD19AD7EED07ED0F08D170
:10A8F0001C254543AD1997008E68F5511D4EB05487
:10A90000521C1C2545431F4EAD19AD7E0226354213
:10A9100008D11C2545431B4EAD1910359F000E680C
:10A92000F5515B1C401C072805D20D799D4202D9C8
:10A930000D7B9542D4D80B710A730020A9E702461B
:10A940000A488230704770B5044600BF0C48007852
:10A95000002802D10548801F70BD00BF002C13D114
:10A960000248F9E7F82800200C2900200E8000009A
:10A97000182900201821002021A401000C2100200A
:10A98000082100201C28002000BF2078012806DABA
:10A9900020780C214843FA490858002801D1F94889
:10A9A000DAE700BF00BFA078072807DAA0781C21EB
:10A9B0004843F5494018807EFF2802D1F14808300D
:10A9C000CAE700BFA078FFF704FC05462846C3E7A6
:10A9D00070B5044600BFED480078002801D1E94871
:10A9E00070BD00BF002C02D1E648801DF8E700BF13
:10A9F0002078012806DA20780C214843E0490858DD
:10AA0000002801D1DF48EBE700BF002600250BE05E
:10AA10001C206843DC494018807EFF2803D028466C
:10AA2000FFF7D7FB06466D1C072DF1D33046D7E75D
:10AA3000FEB504460D4600BFD4480078002801D179
:10AA4000D048FEBD00BF002C02D1CE48801DF8E7E3
:10AA5000002D02D1CB48801DF3E700BF20780128EC
:10AA600006DA20780C214843C5490858002801D14E
:10AA7000C448E6E700BF00BF6078012807DA6078C5
:10AA80000C214843C2494018807A012802D1BD48B0
:10AA90000830D6E700BF00BFA078072807DAA07803
:10AAA0001C214843B8494018807EFF2802D1B54890
:10AAB0000830C6E700BFA868002812D068680028E0
:10AAC0000FD0686810280CD22878012809D1637843
:10AAD00014277B43AF4FDB19181D6A68A96800F083
:10AAE0006AFDA1786A46AC48FEF7AEFD06462878B6
:10AAF0008000AA490A5821466846904706463046D3
:10AB00009FE77CB504460D4600BFA04800780028AA
:10AB100001D19C487CBD00BF002C02D19948801D0A
:10AB2000F8E7002D02D19748801DF3E700BF207899
:10AB3000012806DA20780C2148439149085800285A
:10AB400001D19048E6E700BF00BFA078072807DAE8
:10AB5000A0781C2148438C494018807EFF2802D1F0
:10AB600088480830D6E700BF60780C214843884900
:10AB70004018807A02210840022802D0814889309A
:10AB8000C8E7A868002812D1686810280FD2287872
:10AB900001280CD16078142148437E494018001DDB
:10ABA000A8606078142148437A4908586860A17801
:10ABB0006A467948FEF748FD0646287880007849BD
:10ABC0000A5821466846904706463046A2E70146A5
:10ABD00000BF6E480078002801D16A48704700BF66
:10ABE000002902D16748801DF8E700BF08780128D6
:10ABF00006DA08780C225043614A1058002801D127
:10AC00006048EBE700BF00BF8878072807DA88783C
:10AC10001C2250435C4A8018807EFF2802D159488C
:10AC20000830DBE700BF57488830D7E70246554871
:10AC30008930704702465348893070470146514871
:10AC400089307047024600BF50480078002801D183
:10AC50004C48704700BF002902D14A48801DF8E7E0
:10AC6000002A02D14748801DF3E700BF1078012871
:10AC700006DA10780C235843414B1858002801D1AC
:10AC80004048E6E700BF107808700020E1E7FEB515
:10AC900004460E46A1786A463F48FEF7D5FC0546B5
:10ACA000002D49D160780C21484339494018807AF9
:10ACB00020210840202801D0022E01D1394F04E084
:10ACC000012E01D1384F00E0384FA0781C225043AC
:10ACD0002D4A811800231C226846B8470546002DDE
:10ACE0001AD1022E18D060780C2148432849401808
:10ACF000807A2021884361780C225143244A8918A4
:10AD00008872607818225043294A81181C2318221F
:10AD10006846B847054600BF022E0DD020780C21AA
:10AD2000484317494018807A80001C490A58214638
:10AD300068469047054600BFFEBD70B504460D4607
:10AD400000BF12480078002801D10E4870BD00BF36
:10AD5000002C02D10B48801DF8E7002D02D10948D4
:10AD6000801DF3E700BF2078012806DA20780C2147
:10AD700048430349085800281CD10248E6E7000070
:10AD800018290020088000001C280020082100202D
:10AD90000C290020F82800200C21002058B80100C0
:10ADA00068B801009B970100D196010083A20100C1
:10ADB000E028002000BF00BFA078072807DAA078AD
:10ADC0001C214843F7494018807EFF2801D1F648EE
:10ADD000BCE700BF6078FF281CD12878022819D072
:10ADE000A1781C225143EF4A8918084610300722E7
:10ADF000294600F0E0FBA07801218140EB4A12686F
:10AE00001143EA4A116000BF02212046FFF73FFFCD
:10AE1000002601E0E44E093E304697E770B504464F
:10AE20000E4600BFE2480078002802D1DE4808380C
:10AE300070BD00BF002C02D1DB48801EF8E7002E59
:10AE400002D1D948801EF3E700BF2078012806DA36
:10AE500020780C214843D7490858002802D1D2480D
:10AE60000838E5E700BFD04D0B3DA078FF2817D18B
:10AE70006078FF2829D060780C214843CE494018DB
:10AE8000807A0221084002281FD160780C225043AA
:10AE9000C94A81180722304600F08DFB002514E0D6
:10AEA000A0781C214843BF494018807E02210842F7
:10AEB0000BD1A0781C225043BA4A801801461031A9
:10AEC0000722304600F077FB00252846B0E77CB526
:10AED0000446A1786A46B948FEF7B6FB0546002D40
:10AEE00013D1617818225143B54A88181C231822BF
:10AEF0006946FEF7B7FCAF48807A8000B1490A582E
:10AF0000214668469047054600BF7CBDF0B589B034
:10AF100004460026FF20029000BFA54800780028C4
:10AF200001D109B0F0BD00BF00BFA24800680028F1
:10AF300000D1F6E700BF06A8FFF765FA054600BF97
:10AF40002F46002F06D000BF9F4AA0493846FBF786
:10AF5000D9F900BF00BF0020019007900025201DF7
:10AF60000490342168468182FF2181760021017698
:10AF7000002008902088102813D0A08808AA022159
:10AF8000FFF7E2F80546002D0BD10C210898484345
:10AF900089494018C17A684681760898C1B26846E6
:10AFA00041762088142878D006DC10280BD0112890
:10AFB00078D0132873D10FE1172871D0182870D0DA
:10AFC0005228F7D10FE208AF3A4601218048FFF737
:10AFD000BBF800900098002807D102210C223868A5
:10AFE0005043754A8018817201E004200090009857
:10AFF0000546002D50D1012611216846017308989D
:10B00000C1B268464176A1880C22089850436A4A2A
:10B010008018018102210C2208985043664A80184A
:10B0200081720C2208995143634A88180722A11D96
:10B0300000F0C1FA607B30400AD0607B400865496F
:10B04000085CFF280AD0607B4008085C029005E09D
:10B050005F4A02A9A01DFFF7D2F80546002D1BD1BB
:10B060000298C1B20C2208985043534A8018C1720A
:10B070000C210898484311464018807A082108435B
:10B080000C22089951434C4A8918887269460298E3
:10B09000887606A8FFF71BFFB0E141E002E0ACE1D3
:10B0A000DBE07EE10C210898484343494018807A50
:10B0B000022188430C22089951433F4A891888721B
:10B0C0000C210898484311464018807A082108400E
:10B0D00008280ED10C210898484311464018807A60
:10B0E0004021084040280FD1002106A8FFF7CFFDDE
:10B0F0000AE06846807EFF2806D06946887EFFF712
:10B1000042F8FF206946887610210C2208985043A7
:10B11000294A8018817201261220694608736DE160
:10B120000C210898484324494018C07AFF2823D1AD
:10B13000E28902A90020FFF762F80546002D1BD125
:10B140000298C1B20C22089850431B4A8018C17261
:10B150000C210898484311464018807A082108437A
:10B160000C2208995143144A89188872694602983A
:10B17000887606A8FFF7ABFE0C21089848430E49D5
:10B180004018C07AFF2806D01821089848430C4977
:10B190004018001D0190A0880022019981DF05461A
:10B1A0002CE100001C280020108000001421002049
:10B1B00008210020182900200C2900200C21002043
:10B1C000E028002068B801008CB8010037090000B1
:10B1D000FFFF000018210020132069460873A08893
:10B1E000D64A00217FDF0546002D02D007950026B4
:10B1F00032E00C2108984843D1494018807A042154
:10B2000008430C2208995143CD4A891888720126B7
:10B210000C210898484311464018C07AFF281BD0DB
:10B2200000BF162069460873142108984843C54991
:10B230004018002141608160C16001610C210898C3
:10B24000484311464018807A202108430C2208996F
:10B250005143BB4A89188872D0E00C2108984843B2
:10B26000B7494018807A042188430C220899514339
:10B27000B34A891888721420694608730126A07998
:10B28000002802D0A07907908AE018210898484346
:10B29000AD494118E07A8870182108984843AA49B6
:10B2A0004118A07A4870182208995143A64A891873
:10B2B000081D142221460C3100F07DF90C2108985C
:10B2C00048439F494018807A40210840402867D170
:10B2D0000C21089848439A494018807A082108436D
:10B2E0000C2208995143964A891888720C210898B3
:10B2F000484311464018C07AFF283FD10C220898D5
:10B3000050430A46811802A800F09CF80546002D1B
:10B3100032D16946029888760298C1B20C22089808
:10B320005043874A8018C172A1891C220298504359
:10B33000864A80180183E07A4007C00F17D01C228C
:10B3400008995143814A881810222146203100F083
:10B3500032F91C21089848437C494018807E4108F6
:10B3600049001C2208985043784A801881760121B0
:10B3700006A8FFF78CFC13E0079511E00C21089854
:10B3800048436F494018807A202108430C220899CD
:10B3900051436B4A89188872002106A8FFF777FC91
:10B3A0002CE00C210898484365494018807A4021D8
:10B3B00008430C2208995143614A89188872152064
:10B3C000694608730020079001265C48001F807AB8
:10B3D00080005F4A115806A888470546002D01D015
:10B3E0005C4807900AE05548001F807A8000584A60
:10B3F000115806A88847079000E000BF00BF002E44
:10B4000016D003A906A8079A00F057F86846007BF3
:10B4100012280DD100BF0C21089848434849401814
:10B42000807A012802D00898FEF712FF00BF00BF03
:10B4300000BF76E501218140474A12688A434649A8
:10B440000A607047F8B505460E46424FBF1C0024FF
:10B450002EE01C2060433D494018807EFF2826D105
:10B460003078022814D01C2060434018807E0221CE
:10B4700088431C216143354A891888761C21614321
:10B480008918084610300722314600F094F80BE086
:10B490001C2060432D494018807E410849001C2033
:10B4A00060432A4A801881762C70002702E0641CD1
:10B4B000072CCED300BF3846F8BDF8B504460D467C
:10B4C00016461E48001F0768324629462046B847E0
:10B4D000F8BD02460020704770B505460E4631465D
:10B4E0002846FEF7D2FE0446002C02D100BF00BF62
:10B4F0000446204670BD02460020704770B50546E0
:10B500000E4631462846FEF71FFF0446002C02D1A6
:10B5100000BF00BF0446204670BD014600207047B2
:10B5200070B505462846FEF731FF0446002C02D1CF
:10B5300000BF00BF0446204670BD00001C2900204B
:10B540000C290020F8280020E02800201C280020DA
:10B5500078B801004180000014210020034610B596
:10B560000B439B070FD1042A0DD308C810C9121F23
:10B57000A342F8D018BA21BA884201D9012010BDDF
:10B580000020C04310BD002A03D0D30703D0521CB3
:10B5900007E0002010BD03780C78401C491C1B1BE1
:10B5A00007D103780C78401C491C1B1B01D1921E4B
:10B5B000F1D1184610BDF8B5042A2CD3830712D058
:10B5C0000B78491C0370401C521E83070BD00B786C
:10B5D000491C0370401C521E830704D00B78491C81
:10B5E0000370401C521E8B079B0F05D0C91ADF0049
:10B5F0002023DE1B08C90AE0FAF7C6FDF8BD1D4688
:10B6000008C9FD401C46B4402C4310C0121F042A38
:10B61000F5D2F308C91A521EF0D40B78491C0370F6
:10B62000401C521EEAD40B78491C0370401C521E69
:10B63000E4D409780170F8BD01E004C0091F0429B1
:10B64000FBD28B0701D50280801CC90700D0027095
:10B65000704700290BD0C30702D00270401C491E5E
:10B66000022904D3830702D50280801C891EE3E7E8
:10B670000022EEE70022DFE7002203098B422CD3F1
:10B68000030A8B4211D300239C464EE003460B4332
:10B690003CD4002243088B4231D303098B421CD394
:10B6A000030A8B4201D394463FE0C3098B4201D386
:10B6B000CB01C01A524183098B4201D38B01C01ABE
:10B6C000524143098B4201D34B01C01A5241030935
:10B6D0008B4201D30B01C01A5241C3088B4201D3E4
:10B6E000CB00C01A524183088B4201D38B00C01A91
:10B6F000524143088B4201D34B00C01A5241411AB8
:10B7000000D201465241104670475DE0CA0F00D09A
:10B710004942031000D34042534000229C46030993
:10B720008B422DD3030A8B4212D3FC22890112BA19
:10B73000030A8B420CD3890192118B4208D38901F1
:10B7400092118B4204D389013AD0921100E0890909
:10B75000C3098B4201D3CB01C01A524183098B42EA
:10B7600001D38B01C01A524143098B4201D34B01D3
:10B77000C01A524103098B4201D30B01C01A524136
:10B78000C3088B4201D3CB00C01A524183088B42BD
:10B7900001D38B00C01A5241D9D243088B4201D346
:10B7A0004B00C01A5241411A00D201466346524131
:10B7B0005B10104601D34042002B00D54942704730
:10B7C00063465B1000D3404201B50020C046C0462E
:10B7D00002BD704770477047754600F023F8AE46CB
:10B7E000050069465346C008C000854618B020B51C
:10B7F000FAF7FAFC60BC00274908B6460026C0C527
:10B80000C0C5C0C5C0C5C0C5C0C5C0C5C0C5403D18
:10B8100049008D4670470446C046C0462046FAF7A8
:10B820009CFC000000487047242900200149182092
:10B83000ABBEFEE726000200704730B47446641EBB
:10B840002578641CAB4204D3635D5B00E31830BC15
:10B8500018471D46F8E70000D3B401008BA2010091
:10B8600043A30100D9B40100F7B4010049A30100CA
:10B8700087A30100FDB401001BB501008DA30100E9
:10B8800001A4010021B50100FFFFFFFF2E2E5C2E59
:10B890002E5C2E2E5C2E2E5C2E2E5C536F757263EA
:10B8A000655C626C655C6465766963655F6D616E3D
:10B8B000616765725C6465766963655F6D616E6121
:10B8C0006765725F7065726970686572616C2E631E
:10B8D00000000000F4B8010000200020200100005A
:10B8E0000461010014BA0100202100206818000042
:10B8F000206101000024F4000000000000000000AE
:10B900000000FFFF00000000000000000000000039
:10B910000100000000000000000000000200000024
:10B9200000000000AD6B01000300000000000000FB
:10B93000AD6B01000400000000000000AD6B0100D1
:10B9400000000000000000000000000000000000F7
:10B9500000000000000000000000000000000000E7
:10B9600000000000000000000000000000000000D7
:10B9700000000000000000000000000000000000C7
:10B9800000000000000000000000000000000000B7
:10B9900000000000000000000000000000000000A7
:10B9A0000000000000000000000000000000000097
:10B9B0000000000000000000000000000000000087
:10B9C0000000000000000000000000000000000077
:10B9D0000000000000000000000000000000000067
:10B9E0000000000000000000000000000000000057
:10B9F0000000000000000000000000000000000047
:10BA00000000000000000000000000000000000036
:04BA10000000000032
:04000005000160C1D5
:00000001FF
