:020000040001F9
:1060000000370020F16101000B6201000D62010008
:106010000000000000000000000000000000000080
:106020000000000000000000000000000F620100FE
:106030000000000000000000116201001362010076
:106040001562010015620100156201001562010070
:106050001562010000000000599B010085680100E5
:106060001562010015620100156201001562010050
:106070001562010015620100156201001562010040
:106080001562010029790100156201001562010005
:10609000B579010015620100B782010015620100A7
:1060A0001562010015620100000000000000000000
:1060B00000000000000000000000000000000000E0
:1060C00000F002F800F048F80CA030C80838241896
:1060D0002D18A246671EAB4654465D46AC4201D120
:1060E00000F03AF87E460F3E0FCCB646012633420A
:1060F00000D0FB1AA246AB46334318476445000064
:1061000084450000103A02D378C878C1FAD8520703
:1061100001D330C830C101D504680C60704700005D
:106120000023002400250026103A01D378C1FBD8B3
:10613000520700D330C100D50B60704710B57829E5
:1061400002D103F0C1FE10BD002010BD1FB5C04636
:10615000C0461FBD10B510BD04F0FAF91146FFF797
:10616000F5FF00F07CF904F012FA03B4FFF7F2FF38
:1061700003BC04F017FA0000401E00BF00BF00BFC0
:1061800000BF00BF00BF00BF00BF00BF00BF00BF17
:1061900000BFF1D170470000401E00BF00BF00BF2C
:1061A00000BF00BF00BF00BF00BF00BF00BF00BFF7
:1061B00000BFF1D17047000070B505460C46164689
:1061C00002E00FCC0FC5103E102EFAD2082E02D3DB
:1061D00003CC03C5083E042E07D301CC01C5361FEE
:1061E00003E021782970641C6D1C761EF9D270BD05
:1061F00003210C4802680A4302600B4802680A4304
:1062000002600A4880470A480047FEE7FEE7FEE7CB
:10621000FEE7FEE7FEE7000006480749074A084B8D
:106220007047000024050040540500404D62010005
:10623000C16001000027002000370020002F00204F
:10624000002F002019491848086070471848018C31
:10625000C9B2012927D1818C090724D1018D0906F2
:106260000A0F03D1828D1206120F0CD00A0F012AD9
:1062700003D1838D1B061B0F05D0032A09D1828D04
:106280001206120F05D10C4B0A4A5A60DA130B4B57
:106290009A61090F042906D1808D0006000F02D1F2
:1062A00007490120886070470024F4000020002086
:1062B000C00F00F0DFFF07C000050040006C004089
:1062C00000060040BFF34F8FFE49FD48C860BFF392
:1062D0004F8FFEE7BFF34F8FFA49F948C860BFF30D
:1062E0004F8FFEE7BFF34F8FF649F548C860BFF305
:1062F0004F8FFEE710B500F02CFB10BD10B5F24833
:106300004188F24800F0DEFE00280FD008280DD0AA
:10631000EF4988420AD0EF49884207D0BFF34F8F38
:10632000E849E748C860BFF34F8FFEE710BD002A79
:1063300007D0BFF34F8FE349E148C860BFF34F8FE9
:10634000FEE700207047F8B5044603F0E9F8022C98
:1063500001D0032C17D1DC4E3078002813D0002058
:106360003070684603F036FBD54CD64D002805D07A
:10637000BFF34F8FEC60BFF34F8FFEE7009800280C
:1063800002D001203070F8BD34DF0028FBD0BFF30D
:106390004F8FEC60BFF34F8FFEE7F8B5074602F072
:1063A0003EFD3946C94800F0C5FD3946CA4800F0EF
:1063B000B7FC384600F094FF3888C14DC14EC24C3E
:1063C00010280CD011282DD0192807D1C3A003F014
:1063D00045FDB879002801D100F03BFBF8BD00F085
:1063E00038FBC3A003F03AFDB420608001210022F5
:1063F0000904606801F08BFB002805D0BFF34F8FC4
:10640000F560BFF34F8FFEE701210022C903A068AA
:1064100001F07DFB0028E1D0BFF34F8FF560BFF3A3
:106420004F8FFEE7B6A003F019FD684603F0D2FADD
:10643000002805D0BFF34F8FF560BFF34F8FFEE705
:106440000098002802D001202070F8BD34DF002819
:10645000FBD0BFF34F8FF560BFF34F8FFEE79CB0CB
:1064600001F05AFF0026AB4B06220521304600966C
:1064700001F0A4FA924C934D002805D0BFF34F8F42
:10648000EC60BFF34F8FFEE7A34A0121A34801F060
:1064900015FB002805D0BFF34F8FEC60BFF34F8F83
:1064A000FEE79F4A01219F4801F008FB002805D024
:1064B000BFF34F8FEC60BFF34F8FFEE79A49012087
:1064C00003F0D1FB002805D0BFF34F8FEC60BFF382
:1064D0004F8FFEE795A003F0C1FC002350229649A0
:1064E000092001F0B7FE002805D0BFF34F8FEC6004
:1064F000BFF34F8FFEE768460096067060DF002806
:1065000005D0BFF34F8FEC60BFF34F8FFEE78B4892
:1065100001F0C1FE002805D0BFF34F8FEC60BFF340
:106520004F8FFEE7864801F0BEFE002805D0BFF37E
:106530004F8FEC60BFF34F8FFEE703F073F8002836
:1065400005D0BFF34F8FEC60BFF34F8FFEE70127FD
:106550006846077303A802F0B6F8002805D0BFF319
:106560004F8FEC60BFF34F8FFEE701A8023004F0BD
:1065700028F81E206946C880087AE121384308407F
:106580000C30DF210840694608720720487210204D
:1065900088726C4800900F716B4802F005F9002872
:1065A00005D0BFF34F8FEC60BFF34F8FFEE7112094
:1065B000694608720A2265A102A87CDF002805D07E
:1065C000BFF34F8FEC60BFF34F8FFEE7624878DF79
:1065D000002805D0BFF34F8FEC60BFF34F8FFEE76D
:1065E000FF209130009669460196088042004A805B
:1065F0008E80C88068467ADF002805D0BFF34F8FB1
:10660000EC60BFF34F8FFEE706216846534A0170E6
:106610005168106892681191109012923C2101A863
:1066200003F014FE0220019068464772878103211F
:106630000490018410A80990002101A801F02DF90F
:10664000002805D0BFF34F8FEC60BFF34F8FFEE7FC
:1066500043482821C663066446648664C66441488C
:10666000067006720182B4214182032118A80172CA
:1066700010961196139610A8149606711AA81290E7
:1066800001200146103110A801730020014610A816
:1066900041730020014610A881730120014610318A
:1066A00010A8C1730020014610A8017401460748D4
:1066B00000F068FC00285AD0BFF34F8FEC6053E025
:1066C0000400FA0500ED00E0042000204C24002026
:1066D00004300000013400003424002074696D652A
:1066E0006F7574206F63637572730D0A000000008C
:1066F000636F6E6E65637465642E2E2E0D0A000046
:10670000646973636F6E6E656374696E672E2E2E97
:106710000D0A0000E4200020F5620100082000209E
:10672000FD6201000C2000200C24002073746172B3
:1067300074206872730D0A00BC2300209B63010063
:10674000476301002F630100052000204E6F726433
:1067500069635F48524D000041030000E8A5010055
:10676000E423002020240020BFF34F8FFEE7012008
:1067700001461596169617961896103118A8199670
:10678000417001200146103118A881700020014697
:1067900018A8C17001200146103118A8017110A875
:1067A0000776642118A8017015A92D4800F0E3FAB6
:1067B000002805D0BFF34F8FEC60BFF34F8FFEE78B
:1067C0004021684603F042FD26A1684601F0A2F888
:1067D00001200146103108A801770020014608A8D1
:1067E0004177684600F0A7F9002805D0BFF34F8F26
:1067F000EC60BFF34F8FFEE70520C00301900F2030
:1068000000040096029003960496059603216846BC
:106810000173194881896846C18107741748069039
:10682000684600F02AFD002805D0BFF34F8FEC60CA
:10683000BFF34F8FFEE7124873DF002805D0BFF388
:106840004F8FEC60BFF34F8FFEE700F0CBF840DFD7
:106850000028FCD0BFF34F8FEC60BFF34F8FFEE7F3
:10686000342400204E6F7264696353656D69636FF1
:106870006E647563746F72004C240020E562010041
:106880002024002047480168002961D010B500216C
:10689000016045488068454A0121C0B251604B21E2
:1068A00009014843FF2103F0D3FC41004018FF30A9
:1068B0000F303F4980B2884201D3642136E03D4A1F
:1068C000904209D9081A3A214843642103F0CEFCCA
:1068D0006421081AC1B229E0374B984209D9101A2D
:1068E00018214843A02103F0C1FC2A21081AC1B293
:1068F0001CE0324988420AD9181A0C214843FF216A
:106900002D3103F0B3FC1221081AC1B20EE02C4A5B
:1069100090420AD9081A06214843FF21553103F055
:10692000A5FC0621081AC1B200E00021254800F0AC
:10693000C6FA00280BD0082809D02349884206D07F
:106940002249884203D022A25321FFF7BBFC10BD8D
:10695000704770B5224801244460134818214160F3
:10696000104E00253560046007202ADF002803D080
:1069700017A26921FFF7A6FC032107202BDF0028BF
:1069800003D013A26C21FFF79DFC072026DF00280F
:1069900003D00FA26F21FFF795FC35600348046018
:1069A00070BD0000007100400075004000700040A4
:1069B000B80B0000540B0000B40A00008809000066
:1069C00034080000342400200430000001340000AA
:1069D0002E2E5C626174746572792E630000000073
:1069E0000073004010B52049032088631F4C2049E4
:1069F0002246002047DF002803D01EA25521FFF7C2
:106A000061FC012045DF002803D01AA25921FFF7BD
:106A100059FC1B480021416081600921016119492D
:106A20000120C860194B184A1A60194A1060194BA6
:106A300082079A60194A184BD36100BF00BF00BF9C
:106A40002060184B164A1A6100BF00BF00BF0860E3
:106A500010BD12490020C8610A49012048600D4953
:106A60008007886070470000400700500C600040BD
:106A7000409100402E2E5C6C65642E630000000087
:106A80000095004000900040841E000040950040AA
:106A90000092004000050050031F01000065004007
:106AA000031E13000C650040F0B58FB014461D4660
:106AB0000E00074604D179A26D210020FFF702FCE9
:106AC000002C04D175A26E210020FFF7FBFB0020F3
:106AD0000090019002900390049005906946069002
:106AE0000A7802210A4369460A70012208A98A70BD
:106AF00069460F8407902A780A776A784A77897FEF
:106B0000F9221140891CE72211404A0852006946C7
:106B10008A7708A9099107A90A910B900C906946F8
:106B20008C85C8850C866A480D9609AA0088149B36
:106B3000A2DF0FB0F0BD30B585B004460120694634
:106B4000887164488880624A01A90120A0DF00287A
:106B50007ED1228825463C35002A08D05E48009028
:106B60002B465E486168FFF79FFF002870D122899D
:106B7000002A08D05A4800902B465A48E168FFF78F
:106B800093FF002864D1228A002A08D0564800903A
:106B90002B4656486169FFF787FF00287CD1228B7E
:106BA000002A08D0524800902B465248E169FFF76E
:106BB0007BFF002870D1228C002A08D04E4800901C
:106BC0002B464E48616AFFF76FFF002864D1228D83
:106BD000002A08D04A4800902B464A48E16AFFF74D
:106BE00063FF002858D1206B002829D0027869461D
:106BF0000A720188FF22120211400A0A69464A728B
:106C0000FF220168120411400A0C69468A72016869
:106C10002B460A0E6946CA7202790A73027A4A73CF
:106C200001890A0A69468A7380680822000CC873C1
:106C30003548009002A93548FFF736FF00282BD1D0
:106C4000606B00280BD03249009102792B4600E09E
:106C500022E001682F48FFF727FF00281CD1A06B16
:106C6000002818D0027869460A7242884A72120ACD
:106C70008A728288CA72120A0A73C0884873000A2C
:106C80008873254800902B46072202A92348FFF766
:106C90000BFF002800D1002005B030BD2E2E5C2E49
:106CA0002E5C2E2E5C2E2E5C2E2E5C536F75726326
:106CB000655C626C655C626C655F73657276696366
:106CC00065735C626C655F6469732E63000000002D
:106CD000102000200A18000012200020292A00009D
:106CE0001A200020242A000022200020252A00004B
:106CF0002A200020272A000032200020262A000017
:106D00003A200020282A000042200020232A0000E8
:106D10004A2000202A2A000052200020502A000089
:106D200008B50A88102A1AD0112A1AD0502A1BD165
:106D3000027D002A18D0891D0A8843899A4213D1FE
:106D40000A8B022A10D10268002A0DD0CA7E8B7EDF
:106D500011021943C907C90F07D0002106E089882D
:106D600001E00021C943418208BD01210091026870
:106D70006946904708BDF0B5054693B0086828609D
:106D80000020C043688208792875FF2028740127F5
:106D90000E4668468773634981812A1D03A93846D8
:106DA000A0DF00287ED1287DF921002400280BD007
:106DB000012002461032684601940271727B4271D2
:106DC00082790A40921C8271059406940794089473
:106DD00009940A946A460B94107D022210436A4675
:106DE00010752A7D002A02D01022104301E0EF2204
:106DF00010406A461075287D002800D001A80A902E
:106E0000012268468272484B03810094B37B037071
:106E1000F37B43708078F9210840801CF7210840FB
:106E2000EF2738404108490068468170317B017482
:106E300002A80C9068460E940F940D900287448728
:106E4000828704A81090A888AB1D0CAA05A9A2DF10
:106E5000002832D1B06800282DD001206946887200
:106E6000324808810094307C08700020487088788F
:106E7000F9210840801CF7210840384040084000B4
:106E80006946887011A8B16800F03EFD02A90C9116
:106E900069460E940F940D9108874C87888711A836
:106EA000109000E009E02A46E8880E320CA9A3DF22
:106EB000002802D100E0EC81204613B0F0BD33B4CD
:106EC00086B004466946227C097F00208A4222D08F
:106ED0000125684605822174E08807AB04AA0021D9
:106EE000A4DF002817D1608A1149884216D0207D7E
:106EF000002813D000200090019002906946039072
:106F00000D82E2880A808D70888004A8029007A80C
:106F10000390608AA6DF08B030BC704708B030BC70
:106F2000082070470F180000192A000008290000E7
:106F3000FFFF000008B50A88102A17D0112A17D0C1
:106F4000502A18D1891D0A8883899A4213D10A8B45
:106F5000022A10D10268002A0DD0CA7E8B7E11024F
:106F60001943C907C90F07D0002106E0898801E04D
:106F70000021C943018408BD0121009102686946CE
:106F8000904708BDF0B5044697B0086820600879BE
:106F900060710020C04320840025222005554C202C
:106FA0000553012708A80E4687729A49684601854D
:106FB000A21D0AA93846A0DF00287DD10120014684
:106FC0001031684607950177317B4177817FF9223F
:106FD0001140891C817701950095029503950495D0
:106FE00006950178102001436846017007A80590B6
:106FF00008A887718849684681840895717B08A82C
:107000000170B17B41708178E7201140891C0140FB
:10701000394308A8817009A80B9008A80C900D9519
:107020000E950F9512AA0021204600F0ACF80146FB
:10703000684681861421C586018712A80F902346D1
:10704000E08808330BAA6946A2DF002838D1B0686F
:10705000002834D003950495059506950795089565
:1070600068460995017B02200143684601738771D8
:107070006A4981800095F17B0170317C4170807894
:10708000F9210840801CE721084041084900684672
:10709000817001A80C9068460E950F9510950D9083
:1070A000078745878787B06823461090D8881033B4
:1070B0000CAA03A9A2DF00E002E0002800D1002012
:1070C00017B0F0BD30B50546028C55488BB08242F2
:1070D00020D006AA284600F056F869460446888063
:1070E000002002900390049005902A890A810122D1
:1070F0008A72888101A8049006A80590288C02A9AC
:10710000A6DF002804D169468988A14200D00C205E
:107110000BB030BD08200BB030BD70B5054604463D
:107120004035A8890E46142807D12622A118881EAA
:1071300003F046F8A889401EA88180B241000919D1
:10714000401CA8818E8470BD40308089142801D0F5
:107150000020704701207047028C314B9A4202D1C7
:1071600041710020704708207047203081707047BF
:1071700003B482B001216A461180008A03AB00216A
:10718000A4DF04B07047F7B542790026002A00D08A
:1071900004262222135C0222002B00D01643CBB21D
:1071A000FF2907D901221643029A090A53709170E8
:1071B000032502E0029902254B7004464034A18960
:1071C000002901D0102216430027002919DDA91C2F
:1071D000142909D9A189C91B4A0079000918243149
:1071E000243002F0EDFF0CE0029B7A0012185B19CC
:1071F000928C1A70120A5A70CDB2A1897F1CB942C2
:10720000E5DCA089C01BA08102980670284603B067
:10721000F0BD00000D180000372A0000382A0000D9
:10722000FFFF000038B58349834A488890420FD059
:107230004A78824C521CD2B24A70237B934208D3C4
:107240007F4975DF002803D0A169002900D0884755
:1072500038BD00254D70217C002907D03B2176DF09
:10726000002803D0A169002900D08847616900295E
:10727000EED068460095884738BD70B502463CCAD6
:107280006E490E463CC68469436902698C614B6154
:10729000684C00250A612570006800280CD0018820
:1072A0002181418861818188A181C188E18164480F
:1072B0007ADF00280DD103E061487BDF002808D188
:1072C0000020C043608065705E4A00215E4800F087
:1072D000F5FB70BD10B55748406800F081FC10BD4B
:1072E000F8B5564C078800265249E389821C102FB6
:1072F00016D00D466D68112F22D0122F37D0502F87
:107300001DD1801D0188994219D1018B022916D106
:10731000C17E827E08021043C007C00F0DD11CE061
:107320008088488090890882D0894882108A888223
:10733000508AC8824E70002B01D100F04BF8F8BD86
:107340000020C04348804E70284600F049FC0028C9
:10735000F5D0A169002908D1F8BD284600F040FC0D
:107360000028F9D0A1690029F6D08847F8BD908897
:107370000882D0884882108988825089C88200F0AB
:1073800029F8F8BDF8B52B4E01883181418871810B
:107390008188B181C188F18129487ADF050010D147
:1073A0002A48012441880838028891420BD340883A
:1073B000814208D821484169002902D068460094DA
:1073C00088472846F8BD34701D49708875DF05462A
:1073D0007470F6E7F8B51D48184D428808380388E0
:1073E0000026144C69699A420AD34088824207D821
:1073F0000120002902D00090684688472670F8BD19
:107400002078002805D00029F8D0684600968847E3
:10741000F4E7607800280BD0A9680022606800F0CB
:1074200076FB0028EAD0A9690029E7D08847E5E77C
:107430006968F2E75C200020FFFF00009C24002028
:107440006420002025720100602000206C200020B4
:10745000FFB585B005460220864608980E9C02912D
:10746000009020780190002728883E46002840DDC3
:107470006868B100401801886A46118240885082CD
:10748000002203A904A865DF002833D16846017BE8
:10749000714520D1002F01D0002200E00222207887
:1074A000891841181F2951D8002F07D1401CC0B29C
:1074B000431C009A029923701154012721780098E7
:1074C0000A1803A904A865DF002813D169462078AB
:1074D000097B401820702888761CB042C8DC002F39
:1074E0000AD021780198019A091A0098491E8154FE
:1074F00002E0002000282AD107980290102086463A
:1075000008980E9C009020780190002728883E461D
:10751000002843DD6868B10042181188684601827E
:1075200051884182002203A904A865DF002836D1D2
:107530006846017B714523D1002F01D0002200E075
:1075400002222078891841181F2902D90C2009B07D
:10755000F0BD002F07D1401CC0B2431C009A029915
:10756000237011540127217800980A1803A904A850
:1075700065DF002813D169462078097B4018207008
:107580002888761CB042C5DC002F0AD021780198EB
:10759000019A081A0099401E885402E00020002831
:1075A000D5D1002009B0F0BDF7B582B00026054660
:1075B000167000681446002828D02879039F801C84
:1075C0001F2801D90C265FE11D2069460880B81CE0
:1075D0007DDF060018D12868022805D1684600889A
:1075E0001D2801D8092107E028790821002801D0A9
:1075F0001D2801D968460088421C3A7079702178AC
:10760000801C081820700026002E7DD16879002883
:107610001CD02078039F001D1F2876D8684679DF8C
:10762000002873D121780322481C20707A542178D5
:107630001922481C20707A54217868460088C9199C
:107640000870000A48702078801C20702989002961
:107650001ED001208446EA680398002A75D022785B
:1076600053189B1C1F2B50D81346521C491C2270C8
:10767000C15422786746511C2170875423782A8987
:107680001818E96802F038FD2078297A401820702F
:107690002869002815D00021415622788C46D01C3C
:1076A00003991F2831D8501C022320708B54227854
:1076B0000A23501C20708B5420786246431C237090
:1076C0000A54A88A002809D02846009406220221DC
:1076D0001430039BFFF7BCFE060071D1A88B002875
:1076E00009D028460094072203211C30039BFFF792
:1076F000AFFE060064D1A88C00280DD015221421FD
:1077000028460094243002E0BEE058E058E0039B95
:10771000FFF79EFE060053D1E86A002842D0227887
:1077200003999446921D1F2A00D94BE70288062A26
:1077300009D31923DB01734E9A4201D9B24202D117
:107740004788062F02D207262AE0A0E09F4201D9EF
:10775000B742F8D1B24205D0B74203D0BA4201D9FC
:10776000072691E06246521C052663462270CE54DD
:10777000237812265A1C2270CE54237802885B1874
:107780001A70120A5A702278921CD2B22270408863
:1077900051180870000A48702078801C207000265C
:1077A000002E71D1286B002830D00090007923780A
:1077B000801CC0B2811C5918039A1F2902D90C20C1
:1077C00005B0F0BD591C401C2170D0542178FF2316
:1077D000481C20705354009821780088891808703C
:1077E000000A48702078801CC0B2207000998B88F5
:1077F000002B0BD08968002949D080181A4602F066
:107800007BFC0098217800790818207028462030E9
:10781000017E002938D000956A6B039F002A39D079
:107820000025019000292FD90098416B0C20684356
:107830000E1830792178C01C785420781621401C0D
:10784000C0B2207039542078401CC1B221703088F9
:10785000C9190870000A48702078801CC0B22070D6
:10786000B288002A09D0B168002913D0C01902F0EB
:1078700043FC207831794018207001986D1C007EFF
:10788000EDB2A842D0D80026304605B0F0BD0720A2
:1078900005B0F0BD072005B0F0BD70B50D4692B043
:1078A00000216A46117007241171002812D0018945
:1078B000002905D0C168002902D00978490702D4FF
:1078C000204612B070BD02A9FFF76EFE0028F8D165
:1078D00002AE00E00026002D0BD028890028EFD151
:1078E00001AA0AA92846FFF75FFE0028E9D10AAAE3
:1078F00000E00022684603790178304672DF12B05A
:1079000070BD0000FFFF00000A78027049784170E6
:107910000220704770B504460D46084602F0CAFBC7
:107920002080656070BD0000F8B5FF490020086048
:1079300048608860C860FD4908604860FC4E346952
:10794000601C36D0FB48002740687169401A050268
:107950002D0A28204443B06822189068A84215D800
:10796000B3692D1AC719546A002B0AD0116AD0695D
:107970009847002808D0FF21EFA26431FEF7A2FC4F
:1079800002E0D169106A8847601CE2D1B178F078D2
:10799000814206D1401CC0B2F070022801D1002003
:1079A000F0700006F049800D0F500120EF490005EE
:1079B0000860F8BD10B500F0FEF910BDFFB581B04C
:1079C0000F4616461D46980775D1002D73D001202D
:1079D000E74940040860E74940108860E64988604C
:1079E000E648012444602F20FEF7C6FBE34884608C
:1079F000CF4C002060612F20FEF7BEFB00202071DD
:107A00000A98A0612770A560002F16D02846283854
:107A10002C46103CF90704D000212830283401609E
:107A200021707A0809D0002181622823195550302D
:107A3000503401602170521EF6D128204743791935
:107A4000BB4B032058700022D96008460A701830DA
:107A50004A708E704860344618256C430A722518A7
:107A60004A728E72CD600A744A7460198E744861CD
:107A7000501E18619A700120C149DA700005086033
:107A8000C0490A68C024120A120222430A60BE4991
:107A90000860A84901988860BC4A1068FF24240245
:107AA000A0430324A40320431060486858610020C9
:107AB00005B0F0BDFFE7072005B0F0BD70B49C4DE8
:107AC000AC68002C12D0002A13D0002811D02D78D9
:107AD0000023002D07DD28265E43A659002E0BD07B
:107AE0005B1CAB42F7DB70BC0420704770BC082005
:107AF000704770BC07207047282501265D436651FA
:107B00002C19E2616160036070BC00207047F0B422
:107B1000874B9C68002C0CD01D78A84201D2052907
:107B200002D2F0BC07207047282545436659012E34
:107B300002D0F0BC082070472C196468012C13D0C7
:107B40000026934D6C68E405E40D1DD0103C0DD566
:107B500027073F0F083FBF08BF007D19ED69A40745
:107B6000E40EE540AC090AE00E46EAE7A508894FB5
:107B7000AD00ED192D68A407E40EE540AC09E4B2B0
:107B8000012C26D0032C26D002249446DB68E20088
:107B9000D5186B78AA781C465B1C9A4200D100234A
:107BA0002A789A4219D018226F6854433A1914D08F
:107BB0000124146050605F4840681661D160906095
:107BC0006046506169496B7020050860F0BC002078
:107BD00070470024D9E70124D7E7F0BC04207047A0
:107BE000534A9168002909D01378984201D307209D
:107BF000704728234343C958012901D00820704702
:107C0000F0B4634B59680424C905C90D00291BD081
:107C100010390BD50D072D0F083DAD08AD00EB1841
:107C2000DB698907C90ECB40990908E08B08594DDB
:107C30009B005B191B688907C90ECB409909C9B223
:107C400001291FD003291FD00221D268C9008A1838
:107C5000517895780B46491C8D4200D10021167849
:107C600000258E4212D0182756687B43F3180DD09A
:107C700002241C60586051703C49E00408602846AA
:107C8000F0BC70470021E0E70121DEE72046F0BCB0
:107C9000704770B4264A9068002814D03C4B58684E
:107CA000C105C90D042000291ED010390ED50C07BE
:107CB000240F083CA408A400E318DB698907C90E57
:107CC000CB4099090BE0082070BC70478B08314C01
:107CD0009B001B191B688907C90ECB409909C9B2C3
:107CE000012959D0032959D00221D268C9008A1824
:107CF000517894780B46491C8C4200D100211578AC
:107D000000248D42E0D0182655687343EB18DBD071
:107D100003201860001F58605170012013490005AE
:107D20000860204670BC70474011014000110140BE
:107D300074200020001501402E2E5C2E2E5C2E2E6D
:107D40005C2E2E5C2E2E5C536F757263655C6170C9
:107D5000705F636F6D6D6F6E5C6170705F74696D85
:107D600065722E63000000009020002000E200E019
:107D700080E100E040130140001301400010014089
:107D800080E200E014E400E000E100E010E400E044
:107D900000ED00E000E400E00021A6E70121A4E7F7
:107DA000FE494968016000207047401A0002000A3D
:107DB000106000207047F0B5002087B0C0430390EA
:107DC000F748416901918378C4780269A34211D0D0
:107DD0005B1CDBB28370022B01D1002383701B0676
:107DE000F04C9B0DE358009359180902090A4161B0
:107DF000012101E000210091E948069204914078B8
:107E0000411EC9B20291002870D0E548C900C2687D
:107E10008F183E787978B1427BD01820704379680A
:107E2000761C0818B978F6B2B14200D10026016874
:107E3000022902D0032969D15AE04068282102466C
:107E4000D74B4A43996852180592127E002A5DD09A
:107E50001C69A4462546621C44D0844207D02546AE
:107E6000282254436218546A621CF6D13AE0601C1E
:107E700038D0A54223D1604628225043C84B401831
:107E8000406A1861401C1AD10120C74940040860AB
:107E9000C64940108860C6498860C64901204860CC
:107EA0002F20FEF769F9C34901208860BC480021F2
:107EB00041612F20FEF760F9B949002008712820A0
:107EC0004443B748282380685D4321188A68496A7B
:107ED0002B1859624B1C05D0282359430818816878
:107EE000891881600599002008760FE018E010E0FD
:107EF000AB4B1869411C09D09A68002128246043C3
:107F000080180176406A441CF8D118617878B04234
:107F100083D10298411EC9B20291002800D074E7B3
:107F20009F4801690698814201D0012000E00020AD
:107F300002900498002829D001980024009A8446D1
:107F4000491C21D096488668954928200B695843DA
:107F500080198568954202D9A91A816014E0521BE4
:107F60002C19002585600576456A0D614169002957
:107F700008D067463F193F023F0AC7600161039975
:107F8000416203936D1CDFD1012002900398844964
:107F900000900869069049784A1ED2B201920029E1
:107FA00071D07F498B684A690492C968059101992B
:107FB000CA000599551881E00099491C06D0009A1D
:107FC00028215143C9184C6A00941EE029781822D0
:107FD0004A436C68491CC9B2A4182970AA78914216
:107FE00001D1002129706268282151432668C918EF
:107FF000012E67D10E7E002E64D1A668CE60E668A1
:108000000E6126694E6164690C62CC68049E6A4FF9
:10801000A61B3602360ABE4203D20C6934198C60A4
:108020000AE0049E341B24020E69240AA64201D9E8
:10803000341B00E000248C600024CC600C6101241F
:108040000C76A41E4C6228215143C9188C46411C51
:1080500014D061468C6828214143C91889688C4234
:108060000ED828214143C91889680C1B2821414397
:10807000C9188C606146486210461FE010461DE03A
:108080000146039003E02AE00391716AE41B4E1C51
:108090000BD028264E43F618B768A742F4D32827FA
:1080A0004F43FF18BF683F1BB7606646B460644625
:1080B0006162039928246143C9184A620099491CE6
:1080C00000D079E729786A789142FAD1019A511E55
:1080D000C9B20191002A00D069E731490861304CEA
:1080E00006992069884202D1029900293CD0411C9E
:1080F0003CD02B49282250438A688018866827483C
:1081000045684F69E81B0402240A0879E41C00282A
:1081100013D10120254900044860254948602749BA
:1081200040000860264908602249012008602F208D
:10813000FEF722F81A4901200871B44200D23446F1
:10814000E01900021F49000A086014494968401BF1
:10815000491B0902090A0002C91C000A814203D90D
:10816000012019494004086007B0F0BD01200E4904
:10817000400408600D49401088600D4988600D4E2C
:10818000012575602F20FDF7F7FFB56000252F2032
:108190006561FDF7F1FF257107B0F0BD00150140E5
:1081A000742000209020002080E100E04013014076
:1081B0000013014000100140FFFF7F0080E200E05B
:1081C00000E100E04015014000E200E010B5084683
:1081D0001146FEF77FF810BDF8B53F4C2078002817
:1081E00037D02069002807D00025E068002805D096
:1081F0000026002D04D013E00125F6E70126F8E75C
:10820000684651DF052806D0002806D033A2692130
:10821000FEF758F804E0012502E02169009888473C
:10822000002E12D1608869460880A06861DF0528A9
:1082300006D0002806D029A28021FEF743F804E0EA
:10824000012602E0E168A0688847002DD8D0002E02
:10825000CFD0F8BD002901D10720704730B48C077A
:1082600002D0072030BC70471B4CA16062802949B6
:10827000636010DF0028F5D101202070162026DF72
:1082800030BC704711DF002801D0012100E000213F
:10829000114A11707047002803D00F49C8600020B0
:1082A00070470E207047002803D00B49086100205A
:1082B00070470E20704710B507484068002808D066
:1082C0008047002804D0FF2104A23331FDF7FAFFD4
:1082D00010BDFFF781FF10BD982000202E2E5C2ED0
:1082E0002E5C2E2E5C2E2E5C2E2E5C536F757263D0
:1082F000655C73645F636F6D6D6F6E5C736F6674E6
:108300006465766963655F68616E646C65722E632F
:1083100000000000CD81010008B500200090072377
:10832000092208210A2000F068F808BD10B50446AB
:10833000C0B200F045F8204610BD70B506460D46A7
:1083400008A001F08BFD0024002D06D9315D06A0A8
:1083500001F084FD641CAC42F8D302A001F07EFD64
:1083600070BD00000D0A0000307825303258200022
:10837000354881680129FCD100218160334880693A
:10838000C0B27047F8B5304D0446A8680F460126C4
:1083900001280CD02046641E002807DB7D20C00089
:1083A000FDF7FAFEA8680128F4D100E00026002CB1
:1083B00004DB0020A8602548806938703046F8BD8D
:1083C0002249C8612048C1690129FCD10021C1614D
:1083D000704702780123002A0ED030B41B4C1A4992
:1083E0000025E261CA69012AFCD1CD61C25C5B1C37
:1083F000002AF6D130BC70477047F0B4144C032704
:108400008D002D192F6000259E00361935600F4E06
:10841000F1607361049B0121002B09D083001B19BB
:108420001F6093001B191D603261B0600948C16272
:108430000948706204203060084881600160024889
:108440008560F0BC7047000000210040002500401E
:10845000000700504025004000509D0000200040D3
:1084600000207047F0B587B00D46074614206946D6
:10847000888268780C214843F94E05AA8019008942
:108480006946AADF002838D1687818214843F54C9E
:1084900069460019001D8A8A01F0DEFD002868780F
:1084A00006D0182148432158002912D0EE4E11E081
:1084B0000C2141438919897A89071ED41821484320
:1084C00000190021016041608160C160016141616A
:1084D00013E0E64E69468A8A22506878182148439C
:1084E0000019001D6946FDF767FE687818214843AA
:1084F0000119342318223846B047002007B0F0BDD8
:1085000070B50C46014660781822D64D504340198C
:10851000342301F0ECF9002806D161781822514388
:108520006A58521C00D16A5070BDF0B440781823CC
:108530004343CC4CCA4E0C270021E55878438019A0
:108540000A46002D07D0867A770604D5B60602D4EF
:108550001919091DAAB20089A9DF002800D0C44852
:10856000F0BC7047002806D0FF2101704170817077
:10857000C17000207047BF487047FFB5BE488BB040
:108580000068149F1D461646002856D0502F54D818
:1085900001200690FF20694648738873C873002045
:1085A00008730870044604970595A1B208AAB34859
:1085B00001F009F9002806D1082208A90B9801F05A
:1085C0004BFD002817D0641C072CEED36846847B33
:1085D000FF2C32D00C98042810D0A9481C21281A4E
:1085E00001F036FE0127072829D204A80190A548EA
:1085F000002E12D016E068468473E7E7502F03D0B0
:1086000040206946087002E0202069460870C0B228
:1086100003210843694608704AE039464268A14090
:1086200011420AD03A464168A2409143416020205D
:10863000694608700698002831D10FB0F0BD924805
:108640001821281A01F004FE00280BD0854C1821AF
:10865000281B01F0FDFD002811D04020694608705C
:108660000FB0F0BD04A801902021684601700021E0
:1086700041731C2044438248201805900FE03020AD
:108680006946087000204873CF737549897A890755
:1086900005D420606060A060E060206160610C989B
:1086A0006946032808780CD00221084369460870FF
:1086B00004A8714B01901B6803A8324698470FB07D
:1086C000F0BD3843F3E7F1B584B0049800284DD0ED
:1086D000694800240460847201270C3887726B4D4E
:1086E0000581FF26C67201F071FF6948644EC465BA
:1086F000046644668466C46604671C20604385196A
:108700002846113001F055FF1021284601F09CFD4C
:10871000FF2129740022A976D2432A8359483A4678
:108720004368A240934343605A480155641C072C98
:10873000E3D35021684681800721C18056480090CC
:108740004E49684600F0BCFF00280DD14D4C277003
:108750000498007800280CD069468888C988484366
:1087600081B2464801F004F905B0F0BD414805B0BA
:10877000F0BD0025A9B202AA404801F024F8002863
:1087800009D11C206843801900231C2202A901F092
:10879000AEF8002803D00021217005B0F0BD6D1C9B
:1087A000072DE7D305B0F0BD364A1278002A09D06C
:1087B000304A002804D0002902D00B68002B03D1D6
:1087C000104670473548704710B42B4A1468002C87
:1087D00002D010BC324870471360CC8894800C895A
:1087E000D4804B891381097991720021017010BCEA
:1087F000084670472349294B097800290BD00028E7
:1088000003D00178002906D101E01A4870471A49BF
:108810000A68002A01D11846704730B44078002811
:108820000BD10F4A947A012C07D01846A30702D522
:108830001089091D7EDF30BC704730BC1948704775
:1088400010B4104A154B1278002A39D09A1D00280E
:108850002AD0002928D00278002A31D127E0000050
:10886000AC25002094250020819801001398010078
:10887000418000000E800000B8250020C0200020AC
:10888000B8240020B02000207C250020FFFF00003D
:1088900038250020B82000207B85010008800000DA
:1088A000048000001080000010BC10467047FA4C95
:1088B00000222468002C03D0407800280BD102E06D
:1088C00010BC18467047F548807A012803D043074A
:1088D00004D5012005E010BCF1487047400602D5E0
:1088E0000220086000E00A6010BC00207047ED4ADA
:1088F0001378ED4A002B06D0931D002801D00029E3
:1089000003D11846704710467047F0B40C68002C2D
:1089100006D08C68002C03D0007800280CD102E02F
:10892000F0BC18467047DC480068002804D00023DB
:108930001A461846DD4D19E0F0BC104670471C245D
:1089400044436419A67EF60705D18E689700F4515A
:10895000D74EB054521CA67EB60704D410349F00E4
:108960000E685B1CF451401C072805D20C799C4210
:1089700002D90C7B9442E2D80B710A73F0BC002040
:108980007047CC487047C7490A78C749002A0BD0BE
:10899000002803D00278002A06D101E0C6487047BB
:1089A000BD4A1268002A01D10846704730B5857863
:1089B00083B0072D0ED21C20BC4968434018807E2E
:1089C000FF2807D0A9B26A46BC4800F0FCFE0400AC
:1089D00003D00BE0B24803B030BD5021684600F030
:1089E000C7FF040002D1284600F01FFC204603B058
:1089F00030BDAC49AC4A0B78002B03D0002803D122
:108A0000901D704710467047F0B5007883B000287D
:108A100014D1A1480068002810D00020A34F0446BC
:108A20001C216143CE19B17EFF2924D0A1B26A4630
:108A3000A24800F0C8FE050003D01BE0104603B0BA
:108A4000F0BD5021684600F093FF050012D130467A
:108A5000113001F0AEFD1021304601F0F5FBFF2092
:108A60003074B076681E30838E4801214268A14080
:108A70008A4342602846641C072CD1D303B0F0BD62
:108A800030B5044687480D460178874883B00029F1
:108A90002AD0811D002C26D0002D24D02178002939
:108AA00022D17D49096800291ED060787C490028C0
:108AB00019D17A48807A012815D0A078072812D2D7
:108AC0001C225043794A8018807EFF280BD0A96869
:108AD00000290ED06A68002A0BD0142A09D22878FF
:108AE000012803D005E0084603B030BD744801F00A
:108AF00003FBA1786A46714800F065FE2878714949
:108B000080000A5821466846904703B030BD30B512
:108B1000054664480C460178634883B000291ED09E
:108B2000811D002D1DD0002C1BD02978002916D1C5
:108B300059490968002912D0A878072814D21C21A5
:108B400048435A494018807EFF280DD068780C2190
:108B5000524A41438918897A890708D45A4803B090
:108B600030BD084603B030BD4D4803B030BDA168EC
:108B7000002910D1616814290DD2217801290AD168
:108B800018214843514918224018001DA0606878F8
:108B9000504308586060A9786A46484800F013FEC0
:108BA00020784B4980000A5829466846904703B010
:108BB00030BD3C490A783C49002A17D0002803D030
:108BC0000278002A12D101E03B487047324A12680D
:108BD000002A0BD0807807280AD21C214843334949
:108BE0004018807EFF2803D03248704708467047FF
:108BF0002B487047344870473348704732487047B5
:108C0000284A1378284A002B11D0931D002905D03B
:108C1000002803D00078002809D101E018467047E9
:108C20001D4B1B68002B02D00870002070471046B7
:108C30007047F0B50E4683B0044681786A461F48F7
:108C400000F0C1FD002825D160780C21134F484366
:108C5000C019807A80063FD4022E3DD0012E3DD02F
:108C60001C4DA0781C2148431049002341181C22A8
:108C70006846A847002833D0022E0BD020780C215C
:108C8000484305494018807A0E4980000A58214619
:108C90006846904703B0F0BDB8250020AC25002001
:108CA00010800000B020002008800000B8240020C0
:108CB000B8200020908000000E800000C02000201E
:108CC00098250020F4A50100918000009425002043
:108CD00004A6010061840100F84DC2E7F84DC0E729
:108CE000022ED7D060780C214843C019817ADF2248
:108CF00011408172607818214843F2491C234118C1
:108D000018226846A847B9E770B5EF4D04462A789F
:108D1000EE48002A1AD0821D002C16D0002914D04B
:108D20002278002A12D1EA4A1268002A0ED0A078CE
:108D300007280CD21C225043E64A8018827EFF2A64
:108D400005D06278FF2A04D016E0104670BDE248D4
:108D500070BD0A78022A0FD01030072201F0CCF93A
:108D6000A178012088406968084368600221204694
:108D7000FFF75FFF002070BDD84870BD0B4610B5EF
:108D8000D1490A78D149002A18D08A1D002826D056
:108D9000002B24D00278002A10D1CD4A1268002A74
:108DA0000CD0CA1E8178FF290AD01C204143C94833
:108DB0000918887E800712D410310BE0084610BDD8
:108DC0004078FF280BD00C214843C5494118887AC8
:108DD000800704D50722184601F08EF900221046BC
:108DE00010BD10B582B0044681786A46BD4800F0D7
:108DF000EAFC002811D1607818214843B1491C23AE
:108E000040181822694600F072FDB148B649807AD0
:108E100080000A5821466846904702B010BDF0B560
:108E200004468FB000200990FF20A74902900978DE
:108E300000295CD0A6490968002958D069464870C5
:108E40008870C87000210E460791211D04913423BB
:108E5000694600208B8208700546A1482188C77AA0
:108E6000807A10290ED0A18802229D4B104209D091
:108E70009E4A914202D01A898A4203D16A46002151
:108E8000977051702288142A7ED023DC102A30D0AB
:108E9000112A7AD0132A2AD1132168460173A08897
:108EA000934A00217FDF002821D18D4A0423917A43
:108EB00019439172D37AFF2B68D016236C46237323
:108EC0008C4B58609860D86018615861202001432D
:108ED000917246E1172A79D07D49897A8B008649BB
:108EE000182A74D0522A02D1C958684688470FB050
:108EF000F0BD7E4F7A49C007C00FF8D002228A72B7
:108F00000122099211236A4600201373507008460B
:108F1000A28802810722A11D01F0EEF8607BC10743
:108F200006D041087548405CFF281DD002901BE028
:108F3000A41D0B970027002C0CD01C203946414360
:108F40006448072208181030214601F085F80028EF
:108F500009D023E038461C2148435E494018008B65
:108F60000B9988421AD1029702982A46C1B20C2066
:108F700042435B4808231018C172827A6C461A4338
:108F800082726846817002E03EE021E0E9E008AAD2
:108F9000544800F018FC002804D0E2E07F1C072FA2
:108FA000C9D3DAE0684640781821484345491C2374
:108FB0004018182208A900F09AFC4548807A8100E0
:108FC00049484258214608A89047CAE066E01EE199
:108FD000FD21434C0840A072010706D540060DD57F
:108FE00000216846FFF725FE08E068468078FF28E4
:108FF00004D000F01AF9FF20694688701020A07292
:10900000122069460873ACE0FF2F34D1E189314B5F
:1090100000201C224243D218128B8A4203D0401CEB
:109020000728F6D327E0C1B202900C202A4642431B
:109030002B4808231018C172827A6F461A43827235
:10904000684681700CAA274800F0BDFB002812D1A9
:1090500068464078182148431A491C2340181822B2
:109060000CA900F044FC1A48807A81001E4842583E
:1090700039460CA890470C20194968434018C07A1B
:10908000FF2806D01820294641430E480818001D25
:109090000790A0880022079981DF5EE01049FB223B
:1090A00010408872019014206946087301200990CD
:1090B000A079002824D0064653E0000081980100E2
:1090C000139801007C250020B020002008800000BB
:1090D000B8250020B8240020108000000780000080
:1090E000AC250020C020002004A60100FFFF0000E6
:1090F000BC2500209425002014A60100B8200020E3
:109100009D48E17A8170A17A41702146001D1422A8
:109110000C3100F0F1FF01989849400621D50198E3
:10912000082210438872FF2F07D020221043887234
:1091300000216846FFF77DFD13E002A80B908F49E0
:109140008F4800271C228F4B7A43D218927EFF2A29
:1091500022D07F1C072FF5D306460998002800D19E
:10916000C5E6894B68461B6803A93246984768469E
:10917000007B1228F4D10C20454380482818817ABE
:109180000129EDD001218172891E0181FF21C17267
:1091900001F01CFA0FB0F0BD087802280BD01C209B
:1091A0003A46424377481018FD2282761030072253
:1091B00000F0A2FF06E01C20394641437148081820
:1091C000FE2181760B9869460770029888700C2101
:1091D0006A4A69438918C8721C2148436949A289AF
:1091E00040180283E07A40070CD51C2068434718DA
:1091F000214610222031384600F07EFFB87E40081C
:109200004000B87601216846FFF713FDA9E75B4AE5
:1092100040242043907215206A461073C95868464E
:10922000884700289DD0594E9BE770B504461C2006
:109230005449604345182846113001F0BAF910210D
:10924000284601F001F8FF2129740020A976C043C7
:1092500028834F4801214268A1408A43426070BD83
:109260000020704700207047F0B587B00D4606908B
:1092700014206946888268780C2148433F4E05AA2D
:10928000801900896946AADF0027002837D168784D
:10929000182148433F4C69460019001D8A8A00F096
:1092A000DBFE0028687806D01821484321580029A1
:1092B00011D0394E10E00C2141438919897A890770
:1092C0001DD4182148430019076047608760C760B4
:1092D0000761476113E0314E69468A8A22506878F7
:1092E000182148430019001D6946FCF765FF68789E
:1092F000182148430119342318220698B0473846EC
:1093000007B0F0BD002070470020704770B50D46D3
:109310000146687818221F4C50430019342300F08E
:10932000E6FA002806D16978182251436258521C87
:1093300000D1605070BD0020704700207047F0B42D
:10934000407818234343134C0C4E0C270021E5585A
:10935000784380190A46002D07D0867A770604D50F
:10936000B60602D41919091DAAB20089A9DF00287E
:1093700000D00648F0BC70477C250020AC250020BA
:1093800043800000B8240020B82500204180000060
:10939000B02000209425002081980100139801003E
:1093A000FFB581B00F46FA4D049B03990646EA6863
:1093B000194303208E46002A01D0E96803E0002902
:1093C00011D00121E960039A012492002407009240
:1093D00007297BD20B007B441B79DB189F44760561
:1093E0001F324F7886000221ECE7EA484169491CA8
:1093F00005D02169406989B200F02AFF00E0606968
:109400002169401E89B24843216909048A0C2169F7
:1094100089B2794321DF002858D1022155E038462E
:1094200020DF002852D10399002901D003214CE00C
:109430000499002904D13178042942D1072144E05C
:10944000042142E0D3484169491C05D021694069A3
:1094500089B200F0FDFE00E060692169401E89B21A
:1094600041432069039A80B2784321DF00282DD13F
:1094700004990029E4D13178042925D021E0C54898
:109480004169491C05D02169406989B200F0E0FEBC
:1094900000E060692169401E89B248437188421822
:1094A00000981018226992B27A4352180099531802
:1094B00001461846049A21DF002807D13178042993
:1094C00002D0052101E001E00621E96005B0F0BD10
:1094D0002069718880B2784380188A08316921DF59
:1094E0000028F3D171460029EED1A7E7A9484169C8
:1094F000491C05D02169406989B200F0A9FE00E04D
:1095000060692169401E89B24843216989B200F02F
:109510009FFE20DF0028D9D10721E96005B0F0BD0A
:109520009D498A78012A7CD1F8B50024984D8C7029
:10953000EB68082B07D0022816D0032802D10D2093
:1095400000F0F2FAF8BD02280CD02C704878002800
:10955000F8D000F04EFA0028F4D01128F2D000F034
:10956000E3FAF8BDEC60F1E78B481422017851432F
:109570000A188748121D8188491C8DB28580107891
:10958000022805D15688A902B14201D3012600E084
:109590000026052801D1072B03D00021042802D082
:1095A00003E00121FAE7072B03D00027042802D0AB
:1095B00007E00127FAE75288A802904201D3002B66
:1095C0002DD000203943014331431CD0704D20463B
:1095D000EC6000F0A9FA7048142201785143091890
:1095E0000C71CC800C6101224C61CA600C81AC8092
:1095F0004178491E41700178491CC9B201700A299D
:1096000001D30A390170644840780028A9D000F0DD
:10961000F0F90028A5D01128A3D0A0E701E001208F
:10962000D0E77047F8B50020594B5B4C9880D86064
:1096300020706070A0700146012514224A4312195F
:109640001071D0801061D5605061491C10810A29C9
:10965000F3D34F4900204F4F488078694F4E401C4C
:1096600005D0306981B2786900F0F2FD00E07069E0
:109670003169801E89B248434549002288604848C4
:109680008A8002600281828142810820C8607869F4
:10969000401C05D0306981B2786900F0D9FD00E046
:1096A00070693169401E89B24843316989B200F05E
:1096B000CFFD20DF002802D13549A5700D70F8BD1F
:1096C000F8B5044632480F46007800281DD0002C1B
:1096D0001DD0002F1BD02068002818D001252D0791
:1096E000A688286980B2864230D8102E2ED3E08812
:1096F000009000282AD027484169491C09D02969CF
:10970000406989B200F0A4FD04E00820F8BD0E20F5
:10971000F8BD68692969401E89B248431C4B00990D
:109720009D6871434B19984210D3012000070069CE
:1097300080B2814208DD012000070069314680B215
:1097400000F086FD002901D1B00701D00720F8BD47
:109750000F484388012B25D0114819017D600E1850
:109760003B60756022684250A0883081E08870813B
:10977000A088E1880022484301210907521C0C6996
:1097800092B2A4B284420FD20C69A4B2001B0CE0C6
:10979000C820002000100010C42500200000001088
:1097A000902600200420F8BD00200C69A4B26519A1
:1097B0000C69A4B28442E1D9E4485B1C8560B281A3
:1097C00043800020F8BDE14B1B78002B05D000281A
:1097D00001D0002A03D10E2070470820704730B412
:1097E0000468002C0DD1DA4B1D68002D09D04568A6
:1097F0001889414369185D8945435868281888428B
:1098000002D830BC072070471460516030BC002083
:109810007047F8B50C46CD490978002907D0002CCF
:1098200007D0002805D00168002917D103E00820DF
:10983000F8BD0E20F8BDC6490D68002D0ED04E892A
:109840000D8949686E43761841688E4206D9002A10
:1098500004D0954202D3D618AE4201D90720F8BDF4
:1098600025461D43AD0701D1890701D01020F8BD61
:109870000093134601462246022000F02EF9F8BD5F
:10988000F8B50C46B1490978002907D0002C07D05B
:10989000002805D00168002917D103E00820F8BD91
:1098A0000E20F8BDAA490D68002D0ED04E890D89F5
:1098B00049686E43761841688E4206D9002A04D062
:1098C000954202D3D618AE4201D90720F8BD2546ED
:1098D0001D43AD0701D1890701D01020F8BD0093C9
:1098E000134601462246052000F0F7F8F8BDF8B50A
:1098F00007469648164600780D46002807D0002DEA
:1099000007D0002F05D02868002817D103E00820D1
:10991000F8BD0E20F8BD8E4C206800280ED060895E
:1099200021896268484382186868824206D9002EFD
:1099300004D0B14202D3F2188A4201D90720F8BDFF
:1099400039461943890701D1810701D01020F8BD9C
:10995000C1183246384600F0CFFB00962868002236
:10996000000124583B4603212846A0470020F8BDAB
:10997000F8B5044675480E460078002805D0002C3E
:1099800005D0206800281BD103E00820F8BD0E2078
:10999000F8BD6F4900250868002811D048890A8958
:1099A0004968504343186068834209D9830701D04E
:1099B0001020F8BD401A114600F04AFC002901D0E1
:1099C0000720F8BD3346002221460420009500F010
:1099D00084F8F8BD5D490978002906D0002806D032
:1099E0005C494978016000207047082070470E20CC
:1099F0007047F8B5574914230A780F205A43541872
:109A0000241D524922788F88E668022A24D0012535
:109A10002D07042A33D0052A1DD1286981B230468A
:109A200000F016FC0146A38828699A1980B24843C1
:109A3000101A820860881818861928694B1C80B291
:109A40005843801B83082046FFF7AAFC002802D158
:109A5000404901228A70F8BDB80262882169121A51
:109A60000918A3883018181801239B029A4202D2C1
:109A7000920821DFEAE7FF22013221DFE6E7A3684F
:109A8000334819010818018942894068B04203D15E
:109A900060885143814218D0022B16D0286981B2C8
:109AA000304600F0D5FB0146286980B24843301AA1
:109AB000820828694B1C80B2584363889B19C01ADE
:109AC00083082046FFF76CFCC0E7286981B2304666
:109AD00000F0BEFBC01920DFB8E7F8B51D4C069EAC
:109AE00065780A2D1ED027787D19EDB20A2D01D395
:109AF0000A3DEDB214277D432D1928716A6108686B
:109B000049682961E860EB802E81A1780020002956
:109B100004D1FFF76EFF112800D100206178491CA5
:109B20006170F8BD0420F8BD38B502460948142319
:109B30000178074C59430818C36801791B01E458A0
:109B4000C388009343690C30A04738BDC82000206B
:109B500090260020C4250020F0B5B84883B00169E4
:109B60000091B74A0021D1630191B6494A78002A91
:109B70006FD9019814214843B249019C4A68896809
:109B8000821801200346A3400B425AD0D168032714
:109B9000CB4300994B4011680B4000219C463F0489
:109BA00005468D401C462C420FD0D66834462C42C8
:109BB00051D03C46AE43D660A34D8E0075192E6839
:109BC000BE432E602E6826432E60491C2029E7D311
:109BD0009A490969009B594025D00B430093D168ED
:109BE000CC4311685C400C40002103468B40254665
:109BF0001D4212D0D5682E461E4230D003263604B0
:109C00009D43D560904B8D00ED182F6803231B04F6
:109C10009F432F602B6833432B60491C2029E4D3DA
:109C2000604620438446009B60469168984301400B
:109C3000644650682340184003460B4301D0126924
:109C4000904701987F49401CC0B2019049788842F2
:109C50008FD303B0F0BD012464042E43ABE701268B
:109C600076041D43CDE7002901D08A0701D00720E3
:109C7000704710B5734A0B46516010700021517047
:109C8000916014214143184600F0E0FA00206F492A
:109C9000C04388606E48402101606E484268FF23DF
:109CA0001B049A430B04D21842606B4801600020E9
:109CB00010BDF0B4844663484568002D08D0002BE1
:109CC00009D044780678B44208D3F0BC0420704729
:109CD000F0BC08207047F0BC072070470F461426E0
:109CE00017436643AF5176193361B26071606146C4
:109CF0000C70611C4170142100204C430122524B16
:109D000003273F042E59114681400E4206D08100A0
:109D1000C9180E68BE430E600E680E60401C2028F5
:109D2000F0D3F0BC0020704746494A68002A04D0AE
:109D30004B78984203D30720704708207047F0B44F
:109D40003F4B0026DE633D4B1D698F68002F02D11B
:109D50003E4CDB056360012383403B438B60142151
:109D600048438118CE600021012314588B401C42C7
:109D700016D02C461C4202D00324240405E0012402
:109D800064048618F7681F43F7602F4B8E00F318A2
:109D90001E6803273F04BE431E601E6826431E60E4
:109DA000491C2029E0D3F0BC00207047F0B4254ABC
:109DB0005568002D05D05178884205D3F0BC0720A6
:109DC0007047F0BC0820704714220346002153431B
:109DD000012403273F04EE5822468A40164207D04A
:109DE000194E8A0092191668BE43166016681660EE
:109DF000491C2029EFD3134984408868A043886018
:109E000003D101201149C0078860F0BC00207047D1
:109E10000C4B5A68002A04D05B78984203D3072081
:109E2000704708207047142358438018034A12696A
:109E30000068024000200A607047000000050050E2
:109E400040610040D820002000070050006300401F
:109E500080E200E000E400E000E100E00FB405492A
:109E600010B503AA029800F043FB10BC08BC04B074
:109E700018470000AC20002070B5044685690068D2
:109E8000C10601D5302600E02026C00707D070BDEE
:109E900062683046A1689047206A401C20626D1EAF
:109EA000F6D570BD70B5044685690078C00707D146
:109EB00070BD6268A16820209047206A401C206223
:109EC0006D1EF6D570BD000070B504460D462146E6
:109ED0001068C046C0462188090502D50F4A7A4459
:109EE00002E00E4A7A440E3223460021243305E074
:109EF0000607360F965D5E54491C00090028F7D10D
:109F000020780023000705D5702D03D0002901D04B
:109F100011320223204600F092FA70BD4207000081
:109F2000F3B50446002081B020622046E1688847EE
:109F300000287DD0252802D06268A16883E0454FC3
:109F400000257F442046E16888472028064608DB34
:109F5000312E06D2B81920380078002801D00543E8
:109F6000F0E7A80701D5042085430020E0610746FB
:109F7000A0612A2E0AD0304600F02EFB002827D000
:109F8000303EB80000190090866119E00298BA00CE
:109F9000121902C8916102902046E1688847012F9A
:109FA000064617D1E06900281FDA202085431CE00F
:109FB00000980A21806948430099801930388861E7
:109FC0002046E1688847064600F006FB0028EFD1EE
:109FD000012F0AD02E2E08D12046E1688847064678
:109FE000202005437F1C022FC3DBA069002803DA71
:109FF0004042A06101200543E80701D010208543BD
:10A00000002E25D030464138192803D80120C0023F
:10A0100005432036204625603146029A1546FCF756
:10A020008DF800280CD0012807D0ED1DE80800E0CD
:10A030000EE0C0000830029077E72D1D029574E70E
:10A0400062683046A1689047206A401C20626CE735
:10A05000206AFEBD06070000034610B50B439B07B0
:10A060000FD1042A0DD308C810C9121FA342F8D07B
:10A0700018BA21BA884201D9012010BD0020C0437E
:10A0800010BD002A03D0D30703D0521C07E00020E4
:10A0900010BD03780C78401C491C1B1B07D10378AA
:10A0A0000C78401C491C1B1B01D1921EF1D1184693
:10A0B00010BD000030B5441C03E00178401C0029AD
:10A0C0000DD08107F9D10B4BDD0104C8D11A9143A2
:10A0D0002940FAD0001B0A0603D0C01E30BD001B69
:10A0E00030BD0A0401D0801E30BD0902FCD0401EE4
:10A0F00030BD000001010101F8B5042A2CD383070B
:10A1000012D00B78491C0370401C521E83070BD0E1
:10A110000B78491C0370401C521E830704D00B7837
:10A12000491C0370401C521E8B079B0F05D0C91A97
:10A13000DF002023DE1B08C90AE0FCF73DF8F8BD6C
:10A140001D4608C9FD401C46B4402C4310C0121FD8
:10A15000042AF5D2F308C91A521EF0D40B78491C10
:10A160000370401C521EEAD40B78491C0370401C3B
:10A17000521EE4D409780170F8BD431A70B59342B9
:10A180001BD28918801804E0491E521E0B78401E0D
:10A1900003709307F8D106E010390B461038103AD7
:10A1A00078CB78C01038102AF6D203E0001F091FC0
:10A1B0000B680360121FF9D570BDFBF7FDFF70BD82
:10A1C000F8B5064614460843800707D0751AA5421D
:10A1D00019D20819102D13D2311907E03046FFF7B4
:10A1E000CCFFF8BD401E491E02780A70641EF9D2E9
:10A1F000F8BD471B2A463946FFF77EFF641B3846E9
:10A20000A542F6D3011B22463046FFF775FFF8BD85
:10A2100001E004C0091F0429FBD28B0701D502808D
:10A22000801CC90700D00270704700290BD0C307FB
:10A2300002D00270401C491E022904D3830702D5B4
:10A240000280801C891EE3E70022EEE70022DFE7A0
:10A25000002203098B4273D3030A8B4258D3030BAA
:10A260008B423CD3030C8B4221D312E003460B43B9
:10A270007FD4002243088B4274D303098B425FD3FF
:10A28000030A8B4244D3030B8B4228D3030C8B422B
:10A290000DD3FF22090212BA030C8B4202D3121211
:10A2A000090265D0030B8B4219D300E0090AC30BE6
:10A2B0008B4201D3CB03C01A5241830B8B4201D393
:10A2C0008B03C01A5241430B8B4201D34B03C01A7C
:10A2D0005241030B8B4201D30B03C01A5241C30AF4
:10A2E0008B4201D3CB02C01A5241830A8B4201D365
:10A2F0008B02C01A5241430A8B4201D34B02C01A4F
:10A300005241030A8B4201D30B02C01A5241CDD2F3
:10A31000C3098B4201D3CB01C01A524183098B423E
:10A3200001D38B01C01A524143098B4201D34B0127
:10A33000C01A524103098B4201D30B01C01A52418A
:10A34000C3088B4201D3CB00C01A524183088B4211
:10A3500001D38B00C01A524143088B4201D34B00FA
:10A36000C01A5241411A00D201465241104670476C
:10A370005DE0CA0F00D04942031000D34042534071
:10A3800000229C4603098B422DD3030A8B4212D331
:10A39000FC22890112BA030A8B420CD38901921163
:10A3A0008B4208D3890192118B4204D389013AD0A0
:10A3B000921100E08909C3098B4201D3CB01C01A75
:10A3C000524183098B4201D38B01C01A5241430988
:10A3D0008B4201D34B01C01A524103098B4201D376
:10A3E0000B01C01A5241C3088B4201D3CB00C01AE3
:10A3F000524183088B4201D38B00C01A5241D9D2FB
:10A4000043088B4201D34B00C01A5241411A00D27B
:10A410000146634652415B10104601D34042002B77
:10A4200000D54942704763465B1000D3404201B5F6
:10A430000020C046C04602BD704770477047FFB558
:10A4400004460D4681B0243000902168880604D56A
:10A450001022E0699143216000E00120A84201DD63
:10A46000471B00E000270498A1697A191018081A00
:10A47000A0612078C00602D42046FFF7FDFC00262C
:10A4800008E003986268A168805D9047206A401CDC
:10A49000761C206204988642F3DB2078C0060AD539
:10A4A0002046FFF7E9FC06E06268A168302090478B
:10A4B000206A401C206238467F1E0028F4DC07E03A
:10A4C00000986268A168405D9047206A401C206245
:10A4D00028466D1E0028F3DC2046FFF7E3FC2078B9
:10A4E000000602D5022005B0F0BD0120FBE7000008
:10A4F000084B70B50D467B4400F013F8044628461F
:10A5000000F022F8002802D00020C04370BD204691
:10A5100070BD000033DEFFFF01694A1C026108784C
:10A52000704700B58FB00291002105910549019354
:10A5300079440391114604906846FFF7F1FC0FB08F
:10A5400000BD0000E5FFFFFFC068802108407047A4
:10A55000754600F023F8AE46050069465346C0082C
:10A56000C000854618B020B5FBF756FE60BC00273A
:10A570004908B6460026C0C5C0C5C0C5C0C5C0C5CF
:10A58000C0C5C0C5C0C5403D49008D4670470446A2
:10A59000C046C0462046FBF7E8FD00000048704773
:10A5A000A026002001491820ABBEFEE726000200CD
:10A5B00070470021017041708170C170017141715B
:10A5C0007047002101804180818070470021018017
:10A5D000418081808171704730380A2801D2012082
:10A5E00070470020704700000D1801000F1801008F
:10A5F0000A18010061920100658401006592010062
:10A600006992010005930100018501000993010091
:10A610000D930100379301002B8501003B9301004E
:10A620003F930100303132333435363738394142C7
:10A6300043444546403058003031323334353637A4
:10A640003839616263646566403078000400000850
:10A6500000000000000000020001000010000000E7
:10A6600080A6010000200020E40000000461010039
:10A6700064A70100E42000201C16000020610100F6
:10A680000024F400000000000000000000000000B2
:10A6900000000000000000000000000000000000BA
:10A6A00000000000000000000000000000000000AA
:10A6B000000000000000000000000000000000009A
:10A6C000000000000000000000000000000000008A
:10A6D000000000000000000000000000000000007A
:10A6E000000000000000000000000000000000006A
:10A6F000000000000000000000000000000000005A
:10A700000000000000000000000000000000000049
:10A710000000000000000000000000000000000039
:10A720000000000000000000000000000000000029
:10A730000000000000000000000000000000000019
:10A740000000000000000000000000000000000009
:10A7500000000000000000000000000000000000F9
:04A7600000000000F5
:04000005000160C1D5
:00000001FF
