:020000040001F9
:10600000F8300020A1610100BB610100BD61010009
:106010000000000000000000000000000000000080
:10602000000000000000000000000000BF6101004F
:106030000000000000000000C1610100C361010018
:10604000C5610100C5610100C5610100C5610100B4
:10605000C561010000000000C5610100C5610100CB
:10606000C5610100C5610100C5610100C561010094
:10607000C5610100C5610100C5610100C561010084
:10608000C5610100C5610100C5610100C561010074
:10609000C5610100C5610100D96B0100C561010046
:1060A000C5610100C56101000000000000000000A2
:1060B00000000000000000000000000000000000E0
:1060C00000F002F800F040F80CA030C8083824189E
:1060D0002D18A246671EAB4654465D46AC4201D120
:1060E00000F032F87E460F3E0FCCB6460126334212
:1060F00000D0FB1AA246AB4633431847900C000071
:10610000B00C0000103A02D378C878C1FAD8520710
:1061100001D330C830C101D504680C60704700005D
:106120000023002400250026103A01D378C1FBD8B3
:10613000520700D330C100D50B6070471FB5C04671
:10614000C0461FBD10B510BD00F0EEFD1146FFF7B3
:10615000F5FF00F07AF900F006FE03B4FFF7F2FF56
:1061600003BC00F00BFE000070B505460C46164659
:1061700002E00FCC0FC5103E102EFAD2082E02D32B
:1061800003CC03C5083E042E07D301CC01C5361F3E
:1061900003E021782970641C6D1C761EF9D270BD55
:1061A00003210C4802680A4302600B4802680A4354
:1061B00002600A4880470A480047FEE7FEE7FEE71C
:1061C000FEE7FEE7FEE7000006480749074A084BDE
:1061D0007047000024050040540500408B62010018
:1061E000C1600100F8200020F8300020F8280020CD
:1061F000F82800202E482F49086070472E48008C50
:10620000C0B2012810D12C48808C0007000F0BD1A0
:106210002948806AF0210840402805D12648C06AF4
:10622000084201D1012070470020FCE72248008C81
:10623000C0B2012827D12048808C0007000F22D14E
:106240001D48806AF021084205D11B48C06A0842F7
:1062500001D1012070471848806AF02108401028B9
:1062600005D11548C06A084201D10120F2E7124861
:10627000806AF0210840302805D10F48C06A0842E2
:1062800001D10120E6E70020E4E710B5FFF7CEFFDB
:10629000002805D009480A494860C813094988619F
:1062A000FFF7ACFF002802D001200749886010BD2D
:1062B0000024F40000200020C00F00F0DFFF07C022
:1062C00000050040006C00400006004000BFBFF326
:1062D0004F8F64486449C860BFF34F8F00BF00BF51
:1062E000FEE703460C46224619466048FFF7EEFFDC
:1062F0001E2003210522120707231B02D218830048
:10630000D15000BF7047F0B593B0042103914C21E8
:106310006846018056480068060C5548008887B2D8
:106320001224FF200002304002122146641C514812
:1063300042542146641C4654FF2000023840021299
:106340002146641C4B4842542046611CCCB249494A
:106350000F5402911721684681803C2104A800F067
:10636000DEFC0020049001216846018303A9079107
:106370001090002104A800F043FB054600BF2B4607
:10638000002B05D000BF3CA2AB211846FFF79EFFB3
:1063900000BF14213B4800F0C2FC032039490870BB
:1063A000002048600872A02008820020488213B0B4
:1063B000F0BD10B5334873DF044600BF2346002B01
:1063C00005D000BF2CA2BF211846FFF77FFF00BFFA
:1063D0001E20012181402C4A916000BF10BD38B5BC
:1063E00000BF002350222949082000F0AEFB0546DB
:1063F00000BF2B46002B05D000BF1FA2CE211846A0
:10640000FFF764FF00BF00BF0020009000906846C7
:1064100060DF044600BF2346002B05D000BF16A254
:10642000D5211846FFF752FF00BF38BD10B540DF39
:10643000044600BF2346002B05D000BF0EA2DE217C
:106440001846FFF743FF00BF10BDFFF751FFFFF7EE
:10645000C6FFFFF758FFFFF7ACFF00BFFFF7E6FFEF
:10646000FCE700000400FA0500ED00E0EFBEADDE41
:1064700080100010042000202E2E5C6D61696E2EAD
:10648000630000008420002000050050342000201C
:10649000F7B584B004460F4606980678B01C1F284E
:1064A00003DC2079801C1F2802DD0C2007B0F0BD22
:1064B0001F20801B801E85B20295B11C781802A98E
:1064C0007DDF03900398002801D00398EEE7206851
:1064D000022808D168460089A84204DC09200190FE
:1064E000684605890BE0082001902079002804D037
:1064F0002079A84201DC257901E068460589681CFD
:10650000C2B23046711CCEB23A543046721CD6B27A
:106510000199395406980178A81C0818C1B2069848
:1065200001700020C2E7F8B505460C462078001D32
:106530001F2801DD0C20F8BD684679DF0646002ED5
:1065400001D03046F7E703212278501C2070A9546F
:1065500019212278501C2070A954207841196846CE
:10656000008800F08AFA2178401820700020E2E7C5
:10657000F8B505460F4616461C466868002801D146
:106580000720F8BD2078801C298840181F2801DDCD
:106590000C20F6E72878401CC1B22278501C2070ED
:1065A000B1542178481C207077542A882378981990
:1065B000696800F055FB2078297840182070002089
:1065C000DFE730B503461078C01C1F2801DD0C2022
:1065D00030BD02241578681C10704C550A241578BB
:1065E000681C10704C551578681C10704B550020B5
:1065F000EEE7FFB587B006461D46109C00200690CA
:1066000020780590002747E0B900706841180A8893
:106610006846028149884181002203A902A865DFFA
:1066200004900498002802D004980BB0F0BD68468E
:10663000017B099881422ED10698002801D00020C4
:1066400000E00220019020786946097B41180198FA
:1066500008181F2801DD0C20E7E70698002809D15B
:106660002078401C20702278511C08982170A85472
:10667000012006902078421903A902A865DF049042
:106680000498002801D00498CFE720786946097B58
:106690004018207000BF7F1C3088B842B4DC0698D8
:1066A000002806D021780598401C081AC1B2059828
:1066B00029540020B9E7FFB581B0074615460A9E68
:1066C000009602223846049B0299FFF792FF044687
:1066D000002C02D0204605B0F0BD009610222946BD
:1066E0003846049BFFF785FF0446002C01D0204666
:1066F000F1E70020EFE701460888062808DB088854
:106700001922D201904205DD0888E04A904201D06A
:10671000072070474888062808DB48881922D201DC
:10672000904205DD4888D94A904201D00720F0E721
:106730000888D64A904208D04888904205D00888F8
:106740004A88904201DD0720E3E70020E1E7F8B541
:1067500006460D4614462078801D1F2801D90C20BE
:10676000F8BD3046FFF7C7FF0746002F01D0384677
:10677000F6E705212278501C2070A95412212278B6
:10678000501C2070A95422785119308800F075F9F6
:1067900021784018207022785119708800F06DF926
:1067A0002178401820700020DAE7F8B505460E463B
:1067B00014462879801CC7B22078801CC0191F2875
:1067C00001DD0C20F8BD781CC1B22278501C20706D
:1067D000B154FF212278501C2070B15422789119B5
:1067E000288800F04AF9217840182070A8880028ED
:1067F0000EDDA868002801D10720E3E7AA882378E6
:106800009819A96800F02CFA20782979401820708E
:106810000020D7E7FEB507460E461446786B0028E1
:1068200001D10720FEBD0020019032E0796B0C22DF
:10683000019850430D182879801CC0B20090009830
:10684000401CC1B22278501C2070B154162122780D
:10685000501C2070B15422789119288800F00DF94D
:10686000217840182070A88800280EDDA86800282C
:1068700001D10720D6E7AA8823789819A96800F0E3
:10688000EFF920782979401820700198401CC0B297
:1068900001903820C15D01988142C7DC0020C1E72A
:1068A000F8B504460F4616460025002030702068D3
:1068B000002809D0324639462046FFF7E9FD054653
:1068C000002D01D02846F8BD6079002808D0314657
:1068D0003846FFF728FE0546002D01D02846F2E78E
:1068E000208900280BDD33463A4601212046083036
:1068F000FFF73EFE0546002D01D02846E3E720695C
:1069000000280BD000202169085632463946FFF78F
:1069100058FE0546002D01D02846D4E7A08A00285D
:106920000CDD3B4606220221204614300096FFF77C
:10693000C2FE0546002D01D02846C4E7A08B0028E2
:106940000CDD3B460722032120461C300096FFF752
:10695000B2FE0546002D01D02846B4E7A08C0028E1
:106960000CDD3B4615221421204624300096FFF70B
:10697000A2FE0546002D01D02846A4E7E06A0028C3
:1069800009D032463946E06AFFF7E1FE0546002DA0
:1069900001D0284697E7206B002809D032463946B7
:1069A000206BFFF702FF0546002D01D028468AE73D
:1069B0003820005D002809DD324639462046FFF7C1
:1069C00029FF0546002D01D028467CE728467AE7B6
:1069D00001460889002807D0C868002804D0C86884
:1069E00000780422104201D1072070470020FCE704
:1069F00001460889002801DD072070470020FCE7D8
:106A0000F3B593B00D46002112911191139800280F
:106A100014D01398FFF7DCFF0446002C02D0204668
:106A200015B0F0BD12AA09A91398FFF739FF044663
:106A3000002C01D02046F3E709AE00E00026002D2F
:106A400013D02846FFF7D4FF0446002C01D020467F
:106A5000E6E711AA01A92846FFF722FF0446002C09
:106A600001D02046DCE701AF00E0002710A8037941
:106A70003A46017A304672DFD2E702460A70FF20BA
:106A8000000210400012487002207047FFFF000013
:106A900070B506460C46154629462046FFF721FCF0
:106AA00070BDF8B559480078002800D1F8BD5848A5
:106AB0000068002801D1012000E00020054655486B
:106AC0000068002801D1012000E00020064600BF38
:106AD000002D14D1684651DF0446052C01D1012553
:106AE0000CE0002C06D000BF4BA269212046FFF726
:106AF000EDFB03E0464900980968884700BF002E77
:106B00001AD153480088009069465248006861DFF6
:106B10000446052C01D101260DE0002C06D000BF53
:106B20003DA280212046FFF7D1FB04E049480068E0
:106B300038490968884700BF002D02D0002E00D0D8
:106B400000E0C5E700BF00BFB0E7FFB581B00C466D
:106B500016461F46002C02D1072005B0F0BD204686
:106B60008107890F01D1012100E00021002901D115
:106B70000720F2E73748046035480680364807604A
:106B80003649019810DF0546002D01D02846E4E77C
:106B900001201E490870162026DFDEE710B511DF40
:106BA0000446002C01D0012000E0002017490870A5
:106BB000204610BD0146002901D10E20704715481E
:106BC00001600020FAE70146002901D10E2070473C
:106BD0000F4801600020FAE770B51F4800680028E0
:106BE00011D01D4800688047044600BF2546002D8F
:106BF00007D000BF08A2FF2133312846FFF766FB0C
:106C000000BF00BF01E0FFF74CFF70BD1C2000205B
:106C1000302000202C2000202E2E5C2E2E5C2E2ECC
:106C20005C2E2E5C2E2E5C536F757263655C7364F4
:106C30005F636F6D6D6F6E5C736F667464657669AC
:106C400063655F68616E646C65722E6300000000AE
:106C5000282000202420002020200020916A01000C
:106C6000F8B5042A2CD3830712D00B78491C037083
:106C7000401C521E83070BD00B78491C0370401C2C
:106C8000521E830704D00B78491C0370401C521E0F
:106C90008B079B0F05D0C91ADF002023DE1B08C914
:106CA0000AE0FFF761FAF8BD1D4608C9FD401C4621
:106CB000B4402C4310C0121F042AF5D2F308C91A9D
:106CC000521EF0D40B78491C0370401C521EEAD4AB
:106CD0000B78491C0370401C521EE4D409780170E3
:106CE000F8BD01E004C0091F0429FBD28B0701D5C0
:106CF0000280801CC90700D00270704700290BD0A9
:106D0000C30702D00270401C491E022904D3830726
:106D100002D50280801C891EE3E70022EEE70022F4
:106D2000DFE7704770477047754600F023F8AE46BE
:106D3000050069465346C008C000854618B020B516
:106D4000FFF742FA60BC00274908B6460026C0C5D6
:106D5000C0C5C0C5C0C5C0C5C0C5C0C5C0C5403D13
:106D600049008D4670470446C046C0462046FFF79E
:106D7000F4F90000004870479820002001491820CD
:106D8000ABBEFEE72600020070470000AC6D0100BC
:106D9000002000203400000004610100E06D0100CB
:106DA00034200020C4100000206101000024F40001
:106DB00002150112233445566778899AABBCCDDEA3
:106DC000EFF001020304C300000000000000000017
:106DD00000000000000000000000000000000000B3
:04000005000160C1D5
:00000001FF
