:020000040001F9
:1060000010360020C1610100DB610100DD6101008B
:106010000000000000000000000000000000000080
:10602000000000000000000000000000DF6101002F
:106030000000000000000000E1610100E3610100D8
:10604000E5610100E5610100E5610100E561010034
:10605000E561010000000000E5610100E56101006B
:10606000E5610100E5610100E5610100E561010014
:10607000E5610100E5610100E5610100E561010004
:10608000E561010011750100E5610100E5610100B4
:106090009D750100E56101009F7E0100E561010041
:1060A000E5610100E5610100000000000000000062
:1060B00000000000000000000000000000000000E0
:1060C00000F002F800F040F80CA030C8083824189E
:1060D0002D18A246671EAB4654465D46AC4201D120
:1060E00000F032F87E460F3E0FCCB6460126334212
:1060F00000D0FB1AA246AB463343184728210000C4
:1061000048210000103A02D378C878C1FAD8520763
:1061100001D330C830C101D504680C60704700005D
:106120000023002400250026103A01D378C1FBD8B3
:10613000520700D330C100D50B6070471FB5C04671
:10614000C0461FBD10B510BD02F032F81146FFF772
:10615000F5FF00F0E5F902F04AF803B4FFF7F2FFAB
:1061600003BC02F04FF80000401E00BF00BF00BF9C
:1061700000BF00BF00BF00BF00BF00BF00BF00BF27
:1061800000BFF1D17047000070B505460C461646B9
:1061900002E00FCC0FC5103E102EFAD2082E02D30B
:1061A00003CC03C5083E042E07D301CC01C5361F1E
:1061B00003E021782970641C6D1C761EF9D270BD35
:1061C00003210C4802680A4302600B4802680A4334
:1061D00002600A4880470A480047FEE7FEE7FEE7FC
:1061E000FEE7FEE7FEE7000006480749074A084BBE
:1061F0007047000024050040540500401D62010066
:10620000C16001001026002010360020102E002052
:10621000102E002019491848086070471848018C52
:10622000C9B2012927D1818C090724D1018D090622
:106230000A0F03D1828D1206120F0CD00A0F012A09
:1062400003D1838D1B061B0F05D0032A09D1828D34
:106250001206120F05D10C4B0A4A5A60DA130B4B87
:106260009A61090F042906D1808D0006000F02D122
:1062700007490120886070470024F40000200020B6
:10628000C00F00F0DFFF07C000050040006C0040B9
:10629000000600400120FB49C0038860BFF34F8F18
:1062A000FA49F948C860BFF34F8FFEE70120F5496E
:1062B000C0038860BFF34F8FF449F348C860BFF351
:1062C0004F8FFEE7F8B5F24CA06801F07DFA01258A
:1062D000ED03EC4EEC4F002807D0B560BFF34F8FB5
:1062E000EA48C760BFF34F8FFEE71321608876DF6F
:1062F000002807D0B560BFF34F8FE448C760BFF3F5
:106300004F8FFEE7F8BD10B485B0142069460882AF
:10631000DF49E04A488890422AD00978002927D0EE
:106320000021009101226B4601911A82DA4B1C88F0
:106330006B461C809A70998004A90291D7490391F9
:106340006946A6DF002813D0082811D0D449884216
:106350000ED0D44988420BD00120CA49C0038860BE
:10636000BFF34F8FC949C848C860BFF34F8FFEE7DE
:1063700005B010BC7047F0B5C54B01880124DA6840
:10638000E403C04DC04EC14F85B0944619293FD09B
:1063900012DC102921D0112921D17917184641800A
:1063A000604601F011FA00281BD0AC60BFF34F8F9C
:1063B000FE60BFF34F8FFEE7502936D052290ED131
:1063C000002211465888A9DF002808D0AC60BFF32E
:1063D0004F8FFE60BFF34F8FFEE78088588005B077
:1063E000F0BDAB48806801F0EFF9002806D0AC6042
:1063F000BFF34F8FFE60BFF34F8FFEE734DF0028FF
:10640000EDD0AC60BFF34F8FFE60BFF34F8FFEE760
:1064100080790028E3D134DF0028E0D0AC60BFF3FE
:106420004F8FFE60BFF34F8FFEE79B49801D0288B0
:1064300089888A42D3D1018B0229D0D1C17E807E46
:1064400009020143C807C00F18704CD090480022C1
:106450009549806801F04FF9002806D0AC60BFF381
:106460004F8FFE60BFF34F8FFEE789480521002262
:10647000C903C06801F03FF9002806D0AC60BFF343
:106480004F8FFE60BFF34F8FFEE7142069460882EE
:106490007F488049428894468A42A0D000780028EC
:1064A0009DD0002200920123694601927A480B8216
:1064B000008808808B708A8004A802907748039037
:1064C0006046A6DF00288AD0082888D07449884210
:1064D00085D07449884282D0AC60BFF34F8FFE6094
:1064E000BFF34F8FFEE7604601F06EF9002806D03B
:1064F000AC60BFF34F8FFE60BFF34F8FFEE7644881
:10650000806801F061F9002887D0AC60BFF34F8F3D
:10651000FE60BFF34F8FFEE710B500F079FA10BDB3
:1065200094B00020019002900320604A00041060A3
:10653000121D1060534C2069C00704D02069400828
:10654000C00703D004E00120019001E00120029087
:106550000020574B05220321009001F023F801256C
:10656000ED03494E494F002806D0A560BFF34F8F79
:10657000FE60BFF34F8FFEE74E4A01214E4801F007
:1065800091F8002806D0A560BFF34F8FFE60BFF3DF
:106590004F8FFEE7494A0021494801F083F800285F
:1065A00006D0A560BFF34F8FFE60BFF34F8FFEE7AD
:1065B000002350224349082001F040FC002806D067
:1065C000A560BFF34F8FFE60BFF34F8FFEE7002043
:1065D00069460390087303A860DF002806D0A56011
:1065E000BFF34F8FFE60BFF34F8FFEE7364801F0D9
:1065F00046FC002806D0A560BFF34F8FFE60BFF3B6
:106600004F8FFEE7314801F042FC002806D0A5601C
:10661000BFF34F8FFE60BFF34F8FFEE702990198E3
:10662000084309D134DF002806D0A560BFF34F8F9F
:10663000FE60BFF34F8FFEE71120694608740246E3
:1066400023A104A87CDF002806D0A560BFF34F8FEC
:10665000FE60BFF34F8FFEE70022029210206946D2
:10666000039208814881FF208A819130C88102A865
:106670007ADF002836D0A560BFF34F8FFE60BFF3EE
:106680004F8FFEE7000500500400FA0500ED00E022
:1066900004200020FFFF0000142000200823002019
:1066A00004300000013400008F0200000007005099
:1066B00064200020076301000C200020C562010057
:1066C00010200020A422002077630100196501003A
:1066D0004E6F726469635F506F7765725F4D676D6F
:1066E000740000000199604A60481E23002978D098
:1066F0000021116151619161D161116201700172DA
:106700002021018243825A486946888426315948AB
:1067100063DF002806D0A560BFF34F8FFE60BFF394
:106720004F8FFEE7544A09A90120A0DF002806D0B8
:10673000A560BFF34F8FFE60BFF34F8FFEE708AB3E
:10674000987900216B4607919A7FF9231A40921C91
:106750006B469A774A1C1207120F10321A774A1C9E
:106760001207120F10325A77019100910291039192
:10677000049106911A7812231A436B461A7007AADD
:1067800008AB059298723D486B46188508AB1120FE
:1067900008911870002058709878F9221040801CD9
:1067A000E72210404008400098700AA80C930B9014
:1067B0000D910E9114206B469886D9861887304823
:1067C0000F9031482F4B0BAA69468088A2DF002822
:1067D00013D0A560BFF34F8FFE60BFF34F8FFEE76E
:1067E000FFE70021116151619161D16111620322C2
:1067F00002700172A0210182438205216846017363
:106800003C2104A801F0DBFB5921684601801821D6
:1068100081801E48029001216846018303A80790E9
:1068200068461090002104A800F03BFE002806D026
:10683000A560BFF34F8FFE60BFF34F8FFEE70B489D
:1068400073DF002806D0A560BFF34F8FFE60BFF353
:106850004F8FFEE740DF0028FCD0A560BFF34F8FCD
:10686000FE60BFF34F8FFEE7E4220020F4220020F9
:1068700023150000128201000820002024150000CA
:106880000823002014200020042000201C230020C6
:10689000FFB581B00F46FB4D049B03990646EA689D
:1068A000194303208E46002A01D0E96803E000293D
:1068B00011D00121E960039A01249200240700927B
:1068C00007297BD20B007B441B79DB189F4476059C
:1068D0001F324F7886000221ECE7EB484169491CE2
:1068E00005D02169406989B201F06BFB00E0606965
:1068F0002169401E89B24843216909048A0C216933
:1069000089B2794321DF002858D1022155E0384669
:1069100020DF002852D10399002901D003214CE047
:106920000499002904D13178042942D1072144E097
:10693000042142E0D4484169491C05D021694069DD
:1069400089B201F03EFB00E060692169401E89B216
:1069500041432069039A80B2784321DF00282DD17A
:1069600004990029E4D13178042925D021E0C648D2
:106970004169491C05D02169406989B201F021FBB8
:1069800000E060692169401E89B24843718842185D
:1069900000981018226992B27A435218009953183D
:1069A00001461846049A21DF002807D131780429CE
:1069B00002D0052101E001E00621E96005B0F0BD4B
:1069C0002069718880B2784380188A08316921DF94
:1069D0000028F3D171460029EED1A7E7AA48416902
:1069E000491C05D02169406989B201F0EAFA00E04A
:1069F00060692169401E89B24843216989B201F06A
:106A0000E0FA20DF0028D9D10721E96005B0F0BD08
:106A10009E498A78012A7CD1F8B50024994D8C7062
:106A2000EB68082B07D0022816D0032802D10D20CE
:106A300000F0F9FAF8BD02280CD02C704878002834
:106A4000F8D000F055FA0028F4D01128F2D000F068
:106A5000EAFAF8BDEC60F1E78C4814220178514362
:106A60000A188848121D8188491C8DB285801078CB
:106A7000022805D15688A902B14201D3012600E0BF
:106A80000026052801D1072B03D00021042802D0BD
:106A900003E00121FAE7072B03D00027042802D0E6
:106AA00007E00127FAE75288A802904201D3002BA1
:106AB0002DD000203943014331431CD0714D204675
:106AC000EC6000F0B0FA71481422017851430918C3
:106AD0000C71CC800C6102224C61CA600C81AC80CC
:106AE0004178491E41700178491CC9B201701E29C4
:106AF00001D31E390170654840780028A9D000F004
:106B0000F7F90028A5D01128A3D0A0E701E00120C3
:106B1000D0E77047F8B500205A4C5C4DA080E0608B
:106B200028706870A8700146022314224A43521943
:106B30001071D0801061D3605061491C10811E29F2
:106B4000F3D30020504F60807869514E401C05D02F
:106B5000306981B2786901F034FA00E07069316916
:106B6000C01E89B24843A06000204A49A080086046
:106B700008818881488108610883888348830820C8
:106B8000E0607869401C05D0306981B2786901F015
:106B900018FA00E070693169401E89B248433169D2
:106BA00089B201F00EFA20DF002802D10121A9707C
:106BB0002170F8BDF8B5044632480F460078002829
:106BC0001DD0002C1DD0002F1BD02068002818D00D
:106BD00001252D07A688286980B2864230D8102E5C
:106BE0002ED3E088009000282AD027484169491C0C
:106BF00009D02969406989B201F0E3F904E008206D
:106C0000F8BD0E20F8BD68692969401E89B2484365
:106C10001C4B00999D6871434B19984210D3012079
:106C20000007006980B2814208DD01200007006989
:106C3000314680B201F0C5F9002901D1B00701D079
:106C40000720F8BD0F484388022B25D011481901B1
:106C50007D600E183B60756022684250A0883081CC
:106C6000E0887081A088E18800224843012109075B
:106C7000521C0C6992B2A4B284420FD20C69A4B225
:106C8000001B0CE01C20002000100010342300200A
:106C900000000010902500200420F8BD00200C69A1
:106CA000A4B265190C69A4B28442E1D9E7485B1C1F
:106CB0008560B28143800020F8BD70B4E34B1B783F
:106CC000002B19D000281AD0002A18D00368022BF4
:106CD0000FD2DF4C1E01A559002D0AD0456830198E
:106CE00004896143691845894068654328188842CA
:106CF00008D870BC0720704770BC0820704770BC73
:106D00000E2070471360516070BC00207047F8B5CA
:106D1000CE4C2478002C1DD000291DD000281BD07B
:106D20000468022C14D22501C94C6659002E0FD0DC
:106D30002D196E892C896D68664376194568AE42B7
:106D400006D9002A04D0944202D3D618A64205D907
:106D50000720F8BD0820F8BD0E20F8BD0C461C43E6
:106D6000A40701D1AC0701D01020F8BD0093134651
:106D70000A460146022000F02FF9F8BDF8B5B34CE1
:106D80002478002C1DD000291DD000281BD00468B9
:106D9000022C14D22501AE4C6659002E0FD02D19AD
:106DA0006E892C896D68664376194568AE4206D9AE
:106DB000002A04D0944202D3D618A64205D907204F
:106DC000F8BD0820F8BD0E20F8BD0C461C43A407F2
:106DD00001D1AC0701D01020F8BD009313460A463C
:106DE0000146052000F0F8F8F8BDF8B507469748C9
:106DF000164600780D4600281DD0002D1DD0002F0E
:106E00001BD02868022814D2914C00012158002977
:106E10000FD001194A8908894968424352186968A4
:106E20008A4206D9002E04D0B04202D3F218824220
:106E300005D90720F8BD0820F8BD0E20F8BD38465A
:106E40001843800701D1880701D01020F8BDC91868
:106E50003246384601F054F80096286800220001B6
:106E600024583B4603212846A0470020F8BD38B5EA
:106E7000044676480D460078002816D0002C16D01F
:106E8000206802281AD2724900010A58002A15D037
:106E900040184389018942684B4360689B188342CC
:106EA0000CD9830705D0102038BD082038BD0E202E
:106EB00038BD801A01F085F8002901D0072038BDBF
:106EC0000020024600902B462146042000F084F862
:106ED00038BD5E490978002906D0002806D05D49F2
:106EE0004978016000207047082070470E207047E5
:106EF000F8B5584914230A780F205A435418241D12
:106F0000524922788F88E668022A24D001252D076D
:106F1000042A33D0052A1DD1286981B2304601F0F8
:106F200050F80146A38828699A1980B24843101A7C
:106F3000820860881818861928694B1C80B258434B
:106F4000801B83082046FFF7A3FC002802D141499B
:106F500001228A70F8BDB80262882169121A0918E4
:106F6000A3883018181801239B029A4202D2920873
:106F700021DFEAE7FF22013221DFE6E7A368344898
:106F800019010818018942894068B04203D160881C
:106F90005143814218D0032B16D0286981B2304664
:106FA00001F00FF80146286980B24843301A820880
:106FB00028694B1C80B2584363889B19C01A830808
:106FC0002046FFF765FCC0E7286981B2304600F033
:106FD000F8FFC01920DFB8E7F8B51E4C069E6578AB
:106FE0001E2D1ED027787D19EDB21E2D01D31E3D1A
:106FF000EDB214277D432D1928716A61086849682C
:107000002961E860EB802E81A1780020002904D15D
:10701000FFF76EFF112800D100206178491C6170D4
:10702000F8BD0420F8BD38B502460A48142301789B
:10703000074C59430818C36801791B01E458C388F9
:10704000009343690C30A04738BD00001C2000208D
:107050009025002034230020FFB585B0054602208E
:10706000864608980E9C0291009020780190002797
:1070700028883E46002840DD6868B1004018018835
:107080006A46118240885082002203A904A865DF65
:10709000002833D16846017B714520D1002F01D0F3
:1070A000002200E002222078891841181F2951D8B7
:1070B000002F07D1401CC0B2431C009A02992370D4
:1070C00011540127217800980A1803A904A865DF44
:1070D000002813D169462078097B40182070288841
:1070E000761CB042C8DC002F0AD021780198019AA2
:1070F000091A0098491E815402E0002000282AD174
:10710000079802901020864608980E9C00902078E0
:107110000190002728883E46002843DD6868B100BA
:10712000421811886846018251884182002203A9D1
:1071300004A865DF002836D16846017B714523D15C
:10714000002F01D0002200E0022220788918411887
:107150001F2902D90C2009B0F0BD002F07D1401C17
:10716000C0B2431C009A0299237011540127217860
:1071700000980A1803A904A865DF002813D16946FE
:107180002078097B401820702888761CB042C5DC26
:10719000002F0AD021780198019A081A0099401E00
:1071A000885402E000200028D5D1002009B0F0BDAD
:1071B000F7B582B000260546167000681446002810
:1071C00028D02879039F801C1F2801D90C265FE155
:1071D0001D2069460880B81C7DDF060018D128688C
:1071E000022805D1684600881D2801D8092107E03A
:1071F00028790821002801D01D2801D96846008877
:10720000421C3A7079702178801C08182070002682
:10721000002E7DD1687900281CD02078039F001DA6
:107220001F2876D8684679DF002873D12178032299
:10723000481C20707A5421781922481C20707A54F6
:10724000217868460088C9190870000A48702078BB
:10725000801C2070298900291ED001208446EA68FC
:107260000398002A75D0227853189B1C1F2B50D8E6
:107270001346521C491C2270C15422786746511C87
:107280002170875423782A891818E96800F038FE9D
:107290002078297A401820702869002815D000210C
:1072A000415622788C46D01C03991F2831D8501C97
:1072B000022320708B5422780A23501C20708B5498
:1072C00020786246431C23700A54A88A002809D0FB
:1072D00028460094062202211430039BFFF7BCFECF
:1072E000060071D1A88B002809D0284600940722F7
:1072F00003211C30039BFFF7AFFE060064D1A88C6E
:1073000000280DD01522142128460094243002E0D4
:10731000BEE058E058E0039BFFF79EFE060053D105
:10732000E86A002842D0227803999446921D1F2AC9
:1073300000D94BE70288062A09D31923DB01734ED3
:107340009A4201D9B24202D14788062F02D20726BB
:107350002AE0A0E09F4201D9B742F8D1B24205D05D
:10736000B74203D0BA4201D9072691E06246521CC7
:10737000052663462270CE54237812265A1C2270AA
:10738000CE54237802885B181A70120A5A70227839
:10739000921CD2B22270408851180870000A4870BE
:1073A0002078801C20700026002E71D1286B0028C8
:1073B00030D0009000792378801CC0B2811C59180D
:1073C000039A1F2902D90C2005B0F0BD591C401C9E
:1073D0002170D0542178FF23481C2070535400980A
:1073E0002178008889180870000A48702078801C6D
:1073F000C0B2207000998B88002B0BD089680029BF
:1074000049D080181A4600F07BFD00982178007959
:107410000818207028462030017E002938D00095B9
:107420006A6B039F002A39D00025019000292FD9CB
:107430000098416B0C2068430E1830792178C01CED
:10744000785420781621401CC0B22070395420781E
:10745000401CC1B221703088C9190870000A4870F8
:107460002078801CC0B22070B288002A09D0B16890
:10747000002913D0C01900F043FD2078317940185D
:10748000207001986D1C007EEDB2A842D0D8002675
:10749000304605B0F0BD072005B0F0BD072005B0AF
:1074A000F0BD70B50D4692B000216A4611700724F8
:1074B0001171002812D00189002905D0C168002966
:1074C00002D00978490702D4204612B070BD02A943
:1074D000FFF76EFE0028F8D102AE00E00026002D76
:1074E0000BD028890028EFD101AA0AA92846FFF766
:1074F0005FFE0028E9D10AAA00E00022684603796D
:107500000178304672DF12B070BD0000FFFF00004E
:10751000F8B5FF490020086048608860C860FD49F0
:1075200008604860FC4E3469601C36D0FB48002778
:1075300040687169401A05022D0A28204443B0684A
:1075400022189068A84215D8B3692D1AC719546A31
:10755000002B0AD0116AD0699847002808D0FF2173
:10756000EFA26431FEF796FE02E0D169106A884707
:10757000601CE2D1B178F078814206D1401CC0B2E3
:10758000F070022801D10020F0700006F049800D53
:107590000F500120EF4900050860F8BD10B500F05C
:1075A000FEF910BDFFB581B00F4616461D4698077F
:1075B00075D1002D73D00120E74940040860E749E8
:1075C00040108860E6498860E648012444602F2026
:1075D000FEF7CAFDE3488460CF4C002060612F2095
:1075E000FEF7C2FD002020710A98A0612770A560F7
:1075F000002F16D0284628382C46103CF90704D016
:10760000002128302834016021707A0809D0002137
:107610008162282319555030503401602170521E68
:10762000F6D1282047437919BB4B0320587000221C
:10763000D96008460A7018304A708E704860344627
:1076400018256C430A7225184A728E72CD600A742E
:107650004A7460198E744861501E18619A70012036
:10766000C149DA7000050860C0490A68C024120ADE
:10767000120222430A60BE490860A8490198886046
:10768000BC4A1068FF242402A0430324A40320431F
:10769000106048685861002005B0F0BDFFE7072082
:1076A00005B0F0BD70B49C4DAC68002C12D0002A1F
:1076B00013D0002811D02D780023002D07DD2826B7
:1076C0005E43A659002E0BD05B1CAB42F7DB70BCAF
:1076D0000420704770BC0820704770BC07207047BA
:1076E000282501265D4366512C19E2616160036023
:1076F00070BC00207047F0B4874B9C68002C0CD005
:107700001D78A84201D2052902D2F0BC072070479B
:10771000282545436659012E02D0F0BC0820704749
:107720002C196468012C13D00026934D6C68E40575
:10773000E40D1DD0103C0DD527073F0F083FBF08B3
:10774000BF007D19ED69A407E40EE540AC090AE02D
:107750000E46EAE7A508894FAD00ED192D68A4078C
:10776000E40EE540AC09E4B2012C26D0032C26D06F
:1077700002249446DB68E200D5186B78AA781C4690
:107780005B1C9A4200D100232A789A4219D0182211
:107790006F6854433A1914D00124146050605F4854
:1077A00040681661D16090606046506169496B70B5
:1077B00020050860F0BC002070470024D9E70124B0
:1077C000D7E7F0BC04207047534A9168002909D0DC
:1077D0001378984201D30720704728234343C958A0
:1077E000012901D008207047F0B4634B5968042484
:1077F000C905C90D00291BD010390BD50D072D0F58
:10780000083DAD08AD00EB18DB698907C90ECB4018
:10781000990908E08B08594D9B005B191B68890783
:10782000C90ECB409909C9B201291FD003291FD025
:107830000221D268C9008A18517895780B46491CF4
:107840008D4200D10021167800258E4212D01827D3
:1078500056687B43F3180DD002241C6058605170A9
:107860003C49E00408602846F0BC70470021E0E78E
:107870000121DEE72046F0BC704770B4264A9068CC
:10788000002814D03C4B5868C105C90D04200029BC
:107890001ED010390ED50C07240F083CA408A400F4
:1078A000E318DB698907C90ECB4099090BE0082072
:1078B00070BC70478B08314C9B001B191B688907F3
:1078C000C90ECB409909C9B2012959D0032959D011
:1078D0000221D268C9008A18517894780B46491C55
:1078E0008C4200D10021157800248D42E0D018266A
:1078F00055687343EB18DBD003201860001F5860F5
:1079000051700120134900050860204670BC704783
:1079100040110140001101402C20002000150140C1
:107920002E2E5C2E2E5C2E2E5C2E2E5C2E2E5C536C
:107930006F757263655C6170705F636F6D6D6F6EA4
:107940005C6170705F74696D65722E630000000089
:107950004820002000E200E080E100E04013014008
:10796000001301400010014080E200E014E400E058
:1079700000E100E010E400E000ED00E000E400E0E1
:107980000021A6E70121A4E7FE4949680160002023
:107990007047401A0002000A106000207047F0B5DE
:1079A000002087B0C0430390F74841690191837874
:1079B000C4780269A34211D05B1CDBB28370022B36
:1079C00001D1002383701B06F04C9B0DE3580093FC
:1079D00059180902090A4161012101E000210091C1
:1079E000E948069204914078411EC9B202910028EC
:1079F00070D0E548C900C2688F183E787978B142E6
:107A00007BD0182070437968761C0818B978F6B2D4
:107A1000B14200D100260168022902D0032969D1B0
:107A20005AE0406828210246D74B4A4399685218C9
:107A30000592127E002A5DD01C69A4462546621C70
:107A400044D0844207D02546282254436218546A01
:107A5000621CF6D13AE0601C38D0A54223D16046C2
:107A600028225043C84B4018406A1861401C1AD164
:107A70000120C74940040860C64940108860C649D3
:107A80008860C649012048602F20FEF76DFBC3497E
:107A900001208860BC48002141612F20FEF764FB73
:107AA000B9490020087128204443B748282380683A
:107AB0005D4321188A68496A2B1859624B1C05D00E
:107AC0002823594308188168891881600599002086
:107AD00008760FE018E010E0AB4B1869411C09D0A4
:107AE0009A6800212824604380180176406A441C6B
:107AF000F8D118617878B04283D10298411EC9B29A
:107B00000291002800D074E79F48016906988142DD
:107B100001D0012000E0002002900498002829D024
:107B200001980024009A8446491C21D09648866812
:107B3000954928200B69584380198568954202D9D8
:107B4000A91A816014E0521B2C1900258560057666
:107B5000456A0D614169002908D067463F193F0217
:107B60003F0AC76001610399416203936D1CDFD135
:107B70000120029003988449009008690690497892
:107B80004A1ED2B20192002971D07F498B684A699E
:107B90000492C96805910199CA000599551881E0B8
:107BA0000099491C06D0009A28215143C9184C6AF3
:107BB00000941EE0297818224A436C68491CC9B217
:107BC000A4182970AA78914201D100212970626815
:107BD000282151432668C918012E67D10E7E002E38
:107BE00064D1A668CE60E6680E6126694E6164695C
:107BF0000C62CC68049E6A4FA61B3602360ABE424F
:107C000003D20C6934198C600AE0049E341B2402F0
:107C10000E69240AA64201D9341B00E000248C60BE
:107C20000024CC600C6101240C76A41E4C62282137
:107C30005143C9188C46411C14D061468C682821D8
:107C40004143C91889688C420ED828214143C9187C
:107C500089680C1B28214143C9188C606146486221
:107C600010461FE010461DE00146039003E02AE0A5
:107C70000391716AE41B4E1C0BD028264E43F61864
:107C8000B768A742F4D328274F43FF18BF683F1BAC
:107C9000B7606646B4606446616203992824614314
:107CA000C9184A620099491C00D079E729786A7896
:107CB0009142FAD1019A511EC9B20191002A00D015
:107CC00069E731490861304C06992069884202D140
:107CD000029900293CD0411C3CD02B49282250431A
:107CE0008A6880188668274845684F69E81B04023F
:107CF000240A0879E41C002813D101202549000436
:107D000048602549486027494000086026490860C6
:107D10002249012008602F20FEF726FA1A49012087
:107D20000871B44200D23446E01900021F49000A2B
:107D3000086014494968401B491B0902090A0002EE
:107D4000C91C000A814203D9012019494004086076
:107D500007B0F0BD01200E49400408600D494010F5
:107D600088600D4988600D4E012575602F20FEF753
:107D7000FBF9B56000252F206561FEF7F5F9257147
:107D800007B0F0BD001501402C2000204820002045
:107D900080E100E040130140001301400010014069
:107DA000FFFF7F0080E200E000E100E040150140BD
:107DB00000E200E010B508461146FEF777FA10BD64
:107DC000F8B53F4C2078002837D02069002807D02C
:107DD0000025E068002805D00026002D04D013E01F
:107DE0000125F6E70126F8E7684651DF052806D0A9
:107DF000002806D033A26921FEF74CFA04E00125E1
:107E000002E0216900988847002E12D160886946F7
:107E10000880A06861DF052806D0002806D029A2C6
:107E20008021FEF737FA04E0012602E0E168A0684D
:107E30008847002DD8D0002ECFD0F8BD002901D121
:107E40000720704730B48C0702D0072030BC704741
:107E50001B4CA16062802949636010DF0028F5D1C6
:107E600001202070162026DF30BC704711DF00286B
:107E700001D0012100E00021114A11707047002853
:107E800003D00F49C860002070470E2070470028BB
:107E900003D00B490861002070470E20704710B5D1
:107EA00007484068002808D08047002804D0FF21F8
:107EB00004A23331FEF7EEF910BDFFF781FF10BDCC
:107EC000502000202E2E5C2E2E5C2E2E5C2E2E5C42
:107ED0002E2E5C536F757263655C73645F636F6DA8
:107EE0006D6F6E5C736F66746465766963655F68F9
:107EF000616E646C65722E6300000000B57D010048
:107F0000F8B5042A2CD3830712D00B78491C0370D0
:107F1000401C521E83070BD00B78491C0370401C79
:107F2000521E830704D00B78491C0370401C521E5C
:107F30008B079B0F05D0C91ADF002023DE1B08C961
:107F40000AE0FEF721F9F8BD1D4608C9FD401C46B0
:107F5000B4402C4310C0121F042AF5D2F308C91AEA
:107F6000521EF0D40B78491C0370401C521EEAD4F8
:107F70000B78491C0370401C521EE4D40978017030
:107F8000F8BD01E004C0091F0429FBD28B0701D50D
:107F90000280801CC90700D00270704700290BD0F6
:107FA000C30702D00270401C491E022904D3830774
:107FB00002D50280801C891EE3E70022EEE7002242
:107FC000DFE7002203098B4273D3030A8B4258D3A5
:107FD000030B8B423CD3030C8B4221D312E00346AC
:107FE0000B437FD4002243088B4274D303098B4296
:107FF0005FD3030A8B4244D3030B8B4228D3030C79
:108000008B420DD3FF22090212BA030C8B4202D31A
:108010001212090265D0030B8B4219D300E0090A42
:10802000C30B8B4201D3CB03C01A5241830B8B424B
:1080300001D38B03C01A5241430B8B4201D34B0334
:10804000C01A5241030B8B4201D30B03C01A524199
:10805000C30A8B4201D3CB02C01A5241830A8B421E
:1080600001D38B02C01A5241430A8B4201D34B0207
:10807000C01A5241030A8B4201D30B02C01A52416B
:10808000CDD2C3098B4201D3CB01C01A524183091F
:108090008B4201D38B01C01A524143098B4201D359
:1080A0004B01C01A524103098B4201D30B01C01A84
:1080B0005241C3088B4201D3CB00C01A52418308FE
:1080C0008B4201D38B00C01A524143088B4201D32B
:1080D0004B00C01A5241411A00D20146524110468B
:1080E00070475DE0CA0F00D04942031000D3404200
:1080F000534000229C4603098B422DD3030A8B4236
:1081000012D3FC22890112BA030A8B420CD38901D3
:1081100092118B4208D3890192118B4204D38901B9
:108120003AD0921100E08909C3098B4201D3CB01F7
:10813000C01A524183098B4201D38B01C01A5241AC
:1081400043098B4201D34B01C01A524103098B42B0
:1081500001D30B01C01A5241C3088B4201D3CB009B
:10816000C01A524183088B4201D38B00C01A52417E
:10817000D9D243088B4201D34B00C01A5241411A55
:1081800000D20146634652415B10104601D3404283
:10819000002B00D54942704763465B1000D3404234
:1081A00001B50020C046C04602BD70477047704709
:1081B000754600F023F8AE46050069465346C008F0
:1081C000C000854618B020B5FEF70EF860BC002749
:1081D0004908B6460026C0C5C0C5C0C5C0C5C0C593
:1081E000C0C5C0C5C0C5403D49008D467047044666
:1081F000C046C0462046FDF7B0FF0000004870476B
:10820000B025002001491820ABBEFEE72600020081
:10821000704723D1BCEA5F782315DEEF121200000D
:1082200000000000448201000020002064000000E3
:1082300004610100A882010064200020AC15000048
:10824000206101000024F4000000FFFF0000000096
:10825000000000000000000000000000000000001E
:10826000000000000000000000000000000000000E
:1082700000000000000000000000000000000000FE
:1082800000000000000000000000000000000000EE
:1082900000000000000000000000000000000000DE
:0882A0000000000000000000D6
:04000005000160C1D5
:00000001FF
